:100000000C947C000C94A4000C94A4000C94A40008
:100010000C94A4000C94A4000C94A4000C94A400D0
:100020000C94A4000C94A4000C94A4000C94A400C0
:100030000C94A4000C94A4000C94A4000C94A400B0
:100040000C94A4000C94A4000C94CB010C94A40078
:100050000C94000D0C94DA0C0C94A4000C94A400E5
:100060000C94A4000C94A4000C94A4000C94A40080
:100070000000000102000000000000000403080767
:100080000000000000000000000000000000000070
:1000900000002200250028002B0000002100240081
:1000A00027002A00020202020202020204040404DF
:1000B0000404040403030303030303030101010114
:1000C000010101010102040810204080010204081E
:1000D0001020408001020408102040808040201041
:1000E000080402017C3C3E5E2B3D3F2F5B5D3B2CB8
:1000F0002A225C003713FB0F11241FBECFEFD0E183
:10010000DEBFCDBF11E0A0E0B1E0E4E5FCE202C05B
:1001100005900D92A23BB107D9F724E0A2EBB1E024
:1001200001C01D92A83BB207E1F710E0CBE7D0E099
:1001300004C02197FE010E948413CA37D107C9F772
:100140000E94FF0F0C941D160C940000FC01918D71
:10015000228D892F90E0805C9F4F821B91098F73C5
:100160009927089580E090E0892B29F00E94F90BEF
:1001700081110C94000008953FB7F8948091BD015F
:100180009091BE01A091BF01B091C00126B5A89B7E
:1001900005C02F3F19F00196A11DB11D3FBFBA2F19
:1001A000A92F982F8827820F911DA11DB11DBC0179
:1001B000CD0142E0660F771F881F991F4A95D1F73E
:1001C0000895DC015996ED91FC915A973097B9F05A
:1001D00083899489A589B689428553856485758507
:1001E000841B950BA60BB70B811520E89207A10580
:1001F000B10538F08FEF9FE7A0E0B0E0089580E010
:1002000090E00895CF93DF931F92CDB7DEB7698357
:10021000DC01ED91FC910280F381E02D41E050E0A2
:10022000BE016F5F7F4F09950F90DF91CF910895C9
:10023000FC01848DDF01A80FB11DA35ABF4F2C9183
:10024000848D90E001968F739927848FA689B78952
:100250002C93A089B1898C9180648C93938D848D2B
:10026000981306C00288F389E02D80818F7D8083FA
:10027000089590E0FC01E059FF4F3491FC01EC53EC
:10028000FF4F2491FC01EC55FF4FE491EE2309F45C
:100290003BC0332339F1333091F038F43130A9F0D9
:1002A000323001F584B58F7D12C0373091F038308F
:1002B000A1F03430B9F4809180008F7D03C080912B
:1002C00080008F77809380000DC084B58F7784BDC8
:1002D00009C08091B0008F7703C08091B0008F7DFE
:1002E0008093B000F0E0EE0FFF1FE057FF4FA591A5
:1002F000B4918FB7F894EC91611103C020952E232F
:1003000001C02E2B2C938FBF08958F929F92AF9296
:10031000BF92CF92DF92EF92FF926B017C010E941D
:10032000BC004B015C01C114D104E104F104F1F003
:100330000E94BC00DC01CB0188199909AA09BB09FC
:10034000883E9340A105B10570F321E0C21AD1089F
:10035000E108F10888EE880E83E0981EA11CB11C0C
:10036000C114D104E104F10419F7DDCFFF90EF903F
:10037000DF90CF90BF90AF909F908F9008952FB750
:10038000F8946091B9017091BA018091BB0190918C
:10039000BC012FBF08951F920F920FB60F92112428
:1003A0002F933F938F939F93AF93BF938091B90106
:1003B0009091BA01A091BB01B091BC013091B801FC
:1003C00023E0230F2D3720F40196A11DB11D05C098
:1003D00026E8230F0296A11DB11D2093B80180933A
:1003E000B9019093BA01A093BB01B093BC01809175
:1003F000BD019091BE01A091BF01B091C0010196D5
:10040000A11DB11D8093BD019093BE01A093BF01BA
:10041000B093C001BF91AF919F918F913F912F9168
:100420000F900FBE0F901F9018958FB7F894809182
:10043000B3018FBF089561E0FC0184810E943901FE
:100440008091B20181111092B20108958EBD000019
:100450000DB407FEFDCF8EB508958FEF0C942602E4
:100460000F931F93CF93DF93EB010E94BF018B018A
:100470000E942D028F3F49F00E94BF01601B710B4B
:100480006C177D07A8F380E001C081E0DF91CF9178
:100490001F910F910895CF93DF93EC018E818823F4
:1004A00089F08F8198859C012F5F3F4F38872F837C
:1004B0008230924018F40E942D02F3CFCE010E94A8
:1004C0001B021E82DF91CF9108958CBD9DBD0895C2
:1004D000CF93DF93EC018091B201811109C081E0DB
:1004E0008093B20180916304909164040E9465023C
:1004F00060E08C81DF91CF910C943901CF92DF9233
:10050000FF920F931F93CF93DF9300D000D0CDB70E
:10051000DEB76C01F62E29833A834B835C830E94FD
:100520004B02C6010E9468026CE271E0C6010E94A3
:1005300030028F2D80640E94260208E110E05C8169
:100540004B813A812981DA01C901002E04C0B69598
:10055000A795979587950A94D2F729833A834B8379
:100560005C830E9426020850110929813A814B813F
:100570005C81083F8FEF180731F7FF2029F0E8E092
:10058000FE1204C087E803C085E901C08FEF0E9416
:10059000260210E00E942D02F601828787FF04C028
:1005A0001F3F11F01F5FF6CF0F900F900F900F902D
:1005B000DF91CF911F910F91FF90DF90CF90089521
:1005C000AF92BF92CF92DF92EF92FF920F931F9361
:1005D000CF93DF93EC016901C801820F931F813033
:1005E000924008F070C08E81882371F088819981D3
:1005F000AA81BB81481759076A077B0729F48F81B5
:100600009885C816D906B0F5488359836A837B83D9
:100610008B85833039F089E0440F551F661F771FA3
:100620008A95D1F79A01AB0161E1CE010E947E0269
:10063000882319F083E08D8346C00E94BF015B01CF
:100640000E942D028A878F3F49F40E94BF016A19D8
:100650007B096D327140A0F38FE003C08E3F31F013
:100660008DE08D83CE010E941B022DC018861F8253
:1006700081E08E838F8198858C159D0540F40E94C2
:100680002D028F819885019698878F83F3CF67011C
:10069000E00EF11ECE14DF0431F00E942D02F601AF
:1006A00081936F01F7CF8F819885080F191F1887E5
:1006B0000F838985882319F00115124048F0CE0177
:1006C0000E944B0205C0CE010E941B0280E001C0C7
:1006D00081E0DF91CF911F910F91FF90EF90DF901C
:1006E000CF90BF90AF900895EF92FF920F931F931A
:1006F000CF93DF93EC017901411551056105710537
:1007000011F482E13CC08B85833039F089E0440FDD
:10071000551F661F771F8A95D1F79A01AB0168E1D3
:10072000CE010E947E02882311F084E028C08EEF63
:100730000E94260287018EEFF81AF80181918F013D
:100740000E9426020E151F05C1F78FEF0E94260298
:100750008FEF0E9426020E942D028A878F718530BA
:1007600031F081E18D83CE010E941B0209C068E552
:1007700072E0CE010E943002811107C085E18D83B5
:10078000CE010E941B0280E013C020E030E0A901EE
:100790006DE0CE010E947E02811104C00E942D02F4
:1007A000882311F084E1EBCFCE010E941B0281E08F
:1007B000DF91CF911F910F91FF90EF90089580915D
:1007C000C5018823A9F14091000150910101609178
:1007D00002017091030126EC31E08091C3019091F8
:1007E000C4010E947403811102C080E00895409109
:1007F000B4015091B5016091B6017091B7014115F6
:1008000051056105710591F026EC31E08091C3013D
:100810009091C4010E947403882339F31092B401AB
:100820001092B5011092B6011092B7011092C50155
:1008300081E008958F929F92AF92BF92EF92FF92C4
:100840000F931F93CF934B015C01C42F8091000144
:1008500090910101A0910201B091030188159905C1
:10086000AA05BB0501F10E94DF03811102C080E0EF
:1008700020C086ECE82E81E0F82E00E012E020E0B7
:1008800030E0B501A4018091C3019091C4010E94A0
:10089000E002882361F38092000190920101A0920E
:1008A0000201B09203018091C501C82BC093C5011C
:1008B00081E0CF911F910F91FF90EF90BF90AF908B
:1008C0009F908F9008954F925F926F927F928F9238
:1008D0009F92AF92BF92CF92DF92EF92FF920F93CF
:1008E0001F93CF93DF93EC016A017B01280139014B
:1008F000423051056105710510F480E073C08985AF
:100900009A85AB85BC850196A11DB11D84179507FD
:10091000A607B70790F38B889C88AD88BE888F891F
:10092000803129F4BB27AF2D9E2D8D2D09C0DB0111
:10093000CA0147E0B695A795979587954A95D1F74F
:10094000880E991EAA1EBB1E809100019091010184
:10095000A0910201B091030188169906AA06BB0670
:1009600079F48F898031A1F4DD24EE24FF24C601BF
:10097000880F991FFC01EA53FE4F5182408219C033
:1009800040E0C501B4010E941A048111EACFB5CF3D
:10099000E894C7F8DD24EE24FF24C601880F991FD0
:1009A000880F991FFC01EA53FE4F408251826282F8
:1009B00073828091C50181608093C5018A898230EC
:1009C00080F08D819E81AF81B885880E991EAA1E08
:1009D000BB1E8092B4019092B501A092B601B09274
:1009E000B70181E0DF91CF911F910F91FF90EF90C0
:1009F000DF90CF90BF90AF909F908F907F906F903F
:100A00005F904F9008958F929F92AF92BF92CF9236
:100A1000DF92EF92FF920F931F93CF93DF93FC012E
:100A200081859285A385B4850196A11DB11D84178A
:100A30009507A607B70710F480E05CC08389948906
:100A4000A589B689C789C03129F4852E962EA72E8F
:100A5000BB2409C04A015B01C7E0B694A7949794F0
:100A60008794CA95D1F7E9016A017B018F01BC0126
:100A7000CD01680D791D8A1D9B1D8090000190900D
:100A80000101A0900201B0900301681579058A0563
:100A90009B0599F4F80187898031A9F4B701A60173
:100AA000552766277727440F551FFA01EA53FE4F53
:100AB00080819181A0E0B0E018C040E00E941A045B
:100AC0008111E8CFB9CFB701A6014F775527662727
:100AD0007727440F551F440F551FFA01EA53FE4F65
:100AE00080819181A281B381BF7088839983AA8319
:100AF000BB8381E0DF91CF911F910F91FF90EF9029
:100B0000DF90CF90BF90AF909F908F9008954F92BD
:100B10005F926F927F92AF92BF92CF92DF92EF92ED
:100B2000FF920F931F93CF93DF9300D000D0CDB7E8
:100B3000DEB78C0149835A836B837C835901C12CB6
:100B4000D12C7601412C82E0582E612C712C4981E8
:100B50005A816B817C819E012F5F3F4FC8010E94AB
:100B60000305882351F1D301C201F801058404C0B3
:100B7000880F991FAA1FBB1F0A94D2F7C80ED91E4F
:100B8000EA1EFB1E49815A816B817C8187898031F5
:100B900029F088EF9FEFAFEFBFE004C088EF9FEF31
:100BA000A0E0B0E0481759076A077B0780F2F5011B
:100BB000C082D182E282F38281E00F900F900F9089
:100BC0000F90DF91CF911F910F91FF90EF90DF90E9
:100BD000CF90BF90AF907F906F905F904F900895AF
:100BE0008F929F92AF92BF92CF92DF92EF92FF923D
:100BF0000F931F93CF93DF93EC018D81811102C07E
:100C000080E077C00B891C892D893E890417150760
:100C100026073707A8F36A017B01823029F4CA86C8
:100C2000DB86EC86FD860DC0C114D104E104F1041D
:100C300051F41E821F82188619861A861B861C860E
:100C40001D8681E056C08A849B84AC84BD84EB8D74
:100C5000FC8D258530E0275F3F4FB501A401415051
:100C6000510961097109022E04C07695679557955F
:100C700047950A94D2F7D701C6010197A109B10996
:100C800004C0B695A795979587952A95D2F78417AE
:100C90009507A607B70720F089288A288B2849F4EA
:100CA0004F89588D698D7A8D4E835F8368877987E8
:100CB00004C0841B950BA60BB70B4C015D018E0184
:100CC0000A5F1F4F81149104A104B10409F4A7CF56
:100CD0004E815F816885798598018B8D9C8D0E94FE
:100CE000030591E0891A9108A108B1088111EACFA2
:100CF00087CFDF91CF911F910F91FF90EF90DF9001
:100D0000CF90BF90AF909F908F9008953F924F9259
:100D10005F926F927F928F929F92AF92BF92CF928B
:100D2000DF92EF92FF920F931F93CF93DF93CDB794
:100D3000DEB72C970FB6F894DEBF0FBECDBF5C01B7
:100D4000DC015B968D909C905C971696CD90DD9023
:100D5000ED90FC901997C114D104E104F10439F02D
:100D6000BFEFCB1ADB0AEB0AFB0A312C07C0F401F8
:100D7000C080D180E280F38033243394F4018185F4
:100D80009285A385B4859C01AD012F5F3F4F4F4FE6
:100D90005F4F29873A874B875C87260137011D8281
:100DA0001E821F821886F40181859285A385B485F1
:100DB0002D813E814F815885281739074A075B07E7
:100DC00008F063C089859A85AB85BC858C159D0527
:100DD000AE05BF0550F482E0C82ED12CE12CF12CD9
:100DE00092E0492E512C612C712C9E012F5F3F4FB8
:100DF000B701A601C4010E940305882309F445C078
:100E000089819A81AB81BC81892B8A2B8B2B41F004
:100E1000260137019FEF491A590A690A790A05C064
:100E2000C414D504E604F70491F02D813E814F816E
:100E300058852F5F3F4F4F4F5F4F2D833E834F832A
:100E400058873FEFC31AD30AE30AF30AACCF0FEF78
:100E50001FEF2FEF3FE0B301A201C4010E94630422
:100E6000882399F0D50116964D915D916D917C91F5
:100E70001997411551056105710549F093018201EA
:100E8000C4010E946304811102C080E02AC0D50120
:100E900016964D925D926D927C921997332051F087
:100EA000D301C2010196A11DB11DF401808391837C
:100EB000A283B383F5018789908DA18DB28D892B93
:100EC0008A2B8B2B69F4D50157964D925D926D92CA
:100ED0007C925A9714968C911497806814968C93F0
:100EE00081E02C960FB6F894DEBF0FBECDBFDF9128
:100EF000CF911F910F91FF90EF90DF90CF90BF9017
:100F0000AF909F908F907F906F905F904F903F90A9
:100F10000895CF93DF93EC018D818823A1F18C811B
:100F200087FF2DC06E857F858889998941E00E9461
:100F30001A04882341F1EA8980E2E89FF001112434
:100F4000DF01AA53BE4F1097F1F08D81823050F42B
:100F50004B895C896D897E895C964D935D936D9319
:100F60007C935F978F89988DA98DBA8DEA53FE4F38
:100F7000938F828FB58BA48B8C818F778C83DF913D
:100F8000CF910C94DF0380E0DF91CF910895CF9350
:100F9000DF93EC010E948907882311F01D8281E014
:100FA000DF91CF910895FC01818D928D009711F012
:100FB0000C94890708952F923F924F925F926F92FF
:100FC0007F928F929F92AF92BF92CF92DF92EF92D9
:100FD000FF920F931F93CF93DF9300D000D0CDB734
:100FE000DEB78C015B011A01DC0115968C91159717
:100FF0008130C9F414968C9181FF15C082FF1BC00B
:10100000F801438954896589768982859385A48509
:10101000B58584179507A607B70769F0C8010E9430
:10102000F005811108C081E090E0F801938382838C
:1010300080E090E039C1610183C0D8015B968D9159
:101040009C915C97FC01248121502A013B0139E0ED
:1010500076946794579447943A95D1F7722E7420FA
:101060007A01F1E0FF22772009F476C080E092E077
:101070008E199F0946018C159D0508F44C01D80175
:101080005B962D913C915C9716968D919D910D905C
:10109000BC91A02D0297A109B109F901058404C0F2
:1010A000880F991FAA1FBB1F0A94D2F74685578540
:1010B00060897189840F951FA61FB71F9C01AD0120
:1010C000270D311D411D511D29013A01811432E0C6
:1010D000930609F088C08091000190910101A091D0
:1010E0000201B091030184159505A605B70559F4D1
:1010F0008FEF9FEFDC018093000190930101A0939B
:101100000201B09303019501B301A2018091C301D3
:101110009091C4010E947403882309F484CF9EEF48
:10112000B91AC818D908F80182859385A485B585B0
:10113000880D991DA11DB11D82879387A487B5874E
:10114000D8011A964D915D916D917C911D97C114B6
:10115000D10409F072CF87C0E114F10409F086CF01
:1011600016964D915D916D917C91199741155105A0
:101170006105710559F457968D919D910D90BC9123
:10118000A02D0097A105B10541F521C09E012F5F5B
:101190003F4F0E940305882309F44BCF89819A8130
:1011A000AB81BC81F801238D348DF9012789203171
:1011B00029F048EF5FEF6FEF7FE004C048EF5FEF8B
:1011C00060E070E084179507A607B70730F0C80104
:1011D0000E94860681114ACF26CFF8018683978325
:1011E000A087B18743CFE114F10429F5D8011A96FD
:1011F0004D915D916D917C911D9753968D919D912F
:101200000D90BC91A02D481759076A077B0798F0ED
:101210000E94DF03882309F406CF40920001509218
:10122000010160920201709203018091C501816009
:101230008093C50108C041E0C301B2010E941A04B5
:10124000882309F4F0CED501F701EA53FE4FCF0110
:10125000880D991DE817F90719F02D912193FACF00
:10126000A80CB91C5ECF53968D919D910D90BC91A9
:10127000A02D84179507A607B70740F4F801438B04
:10128000548B658B768B848180688483D801149617
:101290008C9183FD02C0C10107C0C8010E9489076B
:1012A000882309F4C0CEF7CF0F900F900F900F90C6
:1012B000DF91CF911F910F91FF90EF90DF90CF9032
:1012C000BF90AF909F908F907F906F905F904F9066
:1012D0003F902F900895CF93DF931F92CDB7DEB745
:1012E000698341E050E0BE016F5F7F4F0E94DB07E2
:1012F0000F90DF91CF910895CF93DF93EC01898D0B
:101300009A8D009739F481E090E09B838A8380E096
:1013100090E00BC0FC01138212820E94DB07E98D72
:10132000FA8D22813381232B71F7DF91CF910895BC
:10133000FC01DB0112968D919C911397938382831C
:1013400081E491E09183808314968C911497848337
:1013500015968C911597858316964D915D916D919B
:101360007C91199746835783608771871A964D91B0
:101370005D916D917C911D97428753876487758736
:101380001E964D915D916D917C915197468757873F
:10139000608B718B52968C915297828B53964D91A4
:1013A0005D916D917C915697438B548B658B768BB9
:1013B00057964D915D916D917C915A97478B508FC7
:1013C000618F728F5B968D919C915C97948F838FC8
:1013D0000895EF92FF920F931F93CF93DF93EC0149
:1013E0007B018A011B821A8288EE93E0A0E0B0E0C4
:1013F0008C839D83AE83BF838FE091E09983888344
:101400008DE190E00E948A139A8F898F009779F07E
:101410002DE1F701DC0101900D922A95E1F74CE0F6
:1014200050E0B801CE010C960E94A315188EDF91F2
:10143000CF911F910F91FF90EF9008952F923F92BF
:101440004F925F926F927F928F929F92AF92BF92D4
:10145000CF92DF92EF92FF920F931F93CF93DF9380
:1014600000D0CDB7DEB7FC018581882309F4D9C04F
:10147000848180FFD6C021E02A834389548965890D
:10148000768982859385A485B585481759076A07AB
:101490007B0709F41A826F013A81832F90E0DE0105
:1014A00011964D013F01B6E06B0E711C892B09F4BA
:1014B0007DC0D6011A964D915D916D917C911D97DD
:1014C0005A01B1E0BB22F60125811A012B0189E006
:1014D00056944794379427948A95D1F7838D948DA9
:1014E000223061F4FC01828D938DA48DB58DBC01F9
:1014F000CD01620D731D841D951D45C0DC01149640
:101500001C9111501221A114B104D1F4111118C071
:10151000452B462B472B51F4F6018789908DA18DE1
:10152000B28D86839783A087B1870AC04681578191
:101530006085718593010E940305882309F471C0B9
:10154000F601238D348D86819781A085B185029720
:10155000A109B109AC01BD01F901058404C0440F22
:10156000551F661F771F0A94D2F786859785A08935
:10157000B189840F951FA61FB71FBC01CD01610F54
:10158000711D811D911DD60114962C9126FF14C04A
:10159000009100011091010120910201309103019D
:1015A000601771078207930751F506C0FA81FF2380
:1015B000C1F1898190E037C040E00E941A0488237D
:1015C00081F1F501EA53FE4FD401CF010196E817EE
:1015D000F90719F021912D93FACFEFEF8E1A9E0A99
:1015E000F60182859385A485B5850196A11DB11D5F
:1015F00082879387A487B58780E090E057CF7401F6
:1016000001E010E09501AB01BC018091C301909114
:10161000C4010E94E002882321F0BFEF8B1A9B0ACD
:10162000DFCF8FEF9FEF0F900F90DF91CF911F9142
:101630000F91FF90EF90DF90CF90BF90AF909F9071
:101640008F907F906F905F904F903F902F90089574
:10165000FC01818D928D009711F00C941E0A8FEF82
:101660009FEF08950F931F93CF93DF93FC01818D1C
:10167000928D0097B9F0EF010E941E0A8C010F3F76
:101680008FEF180791F0898D9A8DFC014285538563
:101690006485758541505109610971090E94F00501
:1016A000C80105C080E090E002C08FEF9FEFDF919E
:1016B000CF911F910F910895EF92FF920F931F9377
:1016C000CF93DF9300D0CDB7DEB740E050E061EBC1
:1016D00071E08EEA94E00E94950CF12C86EC93E088
:1016E0000E94A600892B69F186EC93E00E94D70B3B
:1016F000E82E89831A820091B2041091B3040F5F1F
:101700001F4FB8018EEA94E00E946E0C882399F076
:101710002091AE043091AF048091B2049091B30453
:10172000BE016F5F7F4F820F931F0E949C15109325
:10173000B3040093B2048DE0E812D0CFFF24F394F9
:10174000CDCFFF2059F20F900F90DF91CF911F91D5
:101750000F91FF90EF900895CF92DF92EF92FF925A
:101760000F931F93CF93DF936C017A018B01C0E03D
:10177000D0E0CE15DF0589F0D8016D918D01D6013D
:10178000ED91FC910190F081E02DC6010995892B26
:1017900011F47E0102C02196ECCFC701DF91CF91F9
:1017A0001F910F91FF90EF90DF90CF900895FC0173
:1017B000918D828D981761F0828DDF01A80FB11D88
:1017C0005D968C91928D9F5F9F73928F90E00895AC
:1017D0008FEF9FEF0895FC01918D828D981731F066
:1017E000828DE80FF11D858D90E008958FEF9FEFBA
:1017F000089586EC93E00E94A60021E0892B09F46D
:1018000020E0822F08950E948115EF92FF920F939E
:101810001F93CF93DF93EC0181E0888F9B8D8C8D9C
:10182000981305C0E889F989808185FD24C0F62ECA
:101830000B8D10E00F5F1F4F0F731127E02E8C8D63
:10184000E8120CC00FB607FCFACFE889F98980814D
:1018500085FFF5CFCE010E941801F1CF8B8DFE01DF
:10186000E80FF11DE35AFF4FF0820B8FEA89FB89E5
:101870008081806207C0EE89FF896083E889F989E9
:1018800080818064808381E090E0DF91CF911F911F
:101890000F91FF90EF900895CF93DF93EC01888D27
:1018A0008823C9F0EA89FB89808185FD05C0A88964
:1018B000B9898C9186FD0FC00FB607FCF5CF8081EA
:1018C00085FFF2CFA889B9898C9185FFEDCFCE0134
:1018D0000E941801E7CFDF91CF9108950F931F93D6
:1018E000CF93DF93EC0188819981009729F02A81B9
:1018F0003B812617370788F48B016F5F7F4F0E946B
:10190000B714009761F0998388831B830A832C8125
:101910003D81232B11F4FC01108281E001C080E0A5
:10192000DF91CF911F910F910895EF92FF920F9346
:101930001F93CF93DF93EC017B018A01BA010E94D0
:101940006E0C2881398181110DC02115310519F0E6
:10195000C9010E941F14198218821D821C821B82D9
:101960001A8206C01D830C83B701C9010E949C1511
:10197000CE01DF91CF911F910F91FF90EF900895CD
:10198000FC01808191810C941F14FC011182108252
:1019900013821282158214826115710551F0FB01C8
:1019A00001900020E9F73197AF01461B570B0C94CB
:1019B000950C08951F920F920FB60F9211242F933A
:1019C0003F934F935F936F937F938F939F93AF93C7
:1019D000BF93EF93FF9386EC93E00E941801FF9171
:1019E000EF91BF91AF919F918F917F916F915F9197
:1019F0004F913F912F910F900FBE0F901F90189510
:101A00001F920F920FB60F9211242F938F939F93D3
:101A1000EF93FF93E091D603F091D7038081E0919B
:101A2000DC03F091DD0382FD12C090818091DF0321
:101A30008F5F8F732091E003821751F0E091DF03F5
:101A4000F0E0EA53FC4F958F8093DF0301C0808163
:101A5000FF91EF919F918F912F910F900FBE0F905B
:101A60001F901895CF93DF93EC016A8B8091000152
:101A700090910101A0910201B09103018E879F878F
:101A8000A88BB98B80E2689FF0011124EA53FE4FC6
:101A90004489558960E070E0BA01552744274F8B8F
:101AA000588F698F7A8F828D938DA0E0B0E0482B9C
:101AB000592B6A2B7B2B4F8B588F698F7A8F83859D
:101AC000887151F4848D958DA68DB78D8B8B9C8BF1
:101AD000AD8BBE8B81E00EC0803111F080E015C06F
:101AE0009E012D5E3F4F8B8D9C8D0E948705882324
:101AF000A9F384E08D8381E08C831E821F82188687
:101B000019861A861B861C861D86DF91CF91089543
:101B1000CF93DF93009779F0FC0101900020E9F763
:101B20003197AF01481B590BBC0186EC93E00E9432
:101B3000AC0BEC0102C0C0E0D0E042E050E06FEA44
:101B400071E086EC93E00E94AC0B8C0F9D1FDF913F
:101B5000CF910895CF93DF932091B2043091B304D5
:101B6000232B79F0FC01C091AE04D091AF046081C9
:101B70007181CE010E94B215009719F08C1B9D0B4C
:101B800002C08FEF9FEFDF91CF910895AF92BF9288
:101B9000CF92DF92EF92FF920F931F93CF93DF9339
:101BA000CDB7DEB72B970FB6F894DEBF0FBECDBF13
:101BB0007C01CE0101966C01FC0190E28BE08C0D62
:101BC00091938E13FDCFDA0120E037E09D919923A8
:101BD00039F19E3219F0E4EEF0E00AC03A3009F42F
:101BE000AAC028E03AE0F2CF3196891709F4A3C0E1
:101BF00084918111F9CF321708F49DC08FED890FC0
:101C00008E3508F098C081E0820FF601E20FF11DD9
:101C10002FE9290F2A3108F490529083282FD6CF2C
:101C20008981803209F487C08B01FB01838D948DFB
:101C3000F701948F838FFB0116821782108611861D
:101C40001286138614861586A12CF8018285938549
:101C5000A485B58543895489658976898417950754
:101C6000A607B70708F067C025E0B695A795979532
:101C700087952A95D1F7F82FFF70BF2EF80185813F
:101C8000823008F458C0C8010E941E0A97FD53C054
:101C9000F80182859385A485B5854F96A11DB11D58
:101CA00082879387A487B587F0E2BF9EC001112485
:101CB000BC016A537E4F61157105E9F1FB0120817A
:101CC0002223B9F1253EE1F04BE050E0C6010E942D
:101CD0008615892B09F0B9CF6B2DC7012B960FB64E
:101CE000F894DEBF0FBECDBFDF91CF911F910F9152
:101CF000FF90EF90DF90CF90BF90AF900C94320D9B
:101D0000A11014C0F701B28A409100015091010165
:101D1000609102017091030146875787608B718B38
:101D2000FC01EA53FE4F8081882329F0AA24A39462
:101D30008CCFAA2039F380E02B960FB6F894DEBF43
:101D40000FBECDBFDF91CF911F910F91FF90EF900C
:101D5000DF90CF90BF90AF9008958F929F92AF92F7
:101D6000BF92CF92DF92EF92FF92CF93DF93C82F73
:101D700085E694E09093C4018093C301CC2369F17C
:101D8000C53010F080E00DC140E060E070E0CB01B4
:101D90000E941A048823B1F320E1C29FC0011124DC
:101DA0008A549E4FFC01E254FE4F20812F7751F759
:101DB0003C964081518162817381443651056105B1
:101DC000710500F33497C080D180E280F380C114A4
:101DD000D104E104F10421F4D5CFC12CD12C76013A
:101DE00040E0C701B6010E941A04882359F280918D
:101DF000D1019091D2018115924021F6A091D60196
:101E0000AA2309F4BFCF6091D4017091D501611567
:101E1000710509F4B7CF2091D301222309F4B2CF81
:101E2000A09383042093750480E030E0E1E0F0E0CB
:101E3000C82FAF01082E02C0440F551F0A94E2F7C5
:101E40002417350741F0982F8F5F983089F789E084
:101E500080937E0497CF80937E042091DC013091A3
:101E6000DD012115310519F040E050E008C0209156
:101E7000EA013091EB014091EC015091ED0120938A
:101E800076043093770440937804509379044601A4
:101E90005701860E971EA11CB11C8092840490925B
:101EA0008504A0928604B0928704E091D701F09156
:101EB000D801F0938A04E0938904B0E00E94CC1525
:101EC000860E971EA81EB91E80928B0490928C04D9
:101ED000A0928D04B0928E0485E0EE0FFF1F8A95CC
:101EE000E1F7E150FE4FEF2FFF27E6958E0E9F1E84
:101EF000A11CB11C80927F0490928004A092810466
:101F0000B09282042091D9013091DA012115310576
:101F100021F0A90160E070E008C04091E601509115
:101F2000E7016091E8017091E901D701C6018819C4
:101F30009909AA09BB09840F951FA61FB71F04C0E2
:101F4000B695A79597958795CA95D2F780937A0409
:101F500090937B04A0937C04B0937D04853F2FE095
:101F60009207A105B10510F48CE018C0853F9F4F82
:101F7000A105B10510F480E111C08091F2019091AA
:101F8000F301A091F401B091F50180938B0490933B
:101F90008C04A0938D04B0938E0480E28093880417
:101FA00081E0DF91CF91FF90EF90DF90CF90BF90D5
:101FB000AF909F908F90089590E0FC01EC53FF4FFD
:101FC0002491FC01EC55FF4F8491882399F090E017
:101FD000880F991FFC01E656FF4FA591B491FC01B3
:101FE000E057FF4F859194918FB7F894EC91E22BD5
:101FF000EC938FBF08958EEA94E00C94C00CCF93BD
:10200000DF93CDB7DEB7C257D1090FB6F894DEBF64
:102010000FBECDBF789484B5826084BD84B58160E5
:1020200084BD85B5826085BD85B5816085BD8091A3
:102030006E00816080936E0010928100809181001B
:102040008260809381008091810081608093810013
:10205000809180008160809380008091B1008460D5
:102060008093B1008091B00081608093B000809136
:102070007A00846080937A0080917A0082608093F5
:102080007A0080917A00816080937A0080917A0052
:10209000806880937A001092C10068EC70E08EEA4C
:1020A00094E00E946E0CE091D603F091D70382E099
:1020B0008083E091D203F091D3031082E091D403A6
:1020C000F091D50380E180831092DE03E091DA0382
:1020D000F091DB0386E08083E091D803F091D9038F
:1020E000808180618083E091D803F091D903808161
:1020F00088608083E091D803F091D9038081806863
:102100008083E091D803F091D90380818F7D808313
:1021100061E4262E61E0362E78EE472E73E0572ECE
:10212000612C712CEFE0AE2EE1E0BE2EF1E78F2E98
:10213000F4E09F2E86EC93E00E94A600892B29F004
:1021400086EC93E00E94D70BF5CF6FE386EC93E02B
:102150000E94050C0E945C0B6DE471E0CE010196BB
:102160000E94C50CCE0101960E94AA0D8C01CE01E1
:1021700001960E94C00C17FD03C081E08093C2014C
:1021800062E571E0CE0101960E94C50CCE01019678
:102190000E94AA0D8C01CE0101960E94C00C17FF6F
:1021A0001092C20166E571E0CE0101960E94C50C55
:1021B000CE0101960E94AA0D8C01CE0101960E94CB
:1021C000C00C17FF1092C2016BE571E0CE010196C1
:1021D0000E94C50CCE0101960E94AA0D8C01CE0171
:1021E00001960E94C00C17FF1092C2018091C2019B
:1021F000882309F433C261E671E0CE0101960E94A2
:10220000C50CCE0101960E94AA0D8C01CE0101964B
:102210000E94C00C17FD22C21092700410926E042E
:1022200010926B0410926A0488E0809369040E9403
:10223000BF016B017C01809169040E94DC0F61E0A9
:10224000809169040E9439011FB7F8948091C101FF
:10225000811124C0E8EAF0E09491E8ECF0E0849188
:10226000E92FF0E0EE0FFF1FE656FF4FA591B49166
:102270009C91892321F461E084E00E94390184E08B
:102280000E94DC0F8CB580618CBD8CB580648CBDE8
:1022900087E00E94DC0F85E00E94DC0F8091C10185
:1022A0008F5F8093C1011FBF82E58093630410920A
:1022B000640480916304909164040E9465021AE0B2
:1022C0008FEF0E9426021150D9F7860185E694E02F
:1022D0000E94680220E030E0A90160E085E694E019
:1022E0000E947E02F82E80936F04E1E08E1749F081
:1022F0000E94BF01601B710B613D774058F381E084
:1023000056C02AEA31E040E050E068E085E694E01B
:102310000E947E0282FF03C0F092700410C044E06D
:10232000F42E0E942D0280936F04FA94F110F9CFDD
:102330008A3A11F082E03BC082E080937004809181
:102340007004823021F0C12CD12C760105C0C12C43
:10235000D12CE12C30E4F32E20E030E0A90167E33A
:1023600085E694E00E947E02A701960169E285E677
:1023700094E00E947E0280936F04882349F00E94BB
:10238000BF01601B710B613D774030F388E00FC0E7
:1023900080917004823001F520E030E0A9016AE309
:1023A00085E694E00E947E02882341F086E08093D7
:1023B0006A0485E694E00E941B028CC00E942D02F4
:1023C000807C803C19F483E0809370040E942D028D
:1023D0000E942D020E942D0285E694E00E941B02BD
:1023E00080E5809363041092640481E00E94AD0E46
:1023F000882329F080919404882341F06BC080E009
:102400000E94AD0E882309F465C0F4CF8091880442
:10241000803109F582E0809394041092A604109212
:10242000A7041092A8041092A904809189049091A5
:102430008A04A0E0B0E025E0880F991FAA1FBB1F07
:102440002A95D1F78093A2049093A304A093A404A7
:10245000B093A5041DC08032E9F583E08093940415
:1024600040918B0450918C0460918D0470918E0486
:102470004093A6045093A7046093A8047093A90402
:1024800022EA34E081E794E00E948705882311F175
:102490009092AB048092AA0481E0809393041092FE
:1024A000950410929604109297041092980410923A
:1024B000990410929A0410929B0410929C0410921A
:1024C0009D0410929E0410929F041092A0041092FA
:1024D000A10404C086E691E00E94880D6FE874E0D4
:1024E000CE0101960E949809BE016F5F7F4FCE0119
:1024F000CB960E94980919A218A23F8E2E8E1BA27D
:1025000021968FAD2197811116C06C961FAE1EAE1D
:102510006C97A0964CAE5DAE6EAE7FAEA0976A96FD
:10252000BFAEAEAE6A97E3961FAE1EAEE397A5961A
:102530001FAEA5972CC0825046E851E0823048F487
:102540006FE874E0CE014E960E94C60D81110EC058
:10255000DCCFBE01655C7F4FCE014E960E94C60D5A
:10256000882399F2CE01CB960E94C707BE01625E16
:102570007F4FCE0101960E94980946E851E0BE01C6
:102580006F5F7F4FCE01885A9F4F0E94E909E39603
:10259000EEADFFADE397309709F456C085818823EF
:1025A00009F452C0CE01885A9F4F0E94E100892B46
:1025B000C1F1CE01885A9F4F0E94280B803234F01F
:1025C000682F86EC93E00E94050CECCF8D3051F71C
:1025D00086EC93E00E94A600892B29F086EC93E01C
:1025E0000E94D70BF5CF6DE086EC93E00E94050CBE
:1025F0000E945C0B69E170E080E090E00E94850140
:1026000060E971E0CE0101960E94C50CCE010196F1
:102610000E94AA0D8C01CE0101960E94C00C17FDEC
:10262000C1CFE3968EAD9FADE397009789F00E94EE
:10263000C707E3968EAD9FADE3970E941F14E39604
:102640001FAE1EAEE39704C085E991E00E94880D9D
:1026500064EF71E080E090E00E94850164E670E044
:1026600080E090E00E9485010E94B20063CDE6EC1C
:10267000F3E01382128288EE93E0A0E0B0E084835E
:102680009583A683B78381E291E09183808385EC73
:1026900090E09587848784EC90E09787868780EC2C
:1026A00090E0918B808B81EC90E0938B828B82EC1D
:1026B00090E0958B848B86EC90E0978B868B118EC7
:1026C000128E138E148EE3E6F4E080E5808311828F
:1026D000E5E6F4E0158216821186138682E090E02A
:1026E000A0E0B0E084879587A687B78713A215A6D8
:1026F00014A681E491E093A782A717A661EB71E08D
:102700008EEA94E00C94C50CEE0FFF1F0590F49137
:10271000E02D0994CF93DF938230910510F482E08D
:1027200090E0E091B604F091B70420E030E0C0E022
:10273000D0E0309711F14081518148175907C0F01E
:102740004817590761F482819381209719F09B8380
:102750008A832BC09093B7048093B60426C02115BA
:10276000310519F04217530718F49A01BE01DF0131
:10277000EF010280F381E02DDCCF2115310509F155
:10278000281B390B2430310590F412968D919C91C1
:1027900013976115710521F0FB019383828304C0B7
:1027A0009093B7048093B604FD01329644C0FD01B6
:1027B000E20FF31F81939193225031092D933C93A3
:1027C0003AC02091B4043091B504232B41F42091F8
:1027D0000601309107013093B5042093B404209191
:1027E0000401309105012115310541F42DB73EB7A3
:1027F0004091080150910901241B350BE091B4046C
:10280000F091B504E217F307A0F42E1B3F0B281735
:10281000390778F0AC014E5F5F4F2417350748F059
:102820004E0F5F1F5093B5044093B404819391936E
:1028300002C0E0E0F0E0CF01DF91CF9108950F9367
:102840001F93CF93DF93009709F48CC0FC0132975C
:10285000138212820091B6041091B704011511057C
:1028600081F420813181820F931F2091B404309133
:10287000B5042817390779F5F093B504E093B4044B
:1028800071C0D80140E050E0AE17BF0750F4129677
:102890002D913C911397AD012115310509F1D90115
:1028A000F3CF9D01DA013383228360817181860F2A
:1028B000971F8217930769F4EC0128813981260F4D
:1028C000371F2E5F3F4F318320838A819B81938303
:1028D0008283452B29F4F093B704E093B60442C0F9
:1028E0001396FC93EE931297ED01499159919E0135
:1028F000240F351FE217F30771F480819181840F53
:10290000951F029611969C938E93828193811396C4
:102910009C938E931297E0E0F0E0D80112968D918F
:102920009C911397009719F0F8018C01F6CF8D91C7
:102930009C9198012E5F3F4F820F931F2091B4040A
:102940003091B5042817390769F4309729F41092AB
:10295000B7041092B60402C0138212821093B50419
:102960000093B404DF91CF911F910F910895A0E0DF
:10297000B0E0EDEBF4E10C94DB15EC01009721F4F1
:10298000CB010E948A13B8C0FC01E60FF71F9C011F
:1029900022503109E217F30708F4ACC0D9010D91B8
:1029A0001C91119706171707B0F00530110508F4B0
:1029B0009FC0C80104978617970708F499C0025072
:1029C0001109061B170B019311936D937C93CF0193
:1029D0000E941F148DC05B01A01AB10A4C01800E29
:1029E000911EA091B604B091B70440E050E0E12CF4
:1029F000F12C109709F44AC0A815B905D1F56D90CE
:102A00007C901197630182E0C80ED11CCA14DB04CC
:102A100080F1A3014A195B096A0182E0C80ED11C4A
:102A20001296BC9012971396AC91B5E0CB16D104D8
:102A300040F0B282A38351834083D9016D937C938C
:102A40000AC00E5F1F4FC301800F911FF9019183D0
:102A50008083EB2DFA2FE114F10431F0D7011396A6
:102A6000FC93EE93129744C0F093B704E093B6043E
:102A70003FC08D919C9111974817590708F4AC01FC
:102A80007D0112960D90BC91A02DB3CF8091B4041E
:102A90009091B50488159905E1F446175707C8F4D5
:102AA0008091040190910501009741F48DB79EB784
:102AB0004091080150910901841B950BE817F90713
:102AC000C8F4F093B504E093B404F9017183608312
:102AD0000FC0CB010E948A137C01009759F0A80116
:102AE000BE010E949315CE010E941F14C70104C0AD
:102AF000CE0102C080E090E0CDB7DEB7EEE00C94EE
:102B0000F71581E090E0F8940C941D16FB01DC01B0
:102B100004C08D910190801921F441505040C8F7B4
:102B2000881B990B0895FB01DC0102C001900D92F6
:102B300041505040D8F70895FB01DC0101900D92FF
:102B40000020E1F70895FB01DC014150504048F0BE
:102B500001900D920020C9F701C01D9241505040D4
:102B6000E0F70895FB0151915523A9F0BF01DC0165
:102B70004D9145174111E1F759F4CD010190002025
:102B800049F04D9140154111C9F3FB014111EFCFBF
:102B900081E090E0019708950E940E16A59F900D88
:102BA000B49F900DA49F800D911D112408952F9224
:102BB0003F924F925F926F927F928F929F92AF92CD
:102BC000BF92CF92DF92EF92FF920F931F93CF931A
:102BD000DF93CDB7DEB7CA1BDB0B0FB6F894DEBFB1
:102BE0000FBECDBF09942A88398848885F846E84D7
:102BF0007D848C849B84AA84B984C884DF80EE8021
:102C0000FD800C811B81AA81B981CE0FD11D0FB629
:102C1000F894DEBF0FBECDBFED010895A29FB001B5
:102C2000B39FC001A39F700D811D1124911DB29F00
:102C3000700D811D1124911D089510E0CBE7D0E0A7
:102C400004C0FE010E9484132196CC37D107C9F736
:042C5000F894FFCF26
:102C5400FFFFFFFF0000B804800000000000000236
:102C6400017C09E100280B320BD3070000000000AF
:102C740000050CAC0BA600D70BEB0B4C0C000000B2
:102C840000030CAC0B030C030C030C030C0000003E
:102C9400006B09AC0B00000000030CAC0B49646C26
:102CA400650052756E00486F6C6400416C61726D12
:102CB40000506E3A530028534420436172642066E6
:102CC40061696C6564206F72206E6F742070726528
:102CD40073656E74290067636F64652E747874007D
:102CE400506E3A5200286572726F72206F70656E72
:102CF400696E672067636F64652E74787429000DAC
:022D04000A00C3
:10FC00001F92CDB7DEB7112484B714BE81FFD9D0BF
:10FC100085E08093810082E08093C00088E180933A
:10FC2000C10086E08093C20080E18093C4008EE032
:10FC3000B3D0209A26E080E39CEF31E090938500DA
:10FC40008093840036BBB09BFECF189AA8952150B4
:10FC5000A9F7812C912CEE24E39495E0D92E21E193
:10FC6000C22E33E0F32E8CD0813471F489D0898395
:10FC700099D08981823809F41EC0813811F485E059
:10FC800001C083E076D072C0823411F484E103C0F5
:10FC9000853419F485E08ED069C0853541F470D083
:10FCA000882E6ED0912C982A880C991C5EC08635BF
:10FCB00021F484E07FD080E0E5CF843609F03AC0BB
:10FCC0005FD05ED0B82E5CD0811480EE980618F418
:10FCD000F401F7BEE89500E011E052D0F8018193FD
:10FCE0008F01BE12FACF8114F0EE9F0618F0F401D6
:10FCF000F7BEE89557D007B600FCFDCFF401A0E0B1
:10FD0000B1E08C9111962C91119790E0922B129664
:10FD10000C01E7BEE89511243296A11582E0B807E0
:10FD200081F7F401D7BEE89507B600FCFDCFC7BE4A
:10FD3000E8951CC0843761F423D022D0182F20D03E
:10FD400031D0F40185914F0114D01150D1F70EC07C
:10FD5000853739F427D08EE10CD086E90AD089E0C6
:10FD600091CF813511F488E017D01CD080E101D00B
:10FD70007ACF9091C00095FFFCCF8093C600089584
:10FD80008091C00087FFFCCF8091C00084FD01C03E
:10FD9000A8958091C6000895E0E6F0E098E1908390
:10FDA00080830895EDDF803219F088E0F5DFFFCF22
:10FDB00084E1DFCFCF93C82FE3DFC150E9F7CF91C4
:0EFDC000F1CF282E80E0E8DFEE27FF27099420
:02FFFE000005FC
:040000030000FC00FD
:00000001FF
