:100000000C9466000C948E000C948E000C948E0060
:100010000C948E000C948E000C948E000C948E0028
:100020000C948E000C948E000C948E000C948E0018
:100030000C948E000C948E000C948E000C948E0008
:100040000C947E010C948E000C94560E0C94300E81
:100050000C948E000C948E000C948E000C948E00E8
:100060000C948E000C948E00000000080002010029
:100070000003040700000000000000000000000072
:10008000250028002B0000000000240027002A0083
:10009000040404040404040402020202020203032E
:1000A0000303030301020408102040800102040836
:1000B00010200102040810207C3C3E5E2B3D3F2FA7
:1000C0005B5D3B2C2A225C00B912341111241FBE47
:1000D000CFEFD8E0DEBFCDBF11E0A0E0B1E0E8E5B2
:1000E000FBE202C005900D92A436B107D9F724E0D7
:1000F000A4E6B1E001C01D92A936B207E1F710E015
:10010000C5E6D0E004C02197FE010E940613C43664
:10011000D107C9F70E943A110C949F150C94000066
:100120003FB7F89480916F0190917001A091710197
:10013000B091720126B5A89B05C02F3F19F001961A
:10014000A11DB11D3FBFBA2FA92F982F8827820F5D
:10015000911DA11DB11DBC01CD0142E0660F771FAD
:10016000881F991F4A95D1F70895DC015996ED91A2
:10017000FC915A973097B9F083899489A589B689FB
:100180004285538564857585841B950BA60BB70B3B
:10019000811520E89207A105B10538F08FEF9FE7A0
:1001A000A0E0B0E0089580E090E00895CF93DF9361
:1001B0001F92CDB7DEB76983DC01ED91FC9102801F
:1001C000F381E02D41E050E0BE016F5F7F4F099564
:1001D0000F90DF91CF91089590E0FC01E859FF4F17
:1001E0003491FC01EC55FF4F2491FC01E057FF4F87
:1001F000E491EE2309F43BC0332339F1333091F01D
:1002000038F43130A9F0323001F584B58F7D12C059
:10021000373091F03830A1F03430B9F4809180005B
:100220008F7D03C0809180008F77809380000DC008
:1002300084B58F7784BD09C08091B0008F7703C0EB
:100240008091B0008F7D8093B000F0E0EE0FFF1F33
:10025000E458FF4FA591B4918FB7F894EC916111D8
:1002600003C020952E2301C02E2B2C938FBF089501
:100270008F929F92AF92BF92CF92DF92EF92FF92B6
:100280006B017C010E9490004B015C01C114D10400
:10029000E104F104F1F00E949000DC01CB01881927
:1002A0009909AA09BB09883E9340A105B10570F3DD
:1002B00021E0C21AD108E108F10888EE880E83E037
:1002C000981EA11CB11CC114D104E104F10419F75A
:1002D000DDCFFF90EF90DF90CF90BF90AF909F90D9
:1002E0008F9008952FB7F89460916B0170916C0115
:1002F00080916D0190916E012FBF08951F920F9212
:100300000FB60F9211242F933F938F939F93AF9328
:10031000BF9380916B0190916C01A0916D01B091A0
:100320006E0130916A0123E0230F2D3720F40196EE
:10033000A11DB11D05C026E8230F0296A11DB11D08
:1003400020936A0180936B0190936C01A0936D01DF
:10035000B0936E0180916F0190917001A091710135
:10036000B09172010196A11DB11D80936F01909310
:100370007001A0937101B0937201BF91AF919F91F1
:100380008F913F912F910F900FBE0F901F90189556
:100390008FB7F894809165018FBF089561E0FC01EB
:1003A00084810E94EC0080916401811110926401AB
:1003B00008958EBD00000DB407FEFDCF8EB50895E3
:1003C0008FEF0C94D9010F931F93CF93DF93EB0121
:1003D0000E9472018B010E94E0018F3F49F00E9450
:1003E0007201601B710B6C177D07A8F380E001C0E0
:1003F00081E0DF91CF911F910F910895CF93DF930B
:10040000EC018E81882389F08F8198859C012F5F74
:100410003F4F38872F838230924018F40E94E001CA
:10042000F3CFCE010E94CE011E82DF91CF910895BD
:100430008CBD9DBD0895CF93DF93EC018091640145
:10044000811109C081E0809364018091140490912E
:1004500015040E94180260E08C81DF91CF910C940A
:10046000EC00CF92DF92FF920F931F93CF93DF9315
:1004700000D000D0CDB7DEB76C01F62E29833A83C9
:100480004B835C830E94FE01C6010E941B026CE24A
:1004900071E0C6010E94E3018F2D80640E94D901A2
:1004A00008E110E05C814B813A812981DA01C901C0
:1004B000002E04C0B695A795979587950A94D2F714
:1004C00029833A834B835C830E94D9010850110928
:1004D00029813A814B815C81083F8FEF180731F702
:1004E000FF2029F0E8E0FE1204C087E803C085E998
:1004F00001C08FEF0E94D90110E00E94E001F601D7
:10050000828787FF04C01F3F11F01F5FF6CF0F9057
:100510000F900F900F90DF91CF911F910F91FF904F
:10052000DF90CF900895AF92BF92CF92DF92EF927B
:10053000FF920F931F93CF93DF93EC016901C801E2
:10054000820F931F8130924008F070C08E81882303
:1005500071F088819981AA81BB81481759076A0780
:100560007B0729F48F819885C816D906B0F5488392
:1005700059836A837B838B85833039F089E0440F0C
:10058000551F661F771F8A95D1F79A01AB0161E16C
:10059000CE010E943102882319F083E08D8346C08A
:1005A0000E9472015B010E94E0018A878F3F49F43B
:1005B0000E9472016A197B096D327140A0F38FE0CD
:1005C00003C08E3F31F08DE08D83CE010E94CE01BD
:1005D0002DC018861F8281E08E838F8198858C15AF
:1005E0009D0540F40E94E0018F81988501969887CF
:1005F0008F83F3CF6701E00EF11ECE14DF0431F0DC
:100600000E94E001F60181936F01F7CF8F819885F9
:10061000080F191F18870F838985882319F0011582
:10062000124048F0CE010E94FE0105C0CE010E949A
:10063000CE0180E001C081E0DF91CF911F910F9149
:10064000FF90EF90DF90CF90BF90AF900895EF9222
:10065000FF920F931F93CF93DF93EC017901411524
:1006600051056105710511F482E13CC08B85833031
:1006700039F089E0440F551F661F771F8A95D1F71F
:100680009A01AB0168E1CE010E943102882311F08A
:1006900084E028C08EEF0E94D90187018EEFF81AFE
:1006A000F80181918F010E94D9010E151F05C1F734
:1006B0008FEF0E94D9018FEF0E94D9010E94E001C3
:1006C0008A878F71853031F081E18D83CE010E9460
:1006D000CE0109C068E572E0CE010E94E3018111FC
:1006E00007C085E18D83CE010E94CE0180E013C05A
:1006F00020E030E0A9016DE0CE010E9431028111BD
:1007000004C00E94E001882311F084E1EBCFCE0108
:100710000E94CE0181E0DF91CF911F910F91FF9058
:10072000EF900895809176018823A9F1409100010E
:1007300050910101609102017091030127E731E0BE
:1007400080917401909175010E942703811102C06C
:1007500080E00895409166015091670160916801C1
:1007600070916901411551056105710591F027E707
:1007700031E080917401909175010E9427038823D4
:1007800039F310926601109267011092680110927D
:1007900069011092760181E008958F929F92AF9245
:1007A000BF92EF92FF920F931F93CF934B015C0187
:1007B000C42F8091000190910101A0910201B0919C
:1007C000030188159905AA05BB0501F10E94920352
:1007D000811102C080E020C087E7E82E81E0F82E7A
:1007E00000E012E020E030E0B501A4018091740146
:1007F000909175010E949302882361F38092000119
:1008000090920101A0920201B092030180917601C1
:10081000C82BC093760181E0CF911F910F91FF907B
:10082000EF90BF90AF909F908F9008954F925F92FE
:100830006F927F928F929F92AF92BF92CF92DF92F0
:10084000EF92FF920F931F93CF93DF93EC016A0116
:100850007B0128013901423051056105710510F411
:1008600080E073C089859A85AB85BC850196A11D02
:10087000B11D84179507A607B70790F38B889C884E
:10088000AD88BE888F89803129F4BB27AF2D9E2D7E
:100890008D2D09C0DB01CA0147E0B695A795979554
:1008A00087954A95D1F7880E991EAA1EBB1E809186
:1008B000000190910101A0910201B09103018816FD
:1008C0009906AA06BB0679F48F898031A1F4DD244C
:1008D000EE24FF24C601880F991FFC01E958FE4F42
:1008E0005182408219C040E0C501B4010E94CD038D
:1008F0008111EACFB5CFE894C7F8DD24EE24FF24B8
:10090000C601880F991F880F991FFC01E958FE4FF7
:1009100040825182628273828091760181608093ED
:1009200076018A89823080F08D819E81AF81B88581
:10093000880E991EAA1EBB1E8092660190926701C6
:10094000A0926801B092690181E0DF91CF911F917F
:100950000F91FF90EF90DF90CF90BF90AF909F905E
:100960008F907F906F905F904F9008958F929F929D
:10097000AF92BF92CF92DF92EF92FF920F931F93AD
:10098000CF93DF93FC0181859285A385B485019681
:10099000A11DB11D84179507A607B70710F480E0C5
:1009A0005CC083899489A589B689C789C03129F437
:1009B000852E962EA72EBB2409C04A015B01C7E0F5
:1009C000B694A79497948794CA95D1F7E9016A01E0
:1009D0007B018F01BC01CD01680D791D8A1D9B1D16
:1009E0008090000190900101A0900201B09003015D
:1009F000681579058A059B0599F4F8018789803186
:100A0000A9F4B701A601552766277727440F551F7C
:100A1000FA01E958FE4F80819181A0E0B0E018C052
:100A200040E00E94CD038111E8CFB9CFB701A60104
:100A30004F77552766277727440F551F440F551FBB
:100A4000FA01E958FE4F80819181A281B381BF7084
:100A500088839983AA83BB8381E0DF91CF911F9123
:100A60000F91FF90EF90DF90CF90BF90AF909F904D
:100A70008F9008954F925F926F927F92AF92BF9244
:100A8000CF92DF92EF92FF920F931F93CF93DF935A
:100A900000D000D0CDB7DEB78C0149835A836B8379
:100AA0007C835901C12CD12C7601412C82E0582E37
:100AB000612C712C49815A816B817C819E012F5F51
:100AC0003F4FC8010E94B604882351F1D301C201EF
:100AD000F801058404C0880F991FAA1FBB1F0A9440
:100AE000D2F7C80ED91EEA1EFB1E49815A816B81BE
:100AF0007C818789803129F088EF9FEFAFEFBFE0DD
:100B000004C088EF9FEFA0E0B0E0481759076A07DC
:100B10007B0780F2F501C082D182E282F38281E01C
:100B20000F900F900F900F90DF91CF911F910F9129
:100B3000FF90EF90DF90CF90BF90AF907F906F903D
:100B40005F904F9008958F929F92AF92BF92CF92F5
:100B5000DF92EF92FF920F931F93CF93DF93EC01FD
:100B60008D81811102C080E077C00B891C892D899D
:100B70003E890417150726073707A8F36A017B018A
:100B8000823029F4CA86DB86EC86FD860DC0C1144E
:100B9000D104E104F10451F41E821F8218861986E3
:100BA0001A861B861C861D8681E056C08A849B841B
:100BB000AC84BD84EB8DFC8D258530E0275F3F4FF5
:100BC000B501A4014150510961097109022E04C007
:100BD00076956795579547950A94D2F7D701C60140
:100BE0000197A109B10904C0B695A7959795879576
:100BF0002A95D2F784179507A607B70720F089280A
:100C00008A288B2849F44F89588D698D7A8D4E83B7
:100C10005F836887798704C0841B950BA60BB70B8D
:100C20004C015D018E010A5F1F4F81149104A104E4
:100C3000B10409F4A7CF4E815F8168857985980159
:100C40008B8D9C8D0E94B60491E0891A9108A108B1
:100C5000B1088111EACF87CFDF91CF911F910F911A
:100C6000FF90EF90DF90CF90BF90AF909F908F90CC
:100C700008953F924F925F926F927F928F929F92D0
:100C8000AF92BF92CF92DF92EF92FF920F931F939A
:100C9000CF93DF93CDB7DEB72C970FB6F894DEBFB6
:100CA0000FBECDBF5C01DC015B968D909C905C9784
:100CB0001696CD90DD90ED90FC901997C114D1045B
:100CC000E104F10439F0BFEFCB1ADB0AEB0AFB0AAF
:100CD000312C07C0F401C080D180E280F38033243E
:100CE0003394F40181859285A385B4859C01AD017F
:100CF0002F5F3F4F4F4F5F4F29873A874B875C8766
:100D0000260137011D821E821F821886F40181850B
:100D10009285A385B4852D813E814F815885281702
:100D200039074A075B0708F063C089859A85AB8558
:100D3000BC858C159D05AE05BF0550F482E0C82E1C
:100D4000D12CE12CF12C92E0492E512C612C712CEC
:100D50009E012F5F3F4FB701A601C4010E94B60458
:100D6000882309F445C089819A81AB81BC81892B94
:100D70008A2B8B2B41F0260137019FEF491A590A24
:100D8000690A790A05C0C414D504E604F70491F091
:100D90002D813E814F8158852F5F3F4F4F4F5F4FD1
:100DA0002D833E834F8358873FEFC31AD30AE30A4C
:100DB000F30AACCF0FEF1FEF2FEF3FE0B301A2011B
:100DC000C4010E941604882399F0D50116964D910E
:100DD0005D916D917C9119974115510561057105E2
:100DE00049F093018201C4010E941604811102C0DE
:100DF00080E02AC0D50116964D925D926D927C924C
:100E00001997332051F0D301C2010196A11DB11DE4
:100E1000F40180839183A283B383F5018789908D48
:100E2000A18DB28D892B8A2B8B2B69F4D501579616
:100E30004D925D926D927C925A9714968C91149774
:100E4000806814968C9381E02C960FB6F894DEBFE0
:100E50000FBECDBFDF91CF911F910F91FF90EF900B
:100E6000DF90CF90BF90AF909F908F907F906F90CA
:100E70005F904F903F900895CF93DF93EC018D8169
:100E80008823A1F18C8187FF2DC06E857F8588899D
:100E9000998941E00E94CD03882341F1EA8980E2EB
:100EA000E89FF0011124DF01A958BE4F1097F1F01F
:100EB0008D81823050F44B895C896D897E895C9686
:100EC0004D935D936D937C935F978F89988DA98DDA
:100ED000BA8DE958FE4F938F828FB58BA48B8C818E
:100EE0008F778C83DF91CF910C94920380E0DF9118
:100EF000CF910895CF93DF93EC010E943C078823A4
:100F000011F01D8281E0DF91CF910895FC01818D68
:100F1000928D009711F00C943C0708952F923F9208
:100F20004F925F926F927F928F929F92AF92BF92F9
:100F3000CF92DF92EF92FF920F931F93CF93DF93A5
:100F400000D000D0CDB7DEB78C015B011A01DC0107
:100F500015968C9115978130C9F414968C9181FF68
:100F600015C082FF1BC0F8014389548965897689C1
:100F700082859385A485B58584179507A607B7074D
:100F800069F0C8010E94A305811108C081E090E0CA
:100F9000F8019383828380E090E039C1610183C0CE
:100FA000D8015B968D919C915C97FC012481215026
:100FB0002A013B0139E076946794579447943A9517
:100FC000D1F7722E74207A01F1E0FF22772009F424
:100FD00076C080E092E08E199F0946018C159D0530
:100FE00008F44C01D8015B962D913C915C971696C4
:100FF0008D919D910D90BC91A02D0297A109B109F1
:10100000F901058404C0880F991FAA1FBB1F0A9409
:10101000D2F74685578560897189840F951FA61F71
:10102000B71F9C01AD01270D311D411D511D290127
:101030003A01811432E0930609F088C080910001E2
:1010400090910101A0910201B091030184159505D1
:10105000A605B70559F48FEF9FEFDC0180930001DF
:1010600090930101A0930201B09303019501B30194
:10107000A20180917401909175010E942703882339
:1010800009F484CF9EEFB91AC818D908F8018285EF
:101090009385A485B585880D991DA11DB11D8287F5
:1010A0009387A487B587D8011A964D915D916D916C
:1010B0007C911D97C114D10409F072CF87C0E1144F
:1010C000F10409F086CF16964D915D916D917C915A
:1010D0001997411551056105710559F457968D9180
:1010E0009D910D90BC91A02D0097A105B10541F5F2
:1010F00021C09E012F5F3F4F0E94B604882309F450
:101100004BCF89819A81AB81BC81F801238D348DCD
:10111000F9012789203129F048EF5FEF6FEF7FE079
:1011200004C048EF5FEF60E070E084179507A60702
:10113000B70730F0C8010E94390681114ACF26CF87
:10114000F80186839783A087B18743CFE114F10428
:1011500029F5D8011A964D915D916D917C911D975D
:1011600053968D919D910D90BC91A02D48175907D4
:101170006A077B0798F00E949203882309F406CF40
:1011800040920001509201016092020170920301AD
:101190008091760181608093760108C041E0C301AF
:1011A000B2010E94CD03882309F4F0CED501F701E6
:1011B000E958FE4FCF01880D991DE817F90719F07E
:1011C0002D912193FACFA80CB91C5ECF53968D9127
:1011D0009D910D90BC91A02D84179507A607B70788
:1011E00040F4F801438B548B658B768B8481806847
:1011F0008483D80114968C9183FD02C0C10107C07D
:10120000C8010E943C07882309F4C0CEF7CF0F9095
:101210000F900F900F90DF91CF911F910F91FF9042
:10122000EF90DF90CF90BF90AF909F908F907F9086
:101230006F905F904F903F902F900895CF93DF93E2
:101240001F92CDB7DEB7698341E050E0BE016F5F0A
:101250007F4F0E948E070F90DF91CF910895CF931B
:10126000DF93EC01898D9A8D009739F481E090E04D
:101270009B838A8380E090E00BC0FC011382128282
:101280000E948E07E98DFA8D22813381232B71F71D
:10129000DF91CF910895FC01DB0112968D919C9115
:1012A00013979383828381E491E0918380831496E2
:1012B0008C911497848315968C9115978583169637
:1012C0004D915D916D917C9119974683578360870D
:1012D00071871A964D915D916D917C911D97428712
:1012E0005387648775871E964D915D916D917C91B2
:1012F000519746875787608B718B52968C91529786
:10130000828B53964D915D916D917C915697438B55
:10131000548B658B768B57964D915D916D917C9139
:101320005A97478B508F618F728F5B968D919C91EE
:101330005C97948F838F0895EF92FF920F931F9382
:10134000CF93DF93EC017B018A011B821A8288EE26
:1013500093E0A0E0B0E08C839D83AE83BF838EE0FA
:1013600091E0998388838DE190E00E940C139A8F1D
:10137000898F009779F02DE1F701DC0101900D9242
:101380002A95E1F74CE050E0B801CE010C960E949E
:101390002515188EDF91CF911F910F91FF90EF903F
:1013A00008952F923F924F925F926F927F928F9209
:1013B0009F92AF92BF92CF92DF92EF92FF920F93E4
:1013C0001F93CF93DF9300D0CDB7DEB7FC018581AB
:1013D000882309F4D9C0848180FFD6C021E02A8304
:1013E000438954896589768982859385A485B585E5
:1013F000481759076A077B0709F41A826F013A8177
:10140000832F90E0DE0111964D013F01B6E06B0E97
:10141000711C892B09F47DC0D6011A964D915D91FE
:101420006D917C911D975A01B1E0BB22F601258197
:101430001A012B0189E056944794379427948A9592
:10144000D1F7838D948D223061F4FC01828D938DD0
:10145000A48DB58DBC01CD01620D731D841D951D3C
:1014600045C0DC0114961C9111501221A114B10445
:10147000D1F4111118C0452B462B472B51F4F6011E
:101480008789908DA18DB28D86839783A087B18740
:101490000AC0468157816085718593010E94B60418
:1014A000882309F471C0F601238D348D86819781DC
:1014B000A085B1850297A109B109AC01BD01F9016F
:1014C000058404C0440F551F661F771F0A94D2F786
:1014D00086859785A089B189840F951FA61FB71FA0
:1014E000BC01CD01610F711D811D911DD6011496A6
:1014F0002C9126FF14C00091000110910101209150
:10150000020130910301601771078207930751F5BB
:1015100006C0FA81FF23C1F1898190E037C040E025
:101520000E94CD03882381F1F501E958FE4FD401D3
:10153000CF010196E817F90719F021912D93FACF01
:10154000EFEF8E1A9E0AF60182859385A485B585F4
:101550000196A11DB11D82879387A487B58780E07E
:1015600090E057CF740101E010E09501AB01BC01A0
:1015700080917401909175010E949302882321F05B
:10158000BFEF8B1A9B0ADFCF8FEF9FEF0F900F906B
:10159000DF91CF911F910F91FF90EF90DF90CF904F
:1015A000BF90AF909F908F907F906F905F904F9083
:1015B0003F902F900895FC01818D928D009711F03E
:1015C0000C94D1098FEF9FEF08950F931F93CF9342
:1015D000DF93FC01818D928D0097B9F0EF010E949D
:1015E000D1098C010F3F8FEF180791F0898D9A8DEB
:1015F000FC01428553856485758541505109610917
:1016000071090E94A305C80105C080E090E002C0F6
:101610008FEF9FEFDF91CF911F910F910895EF9280
:10162000FF920F931F93CF93DF9300D0CDB7DEB718
:1016300040E050E062E671E08FE594E00E94F00D3A
:10164000F12C87E793E00E94AC0B892B69F187E7C7
:1016500093E00E948A0BE82E89831A82009163042A
:10166000109164040F5F1F4FB8018FE594E00E9452
:10167000C90D882399F020915F0430916004809116
:10168000630490916404BE016F5F7F4F820F931FCC
:101690000E941E1510936404009363048DE0E81209
:1016A000D0CFFF24F394CDCFFF2059F20F900F90AD
:1016B000DF91CF911F910F91FF90EF900895CF92FE
:1016C000DF92EF92FF920F931F93CF93DF936C0102
:1016D0007A018B01C0E0D0E0CE15DF0589F0D8019A
:1016E0006D918D01D601ED91FC910190F081E02D7D
:1016F000C6010995892B11F47E0102C02196ECCF19
:10170000C701DF91CF911F910F91FF90EF90DF9074
:10171000CF900895FC01918D828D981761F0828D94
:10172000DF01A80FB11D5D968C91928D9F5F9F7315
:10173000928F90E008958FEF9FEF0895FC01918DB7
:10174000828D981731F0828DE80FF11D858D90E024
:1017500008958FEF9FEF0895FC01918D228D892FC1
:1017600090E0805C9F4F821B91098F7399270895A9
:1017700087E793E00E94AC0B21E0892B09F420E07D
:10178000822F0895FC01848DDF01A80FB11DA35A9B
:10179000BF4F2C91848D90E001968F739927848F91
:1017A000A689B7892C93A089B1898C9180648C9388
:1017B000938D848D981306C00288F389E02D808173
:1017C0008F7D80830895EF92FF920F931F93CF93A5
:1017D000DF93EC0181E0888F9B8D8C8D981305C081
:1017E000E889F989808185FD24C0F62E0B8D10E0F3
:1017F0000F5F1F4F0F731127E02E8C8DE8120CC066
:101800000FB607FCFACFE889F989808185FFF5CF0B
:10181000CE010E94C20BF1CF8B8DFE01E80FF11DAE
:10182000E35AFF4FF0820B8FEA89FB898081806247
:1018300007C0EE89FF896083E889F9898081806427
:10184000808381E090E0DF91CF911F910F91FF9015
:10185000EF900895CF93DF93EC01888D8823C9F032
:10186000EA89FB89808185FD05C0A889B9898C91A9
:1018700086FD0FC00FB607FCF5CF808185FFF2CF44
:10188000A889B9898C9185FFEDCFCE010E94C20B4A
:10189000E7CFDF91CF91089580E090E0892B29F088
:1018A0000E94B80B81110C94000008958F929F92B2
:1018B000AF92BF92CF92DF92EF92FF92CF931092AE
:1018C000210410921F0410921C0410921B0488E043
:1018D00080931A040E9472016B017C0180911A04AA
:1018E0000E94151161E080911A040E94EC00CFB7AC
:1018F000F89480917301811124C0EAE9F0E08491A9
:10190000EEEAF0E09491E82FF0E0EE0FFF1FEA57C7
:10191000FF4FA591B491EC91E92321F461E08AE0B5
:101920000E94EC008AE00E9415118CB580618CBD8C
:101930008CB580648CBD8DE00E9415118BE00E94F7
:101940001511809173018F5F80937301CFBF82E582
:10195000809314041092150480911404909115043E
:101960000E941802CAE08FEF0E94D901C150D9F736
:1019700086E194E00E941B0220E030E0A90160E0D3
:1019800086E194E00E943102C82F809320048130C8
:1019900049F00E9472016C197D09613D774060F346
:1019A00081E054C02AEA31E040E050E068E086E19E
:1019B00094E00E94310282FF03C0C09321040EC054
:1019C000C4E00E94E00180932004C150D1F78A3A1C
:1019D00011F082E03BC082E08093210480912104D9
:1019E000823021F0812C912C540105C0812C912C46
:1019F000A12C30E4B32E20E030E0A90167E386E1BA
:101A000094E00E943102A501940169E286E194E02C
:101A10000E94310280932004882349F00E947201C1
:101A20006C197D09613D774030F388E00FC08091EB
:101A30002104823001F520E030E0A9016AE386E16B
:101A400094E00E943102882341F086E080931B04D9
:101A500086E194E00E94CE018FC00E94E001807C6C
:101A6000803C19F483E0809321040E94E0010E94ED
:101A7000E0010E94E00186E194E00E94CE0180E551
:101A8000809314041092150481E00E94E60F8823CD
:101A900029F080914504882341F06EC080E00E94C7
:101AA000E60F882309F469C0F4CF809139048031AE
:101AB00009F582E08093450410925704109258046F
:101AC0001092590410925A0480913A0490913B0468
:101AD000A0E0B0E025E0880F991FAA1FBB1F2A9540
:101AE000D1F78093530490935404A0935504B0937A
:101AF00056041EC0803209F03FC083E08093450445
:101B000040913C0450913D0460913E0470913F042B
:101B100040935704509358046093590470935A04A7
:101B200023E534E082E294E00E943A05882321F123
:101B300082E294E090935C0480935B0481E0809364
:101B400044041092460410924704109248041092E4
:101B5000490410924A0410924B0410924C041092C3
:101B60004D0410924E0410924F04109250041092A3
:101B700051041092520401C080E0CF91FF90EF9089
:101B8000DF90CF90BF90AF909F908F9008950E946C
:101B900003150F931F93CF93DF93EC0188819981F5
:101BA000009729F02A813B812617370788F48B019B
:101BB0006F5F7F4F0E943914009761F0998388838B
:101BC0001B830A832C813D81232B11F4FC0110829D
:101BD00081E001C080E0DF91CF911F910F910895C6
:101BE000EF92FF920F931F93CF93DF93EC017B0152
:101BF0008A01BA010E94C90D2881398181110DC065
:101C00002115310519F0C9010E94A113198218820A
:101C10001D821C821B821A8206C01D830C83B701A1
:101C2000C9010E941E15CE01DF91CF911F910F9126
:101C3000FF90EF900895FC011182108213821282AE
:101C4000158214826115710551F0FB01019000208D
:101C5000E9F73197AF01461B570B0C94F00D08952F
:101C60001F920F920FB60F9211242F933F934F9311
:101C70005F936F937F938F939F93AF93BF93EF93F4
:101C8000FF9387E793E00E94C20BFF91EF91BF9112
:101C9000AF919F918F917F916F915F914F913F9104
:101CA0002F910F900FBE0F901F9018951F920F92BB
:101CB0000FB60F9211242F938F939F93EF93FF935F
:101CC000E0918703F09188038081E0918D03F0918A
:101CD0008E0382FD12C09081809190038F5F8F737D
:101CE00020919103821751F0E0919003F0E0E958C0
:101CF000FC4F958F8093900301C08081FF91EF91FD
:101D00009F918F912F910F900FBE0F901F9018955C
:101D1000CF93DF93EC016A8B8091000190910101D8
:101D2000A0910201B09103018E879F87A88BB98B88
:101D300080E2689FF0011124E958FE4F44895589DB
:101D400060E070E0BA01552744274F8B588F698FA8
:101D50007A8F828D938DA0E0B0E0482B592B6A2BAF
:101D60007B2B4F8B588F698F7A8F8385887151F4C5
:101D7000848D958DA68DB78D8B8B9C8BAD8BBE8BFB
:101D800081E00EC0803111F080E015C09E012D5E13
:101D90003F4F8B8D9C8D0E943A058823A9F384E0E8
:101DA0008D8381E08C831E821F82188619861A8695
:101DB0001B861C861D86DF91CF910895682F87E7CB
:101DC00093E00C94E30BCF93DF9320916304309165
:101DD0006404232B79F0FC01C0915F04D09160046E
:101DE00060817181CE010E943415009719F08C1B1F
:101DF0009D0B02C08FEF9FEFDF91CF910895AF92BF
:101E0000BF92CF92DF92EF92FF920F931F93CF93E7
:101E1000DF93CDB7DEB72B970FB6F894DEBF0FBEBA
:101E2000CDBF7C01CE0101966C01FC0190E28BE0FC
:101E30008C0D91938E13FDCFDA0120E037E09D9158
:101E4000992339F19E3219F0E8EBF0E00AC03A30FC
:101E500009F4AAC028E03AE0F2CF3196891709F4D4
:101E6000A3C084918111F9CF321708F49DC08FED82
:101E7000890F8E3508F098C081E0820FF601E20FDD
:101E8000F11D2FE9290F2A3108F490529083282F51
:101E9000D6CF8981803209F487C08B01FB01838D05
:101EA000948DF701948F838FFB0116821782108621
:101EB00011861286138614861586A12CF801828558
:101EC0009385A485B5854389548965897689841766
:101ED0009507A607B70708F067C025E0B695A79550
:101EE000979587952A95D1F7F82FFF70BF2EF801A7
:101EF0008581823008F458C0C8010E94D10997FD3D
:101F000053C0F80182859385A485B5854F96A11DA0
:101F1000B11D82879387A487B587F0E2BF9EC00179
:101F20001124BC0169587E4F61157105E9F1FB016F
:101F300020812223B9F1253EE1F04BE050E0C601BB
:101F40000E940815892B09F0B9CF6B2DC7012B967C
:101F50000FB6F894DEBF0FBECDBFDF91CF911F91BA
:101F60000F91FF90EF90DF90CF90BF90AF900C94C7
:101F7000880EA11014C0F701B28A4091000150915F
:101F80000101609102017091030146875787608BC0
:101F9000718BFC01E958FE4F8081882329F0AA2427
:101FA000A3948CCFAA2039F380E02B960FB6F89437
:101FB000DEBF0FBECDBFDF91CF911F910F91FF907C
:101FC000EF90DF90CF90BF90AF9008958F929F9247
:101FD000AF92BF92CF92DF92EF92FF92CF93DF93B7
:101FE000C82F86E194E09093750180937401CC230F
:101FF00069F1C53010F080E00DC140E060E070E0B4
:10200000CB010E94CD038823B1F320E1C29FC00120
:10201000112489599E4FFC01E254FE4F20812F77F5
:1020200051F73C964081518162817381443651055C
:102030006105710500F33497C080D180E280F380A0
:10204000C114D104E104F10421F4D5CFC12CD12C69
:10205000760140E0C701B6010E94CD03882359F202
:1020600080918201909183018115924021F6A09187
:102070008701AA2309F4BFCF609185017091860181
:102080006115710509F4B7CF20918401222309F469
:10209000B2CFA09334042093260480E030E0E1E046
:1020A000F0E0C82FAF01082E02C0440F551F0A945C
:1020B000E2F72417350741F0982F8F5F983089F7A2
:1020C00089E080932F0497CF80932F0420918D0176
:1020D00030918E012115310519F040E050E008C023
:1020E00020919B0130919C0140919D0150919E0156
:1020F00020932704309328044093290450932A0402
:1021000046015701860E971EA11CB11C8092350412
:1021100090923604A0923704B0923804E09188017E
:10212000F0918901F0933B04E0933A04B0E00E94FF
:102130004E15860E971EA81EB91E80923C049092E2
:102140003D04A0923E04B0923F0485E0EE0FFF1FD5
:102150008A95E1F7E150FE4FEF2FFF27E6958E0EAF
:102160009F1EA11CB11C8092300490923104A09259
:102170003204B092330420918A0130918B012115F1
:10218000310521F0A90160E070E008C0409197019D
:10219000509198016091990170919A01D701C601FF
:1021A00088199909AA09BB09840F951FA61FB71F93
:1021B00004C0B695A79597958795CA95D2F7809351
:1021C0002B0490932C04A0932D04B0932E04853FF0
:1021D0002FE09207A105B10510F48CE018C0853FEF
:1021E0009F4FA105B10510F480E111C08091A301BA
:1021F0009091A401A091A501B091A60180933C0407
:1022000090933D04A0933E04B0933F0480E28093FA
:10221000390481E0DF91CF91FF90EF90DF90CF9074
:10222000BF90AF909F908F90089590E0FC01EC5587
:10223000FF4F2491FC01E057FF4F8491882399F0D0
:1022400090E0880F991FFC01EA57FF4FA591B491C8
:10225000FC01E458FF4F859194918FB7F894EC916D
:10226000E22BEC938FBF089580915F0490916004FE
:102270000C94A113CF93DF93CDB7DEB7C257D1092A
:102280000FB6F894DEBF0FBECDBF789484B58260E0
:1022900084BD84B5816084BD85B5826085BD85B50A
:1022A000816085BD80916E00816080936E00109288
:1022B0008100809181008260809381008091810003
:1022C0008160809381008091800081608093800094
:1022D0008091B10084608093B1008091B0008160F2
:1022E0008093B00080917A00846080937A0080911E
:1022F0007A00826080937A0080917A008160809376
:102300007A0080917A00806880937A001092C100F0
:1023100068EC70E08FE594E00E94C90DE0918703BE
:10232000F091880382E08083E0918303F09184033D
:102330001082E0918503F091860380E18083109202
:102340008F03E0918B03F0918C0386E08083E09112
:102350008903F0918A03808180618083E091890301
:10236000F0918A03808188608083E0918903F091F5
:102370008A03808180688083E0918903F0918A03D9
:1023800080818F7D808301E411E088EE882E83E0D8
:10239000982EA12CB12C9EE0E92E91E0F92E8FE32E
:1023A00090E00E94DE0E0E940F0B6DE471E0CE0102
:1023B00001960E941B0ECE0101960E94E30EC92ECB
:1023C0000E94560CD82E89819A810E94A113C7FCC5
:1023D000C3C0DD2009F4C0C060E474E0CE01019602
:1023E0000E944B09BE016F5F7F4FCE01CB960E94CA
:1023F0004B0919A218A21F8F0E8F1BA221968FAD19
:102400002197811116C06C961FAE1EAE6C97A096D8
:102410008CAE9DAEAEAEBFAEA0976A96FFAEEEAEEE
:102420006A97E3961FAE1EAEE397A5961FAEA597DB
:102430002CC0825042E551E0823048F460E474E000
:10244000CE014E960E94FF0E81110EC0DCCFBE0160
:10245000655C7F4FCE014E960E94FF0E882399F255
:10246000CE01CB960E947A07BE01625E7F4FCE01FD
:1024700001960E944B0942E551E0BE016F5F7F4F1C
:10248000CE01885A9F4F0E949C09E396EEADFFADA6
:10249000E397309709F460C08581882309F45CC014
:1024A000CE01885A9F4F0E94B500892B09F446C07F
:1024B000CE01885A9F4F0E94DB0A803234F0082EEA
:1024C000000C990B0E94DE0EEBCF8D3049F787E7A9
:1024D00093E00E94AC0B892B29F087E793E00E94E0
:1024E0008A0BF5CF8DE090E00E94DE0E0E940F0B6C
:1024F00065E070E080E090E00E9438018FE390E0BA
:102500000E94DE0E87E793E00E94AC0B892B29F036
:1025100087E793E00E948A0BF5CF6EE571E0CE016C
:1025200001960E941B0ECE0101960E94E30E6C01E3
:1025300089819A810E94A113D7FCB2CFE3968EAD18
:102540009FADE397009741F00E947A07E3968EAD26
:102550009FADE3970E94A11364EF71E080E090E0EB
:102560000E9438010E94560C8111F6CF0E944C0C3B
:1025700016CFE7E7F3E01382128288EE93E0A0E043
:10258000B0E084839583A683B78381E291E0918351
:10259000808385EC90E09587848784EC90E0978732
:1025A000868780EC90E0918B808B81EC90E0938B20
:1025B000828B82EC90E0958B848B86EC90E0978BFD
:1025C000868B118E128E138E148EE4E1F4E080E57A
:1025D00080831182E6E1F4E015821682118613866B
:1025E00082E090E0A0E0B0E084879587A687B78777
:1025F00013A215A614A681E491E093A782A717A6BB
:1026000062E671E08FE594E00C941B0EEE0FFF1F65
:102610000590F491E02D0994CF93DF9382309105DA
:1026200010F482E090E0E0916704F091680420E00B
:1026300030E0C0E0D0E0309711F14081518148177F
:102640005907C0F04817590761F482819381209798
:1026500019F09B838A832BC090936804809367044E
:1026600026C02115310519F04217530718F49A01B5
:10267000BE01DF01EF010280F381E02DDCCF2115E7
:10268000310509F1281B390B2430310590F41296DD
:102690008D919C9113976115710521F0FB01938336
:1026A000828304C09093680480936704FD0132968E
:1026B00044C0FD01E20FF31F819391932250310931
:1026C0002D933C933AC02091650430916604232BEE
:1026D00041F4209106013091070130936604209364
:1026E000650420910401309105012115310541F463
:1026F0002DB73EB74091080150910901241B350BBD
:10270000E0916504F0916604E217F307A0F42E1B34
:102710003F0B2817390778F0AC014E5F5F4F241745
:10272000350748F04E0F5F1F5093660440936504D1
:102730008193919302C0E0E0F0E0CF01DF91CF916F
:1027400008950F931F93CF93DF93009709F48CC0E4
:10275000FC01329713821282009167041091680481
:102760000115110581F420813181820F931F209181
:102770006504309166042817390779F5F0936604EB
:10278000E093650471C0D80140E050E0AE17BF0788
:1027900050F412962D913C911397AD0121153105FE
:1027A00009F1D901F3CF9D01DA01338322836081DE
:1027B0007181860F971F8217930769F4EC012881B6
:1027C0003981260F371F2E5F3F4F318320838A8147
:1027D0009B8193838283452B29F4F0936804E093D3
:1027E000670442C01396FC93EE931297ED01499152
:1027F00059919E01240F351FE217F30771F4808170
:102800009181840F951F029611969C938E938281DD
:10281000938113969C938E931297E0E0F0E0D80199
:1028200012968D919C911397009719F0F8018C01E5
:10283000F6CF8D919C9198012E5F3F4F820F931F91
:1028400020916504309166042817390769F43097A0
:1028500029F4109268041092670402C01382128255
:102860001093660400936504DF91CF911F910F913F
:102870000895A0E0B0E0EFE3F4E10C945D15EC0105
:10288000009721F4CB010E940C13B8C0FC01E60FA5
:10289000F71F9C0122503109E217F30708F4ACC07E
:1028A000D9010D911C91119706171707B0F005304B
:1028B000110508F49FC0C80104978617970708F40C
:1028C00099C002501109061B170B019311936D93C8
:1028D0007C93CF010E94A1138DC05B01A01AB10AA5
:1028E0004C01800E911EA0916704B091680440E0F5
:1028F00050E0E12CF12C109709F44AC0A815B90555
:10290000D1F56D907C901197630182E0C80ED11CC7
:10291000CA14DB0480F1A3014A195B096A0182E051
:10292000C80ED11C1296BC9012971396AC91B5E0CC
:10293000CB16D10440F0B282A38351834083D901E6
:102940006D937C930AC00E5F1F4FC301800F911FD0
:10295000F90191838083EB2DFA2FE114F10431F01A
:10296000D7011396FC93EE93129744C0F09368043A
:10297000E09367043FC08D919C91119748175907C8
:1029800008F4AC017D0112960D90BC91A02DB3CF3F
:10299000809165049091660488159905E1F44617C5
:1029A0005707C8F48091040190910501009741F404
:1029B0008DB79EB74091080150910901841B950B7A
:1029C000E817F907C8F4F0936604E0936504F90189
:1029D000718360830FC0CB010E940C137C010097B0
:1029E00059F0A801BE010E941515CE010E94A11345
:1029F000C70104C0CE0102C080E090E0CDB7DEB7D1
:102A0000EEE00C94791581E090E0F8940C949F1519
:102A1000FB01DC0104C08D910190801921F441502B
:102A20005040C8F7881B990B0895FB01DC0102C0D8
:102A300001900D9241505040D8F70895FB01DC0100
:102A400001900D920020E1F70895FB01DC01415057
:102A5000504048F001900D920020C9F701C01D922E
:102A600041505040E0F70895FB0151915523A9F0E2
:102A7000BF01DC014D9145174111E1F759F4CD013A
:102A80000190002049F04D9140154111C9F3FB011F
:102A90004111EFCF81E090E0019708950E949015D9
:102AA000A59F900DB49F900DA49F800D911D1124A2
:102AB00008952F923F924F925F926F927F928F92E2
:102AC0009F92AF92BF92CF92DF92EF92FF920F93BD
:102AD0001F93CF93DF93CDB7DEB7CA1BDB0B0FB6C7
:102AE000F894DEBF0FBECDBF09942A883988488884
:102AF0005F846E847D848C849B84AA84B984C8841A
:102B0000DF80EE80FD800C811B81AA81B981CE0F10
:102B1000D11D0FB6F894DEBF0FBECDBFED010895F5
:102B2000A29FB001B39FC001A39F700D811D11240E
:102B3000911DB29F700D811D1124911D089510E00B
:102B4000C5E6D0E004C0FE010E9406132196C636F9
:082B5000D107C9F7F894FFCF8B
:102B5800FFFFFFFF00006904800000000000D600AE
:102B68002F09B500DB0AE50A86070000000000000F
:102B780000E30B5F0BAC0B8A0B9E0B2A0C000000CA
:102B880000C70D5F0BC70DC70DC70DC70D000000AF
:102B9800001E095F0B00000000C70D5F0B49646C45
:102BA80065006175746F706C61792E6E6300506E8C
:042BB8003A5200008D
:00000001FF
