:100000000C9403020C9415020C9415020C94150226
:100010000C9444310C94E9160C9415020C941502BE
:100020000C9415020C9415020C9415020C941502F4
:100030000C9415020C948D1F0C9415020C9415024F
:100040000C94071F0C9415020C94161F0C941502A7
:100050000C94DB260C9469270C9415020C94150261
:100060000C9415020C9415020C9415020C941502B4
:100070000C9415020C9415020C941502AE3EB43E7D
:10008000B73EBA3EBF3EC73ECF3E6A3F6A3F6A3F79
:10009000DC3EDF3EE83EF13E6A3F6A3F6A3F6A3F30
:1000A0006A3F6A3FFD3E073F133F1B3F1E3F273F0E
:1000B000303F363F6A3F6A3F3F3F483F533FE1038F
:1000C000E503E703E903EB03ED03F003B404E80FF2
:1000D000E80F1C04E80FE80F2604330440044D0425
:1000E000E80F5104E80F5F04E80F690473047D040E
:1000F000E80FE80FE80F8D049A04A7041A271C27BD
:1001000057275727572757275727572757275727FF
:100110005727572722272427262728272A272C270F
:100120002E27302757273427362738273A273C27CA
:100130003E27572740274227084AD73B3BCE016E30
:1001400084BCBFFDC12F3D6C74319ABD56833DDA2E
:100150003D00C77F11BED9E4BB4C3E916BAAAABE3D
:10016000000000803F05A84CCDB2D44EB93836A966
:10017000020C50B9918688083CA6AAAA2ABE0000A3
:1001800000803F000D0A4772626C20312E316632CA
:10019000205B27242720666F722068656C705D0DD8
:1001A0000A005B4D53473A42544E205A65726F41E4
:1001B0006C6C5D0D0A005B4D53473A42544E205A19
:1001C00065726F585D0D0A005B4D53473A42544EBD
:1001D000205A65726F595D0D0A005B4D53473A42D4
:1001E000544E205A65726F5A5D0D0A005B4D53479D
:1001F0003A42544E205A65726F435D0D0A00244EF8
:10020000002C435F41584953002C4A4F475041440A
:10021000002C5350495F44495350002C5350495FC0
:100220005352002C41544D454741363434005B4F06
:1002300050543A005B5645523A312E3166322C42C8
:1002400055494C443A30352E30332E323031370058
:100250005B544C4F3A005B4739323A00333000323E
:1002600038005B4700204700205300204600205400
:100270000033382E005B47433A47005B484C503A06
:10028000242420242320244720244920244E2024D1
:10029000783D76616C20244E783D6C696E65202433
:1002A0004A3D6C696E652024534C50202443202421
:1002B00058202448207E2021203F206374726C2D1A
:1002C000785D0D0A00536C656570696E6700526554
:1002D00073746F72696E67207370696E646C650009
:1002E000526573746F72696E672064656661756CC0
:1002F00074730050676D20456E6400436865636BDE
:10030000204C696D69747300436865636B20446FAA
:100310006F720044697361626C656400456E61626E
:100320006C65640043617574696F6E3A20556E6C3C
:100330006F636B656400272448277C272458272097
:10034000746F20756E6C6F636B00526573657420FB
:10035000746F20636F6E74696E7565005B4D5347F3
:100360003A00414C41524D3A007C413A007C4F7674
:100370003A007C46533A007C57434F3A007C506E1B
:100380003A007C42663A007C57506F733A007C4DCD
:10039000506F733A00536C65657000446F6F723A2A
:1003A00000436865636B00416C61726D00486F6D5E
:1003B00065004A6F6700486F6C643A0052756E00C2
:1003C00049646C65005A65726F43005A65726F5AD2
:1003D000005A65726F59005A65726F580001020326
:1003E00005081020304050607890B0D0F00D0A0021
:1003F0006F6B0D0A00204D005B5052423A0065724F
:10040000726F723A000011241FBECFEFD0E1DEBF41
:10041000CDBF28E0A0E0B1E001C01D92A532B20737
:10042000E1F70E949E360C944D460C9400002F92EA
:100430003F924F925F926F927F928F929F92AF9274
:10044000BF92CF92DF92EF92FF920F931F93CF93C1
:10045000DF93CDB7DEB7C055D1090FB6F894DEBF34
:100460000FBECDBF82E4EEEFF1E0DF011D928A9571
:10047000E9F78BE0E2EBF1E0AFEFB1E001900D9234
:100480008A95E1F78091D507843211F00C940C1015
:1004900081E08093FF011092000283E08E8FB1E033
:1004A000BFA3212C312C1CAA1BAA1DA61F8E1BA288
:1004B00067E0962E01E07AE0C72ED12CEAE08E2E7E
:1004C000F1E6AF2EF3E0BF2E8E8DE82FF0E0EB5279
:1004D000F84FE080EE2009F479C29FEB9E0D9A312F
:1004E00010F00C94D80F8F5F8E8FBE01665E7F4F29
:1004F000CE014E960E94ED35882311F40C94DA0F4C
:100500004A8C5B8C6C8C7D8CC301B2010E941A46B4
:100510000E945843162F70E080E090E00E948943CB
:100520009B01AC01C301B2010E94DF4120E030E039
:1005300048EC52E40E9437450E94A4450E9458436B
:10054000CB01E7E4EE1629F0FDE4EF1609F4EAC06A
:1005500062C1183209F4C5C020F5143168F41131B4
:1005600008F08AC0143009F452C008F464C01A308C
:1005700009F445C00C94E80F1C3109F440C050F454
:10058000163110F00C94E80F25E1211B2093010295
:1005900026E0ACC01E3199F1163209F44CC00C941F
:1005A000E80F1D3309F497C0A8F4153381F140F426
:1005B0001B3209F47AC0113309F477C00C94E80FA8
:1005C0001C3310F00C94E80F6AEC610F6093050285
:1005D00029E08CC01C3538F41A3508F053C01035AA
:1005E00081F10C94E80F1C3551F01F3510F00C947C
:1005F000E80F2EE5211B2093000225E077C000972D
:1006000031F42BA121110C94DC0F31E03BA31093AA
:10061000FE01212F2D7F2C3119F01C3509F063C00C
:10062000009721F00A9711F00C94E80F610F609386
:10063000FE0120E060C06BA161110C94DC0FA2E010
:10064000ABA31093FF01163209F04FC0843191051E
:1006500059F08E31910541F08832910529F08233AD
:10066000910511F00C94E80FB6010E94894166577C
:100670006093FF0121E03FC06FEE610F60930302C2
:1006800022E034C0892B31F466EA610F60930202E4
:1006900023E031C06A30710511F00C94E80F1A356F
:1006A00011F40C94E80F24E026C0BBA1B1110C9406
:1006B000DC0F113331F41092040228E0E3E0EBA3E5
:1006C0001AC00A9711F00C94E80F0093040228E076
:1006D000F3E0FBA310C0892B11F00C94E80F2AE083
:1006E0000AC027E003C020E001C021E0892B19F0F7
:1006F00087E10C94101081E090E002C0880F991FF0
:100700002A95E2F72BA93CA928233923232B19F09A
:1007100085E10C9410102BA93CA9282B392B3CAB5C
:100720002BABD2CE892B21F71A3040F4173060F56D
:10073000133078F01630D0F00C94E80F1E3199F099
:1007400010F40C94E80F8CE9810F883058F10C9468
:10075000E80F112321F0113009F447C004C033E041
:100760003093060242C0109306023FC0143021F0BD
:10077000153031F080E101C080E28093080202C0B0
:10078000109208028CE032C0183021F0193031F09C
:1007900080E801C080E48093070202C01092070243
:1007A0008DE024C0812F90E0FC01E556F109E7308F
:1007B000F10520F4E15AFF4F0C94BF4180920702EB
:1007C00012C064E0609307020EC086E00AC088E0B1
:1007D00008C08BE006C085E004C09092070203C009
:1007E00089E0809307028EE001C08BE0A1E0B0E0D9
:1007F00002C0AA0FBB1F8A95E2F72BA93CA92A23A6
:100800003B23232B09F084CFEBA9FCA9EA2BFB2B7C
:10081000FCABEBAB59CE8E2DEE0C990BAA0BBB0BA0
:10082000FC01E354F109E831F10510F00C94E80FF4
:10083000EA59FF4F0C94BF4140920A0250920B02BA
:1008400060920C0270920D0280E09AC040920E02FB
:1008500050920F026092100270921102FDA5F16099
:10086000FDA781E08DC04092120250921302609267
:100870001402709215022DA522602DA782E080C07F
:10088000409216025092170260921802709219025A
:100890003DA534603DA783E073C010931E0284E041
:1008A0006FC0C301B2010E94514360931F02709355
:1008B0002002809321029093220285E061C0409241
:1008C000230250922402609225027092260286E052
:1008D00057C04092270250922802609229027092DB
:1008E0002A0287E04DC040922B0250922C02609267
:1008F0002D0270922E0288E043C020E030E04FE7E6
:1009000053E4C301B2010E94F744181614F40C9486
:10091000DE0F10932F0289E033C0409230025092D4
:10092000310260923202709233026F8D61606F8F7C
:100930008AE026C04092340250923502609236021C
:10094000709237028F8D82608F8F8BE019C040923A
:1009500038025092390260923A0270923B029F8DA7
:1009600094609F8F8CE00CC040923C0250923D02FC
:1009700060923E0270923F02AF8DA860AF8F8DE013
:10098000EE24E394F12C082E02C0EE0CFF1C0A9416
:10099000E2F7970122213321232B11F00C94E00F71
:1009A000F50102C0F595E7958A95E2F7E0FF0BC0E7
:1009B00020E030E0A901C301B2010E94D54287FFC7
:1009C00002C00C94E20F2E283F287ECDFF8DFF231E
:1009D00029F02BA1211102C032E03BA325FE0FC05C
:1009E00080911F0290912002A0912102B0912202D9
:1009F00081389649A849B10514F00C94E40F8FA1F1
:100A0000882301F120FC02C00C94EE0F80910102BA
:100A1000813009F03FC023E333E34BEC51E46091B4
:100A20000A0270910B0280910C0290910D020E94BB
:100A3000374560930A0270930B0280930C029093E7
:100A40000D0228C080910002813071F49BA1923088
:100A500009F58091FF018035E9F08823D9F020FC69
:100A600002C00C94EE0F16C08091B301811112C028
:100A700020FCCCCF8091C1019091C201A091C30113
:100A8000B091C40180930A0290930B02A0930C02D0
:100A9000B0930D0230FC10C08091BD019091BE0159
:100AA000A091BF01B091C00180932B0290932C02C2
:100AB000A0932D02B0932E028091FE01843039F470
:100AC00026FC03C08CE10C941010E89426F8809169
:100AD0000302882391F0813041F4A1E02296AFAF68
:100AE00022971DAEB2E0BBAF0FC022961FAE229779
:100AF000E2E0EDAFF1E0FBAF07C022E022962FAFBE
:100B0000229731E03DAF1BAE80910102813021F090
:100B10006BA16330A9F52BC040E3E42E42E0F42E34
:100B200000E010E08F8DC82ED12CC601002E02C02F
:100B3000959587950A94E2F780FF10C023E333E38D
:100B40004BEC51E4D7016D917D918D919C910E9468
:100B50003745F70160837183828393830F5F1F4F53
:100B6000F4E0EF0EF11C04301105F9F6D1CF8091BD
:100B70000402813029F42F8D243011F00C94E60FFB
:100B800080E1EAEDF1E0DE01119601900D928A9587
:100B9000E1F78BA99CA991FD09C09091FE019BA74B
:100BA0009A30C9F09C3509F4B2C013C18091050296
:100BB000873018F08DE10C9410109091B8019817BF
:100BC00061F3BE016F5F7F4F0E944425882311F4BB
:100BD0000C94FC0FE2CFAF8DA11103C08AE10C94FD
:100BE0001010C10180759927892B09F46BCF609192
:100BF00023027091240280912502909126020E9486
:100C00001A460E9458436730A8F680911E0284312C
:100C100041F0823011F00C94E80F27FE02C00C94D2
:100C2000E80FBFEA2B22662319F0615069AB03C0BD
:100C3000E0910502E9AB6EE072E089A90E944425CB
:100C4000882311F40C94FC0F80901E024090FA014E
:100C50005090FB016090FC017090FD010EEF11E0DF
:100C600032EBC32E31E0D32EE12CF12CFF8DAF2ED1
:100C7000B12CC5010E2C02C0959587950A94E2F718
:100C800080FF37C024E182122BC0D601D8962D9167
:100C90003D914D915C91DB9758966D917D918D9131
:100CA0009C915B970E94DF41F80122A933A944A9D6
:100CB00055A90E94DF41D80150966D937D938D9385
:100CC0009C935397B2E0EB16F10499F4A3019201BF
:100CD0000E94DF41F801608B718B828B938B09C07E
:100CE000F80182A993A9A4A9B5A9808B918BA28BA5
:100CF000B38BFFEFEF1AFF0A0C5F1F4F24E0C20E09
:100D0000D11C34E0E316F10409F0B3CF2EC16F8D8E
:100D1000662309F463CF4090FA015090FB01609084
:100D2000FC017090FD0100E312E0C12CD12CE12CFC
:100D3000F12CA62EB12CF601EE54FE4FC5010E2C5F
:100D400002C0959587950A94E2F780FF2BC0A1E039
:100D5000B0E0AC0FBD1FAC0DBD1D2D913D914D916F
:100D60005C91608D718D828D938D0E94DF41D801E1
:100D70002D913D914D915C910E94DF41F80160837E
:100D8000718382839383F2E0EF16F104A1F4A3014F
:100D900092010E94DF41D8016D937D938D939C93C6
:100DA000139709C080AD91ADA2ADB3ADF8018083BA
:100DB0009183A283B383FFEFEF1AFF0A24E0C20EF0
:100DC000D11C0C5F1F4F34E0E316F10409F0B3CFE0
:100DD000CBC06BA1633071F48BA58E3109F48AC04E
:100DE000853309F4BBC08C3109F0BEC06EE072E0FF
:100DF00086E083C09F8D992379F3A0910202A9AB6D
:100E00004090FA015090FB016090FC017090FD0150
:100E100022EBC22E21E0D22E00E312E0FE01319639
:100E20004F01E12CF12CA92EB12CC5010E2C02C0D2
:100E3000959587950A94E2F780FD0BC0F601808DA9
:100E4000918DA28DB38DF80180839183A283B383AA
:100E500040C0FBA5F533E9F129A9211129C0D6012C
:100E6000D8962D913D914D915C91DB97F401608175
:100E70007181828193810E94E041D8012D913D9141
:100E80004D915C910E94E041F801608371838283FF
:100E90009383F2E0EF16F104E1F4A30192010E94C2
:100EA000E041D8016D937D938D939C93139711C06E
:100EB000F601208D318D428D538DD8016D917D913C
:100EC0008D919C910E94E041F8016083718382833F
:100ED0009383FFEFEF1AFF0A24E0C20ED11C0C5FD0
:100EE0001F4F34E0830E911C64E0E616F10409F014
:100EF0009CCF72CF6EE072E087E00E944425882389
:100F000011F40C94FC0F8F8D811103C019AA1BA240
:100F10002CC020E030E080E090E0AF8D4A2F50E020
:100F2000BA01082E02C0759567950A94E2F760FD34
:100F30000EC0F901EE54FE4FC08CD18CE28CF38CC4
:100F4000F901E250FE4FC08AD18AE28AF38A019603
:100F50002C5F3F4F8430910519F706C08091FF0147
:100F6000823010F00C94EA0F19AAB091FF01BBA7D0
:100F7000B03529F4EF8DE1110C94EC0F7BC2FBA18D
:100F8000F23009F077C22BA5211104C03F8D311139
:100F900071C22BC020E030E0A90160910A0270917B
:100FA0000B0280910C0290910D020E94D542882381
:100FB00011F40C94EE0F6BA56C3809F445C240F4A3
:100FC0006230A9F06330B1F0613009F053C20AC059
:100FD0008BA58E3809F438C208F433C28F3809F46F
:100FE00030C248C29F8D911145C21BA243C2AFA11E
:100FF000A460AFA3BF8DBB2309F4F0CDEBAD0E2FE2
:1010000010E03DAD232F30E038AF2FAB81E090E012
:101010007C010DAC02C0EE0CFF1C0A94E2F702C08A
:10102000880F991FEA95E2F7E82AF92A8B2F90E0BA
:101030008E219F21892B09F4D3C7F801EE0FFF1FE2
:10104000EE0FFF1FE250FE4FD801AA0FBB1FAA0FE1
:10105000BB1FA653BE4F2D913D914D915C9162A94E
:1010600073A984A995A90E94DF412B013C01EFA936
:10107000F8ADEE0FFF1FEE0FFF1FE250FE4FAFA9BE
:10108000B8ADAA0FBB1FAA0FBB1FA653BE4F2D9111
:101090003D914D915C9162A973A984A995A90E9483
:1010A000DF414B015C01610160E8C622DD2427FEBF
:1010B000F5C0E89427F840E150E060E372E08AEC84
:1010C00091E00E944046892B11F481E2A9C78091EA
:1010D00001028130B1F423E333E34BEC51E460913E
:1010E0002702709128028091290290912A020E9481
:1010F00037456093270270932802809329029093CA
:101100002A028091270290912802A0912902B09191
:101110002A028DA79EA7AFA7B8ABA3019201C30176
:10112000B2010E94374529966CAF7DAF8EAF9FAF5D
:101130002997A5019401C501B4010E9437452D9658
:101140006CAF7DAF8EAF9FAF2D9720E030E040E8D1
:1011500050E46DA57EA58FA598A90E9437452DA5C1
:101160003EA54FA558A90E94374529962CAD3DAD07
:101170004EAD5FAD29970E94DF412D962CAD3DAD60
:101180004EAD5FAD2D970E94DF416B017C0120E0E9
:1011900030E0A9010E94D54287FD24C7C701B601EE
:1011A0000E94D6456B017C012D962CAD3DAD4EAD18
:1011B0005FAD2D9729966CAD7DAD8EAD9FAD299716
:1011C0000E94E0410E94D6459B01AC01C701B601D7
:1011D00090580E94DF426B017C019BA5933021F463
:1011E000F7FAF094F7F8F09420E030E0A9016DA54B
:1011F0007EA58FA598A90E94D54287FF11C0F7FA56
:10120000F094F7F8F0948DA59EA5AFA5B8A9B058B5
:101210008093270290932802A0932902B0932A0278
:10122000000F111F000F111F025F1D4FA701960134
:10123000C501B4010E9437459B01AC01C301B20155
:101240000E94DF4120E030E040E05FE30E9437454C
:10125000D8016D937D938D939C9313970FA918AD2F
:10126000000F111F000F111F025F1D4FA7019601F4
:10127000C301B2010E9437459B01AC01C501B40115
:101280000E94E04120E030E040E05FE30E9437450B
:10129000F8016083718382839383ECC03DA5232F83
:1012A00030E03EA72DA7E222F322EF2809F49CC6E6
:1012B00061EF262280910102813009F47AC0F801A1
:1012C000EE0FFF1FEE0FFF1FE25FFD4FC080D180CA
:1012D000E280F380A7019601C301B2010E94DF41C1
:1012E0002B013C01EFA9F8ADEE0FFF1FEE0FFF1F22
:1012F000E25FFD4F80819181A281B3818DA79EA77E
:10130000AFA7B8AB9C01AD01C501B4010E94DF419C
:101310004B015C01A3019201C301B2010E94374558
:101320002B013C01A5019401C501B4010E94374580
:101330009B01AC01C301B2010E94E0410E94D6456D
:101340004B015C01A7019601C701B6010E94374518
:101350006B017C012DA53EA54FA558A9CA01B90175
:101360000E9437459B01AC01C701B6010E94E041D4
:101370000E94D6456B017C0160932702709328027E
:101380008093290290932A029B01AC01C501B4010C
:101390000E94DF414B015C01E894B7F82AE037ED89
:1013A00043EA5BE3C501B4010E94F744181664F1F7
:1013B00061C09EEFE92E91E0F92E8DA59EA50C2C23
:1013C00002C0959587950A94E2F780FF12C023E347
:1013D00033E34BEC51E4D70150966D917D918D91A3
:1013E0009C9153970E943745F701608B718B828BDC
:1013F000938BFFEFCF1ADF0A24E0E20EF11C34E0FA
:10140000C316D104D1F65BCF20E030E040E05FE3CB
:10141000C501B4010E94F74418160CF456CE2FE60D
:1014200032E143E85AE3C701B6010E9437459B0108
:10143000AC01C501B4010E94F74418160CF445CE66
:1014400019C06FA160616FA38BA58E58823018F40C
:101450008FA188608FA39F8D992309F4BFCB40E1B2
:1014600050E060E372E08AEC91E00E944046892BF4
:1014700009F42BCE2FA12170AFA1C101A0FF02C0A2
:101480008E7D02C08E7D9C7FBBA1B111937C892B88
:1014900009F0ACC58E010F5E1F4F89E0F801119273
:1014A0008A95E9F7222309F44AC08BA99CA9867B77
:1014B000892B09F09DC58091FE01853311F08111C2
:1014C00097C58091BD019091BE01A091BF01B091DF
:1014D000C0018D8B9E8BAF8BB88F9091BA0180919C
:1014E000BB01892B898F80910A0290910B02A091F8
:1014F0000C02B0910D02898B9A8BAB8BBC8B8091C7
:10150000A20185FF06C080E392E00E94521681117D
:1015100071C5B80180E392E00E94F33080913C01F4
:1015200081116CC50E947430892B09F467C580E273
:1015300080933C010E9421170E943E225FC580914A
:10154000A201F090BB0181FF26C09BA59150933072
:1015500018F0FFA1F064FFA32F8D222339F03BA1E7
:10156000323021F46FA160686FA315C080E1F812DA
:1015700012C09091B20191508FA18074933030F4D9
:10158000882349F09FA190629FA305C0811103C0E9
:10159000AFA1A062AFA380911F0290912002A09101
:1015A0002102B09122028093C6019093C701A093BB
:1015B000C801B093C901809100028093B3018823D0
:1015C00011F088E0898F80910A0290910B02A0911E
:1015D0000C02B0910D028093C1019093C201A093BF
:1015E000C301B093C401898B9A8BAB8BBC8B809069
:1015F0002B0290902C02A0902D02B0902E02A501FB
:1016000094016091BD017091BE018091BF019091E4
:10161000C0010E94D542BFA1B074EB2E811103C05E
:10162000EFA1E5FF20C0FF2071F0FFA1F7FD0BC087
:10163000EE2021F040E050E0BA0102C0B501A40163
:101640008F2D0E94A62280912B0290912C02A091B6
:101650002D02B0912E028093BD019093BE01A09304
:10166000BF01B093C001E1100CC08091BD01909109
:10167000BE01A091BF01B091C0018D8B9E8BAF8B3D
:10168000B88F80912F028093C501809108029091BC
:10169000BB01981751F04D895E896F89788D0E9442
:1016A000A622809108028093BB01998D8091BB0195
:1016B000892B898F809107029091BA019817D1F0F8
:1016C00090913C01923051F061968FAF61970E94EA
:1016D000921561968FAD61970E94713580910702D6
:1016E000811103C01092BA0105C09091BA01892BF3
:1016F0008093BA01998D8091BA01892B898F80914D
:10170000FE01843049F5609123027091240280919A
:1017100025029091260220913C012230E9F02E967C
:101720006FAF2E972F967FAF2F9761968FAF6197F0
:1017300060969FAF60970E94921540E02E966FAD25
:101740002E972F967FAD2F9761968FAD61976096FC
:101750009FAD60970E94A030809103028093B601F4
:10176000809101028093B4012BA1233071F5809107
:1017700004028093B701811108C0109238021092C0
:10178000390210923A0210923B02C0903802D09077
:101790003902E0903A02F0903B02A7019601609175
:1017A000FA017091FB018091FC019091FD010E9472
:1017B000D542882351F0C092FA01D092FB01E09209
:1017C000FC01F092FD010E94D516809105029091D6
:1017D000B801981769F08093B80180E1FE01319655
:1017E000AAEDB1E001900D928A95E1F70E94D5161D
:1017F000809102028093B5018091FE018632F1F161
:1018000038F48C3109F18E31F9F08A3069F04FC02B
:101810008C35D1F1863609F441C0883209F047C0D1
:101820006AEC71E087E02DC06EE072E089A90E9449
:1018300028258091B80139A9831339C080E1EEE0F1
:10184000F2E0AAEDB1E025C0898D8160898F6BA19E
:10185000662329F0B80180E392E00E94F330B801DA
:101860008EE092E00E94F33080E1EEE0F2E0AAEC3C
:10187000B1E001900D928A95E1F719C06AEC71E030
:1018800086E00E94282513C080E1E0E3F2E0AAEEA2
:10189000B1E001900D928A95E1F707C080E1EAEE90
:1018A000F1E0DF011D928A95E9F70E94D51680913B
:1018B000FF018093B201803509F42CC3BBA1B23083
:1018C00009F028C3813021F4BE016F5E7F4F06C04E
:1018D000811109C0898D8160898FB80180E392E010
:1018E0000E94F3300EC38250823008F0A3C2809170
:1018F000270290912802A0912902B0912A028BA37D
:101900009CA3ADA3BEA3ABAD94E0A99F700111242D
:10191000F701E653FE4FFCA7EBA79701225F3D4F6F
:101920003AAB29ABD9014D905D906D907C902081B0
:10193000318142815381C301B2010E94E0416BAB0E
:101940007CAB8DAB9EABEDADB4E0EB9F8001112481
:10195000980126533E4F3EA72DA7C801825F9D4F99
:101960009CAF8BAFDC018D909D90AD90BC90F90148
:101970002081318142815381C501B4010E94E0413F
:1019800021966CAF7DAF8EAF9FAF219777FA7094A1
:1019900077F87094D501C401B0588F8F98A3A9A38C
:1019A000BAA3F701E05DFD4F2BA93CA94DA95EA9A3
:1019B00060817181828193810E94DF416B017C0192
:1019C000F801E05DFD4F21962CAD3DAD4EAD5FAD14
:1019D000219760817181828193810E94DF414B0157
:1019E0005C01A7019601C301B2010E9437456FABAC
:1019F00078AF89AF9AAFA50194016F8D78A189A1C5
:101A00009AA10E9437459B01AC016FA978AD89ADC1
:101A10009AAD0E94E0416FAB78AF89AF9AAFA50154
:101A20009401C301B2010E9437454B015C01A7013B
:101A300096016F8D78A189A19AA10E9437459B01DB
:101A4000AC01C501B4010E94DF412FA938AD49ADF9
:101A50005AAD0E945F426B017C019FA192FF13C0AF
:101A60002DEB37E346E055EBC701B6010E94F74482
:101A700087FD1DC02BED3FE049EC50E4C701B601E6
:101A80000E94DF4112C02DEB37E346E055E3C7016A
:101A9000B6010E94D542181654F02BED3FE049ECF8
:101AA00050E4C701B6010E94E0416B017C018090C7
:101AB000960190909701A0909801B09099012BA168
:101AC0003CA14DA15EA1CA01B9010E94E041A5015E
:101AD00094010E94DF419B01AC01C501B4010E9449
:101AE00037450E94D6454B015C0120E030E040E0E4
:101AF0005FE3C701B6010E9437452BA13CA14DA170
:101B00005EA10E9437459F77A50194010E94DF42A4
:101B10000E94C4430E94584378AF6FABDB01AB2BEC
:101B200009F4D2CE198D4B01A12CB12C13FF12C098
:101B3000C501B4010E9487439B01AC0169897A8980
:101B40008B899C890E943745698B7A8B8B8B9C8B08
:101B5000177F198FC501B4010E9487434B015C01B7
:101B60009B01AC01C701B6010E94DF426FA378A7B9
:101B700089A79AA72296EFAD2297B4E0EB9FC00108
:101B800011248C0106531E4FFC01E05DFD4FD8016E
:101B90002D913D914D915C91608171818281938104
:101BA0000E94DF41A50194010E94DF422D966CAF97
:101BB0007DAF8EAF9FAF2D972FA138A549A55AA510
:101BC000CA01B9010E9437459B01AC0160E070E099
:101BD00080E090E40E94DF416B017C012BEA3AEA4D
:101BE0004AE25EE36FA178A589A59AA50E943745D0
:101BF0004B015C0120E030E040E850E4C701B60151
:101C00000E94E0419B01AC01C501B4010E9437452F
:101C100025966CAF7DAF8EAF9FAF259720E030E06B
:101C200040E05FE3C701B6010E94374529966CAFDB
:101C30007DAF8EAF9FAF29971BA222242394312C16
:101C4000EFA9F8AD2E163F0609F43ECEBBA1BC307D
:101C500008F048C029962CAD3DAD4EAD5FAD29973B
:101C60006F8D78A189A19AA10E9437456B017C01F3
:101C700025962CAD3DAD4EAD5FAD2597C301B201AC
:101C80000E943745A70196010E94E0417B016C014B
:101C900029962CAD3DAD4EAD5FAD2997C301B20184
:101CA0000E9437454B015C0125962CAD3DAD4EADF4
:101CB0005FAD25976F8D78A189A19AA10E943745C4
:101CC0009B01AC01C501B4010E94DF412B013C0125
:101CD000EBA1EF5FEBA3470156018F8E98A2A9A25B
:101CE000BAA265C0B10180E090E00E9487432FA1B5
:101CF00038A549A55AA50E9437456B017C010E9471
:101D0000DA426F8F78A389A39AA3C701B6010E9414
:101D1000C8454B015C01A9A9BAA9CD90DD90ED9011
:101D2000FC90F7FAF094F7F8F094ABADBCAD8D9160
:101D30009D910D90BC91A02D8BA39CA3ADA3BEA3A0
:101D40002F8D38A149A15AA1C701B6010E9437457C
:101D50002B013C01A50194016BA17CA18DA19EA149
:101D60000E9437459B01AC01C301B2010E94E041D2
:101D70002B013C01A5019401C701B6010E94374522
:101D80006B017C012F8D38A149A15AA16BA17CA1C7
:101D90008DA19EA10E9437459B01AC01C701B601F0
:101DA0000E94DF416F8F78A389A39AA31BA2A3018E
:101DB00092016BA97CA98DA99EA90E94E041EBA587
:101DC000FCA560837183828393832F8D38A149A101
:101DD0005AA121966CAD7DAD8EAD9FAD21970E942D
:101DE000E041ADA5BEA56D937D938D939C93139714
:101DF0002D962CAD3DAD4EAD5FAD2D97F8016081B8
:101E00007181828193810E94E041D8016D937D931D
:101E10008D939C931397BE016F5E7F4F8AEC91E088
:101E20000E94F33080913D0181116BC0BFEF2B1AEE
:101E30003B0A06CF898D8460898F80913C01823076
:101E400009F45FC00E94921580913D01811162C02A
:101E5000FFA1F071FF2E109241012FA123FB8827D3
:101E600080F90E94361080B1887090911A0189170C
:101E700049F084E00E9439160E94801480E00E949C
:101E8000361048C0B80180E392E00E94F33081E050
:101E900080933B0182E00E9449160E948014809149
:101EA0003D01811137C080913C018111F6CF8091B5
:101EB0003B01813081F4FF2051F080E1EBE1F1E062
:101EC000ABE2B1E001900D928A95E1F707C085E0A1
:101ED0000E94391603C081E08093410110923B01BA
:101EE00080E00E9436100E9480140E945A1F0E94B7
:101EF00084300E942B2C0E9453418091410181111A
:101F000088C080E1E0E3F2E0AAECB1E001900D923C
:101F10008A95E1F7809106028093B901882309F43C
:101F20007FC00E9492158091B90190913C0183304D
:101F300041F49230D1F188E00E9449160E94801449
:101F400034C081E08093B2011092B6011092B501C5
:101F50001092B3011092B8011092BB011092BA0115
:101F600084E680934301809344018093450192303D
:101F700091F06AED71E080E00E9444258823E1F150
:101F80000E94D51640E050E0BA0180E00E945C2239
:101F900080E00E9471358CE593E00E94142C83EF61
:101FA00092E00E94142C0E9434291092B9012FC093
:101FB00081E036C082E034C088E132C086E230C0C1
:101FC00089E12EC084E02CC08BE12AC085E228C0C4
:101FD00084E126C08EE124C08FE122C086E120C0CA
:101FE00080E21EC082E21CC083E21AC084E218C0F4
:101FF00080E116C08FE014C087E012C080E1E0E30A
:10200000F2E0AAECB1E001900D928A95E1F780E050
:1020100007C00E94AF347ECF1E8E1FA20C945102C7
:10202000C05BDF4F0FB6F894DEBF0FBECDBFDF91B0
:10203000CF911F910F91FF90EF90DF90CF90BF90C5
:10204000AF909F908F907F906F905F904F903F9058
:102050002F9008958DEE93E00C94142C0E94743010
:10206000892B19F082E00C944916089510921A01F8
:102070009091A20197FD03C098E090931A018823E4
:1020800031F090911A0188E0892780931A01089510
:102090002091A20120FF08C02BE832E441E25DE379
:1020A0000E94374541E001C040E00C94412B4F9223
:1020B0005F926F927F928F929F92BF92CF92DF92A8
:1020C000EF92FF920F931F93CF93DF93CDB7DEB7BD
:1020D000E0970FB6F894DEBF0FBECDBF1091DC05C0
:1020E000112359F181E080933C0182E693E00E9444
:1020F000142C812F0E94EE2B0E942A1084EF91E075
:102100000E9495301150123030F08FB7F894109231
:10211000DC058FBF12C08CE593E00E94142C8AE48A
:1021200093E00E94142C0E94342980E10E943F1603
:102130008091DB0584FFFCCFE8CF0091DB05002315
:1021400009F41AC304FF04C081E080933D01C2C3B7
:1021500000FF22C280E1EBE1F1E0DE019196019007
:102160000D928A95E1F7BE016F5D7F4FCE014196DA
:102170000E948D168CE30E94932780913C01883049
:1021800009F44FC068F4813009F465C0C8F08230AA
:1021900009F464C0843009F074C08DEA93E06FC024
:1021A000803209F455C018F48031F1F16AC08034EE
:1021B00009F457C0803809F064C085E993E05FC036
:1021C00010914602112351F110FF09C087ED93E0F1
:1021D0000E94142C113019F08EE20E94932711FFF7
:1021E00009C081ED93E00E94142C153018F08EE2A6
:1021F0000E94932712FF09C08BEC93E00E94142CDD
:10220000193018F08EE20E94932713FF04C085EC6A
:1022100093E00E94142C1092460233C080EC93E0AD
:102220002EC08CEB93E02BC080913E0187FD10C047
:1022300086EB93E00E94142C80913E0180FF06C043
:1022400080E31AC082FF17C085FFFACF81E314C074
:1022500082EB93E014C087EA93E011C081EA93E037
:102260000EC08BE993E00E94142C80913E0183FF05
:10227000E9CF83E301C082E30E94932702C00E945A
:10228000142C80919101982F9170B92E80FD14C06B
:102290004090FA015090FB016090FC017090FD01AC
:1022A0009AED892E91E0992EFE0131967F01CE01A3
:1022B00041966C0111E019C080914801882341F3D7
:1022C0008EE893E03EC0A30192010E94E041F70135
:1022D0006083718382839383BB20E1F094E0E90EF5
:1022E000F11C1F5FE4E0CE0ED11CF40161917191ED
:1022F000819191914F0124853585468557850E94AE
:10230000E041F70160837183828393831330D9F2B4
:10231000B11011C0F7012081318142815381F60152
:1023200060817181828193810E94DF41F601608327
:10233000718382839383143089F6B110C1CF87E80B
:1023400093E00E94142CCE0141960E94172980919F
:10235000910181FF1FC082E893E00E94142C9091AC
:10236000AA0580914902981710F0815F01C0815041
:10237000891B0E94EE2B8CE20E94932780912F07ED
:1023800090913007981710F0805801C08150891B38
:102390000E94EE2B0E94CA31F82E0E94DA16182FE6
:1023A00080B1982F987080911A01E92EE8268F2D20
:1023B000812B8E2959F18DE793E00E94142CEE2099
:1023C00019F080E50E949327FF2079F0F0FE03C00A
:1023D00088E50E949327F1FE03C089E50E949327B8
:1023E000F2FE03C08AE50E949327112379F010FFC3
:1023F00003C082E50E94932711FF03C088E40E9476
:10240000932712FF03C083E50E9493278091480120
:10241000882321F081508093480118C080913C01AD
:102420008C7711F08DE101C089E0809348018091A3
:102430004701811103C081E08093470187E793E062
:102440000E94142CCE0101960E941729F09047019A
:10245000FF2021F0FA94F092470196C082E793E0C2
:102460000E94142C80913C018C7749F06091C20548
:102470007091C3058091C4059091C50503C060E0CB
:1024800070E0CB010E9448108CE20E94932760917B
:10249000490170914A0180914B0190914C0140E0BB
:1024A0000E94412B80913C018C7711F083E101C0A7
:1024B00089E0809347018DE693E00E94142C80917F
:1024C00043010E94EE2B8CE20E94932780914401ED
:1024D0000E94EE2B8CE20E949327809145010E947E
:1024E000EE2B8091B00087FF07C05E9903C0FF24E8
:1024F000F39402C082E0F82E1091450280914402CC
:102500008111126080914302811114608091420216
:102510008111186080914102811110618091400207
:10252000882311F0106204C0F11002C0112361F180
:1025300089E693E00E94142CFF2041F0F1E0FF12A5
:1025400002C083E501C083E40E94932710FF03C00B
:1025500086E40E94932711FF03C08DE40E94932715
:1025600012FF03C080E30E94932713FF03C081E39F
:102570000E94932714FF03C082E30E94932715FF54
:1025800003C083E30E9493278EE30E9493270E9457
:102590002A1081E00E943F16802F887E09F469C0CE
:1025A00080913C01982F937009F052C08872A1F07D
:1025B00080913E01807C81F40E94A21E82E0809383
:1025C000400180913C01803239F407FD05C08091C3
:1025D0003E01806880933E0180913C01811103C0DF
:1025E00091E090933E0106FF07C085FD05C09091E4
:1025F0003E01906490933E0103FF05C0807E19F474
:1026000080E180933C0105FF23C08CE593E00E94AC
:10261000142C88E093E00E94142C0E9434298091AD
:102620003E0187FD10C090913C01903439F483FF46
:1026300007C0837E826080933E0102C0903819F00B
:1026400080E480933C0180913E01806280933E0152
:1026500007FF0CC080913C01813029F480913E013C
:10266000856080933E0180E880933C0188EE0E9463
:102670003F1601FF44C0802F8876F1F580913C0120
:10268000803471F480913E0185FD0AC084FF03C04F
:1026900010923C0105C082FF03C0886080933E0118
:1026A00080913C01882381F084FF26C090913E01F7
:1026B00090FF22C0803141F480914601882321F0AF
:1026C00088608093460118C0109240010E947430C7
:1026D000892B71F080913E0186FD0AC010923E0167
:1026E00088E080933C010E9421170E943E2204C092
:1026F00010923E0110923C0182E00E943F1602FFC0
:102700003BC080913C01807D90913E018823A9F0DF
:1027100080913F01811111C097FD0FC00E94232CB1
:102720008091400181FF05C090913E01916090939E
:102730003E01897F809340011CC097FF0AC0109220
:1027400040010E9484300E945A1F0E94AF340E94B0
:102750002B2C80913E0185FF08C08F77816080938C
:102760003E0180E480933C0104C010923E0110922F
:102770003C0184E00E943F161091DF05112381F196
:102780000E9419163091430110FF02C084E601C077
:10279000832F11FD865F12FD8A5013FD8F5F14FD9C
:1027A0008150893C08F088EC811101C081E02091C2
:1027B000440115FF02C094E601C0922F16FD92E37A
:1027C00017FD99E1831302C0921751F080934301E2
:1027D00090934401109247010E94E62F0E94232CFF
:1027E0001091DE051123C9F00E941916E12FF0E0C7
:1027F000E352FC4F8491893C08F088EC811101C0C0
:1028000081E090914301891741F080934301109238
:1028100047010E94E62F0E94232C9091DD05992309
:1028200009F452C08FB7F8941092DD058FBF209144
:10283000450190FF02C084E601C0822F91FD865FB2
:1028400092FD8A5093FD8F5F94FD8150893C08F082
:1028500088EC8A3008F48AE0821749F02091400120
:102860002860209340018093450110924701809198
:102870003C0195FF0DC0803159F420914601211192
:1028800002C022E003C020FF03C024602093460161
:10289000292F207CC9F0882311F08871A9F01091AC
:1028A000BA0197FF05C017FF02C01F7701C010686B
:1028B00096FF05C016FF02C01F7B01C01064812F68
:1028C0000E9471351093BA0180913C018C7F11F008
:1028D0000E942117E0960FB6F894DEBF0FBECDBF61
:1028E000DF91CF911F910F91FF90EF90DF90CF90EC
:1028F000BF909F908F907F906F905F904F900895C2
:10290000CF92DF92EF92FF921F93CF93DF930E94BB
:10291000571080913E01882309F4FCC00E94743056
:10292000009771F4C091BA018091BB01C82BC0908F
:10293000BD01D090BE01E090BF01F090C00106C083
:10294000FC01C589C2A8D3A8E4A8F5A88091A2017A
:1029500081FF03C080E20E942116DC2FD07311E0BA
:10296000C07480913E01882309F4D4C00E94FB31D9
:102970000E945A2480913D018111CCC090913E016A
:1029800090FFC5C080913C01282F207C09F474C0C1
:1029900092FD12C01092460140E050E0BA0180E082
:1029A0000E945C2280E00E94713590913E019D7FE3
:1029B000946090933E01ABC08038E1F48CE593E0E5
:1029C0000E94142C85EC92E00E94142C0E94342961
:1029D00040E050E0BA0180E00E945C2280E00E946A
:1029E00071350E942C1F80913D01811193C00E947E
:1029F0005710F9CF803419F49F7D90933E01809158
:102A00003E0183FF84C09091BB019923C1F081FDF9
:102A100016C08091A20181FF06C0809140018860AC
:102A2000809340010CC0B701A6018D2F0E945C224B
:102A300041E060E070E080E890E40E94A030809186
:102A4000BA01882371F080913E0181FD0AC08C2F6C
:102A50000E94713541E060E070E080E89FE30E94F1
:102A6000A03090913E0191FD52C0906190933E0143
:102A700082E00E9449164BC0909146019923C9F10A
:102A800091FF0DC08091BB018823B1F040E050E080
:102A9000BA0180E00E945C221093460138C09C700D
:102AA000B1F18091BB0181110AC08091460183FF81
:102AB00003C082E00E9449161092460128C08CE5AE
:102AC00093E00E94142C8EEC92E00E94142C0E9441
:102AD00034298091A20181FF06C080914001886065
:102AE00080934001E2CFB701A6018D2F0E945C22A6
:102AF000DCCF8091400183FF0AC0B701A6018D2F72
:102B00000E945C2280914001877F809340010E9457
:102B1000571027CFDF91CF911F91FF90EF90DF905B
:102B2000CF9008950E942E100E94801480913D0144
:102B3000811108C00E947430892BB1F780913C014B
:102B4000883091F3089580916B00887E80936B00AC
:102B500084E00E944B3283E00E944B320E9480143A
:102B600080913D01811106C00E94AF340E942B2C40
:102B70000C94E0310895CF93DF93C5EDD7E08991B0
:102B8000882319F00E949327FACFDF91CF910895FF
:102B9000CF93DF9321E5829FC0011124EC01DD5F1B
:102BA00040E550E0BE0185ED97E00E941E35892B7F
:102BB00069F41092D5070E94921540E550E065ED4A
:102BC00077E0CE010E94D73480E001C081E0DF9140
:102BD000CF910895CF93DF93C0E08C2F0E94C8154A
:102BE00081110EC01092D5078EE30E9493270E9498
:102BF000BB158AE30E94932787E00E94F12712C049
:102C00008091D507882371F00E941702D82F8EE398
:102C10000E9493270E94BB158AE30E9493278D2F61
:102C20000E940F29C13011F0C1E0D7CFDF91CF91C1
:102C300008958FB7F8941092DF051092DE058FBFCC
:102C400008952FB7F8949091DD05892B8093DD05C9
:102C50002FBF08959FB7F8948093DE059FBF089516
:102C60002FB7F8949091DF05892B8093DF052FBF54
:102C700008959FB7F8948093DC059FBF08952FB700
:102C8000F8949091DB05809589238093DB052FBF15
:102C900008952FB7F8949091DB05892B8093DB057D
:102CA0002FBF0895AF92BF92CF92DF92EF92FF9223
:102CB0000F931F93CF93DF93EC010DE711E05C01BD
:102CC00080E1A80EB11CC990D990E990F99020E05C
:102CD00030E0A901C701B6010E94F74418168CF034
:102CE000F80121913191419151918F01C701B601B4
:102CF0000E94D54287FD05C0CA15DB0521F780E09B
:102D000001C081E0DF91CF911F910F91FF90EF9073
:102D1000DF90CF90BF90AF900895AF92BF92CF92C7
:102D2000DF92EF92FF920F931F93CF93DF9300D028
:102D300000D0CDB7DEB75B012DE4E22E21E0F22E0C
:102D40008C016B0180E1C80ED11CF501619171917C
:102D5000819191915F01F7012191319141915191BF
:102D60007F0129833A834B835C830E9489432981B5
:102D70003A814B815C810E94DF42F801619371933B
:102D8000819391938F01AC14BD04F9F60F900F90CD
:102D90000F900F90DF91CF911F910F91FF90EF90C7
:102DA000DF90CF90BF90AF9008950E94921510923F
:102DB0004801089593B1892F877049F0892F809534
:102DC000817091FF826092FD03C08460089580E06D
:102DD00008951F920F920FB60F9211242F933F93D5
:102DE0004F935F936F937F938F939F93AF93BF9313
:102DF000EF93FF930E94DA16882391F080FF03C0BF
:102E00000E94D1300DC082FF04C08091DB0582603A
:102E100005C081FF05C08091DB0588608093DB05DC
:102E2000FF91EF91BF91AF919F918F917F916F91A2
:102E30005F914F913F912F910F900FBE0F901F9078
:102E400018952F923F924F925F926F927F928F923E
:102E50009F92AF92BF92CF92DF92EF92FF920F9329
:102E60001F93CF93DF93CDB7DEB7EE970FB6F894ED
:102E7000DEBF0FBECDBF8091400180FD4AC790915B
:102E80000F0680911006981709F443C78091AC068D
:102E90009091AD06892B09F017C31091400112FFE4
:102EA00009C08091AA0526E3289FC0011124865BF2
:102EB0009D4F02C00E9474309093AD068093AC0683
:102EC0002090AC063090AD062114310409F421C7DE
:102ED0000091AC05802F817000FF03C01092AC05FB
:102EE000EAC09091AB059F5F953009F0892F8093E0
:102EF000AB05E82EF12C36E13E9DF0013F9DF00D33
:102F00001124E25CF94FF0933D06E0933C06D101B9
:102F100054969C915497948BE6E18E9FC0011124A6
:102F200020E030E04D915D916D917D91F901E80FC8
:102F3000F91FE25CF94F689412F8440F551F661FA1
:102F4000771F1694D1F740835183628373832C5F7C
:102F50003F4F2031310531F726E12E9DF0012F9DA5
:102F6000F00D11249F01225C394FF1018089918974
:102F7000A289B38943E0880F991FAA1FBB1F4A95F6
:102F8000D1F7F901808B918BA28BB38BD101509635
:102F90006D917D918D919C9153970E948743609391
:102FA000B1057093B2058093B3059093B405F10118
:102FB00022A133A144A155A10E94DF429B01AC0193
:102FC0006093B5057093B6058093B7059093B805E7
:102FD00060E070E080EA9FE30E94DF426093B90501
:102FE0007093BA058093BB059093BC051092AD0514
:102FF0001092AE051092AF051092B00511FD02C0FF
:1030000003FF1FC06091CA057091CB058091CC056C
:103010009091CD056093C2057093C3058093C4055C
:103020009093C5059B01AC010E943745D10156968E
:103030006D937D938D939C935997077F0093AC0577
:103040000FC0F10166897789808D918D0E94D645E8
:103050006093C2057093C3058093C4059093C50522
:10306000F6E1FE9DC001FF9D900D11249C01225CA4
:10307000394F7901D90155961C928091A20181FFA7
:103080001AC0F101858985FF16C026A537A540A97C
:1030900051A960E070E080E89FE30E94DF42609306
:1030A000D6057093D7058093D8059093D905E1E0B4
:1030B000D7015596EC931092BE051092BF05109261
:1030C000C0051092C105D1015E962D913D914D91A3
:1030D0005C91919729833A834B835C8360E070E035
:1030E00080E09FE30E94DF4269877A878B879C8715
:1030F000F10142A053A064A075A086889788A08C97
:10310000B18C11FF44C0F2E0F093BD05A50194011C
:103110000E9437459B01AC01C301B2010E94DF410F
:103120006B017C0120E030E0A9010E94D54287FFBD
:103130001DC029813A814B815C81CA01B9010E947D
:10314000E041A30192010E9437459B01AC01C501FA
:10315000B4010E94DF410E94D6456093CA05709376
:10316000CB058093CC059093CD05ABC1C092BE0535
:10317000D092BF05E092C005F092C1051092CA0539
:103180001092CB051092CC051092CD059AC11092E9
:10319000BD054092CE055092CF056092D005709249
:1031A000D10512FF0CC01092CA051092CB051092E7
:1031B000CC051092CD05C12CD12C760124C0E09114
:1031C0004902EF5FE03109F4E0E08091AA05E817D9
:1031D00059F026E32E9FF0011124E65BFD4FC688CF
:1031E000D788E08CF18C03C0C12CD12C7601C701AB
:1031F000B6010E94D6456093CA057093CB058093B3
:10320000CC059093CD05C1010E94572C698B7A8B18
:103210008B8B9C8B9B01AC010E9437456D837E8319
:103220008F8398879B01AC01C501B4010E94F744CC
:1032300018160CF070C02D813E814F815885C50154
:10324000B4010E94DF419B01AC0169857A858B85C1
:103250009C850E9437459B01AC01C301B2010E94CD
:10326000DF416093CE057093CF058093D005909396
:10327000D10520E030E0A9010E94D54218162CF1BA
:1032800032E03093BD0529813A814B815C81CA01CE
:10329000B9010E94E041A30192010E9437459B01C0
:1032A000AC01C501B4010E94DF410E94D645609384
:1032B000CA057093CB058093CC059093CD05809182
:1032C000AC0588608093AC05FCC0A70196016D81B8
:1032D0007E818F8198850E94DF419B01AC016985C9
:1032E0007A858B859C850E9437456093D2057093C3
:1032F000D3058093D4059093D50589899A89AB89A4
:10330000BC898093C6059093C705A093C805B09368
:10331000C90593E0BBC0A7019601C501B4010E9495
:10332000DF419B01AC0169857A858B859C850E9474
:1033300037459B01AC01C301B2010E94E04120E08E
:1033400030E040E05FE30E9437456D877E878F87DE
:10335000988B20E030E0A9010E94F74418160CF089
:1033600098C0A30192016D857E858F8598890E9402
:10337000D54287FF8AC0A70196016D817E818F812A
:1033800098850E94DF419B01AC0169857A858B8518
:103390009C850E9437456093D2057093D305809336
:1033A000D4059093D5052D853E854F8558890E947B
:1033B000D54287FF39C029893A894B895C89209396
:1033C000C6053093C7054093C8055093C9052D81A4
:1033D0003E814F815885C501B4010E94D5428111BB
:1033E00004C031E03093BD056CC0A50194016D812E
:1033F0007E818F8198850E94DF419B01AC016985A8
:103400007A858B859C850E9437459B01AC01C30161
:10341000B2010E94DF416093CE057093CF05809387
:10342000D0059093D1054DC08D859E85AF85B88917
:103430008093CE059093CF05A093D005B093D1058E
:103440008093D2059093D305A093D405B093D5056E
:1034500029813A814B815C81CA01B9010E94E04116
:103460002D853E854F8558890E943745A7019601D5
:103470000E94E0410E94D6456093C6057093C7053F
:103480008093C8059093C9051CC092E09093BD0538
:1034900018C01092CE051092CF051092D005109250
:1034A000D1058091CA059091CB05A091CC05B09132
:1034B000CD058093C6059093C705A093C805B0932A
:1034C000C90518601093400180913B06A82FB0E019
:1034D000BA87A98727E02A9FF0012B9FF00D1124BE
:1034E000EF5EF94F8091AB0584834091AC0650911B
:1034F000AD065EAF4DAFDA019296BC91BEA3FA0164
:10350000F3A1FFA3DA019496BC91B8A7FA01F5A143
:10351000F9A72091B9053091BA054091BB055091AA
:10352000BC056EA17FA18B2F9F2F0E94DF416AAB4C
:103530007BAB8CAB9DAB20E030E0A9010E94D54273
:1035400087FF04C01AAA1BAA1CAA1DAA2091CE0597
:103550002D833091CF053D874091D005498B509107
:10356000D1055D8B8091C6058A8F9091C7059B8F91
:10357000A091C805AC8FB091C905BD8F6090C20500
:103580007090C3054090C4055090C505E091D205E8
:10359000EAA7F091D305FBA72091D4052CA7309181
:1035A000D5053DA74091BD0549835091BE055EA755
:1035B0008091BF058FA79091C00598ABA091C105E0
:1035C000A9ABB091CA05BEABE091CB05EFABF091D2
:1035D000CC05F8AF2091CD0529AF2EA03FA008A5BE
:1035E00019A58EE3C82E83ECD82E8EE2E82E89E34F
:1035F000F82E1E8A1F8A188E198ECE8EDF8EE8A2B4
:10360000F9A29981913009F4E7C008F474C0ADAD16
:10361000BEAD5E962D913D914D915C919197933009
:1036200009F009C1C701B6010E9437454B015C0191
:1036300020E030E040E05FE30E9437459B01AC01B1
:10364000B301C2010E94DF419B01AC01C701B60179
:103650000E9437456AA37BA38CA39DA39B01AC0169
:10366000B101C8010E94DF411B018C012D813D8504
:1036700049895D890E94D54287FD0BC020E030E07A
:10368000A9016AA17BA18CA19DA10E94D542181617
:103690005CF12D813D8549895D896EA17FA188A559
:1036A00099A50E94DF419B01AC010E94E0416B01A2
:1036B0007C012A8D3B8D4C8D5D8DB301C2010E9432
:1036C000E0419B01AC01C701B6010E94DF426B01E2
:1036D0007C016A8C7B8C4C8C5D8C2D803D840989AF
:1036E0001D89B1E0B98311C1A5019401B301C201E3
:1036F0000E94DF416EC0EDADFEAD268D378D40A13D
:1037000051A1C701B6010E9437454B015C0120E081
:1037100030E040E05FE30E9437459B01AC01B3011C
:10372000C2010E94E0419B01AC01C701B6010E94A9
:1037300037459B01AC01B101C8010E94DF411B016B
:103740008C012D813D8549895D890E94D54287FF85
:103750003AC02D813D8549895D896EA17FA188A5EB
:1037600099A50E94DF419B01AC010E94E0416B01E1
:103770007C012A8D3B8D4C8D5D8DB301C2010E9471
:10378000E0419B01AC01C701B6010E94DF426B0121
:103790007C012AA53BA54CA55DA56D817D85898908
:1037A0009D890E94D542811103C0F2E0F98302C0D5
:1037B00021E029836A8C7B8C4C8C5D8C2D803D8430
:1037C00009891D89A2C0A5019401B301C2010E940B
:1037D000E0413B012C0199C0A70196016A8D7B8DC8
:1037E0008C8D9D8D0E9437459B01AC01B101C801B4
:1037F0000E94DF415B014C012AA53BA54CA55DA5BC
:103800000E94D54287FF7FC02AA53BA54CA55DA598
:10381000B101C8010E94DF412A8D3B8D4C8D5D8D29
:103820000E94DF426B017C012AA43BA40CA51DA5CC
:1038300032E039836AC0C701B6010E9437454B01A7
:103840005C019B01AC01B301C2010E94F744181650
:103850009CF520E030E040E05FE3C501B4010E9448
:1038600037459B01AC01B301C2010E94DF419B01BE
:10387000AC01C701B6010E9437459B01AC01B10103
:10388000C8010E94DF416AA37AAF8BAF9CAF2EA51F
:103890003FA548A959A90E94F74418166CF4A50140
:1038A0009401B301C2010E94DF413B012C012AA017
:1038B0003AAC0BAD1CAD29C02EA53FA548A959A90E
:1038C000B101C8010E94DF419B01AC010E94E041AF
:1038D0006B017C012EA93FA948AD59ADB301C201CE
:1038E0000E94E0419B01AC01C701B6010E94DF428A
:1038F0006B017C016EA87FA848AC59AC2EA43FA4F4
:1039000008A919A902C015018401A70196016E89B1
:103910007F89888D998D0E94E0416E8B7F8B888F87
:10392000998F2E8D3F8D48A159A10E94D54287FFC6
:1039300009C02E893F89488D598D6E8D7F8D88A154
:1039400099A131C02AA93BA94CA95DA9B101C8011F
:103950000E94F7441816ACF0C301D2018093C2054F
:103960009093C305A093C405B093C505B981B093E6
:10397000BD05E0913C06F0913D069589911134C05A
:103980002FC02EE333EC4EE259E36E8D7F8D88A17C
:1039900099A10E94E0416E8F7F8F88A399A32E8901
:1039A0003F89488D598D0E94DF416B017C012EA516
:1039B0003FA548A959A9B101C8010E94F7441816AA
:1039C0000CF41FCEC301D2018093C2059093C305AE
:1039D000A093C405B093C505E981E093BD05C9CFA7
:1039E0008091400183FF3FC0ADADBEAD55968C9137
:1039F0005597807349F1D296CD90DD90ED90FC9073
:103A0000D5979923D1F02091D6053091D7054091D3
:103A1000D8055091D9056091C2057091C305809178
:103A2000C4059091C5050E9437459B01AC01C701B3
:103A3000B6010E9437456B017C01C701B6010E94A7
:103A4000E1228093DA050AC01092490110924A01DE
:103A500010924B0110924C011092DA0580914001B6
:103A6000877F8093400127E0E985FA852E9FA0019A
:103A70002F9F500D1124CA018F5E994F9E838D8315
:103A80008091DA05AD81BE8116968C932091B505A3
:103A90003091B6054091B7055091B805B101C80104
:103AA0000E9437452B013C010E94BE426B017C0104
:103AB0006091B1057091B2058091B3059091B40504
:103AC0000E94BE424B015C01A70196010E94DF41AA
:103AD0000E94584369837A838B839C8329813A812E
:103AE000ED81FE8131832083232B41F480914001BD
:103AF00081FF04C08160809340010BC12091AD051E
:103B00003091AE054091AF055091B0056E897F8927
:103B1000888D998D0E94E0416D837E838F83988785
:103B2000A3019201C501B4010E94DF419B01AC01D8
:103B30006D817E818F8198850E94DF424B015C01FF
:103B400020EC31EE44E65EE40E9437450E94BE421E
:103B50000E945843603D57E075078105910560F468
:103B600027E0A985BA852A9FF0012B9FF00D11242B
:103B7000EF5EF94F158254C0603A3FE0730781054C
:103B8000910568F4A7E049855A85A49FF001A59F97
:103B9000F00D1124EF5EF94FB1E0B5831FC0603422
:103BA000EFE17E078105910568F447E029853A85B4
:103BB000429FF001439FF00D1124EF5EF94F52E058
:103BC00055830CC027E0A985BA852A9FF0012B9F59
:103BD000F00D1124EF5EF94F33E03583A7E04985FE
:103BE0005A85A49FF001A59FF00D1124EF5EF94FB7
:103BF0002581022E04C096958795779567950A943E
:103C0000D2F749815A8102C0440F551F2A95E2F725
:103C1000518340836115710551E08507910568F472
:103C200027E0A985BA852A9FF0012B9FF00D11246A
:103C3000EF5EF94F7383628304C04FEF5FEF5383EE
:103C400042838091100680933B068F5F863019F087
:103C50008093100602C010921006E091AC06F0911D
:103C6000AD06C101D80182A393A3A4A3B5A3C092BA
:103C7000B105D092B205E092B305F092B405A3016C
:103C80009201C701B6010E94DF41A50194010E9483
:103C900037456093AD057093AE058093AF05909363
:103CA000B0052091BE053091BF054091C0055091EF
:103CB000C105B101C8010E94D5428111E0C820E0D0
:103CC00030E0A901B101C8010E94F7449091400180
:103CD000181614F092FF04C091609093400119C02F
:103CE0001092AD061092AC06909149028091AA05FF
:103CF000891709F4C4C881E0890F803109F480E094
:103D000020914802921302C0809348028093490296
:103D1000B6C8EE960FB6F894DEBF0FBECDBFDF91EA
:103D2000CF911F910F91FF90EF90DF90CF90BF90B8
:103D3000AF909F908F907F906F905F904F903F904B
:103D40002F900895CF93DF93C091AC06D091AD062C
:103D50002097C9F08091AC0581608093AC0560919B
:103D6000C2057091C3058091C4059091C5059B0162
:103D7000AC010E9437456E8B7F8B888F998F109294
:103D8000AD061092AC06DF91CF91089560918E013F
:103D900070E040E0E0918F01F0E080E090E030E002
:103DA000582FDB01082E02C0B595A7950A94E2F7BB
:103DB000A0FF0EC0009731F0813031F0823031F039
:103DC00020E405C021E003C024E001C020E1422B33
:103DD000DF0102C0B595A7955A95E2F7A0FF0EC086
:103DE000009731F0813031F0823031F020E805C0A9
:103DF00022E003C028E001C020E2322B019684308B
:103E0000910571F64093E0053093E10508951F9206
:103E10000F920FB60F9211248F938091F30588B9FA
:103E20008F910F900FBE0F901F9018951F920F92B9
:103E30000FB60F9211248F939F9388B19091E00554
:103E400095758A7A892B88B915BC9F918F910F90AF
:103E50000FBE0F901F90189580916F008D7F8093FB
:103E60006F0080918100887F816080938100109233
:103E7000E2058091900190913C018F3F39F42091AF
:103E8000DC05211103C0903841F402C0943029F0C0
:103E900090E00E94953081E001C080E09091A20105
:103EA00092FF02C091E08927882311F05D9A08955E
:103EB0005D980895CF93DF930E942C1F80E3EBEA77
:103EC000F5E0DF011D928A95E9F7C3EED5E08CE2BB
:103ED000FE0111928A95E9F71092AD061092AC0698
:103EE00010920F0610923B0681E08093100610920C
:103EF000E2050E94C61E8091E1058C8B88B18A7A0A
:103F00009091E005892B88B988B185759091E1057C
:103F1000892B88B9DF91CF9108951F920F920FB628
:103F20000F9211242F933F934F935F936F937F933F
:103F30008F939F93AF93BF93EF93FF938091E2058D
:103F400081118BC288B19091F7059A7A8575892B7A
:103F500088B988B18A7A9091F605892B8093F30508
:103F60008091F50586BD82E085BD81E08093E20504
:103F7000789480910D0690910E06892B09F0D3C09C
:103F800080910F0690913B06981709F4BCC0E09110
:103F90000F062E2F30E087E0E89FF0011124EF5E3E
:103FA000F94FF0930E06E0930D0682819381909372
:103FB0008900809388008081918190930906809385
:103FC0000806E48180910A068E17A1F1E0930A06A3
:103FD00086E1E89FF0011124E25CF94FF0930C06B2
:103FE000E0930B0680899189A289B389B695A7953C
:103FF000979587958093EF059093F005A093F10531
:10400000B093F2058093EB059093EC05A093ED053A
:10401000B093EE058093E7059093E805A093E9053A
:10402000B093EA058093E3059093E405A093E5053A
:10403000B093E605E0910B06F0910C069091E10536
:10404000848989278093F70587E0829FD001839F29
:10405000B00D1124AF5EB94F15968C911597408124
:10406000518162817381082E04C0769567955795BA
:1040700047950A94D2F74093F8055093F905609359
:10408000FA057093FB054481558166817781082E7E
:1040900004C076956795579547950A94D2F7409353
:1040A000FC055093FD056093FE057093FF05408568
:1040B000518562857385082E04C07695679557955E
:1040C00047950A94D2F740930006509301066093F7
:1040D000020670930306448555856685778504C07E
:1040E00076956795579547958A95D2F7409304063C
:1040F00050930506609306067093070616968C91FA
:104100000E94C12410C00E942C1FE0910B06F09168
:104110000C068589882319F080E00E94C12484E080
:104120000E9449169AC180913B018130B1F480B15F
:10413000887090911A01891781F010923B0180E1FB
:10414000EBE1F1E0ABE2B1E001900D928A95E1F78D
:104150008091DB0580648093DB051092F605409129
:10416000F8055091F9056091FA057091FB05809171
:10417000E3059091E405A091E505B091E605840F73
:10418000951FA61FB71F8093E3059093E405A093A6
:10419000E505B093E605E0910B06F0910C06408929
:1041A000518962897389481759076A077B0768F53F
:1041B00021E02093F6054089518962897389841B27
:1041C000950BA60BB70B8093E3059093E405A093A2
:1041D000E505B093E605248980911B0190911C01AF
:1041E000A0911D01B0911E0121FF04C00197A109FA
:1041F000B10903C00196A11DB11D80931B019093CD
:104200001C01A0931D01B0931E014091FC0550912B
:10421000FD056091FE057091FF058091E705909185
:10422000E805A091E905B091EA05840F951FA61F46
:10423000B71F8093E7059093E805A093E905B09335
:10424000EA054089518962897389481759076A07C5
:104250007B0778F52091F60524602093F6054089C8
:10426000518962897389841B950BA60BB70B8093C8
:10427000E7059093E805A093E905B093EA05248942
:1042800080911F0190912001A0912101B091220104
:1042900023FF04C00197A109B10903C00196A11D24
:1042A000B11D80931F0190932001A0932101B09331
:1042B0002201409100065091010660910206709122
:1042C00003068091EB059091EC05A091ED05B0916E
:1042D000EE05840F951FA61FB71F8093EB059093E3
:1042E000EC05A093ED05B093EE05408951896289F4
:1042F0007389481759076A077B0778F52091F605F7
:1043000020612093F6054089518962897389841B55
:10431000950BA60BB70B8093EB059093EC05A09340
:10432000ED05B093EE05248980912301909124013D
:10433000A0912501B091260125FF04C00197A10994
:10434000B10903C00196A11DB11D80932301909373
:104350002401A0932501B0932601409104065091B9
:10436000050660910606709107068091EF05909111
:10437000F005A091F105B091F205840F951FA61FDD
:10438000B71F8093EF059093F005A093F105B093CC
:10439000F2054089518962897389481759076A076C
:1043A0007B0778F52091F60520642093F605408977
:1043B000518962897389841B950BA60BB70B809377
:1043C000EF059093F005A093F105B093F2052489D1
:1043D0008091270190912801A0912901B0912A0193
:1043E00027FF04C00197A109B10903C00196A11DCF
:1043F000B11D8093270190932801A0932901B093C8
:104400002A0180913C01843039F4909142018091DD
:10441000F60589238093F605809108069091090698
:1044200001979093090680930806892B69F41092EE
:104430000E0610920D0680910F068F5F80930F0677
:10444000863011F410920F069091E0058091F605E8
:1044500089278093F6051092E205FF91EF91BF91B5
:10446000AF919F918F917F916F915F914F913F910C
:104470002F910F900FBE0F901F9018958091A20161
:1044800082FF02C05D9A01C05D988091E005809333
:10449000F60580918D0190E09C01285F3F4F220F2F
:1044A00021952093F505880F819587BD80916F0038
:1044B000826080936F000895CF93DF9300D000D087
:1044C0001F92CDB7DEB790913D01911137C0811198
:1044D0000BC01092490110924A0110924B011092A8
:1044E0004C010E94E12428C0803129F45E9890910B
:1044F00047029D7F04C05E9A90914702926090931C
:1045000047024A835B836C837D8389830E945A249C
:104510009091A2014A815B816C817D81898191FFAB
:1045200005C0803219F440E050E0BA01CB01BA0175
:104530000E94E1220E94C124109247010F900F9027
:104540000F900F900F90DF91CF910895CF93DF934D
:1045500000D000D01F92CDB7DEB790913C019230D1
:10456000A9F04A835B836C837D8389830E949215C3
:104570004A815B816C817D8189810F900F900F90C2
:104580000F900F90DF91CF910C945C220F900F90C1
:104590000F900F900F90DF91CF91089582E18CBD25
:1045A0002C9A0895382F90E0931719F02DB5207CA0
:1045B00029F081E0931720F480E008959F5FF4CF05
:1045C00008954F925F926F927F928F929F92AF92D7
:1045D000BF92CF92DF92EF92FF92CF936B017C015B
:1045E000C091450180909E0190909F01A090A001F4
:1045F000B090A10140909A0150909B0160909C0165
:1046000070909D01A3019201C501B4010E94F7447D
:1046100087FF1AC06C2F70E080E090E00E94894311
:104620002AE037ED43E25CE30E9437459B01AC0191
:10463000C701B6010E9437456B017C01A3019201BD
:104640000E94F74487FD0AC04092490150924A01F6
:1046500060924B0170924C018FEF47C0A50194010D
:10466000C701B6010E94D5421816E4F020E030E000
:10467000A901C701B6010E94D542811109C010925B
:10468000490110924A0110924B0110924C012DC029
:104690008092490190924A01A0924B01B0924C0144
:1046A00081E023C0C0924901D0924A01E0924B01BF
:1046B000F0924C01A5019401C701B6010E94DF41AF
:1046C0002091AC073091AD074091AE075091AF07F4
:1046D0000E9437450E94C44320E030E040E85FE399
:1046E0000E94E0410E945843862FCF91FF90EF90A7
:1046F000DF90CF90BF90AF909F908F907F906F9002
:104700005F904F900895AF92BF92CF92DF92EF9259
:10471000FF920F931F93CF93DF93CDB7DEB76497CC
:104720000FB6F894DEBF0FBECDBFD82E81E58CBD8D
:104730008DB58E7F8DBD2C988FEF8EBD80E40E944D
:10474000D2228111A4C08AEA8EBD80E40E94D222C6
:1047500081119DC085E58EBD80E40E94D222811129
:1047600096C0DEBC80E1EBE1F1E0DE011196019044
:104770000D928A95E1F70D2D10E07801EE0CFF1CEB
:10478000EE0CFF1CE1E0F0E0EC0FFD1FEE0DFF1D55
:1047900060817181828193810E948943F701E35B8B
:1047A000FE4F20813181428153810E94DF42698B1B
:1047B0007A8B8B8B9C8B7E0121E1E20EF11C5701E1
:1047C00034E0C32ECE0C80E40E94D222882319F05C
:1047D0000E94CE2249C080E40E94D222F50181913C
:1047E0005F018EBDCE12EFCFD801AA0FBB1FAA0F5B
:1047F000BB1FA652BE4F000F111F000F111FF80163
:10480000E651FE4F20813181428153816D917D912E
:104810008D919C910E94E0419B01AC0169897A894C
:104820008B899C890E94DF41698B7A8B8B8B9C8B57
:10483000F2E0DF120EC02091FA013091FB014091AD
:10484000FC015091FD010E94DF41698B7A8B8B8BBB
:104850009C8B80E40E94D2228111BACFF701819112
:104860007F018EBDCE12F5CF80E40E94D22281114D
:104870000EC0809137078EBD80E40E94D222811144
:1048800006C0809136078EBD80E40E94D2220E942D
:10489000CE2264960FB6F894DEBF0FBECDBFDF9177
:1048A000CF911F910F91FF90EF90DF90CF90BF902D
:1048B000AF90089581E58CBD8DB581608DBD8091EF
:1048C00035078EBD80E10E94D222811158C08091AF
:1048D00047028EBD80E10E94D222811150C02B9AE6
:1048E000000000002B982C98000000002C9A1EBCA1
:1048F00080E10E94D222811142C08EB580958093C2
:10490000AB079091AA07891302C080933407809364
:10491000AA071EBC80E10E94D222811130C08EB550
:1049200080958093A9079091A807891302C080936E
:1049300033078093A8071EBC80E10E94D222811118
:104940001EC08EB580958093A7079091A607891306
:1049500002C0809332078093A6071EBC80E10E94AC
:10496000D22281110CC08EB580958093A5079091BD
:10497000A407891302C0809331078093A4070C9485
:10498000CE228093B30081110DC08091B0008F774B
:104990008093B000809147028E7F809347021092EF
:1049A00038070DC08091B00080688093B00080917E
:1049B000470281608093470281E0809338070C941E
:1049C0005A24E0EBF0E080818F778083809147026A
:1049D0008C7F80934702109238070C945A24579A80
:1049E00083E08093B00084E08093B100569A2091D8
:1049F0009E0130919F014091A0015091A1016091D1
:104A00009A0170919B0180919C0190919D010E945F
:104A1000DF419B01AC0160E070E08EE793E40E940F
:104A2000DF426093AC077093AD078093AE0790931D
:104A3000AF070C94E1246AE080E090E00E94B53476
:104A400045E650E06DE471E081E090E00C94D734ED
:104A5000CF93DF9300D01F92CDB7DEB76A837B83FD
:104A600089830E949215898121E1829FC0011124CE
:104A700040E150E06A817B819E5F0F900F900F9024
:104A8000DF91CF910C94D7341F93CF93DF93182FDE
:104A9000EB0181E1189FB00111247E5F40E150E0FD
:104AA000CE010E941E35892B59F480E1FE0111923E
:104AB0008A95E9F7BE01812F0E94282580E001C078
:104AC00081E0DF91CF911F910895EF92FF920F93B4
:104AD0001F93CF93DF93CDB7DEB760970FB6F894EF
:104AE000DEBF0FBECDBF182F80FF24C18AE08093A8
:104AF0008D0189E18093900110928E0186E0809370
:104B00008F0181E0809391018AE097EDA3E2BCE3FD
:104B10008093920190939301A0939401B093950197
:104B20008FE692E1A3E0BBE3809396019093970117
:104B3000A0939801B093990180E090E0AAE7B4E4D3
:104B400080939A0190939B01A0939C01B0939D0147
:104B500010929E0110929F011092A0011092A1014B
:104B600083E08093A30180E090E0A8ECB2E480931E
:104B7000A4019093A501A093A601B093A70180E0A2
:104B800090E0AAEFB4E48093A8019093A901A093C8
:104B9000AA01B093AB0189E190E09093AD018093BD
:104BA000AC0180E090E0A0E8BFE38093AE01909379
:104BB000AF01A093B001B093B10184E18093A20151
:104BC00080E090E0A0EAB2E480934D0190934E0122
:104BD000A0934F01B09350018093510190935201E3
:104BE000A0935301B09354018FEC97EFABE7B2E47D
:104BF0008093550190935601A0935701B0935801AB
:104C00008FE395E3AEE0B1E48093590190935A01AC
:104C1000A0935B01B0935C0180E090E6AAE6B6E465
:104C200080935D0190935E01A0935F01B09360015A
:104C300080E090E8ABE3B6E4809361019093620179
:104C4000A0936301B093640180E090E4ACE1B6E42A
:104C50008093650190936601A0936701B09368010A
:104C600080E090E5A3ECB7E48093690190936A013A
:104C7000A0936B01B0936C0180E09AEBABE5BAE4D2
:104C800080936D0190936E01A0936F01B0937001BA
:104C90008093710190937201A0937301B09374019A
:104CA00080E098ECAFE2BAE48093750190937601CE
:104CB000A0937701B093780180E69EEFADE4BCE469
:104CC0008093790190937A01A0937B01B0937C014A
:104CD00080E090E0AAE7B3EC80937D0190937E01A1
:104CE000A0937F01B093800180E090E0A8E4B3EC52
:104CF0008093810190938201A0938301B0938401FA
:104D000080E090E0A0E7B2EC80938501909386016B
:104D1000A0938701B093880180E090E0A4EBB3EC0E
:104D20008093890190938A01A0938B01B0938C01A9
:104D30000E941B2511FF10C0CE0101967C0180E16D
:104D4000F70111928A95E9F700E0B701802F0E94E0
:104D500028250F5F0830C9F712FF14C060E080E01B
:104D600093E00E94B53460E081E093E00E94B534A6
:104D700060E081E593E00E94B53460E082E593E075
:104D80000E94B53413FF0AC060E08EEA93E00E94EF
:104D9000B53460E08FEA93E00E94B53460960FB6B8
:104DA000F894DEBF0FBECDBFDF91CF911F910F9161
:104DB000FF90EF9008951F920F920FB60F9211245B
:104DC0002F933F934F935F936F937F938F939F9313
:104DD000AF93BF93CF93EF93FF93C091C600C132BF
:104DE00071F028F4C83179F40E94D13060C0CF331B
:104DF00021F0CE3741F482E003C081E001C088E0B9
:104E00000E94491654C0C7FF41C0C13F30F08C2FEB
:104E100090E0805F91090E942A168C2F90E0FC019F
:104E2000E458F109EE31F10508F041C0E258FF4FB6
:104E30000C94BF4180E2E4CF80913C0185FF37C0F4
:104E400080E4DECF81E00DC082E00BC084E009C0C9
:104E500088E007C080E105C080E203C080E401C0B3
:104E600080E80E94301623C081E00DC082E00BC0B4
:104E700084E009C088E007C080E105C080E203C08B
:104E800080E401C080E80E94211611C0E091300743
:104E900081E08E0F813809F480E090912F07891707
:104EA00031F0F0E0E255F94FC08380933007FF9175
:104EB000EF91CF91BF91AF919F918F917F916F9122
:104EC0005F914F913F912F910F900FBE0F901F90C8
:104ED00018951F920F920FB60F9211248F939F93E4
:104EE000EF93FF938091A307E82FF0E0E65CF84F83
:104EF00090819093C6008F5F893609F480E080939B
:104F0000A30790913907891305C08091C1008F7D57
:104F10008093C100FF91EF919F918F910F900FBEF1
:104F20000F901F901895E091390791E09E0F9936E8
:104F300031F490E004C02091DB0524FD0FC02091E6
:104F4000A3079217C1F3F0E0E65CF84F80839093DB
:104F500039078091C10080628093C1000895CF928B
:104F6000DF92EF92FF921F93CF93DF931F92CDB703
:104F7000DEB7182F6A017B0184E229830E94932700
:104F8000812F0E94EE2B8DE30E9493272981422FCF
:104F9000C701B6010E94412B0F90DF91CF911F9165
:104FA000FF90EF90DF90CF900C942A101F93CF9337
:104FB000DF931F92CDB7DEB7182F84E269830E947A
:104FC0009327812F0E94EE2B8DE30E949327698106
:104FD000862F0E94EE2B0F90DF91CF911F910C94A2
:104FE0002A10CF93C82F8EEF93E00E94142C8C2FA1
:104FF0000E94EE2BCF910C942A10EF92FF920F9308
:105000001F93CF93DF9360918D0170E080E00E9449
:10501000D6276091900170E081E00E94D6276091D0
:105020008E0170E082E00E94D62760918F0170E0CF
:1050300083E00E94D6276091A20162FB662760F997
:1050400070E084E00E94D6276091A20166FB66278B
:1050500060F970E085E00E94D6278091A201082EB9
:10506000000C990B692F661F6627661F70E086E0AB
:105070000E94D6276091910170E08AE00E94D627B5
:10508000409192015091930160919401709195012A
:1050900023E08BE00E94AF27409196015091970149
:1050A000609198017091990123E08CE00E94AF27F4
:1050B0006091A201617070E08DE00E94D62760913E
:1050C000A20165FB662760F970E084E10E94D627A3
:1050D0006091A20163FB662760F970E085E10E94A0
:1050E000D6276091A2016295617070E086E10E940E
:1050F000D6276091A30170E087E10E94D6274091F6
:10510000A4015091A5016091A6017091A70123E02F
:1051100088E10E94AF274091A8015091A9016091B8
:10512000AA017091AB0123E089E10E94AF27609151
:10513000AC017091AD018AE10E94D6274091AE0189
:105140005091AF016091B0017091B10123E08BE10A
:105150000E94AF2740919A0150919B0160919C0160
:1051600070919D0120E08EE10E94AF2740919E0149
:1051700050919F016091A0017091A10120E08FE109
:105180000E94AF276091A2016695617070E080E295
:105190000E94D627D4E6F12C0DE411E084E0E82E3D
:1051A000ED0ECD2F82E0F81691F0E3E0FE16E9F067
:1051B000F1E0FF1631F0F801408151816281738185
:1051C0001AC0F801408951896289738914C020E0AE
:1051D00030E041E655E4F80160A171A182A193A1FC
:1051E0000E94DF42AB01BC0106C0F80140A951A9F1
:1051F00062A973A9705823E08C2F0E94AF270C5F1F
:105200001F4FCF5FCE11CECFD65FF394DC3821F69F
:10521000DF91CF911F910F91FF90EF900895811131
:1052200004C080EF93E00C94142C0C94F1270F939E
:105230001F93CF938C01C0E0F8016191719181912E
:1052400091918F010E94DF2BC33019F08CE20E94F4
:105250009327CF5FC43081F7CF911F910F910895AD
:1052600085EF93E00C94142C8DE50E9493270C9409
:105270002A106F927F928F929F92AF92BF92CF929D
:10528000DF92EF92FF920F931F93CF93DF93EB0187
:105290008C015B0180E1A80EB11C89E9682E96E7BC
:1052A000792E26E9822E3EE7932EC990D990E99077
:1052B000F99020E030E0A901C701B6010E94D54273
:1052C0008823B9F0A7019601F8016081718182817C
:1052D00093810E94DF426B017C01E894F7F8A701FB
:1052E0009601B301C4010E94D54287FD02C0360178
:1052F00047010C5F1F4FCA15DB05B9F6B301C401A6
:10530000DF91CF911F910F91FF90EF90DF90CF90A1
:10531000BF90AF909F908F907F906F9008952F9245
:105320003F924F925F926F927F928F929F92AF9235
:10533000BF92CF92DF92EF92FF920F931F93CF9382
:10534000DF93C091AA05C11101C0C0E1C150D09145
:105350004802CD1709F41BC1EC2EF12C26E3C29FA5
:1053600080011124065B1D4FF801A28CB38CC48C04
:10537000D58C668D778D80A191A19B01AC010E9497
:10538000E041F80122A133A144A155A10E94374573
:105390004B018C019B01AC01B501C6010E94D542B5
:1053A00087FD02C05401680186E38E9DF0018F9D48
:1053B000F00D1124E65BFD4FC501D601868B978B5E
:1053C000A08FB18FC11101C0C0E1C150CD1761F0F4
:1053D00026E32E9DC0012F9D900D11249C01265B7C
:1053E0003D4F7901D6E333C080914902D8135EC0A6
:1053F0000E94A21E5BC0AC2EB12CDA9DC001DB9DC9
:10540000900D1124FC01E65BFD4F6F01C11101C03D
:10541000C0E1C15080914902C81302C00E94A21E7F
:10542000DA9D8001DB9D100D1124065B1D4FF801F4
:10543000828C938CA48CB58CA501940166897789A4
:10544000808D918D0E94D542811106C07601809198
:105450004802C813D0CF2AC0F801668D778D80A18D
:1054600091A19B01AC010E94E041F80122A133A16E
:1054700044A155A10E943745F70126893789408DFF
:10548000518D0E94E0412B013C01A50194010E9435
:10549000D542F80187FF05C0468A578A608E718E13
:1054A000D5CF868A978AA08EB18ED0CFD091480270
:1054B000F6E3DF9F80011124065B1D4FC1E0CD0F95
:1054C000C03109F4C0E02090AA0586E3382EC21549
:1054D00009F45BC0CC2ED12C3C9CC0013D9C900DAE
:1054E00011249C01265B3D4F7901F80146885788BD
:1054F000608C718CF90186889788A08CB18CA5018D
:105500009401C301B2010E94D54287FF24C0F80173
:10551000668D778D80A191A19B01AC010E94E04135
:10552000F80122A133A144A155A10E9437459B0156
:10553000AC01C301B2010E94E0412B013C01A50175
:1055400094010E94D54287FF06C0F701468A578A18
:10555000608E718EDC2F3C9CF0013D9CF00D11247F
:10556000E65BFD4F228D338D448D558D668977899D
:10557000808D918D0E94D542811101C0DC2FCF5FBB
:10558000C03109F4C0E08701A2CFD0934802DF9177
:10559000CF911F910F91FF90EF90DF90CF90BF9030
:1055A000AF909F908F907F906F905F904F903F90C3
:1055B0002F9008954F925F926F927F92AF92BF9219
:1055C000CF92DF92EF92FF920F931F93CF93DF93CF
:1055D000EC015C0180E1A80EB11C8E01C12CD12C24
:1055E0007601F80141905190619071908F0120E017
:1055F00030E0A901C301B2010E94D542882371F0B5
:10560000A3019201C301B2010E9437459B01AC0185
:10561000C701B6010E94E0416B017C010A151B0520
:1056200001F7C701B6010E94D6456B017C019B01C1
:10563000AC0160E070E080E89FE30E94DF422B0154
:105640003C01A3019201688179818A819B810E943A
:1056500037456993799389939993CA15DB0589F73F
:10566000C701B601DF91CF911F910F91FF90EF908D
:10567000DF90CF90BF90AF907F906F905F904F90F2
:1056800008958F929F92AF92BF92CF92DF92EF9246
:10569000FF920F931F93CF93DF93CDB7DEB72D9774
:1056A0000FB6F894DEBF0FBECDBF6B017C01042F97
:1056B00020E030E0A9010E94D54287FF07C08DE2BB
:1056C0000E949327F7FAF094F7F8F094102F123015
:1056D00060F020E030E048EC52E4C701B6010E94DF
:1056E00037456B017C011250F2CF00FF0AC020E069
:1056F00030E040E251E4C701B6010E9437456B013A
:105700007C0120E030E040E05FE3C701B6010E9489
:10571000E0410E94514310E03AE0832E912CA12CED
:10572000B12C611571058105910591F0EE24E3948A
:10573000F12CEC0EFD1EE10EF11CA50194010E945E
:105740009D41605DF7016083B901CA011F5FE9CF28
:1057500080E3101748F4E1E0F0E0EC0FFD1FE10FEB
:10576000F11D80831F5FF5CF101314C011E0100FDF
:1057700080E3FE01E00FF11D81830CC0101303C014
:105780008EE20E949327FE01E10FF11D80810E94AD
:10579000932711501111F2CF2D960FB6F894DEBF5A
:1057A0000FBECDBFDF91CF911F910F91FF90EF9072
:1057B000DF90CF90BF90AF909F908F9008952091F1
:1057C000A20120FF08C02BE832E441E25DE30E9421
:1057D000374543E001C042E00C94412BCF93DF9367
:1057E000843630F06AE00E947D41C0E3C90F03C0F7
:1057F000C0E08A3030F06AE00E947D41D0E3D90FEA
:1058000001C0D0E0805D0E949327DD2319F08D2F29
:105810000E949327CC2329F08C2FDF91CF910C94F9
:105820009327DF91CF910895CF93DF93FC0184916B
:10583000EF012196882321F00E949327FE01F7CFE4
:10584000DF91CF9108950E94A21E8091490280931A
:1058500048020C948F29E1EBF7E0ABE1B1E04D9108
:105860005D916D917C911397408351836283738323
:1058700014964D915D916D917C911797448355835A
:105880006683778318964D915D916D917C911B97FE
:1058900040875187628773871C968D919D910D90EB
:1058A000BC91A02D84879587A687B7870895BF925E
:1058B000CF92DF92EF92FF920F931F93CF93DF93DC
:1058C0007C01FC0106A517A5D0A9C1A9858980FF87
:1058D00018C06091440170E080E090E00E9489432C
:1058E0002AE037ED43E25CE30E9437459B01AC01BF
:1058F000B8018D2F9C2F0E9437458B01D82FC92FBF
:105900002DC082FD17C06091430170E080E090E0FF
:105910000E9489432AE037ED43E25CE30E94374569
:105920009B01AC01B8018D2F9C2F0E9437458B0144
:10593000D82FC92FF701B2A4C3A4D4A4F5A42B2D4A
:105940003C2D4D2D5F2DB8018D2F9C2F0E94F744CB
:10595000181624F40B2D1C2DDD2DCF2D20E030E06A
:1059600040E85FE3B8018D2F9C2F0E94F744181682
:1059700024F000E010E0D0E8CFE3B8018D2F9C2F99
:10598000DF91CF911F910F91FF90EF90DF90CF901B
:10599000BF9008952F923F924F925F926F927F92A5
:1059A0008F929F92AF92BF92CF92DF92EF92FF922F
:1059B0000F931F93CF93DF93CDB7DEB7CA55D109AD
:1059C0000FB6F894DEBF0FBECDBF4B013091AA05D4
:1059D000232E312C26E3229DA001239D500D11245E
:1059E000BA01665B7D4F2B967FAF6EAF2B97FB01A5
:1059F00011922A95E9F7F4012085FB01258BF4012A
:105A000044815581668177812B96EEADFFAD2B9752
:105A100042AB53AB64AB75AB21FF4FC020E1EBE170
:105A2000F1E0DE01919601900D922A95E1F724961E
:105A30008FAF249725969FAF25976DE471E061960F
:105A40007FAF6EAF6197CE01C1962F969FAF8EAF9D
:105A50002F97FE01B1962996FFAFEEAF2997BE01B1
:105A60006F5E7F4F2D967FAF6EAF2D97E6E33E9F23
:105A7000C001112467969FAF8EAF679727967FAFBF
:105A80006EAF279700E010E0B12C86E3829D900175
:105A9000839D300D1124C901865B9D4F9C01205FC1
:105AA0003F4F63963FAF2EAF6397BC016C5E7F4F55
:105AB00065967FAF6EAF659747C020E1E1EBF7E0F9
:105AC000B0CF6796EEADFFAD6797E00FF11FE65BD5
:105AD000FD4FC082D182E282F3826396EEADFFADCC
