:100000000C94D1010C94E3010C94E3010C94E301F2
:100010000C94672C0C9418170C94E3010C94E301D6
:100020000C94E3010C94E3010C94E3010C94E301C0
:100030000C94E3010C94C41F0C94E3010C94E301B1
:100040000C94361F0C94E3010C94451F0C94E301AF
:100050000C9428260C94B2260C94E3010C94E30132
:100060000C94E3010C94E3010C94E3010C94E30180
:100070000C94E3010C94E3010C94E30156345C34DA
:100080005F34623467346F34773412351235123589
:100090008434873490349934123512351235123540
:1000A00012351235A534AF34BB34C334C634CF3423
:1000B000D834DE3412351235E734F034FB34AF0374
:1000C000B303B503B703B903BB03BE038204B60F82
:1000D000B60FEA03B60FB60FF40301040E041B04B7
:1000E000B60F1F04B60F2D04B60F370441044B049E
:1000F000B60FB60FB60F5B04680475046626682653
:10010000A026A026A026A026A026A026A026A026BF
:10011000A026A0266E2670267226742676267826BD
:100120007A267C26A0268026822684268626882675
:100130008A26A0268C268E26084AD73B3BCE016E07
:1001400084BCBFFDC12F3D6C74319ABD56833DDA2E
:100150003D00C77F11BED9E4BB4C3E916BAAAABE3D
:10016000000000803F05A84CCDB2D44EB93836A966
:10017000020C50B9918688083CA6AAAA2ABE0000A3
:1001800000803F000D0A4772626C20312E316632CA
:10019000205B27242720666F722068656C705D0DD8
:1001A0000A00244E002C435F41584953002C535001
:1001B000495F44495350002C5350495F5352002C1F
:1001C00041544D454741363434005B4F50543A005A
:1001D0005B5645523A312E3166322C4255494C44D9
:1001E0003A30352E30332E32303137005B544C4F9D
:1001F0003A005B4739323A003330003238005B470F
:100200000020470020530020460020540033382EA1
:10021000005B47433A47005B484C503A2424202473
:100220002320244720244920244E2024783D766131
:100230006C20244E783D6C696E6520244A3D6C69C3
:100240006E652024534C50202443202458202448F9
:10025000207E2021203F206374726C2D785D0D0A72
:1002600000536C656570696E6700526573746F72D8
:10027000696E67207370696E646C65005265737493
:100280006F72696E672064656661756C7473005087
:10029000676D20456E6400436865636B204C696D33
:1002A00069747300436865636B20446F6F72004428
:1002B000697361626C656400456E61626C656400BF
:1002C00043617574696F6E3A20556E6C6F636B6530
:1002D0006400272448277C2724582720746F207522
:1002E0006E6C6F636B00526573657420746F20636E
:1002F0006F6E74696E7565005B4D53473A00414CF3
:1003000041524D3A007C413A007C4F763A007C469F
:10031000533A007C57434F3A007C506E3A007C427F
:10032000663A007C57506F733A007C4D506F733AB9
:1003300000536C65657000446F6F723A00436865E6
:10034000636B00416C61726D00486F6D65004A6FB0
:100350006700486F6C643A0052756E0049646C65C2
:10036000005A65726F43005A65726F5A005A65727F
:100370006F59005A65726F5800010203050810207A
:10038000304050607890B0D0F00D0A006F6B0D0ACD
:1003900000204D005B5052423A006572726F723A13
:1003A000000011241FBECFEFD0E1DEBFCDBF2CE097
:1003B000A0E0B1E001C01D92A83EB207E1F70E94A3
:1003C000492F0C94F0400C9400002F923F924F92D2
:1003D0005F926F927F928F929F92AF92BF92CF92D5
:1003E000DF92EF92FF920F931F93CF93DF93CDB7DE
:1003F000DEB7C055D1090FB6F894DEBF0FBECDBF32
:1004000082E4EFEEF1E0DF011D928A95E9F78BE0DF
:10041000E3EAF1E0A0EFB1E001900D928A95E1F7F7
:100420008091980C843211F00C94DA0F81E0809363
:10043000F0011092F10183E08E8FB1E0BFA3212C77
:10044000312C1CAA1BAA1DA61F8E1BA267E0962E8C
:1004500001E07AE0C72ED12CEAE08E2EF1E6AF2E35
:10046000F3E0BF2E8E8DE82FF0E0E856F34FE080EA
:10047000EE2009F479C29FEB9E0D9A3110F00C9496
:10048000A60F8F5F8E8FBE01665E7F4FCE014E96A8
:100490000E94982E882311F40C94A80F4A8C5B8C30
:1004A0006C8C7D8CC301B2010E94BD400E94FB3D5B
:1004B000162F70E080E090E00E942C3E9B01AC0182
:1004C000C301B2010E94823C20E030E048EC52E4DB
:1004D0000E94DA3F0E9447400E94FB3DCB01E7E4C7
:1004E000EE1629F0FDE4EF1609F4EAC062C11832F5
:1004F00009F4C5C020F5143168F4113108F08AC040
:10050000143009F452C008F464C01A3009F445C02C
:100510000C94B60F1C3109F440C050F4163110F0A1
:100520000C94B60F25E1211B2093F20126E0ACC00C
:100530001E3199F1163209F44CC00C94B60F1D33DC
:1005400009F497C0A8F4153381F140F41B3209F483
:100550007AC0113309F477C00C94B60F1C3310F035
:100560000C94B60F6AEC610F6093F60129E08CC021
:100570001C3538F41A3508F053C0103581F10C944D
:10058000B60F1C3551F01F3510F00C94B60F2EE548
:10059000211B2093F10125E077C0009731F42BA1B6
:1005A00021110C94AA0F31E03BA31093EF01212FEE
:1005B0002D7F2C3119F01C3509F063C0009721F014
:1005C0000A9711F00C94B60F610F6093EF0120E0D1
:1005D00060C06BA161110C94AA0FA2E0ABA31093B1
:1005E000F001163209F04FC08431910559F08E3177
:1005F000910541F08832910529F08233910511F07F
:100600000C94B60FB6010E942C3C66576093F00123
:1006100021E03FC06FEE610F6093F40122E034C02F
:10062000892B31F466EA610F6093F30123E031C056
:100630006A30710511F00C94B60F1A3511F40C9450
:10064000B60F24E026C0BBA1B1110C94AA0F113340
:1006500031F41092F50128E0E3E0EBA31AC00A9709
:1006600011F00C94B60F0093F50128E0F3E0FBA322
:1006700010C0892B11F00C94B60F2AE00AC027E0B5
:1006800003C020E001C021E0892B19F087E10C9420
:10069000DE0F81E090E002C0880F991F2A95E2F7F3
:1006A0002BA93CA928233923232B19F085E10C948D
:1006B000DE0F2BA93CA9282B392B3CAB2BABD2CE80
:1006C000892B21F71A3040F4173060F5133078F099
:1006D0001630D0F00C94B60F1E3199F010F40C9433
:1006E000B60F8CE9810F883058F10C94B60F1123A6
:1006F00021F0113009F447C004C033E03093F70112
:1007000042C01093F7013FC0143021F0153031F092
:1007100080E101C080E28093F90102C01092F901EA
:100720008CE032C0183021F0193031F080E801C07F
:1007300080E48093F80102C01092F8018DE024C09B
:10074000812F90E0FC01E556F109E730F10520F436
:10075000E15AFF4F0C94623C8092F80112C064E0B1
:100760006093F8010EC086E00AC088E008C08BE004
:1007700006C085E004C09092F80103C089E0809330
:10078000F8018EE001C08BE0A1E0B0E002C0AA0F4A
:10079000BB1F8A95E2F72BA93CA92A233B23232BD5
:1007A00009F084CFEBA9FCA9EA2BFB2BFCABEBAB4C
:1007B00059CE8E2DEE0C990BAA0BBB0BFC01E3540A
:1007C000F109E831F10510F00C94B60FEA59FF4F2A
:1007D0000C94623C4092FB015092FC016092FD013E
:1007E0007092FE0180E09AC04092FF015092000298
:1007F0006092010270920202FDA5F160FDA781E006
:100800008DC04092030250920402609205027092E1
:1008100006022DA522602DA782E080C0409207022B
:10082000509208026092090270920A023DA534605B
:100830003DA783E073C010930F0284E06FC0C30133
:10084000B2010E94F43D60931002709311028093F4
:1008500012029093130285E061C0409214025092FC
:100860001502609216027092170286E057C04092FD
:1008700018025092190260921A0270921B0287E0CD
:100880004DC040921C0250921D0260921E02709256
:100890001F0288E043C020E030E04FE753E4C3018B
:1008A000B2010E949A3F181614F40C94AC0F1093E6
:1008B000200289E033C040922102509222026092CD
:1008C0002302709224026F8D61606F8F8AE026C0D0
:1008D00040922502509226026092270270922802CE
:1008E0008F8D82608F8F8BE019C0409229025092C9
:1008F0002A0260922B0270922C029F8D94609F8F2F
:100900008CE00CC040922D0250922E0260922F0279
:1009100070923002AF8DA860AF8F8DE0EE24E3942B
:10092000F12C082E02C0EE0CFF1C0A94E2F797018E
:1009300022213321232B11F00C94AE0FF50102C0BC
:10094000F595E7958A95E2F7E0FF0BC020E030E0EF
:10095000A901C301B2010E94783D87FF02C00C9437
:10096000B00F2E283F287ECDFF8DFF2329F02BA12D
:10097000211102C032E03BA325FE0FC0809110027E
:1009800090911102A0911202B09113028138964900
:10099000A849B10514F00C94B20F8FA1882301F17E
:1009A00020FC02C00C94BC0F8091F201813009F050
:1009B0003FC023E333E34BEC51E46091FB017091C2
:1009C000FC018091FD019091FE010E94DA3F60934D
:1009D000FB017093FC018093FD019093FE0128C000
:1009E0008091F101813071F49BA1923009F58091E1
:1009F000F0018035E9F08823D9F020FC02C00C9486
:100A0000BC0F16C08091A401811112C020FCCCCF74
:100A10008091B2019091B301A091B401B091B50160
:100A20008093FB019093FC01A093FD01B093FE0124
:100A300030FC10C08091AE019091AF01A091B00147
:100A4000B091B10180931C0290931D02A0931E02ED
:100A5000B0931F028091EF01843039F426FC03C06B
:100A60008CE10C94DE0FE89426F88091F401882341
:100A700091F0813041F4A1E02296AFAF22971DAEF4
:100A8000B2E0BBAF0FC022961FAE2297E2E0EDAFFF
:100A9000F1E0FBAF07C022E022962FAF229731E0B2
:100AA0003DAF1BAE8091F201813021F06BA163302C
:100AB000A9F52BC041E2E42E42E0F42E00E010E064
:100AC0008F8DC82ED12CC601002E02C0959587951A
:100AD0000A94E2F780FF10C023E333E34BEC51E4C8
:100AE000D7016D917D918D919C910E94DA3FF70124
:100AF00060837183828393830F5F1F4FF4E0EF0E57
:100B0000F11C04301105F9F6D1CF8091F501813047
:100B100029F42F8D243011F00C94B40F80E1EBEC0C
:100B2000F1E0DE01119601900D928A95E1F78BA913
:100B30009CA991FD09C09091EF019BA79A30C9F043
:100B40009C3509F4B2C013C18091F601873018F0CA
:100B50008DE10C94DE0F9091A901981761F3BE010D
:100B60006F5F7F4F0E949124882311F40C94CA0F69
:100B7000E2CFAF8DA11103C08AE10C94DE0FC10159
:100B800080759927892B09F46BCF609114027091BD
:100B9000150280911602909117020E94BD400E949A
:100BA000FB3D6730A8F680910F02843141F082301E
:100BB00011F00C94B60F27FE02C00C94B60FBFEADA
:100BC0002B22662319F0615069AB03C0E091F60156
:100BD000E9AB6FEF71E089A90E949124882311F499
:100BE0000C94CA0F80900F024090EB015090EC01E2
:100BF0006090ED017090EE010FEE11E033EAC32E2C
:100C000031E0D32EE12CF12CFF8DAF2EB12CC5019C
:100C10000E2C02C0959587950A94E2F780FF37C0A5
:100C200024E182122BC0D601D8962D913D914D9191
:100C30005C91DB9758966D917D918D919C915B971E
:100C40000E94823CF80122A933A944A955A90E9417
:100C5000823CD80150966D937D938D939C935397CE
:100C6000B2E0EB16F10499F4A30192010E94823CD8
:100C7000F801608B718B828B938B09C0F80182A97C
:100C800093A9A4A9B5A9808B918BA28BB38BFFEFFD
:100C9000EF1AFF0A0C5F1F4F24E0C20ED11C34E094
:100CA000E316F10409F0B3CF2EC16F8D662309F46A
:100CB00063CF4090EB015090EC016090ED0170909B
:100CC000EE0101E212E0C12CD12CE12CF12CA62E78
:100CD000B12CF601ED55FE4FC5010E2C02C09595C5
:100CE00087950A94E2F780FF2BC0A1E0B0E0AC0F3B
:100CF000BD1FAC0DBD1D2D913D914D915C91608D41
:100D0000718D828D938D0E94823CD8012D913D91F1
:100D10004D915C910E94823CF801608371838283D3
:100D20009383F2E0EF16F104A1F4A30192010E9473
:100D3000823CD8016D937D938D939C93139709C04A
:100D400080AD91ADA2ADB3ADF80180839183A28354
:100D5000B383FFEFEF1AFF0A24E0C20ED11C0C5F31
:100D60001F4F34E0E316F10409F0B3CFCBC06BA101
:100D7000633071F48BA58E3109F48AC0853309F490
:100D8000BBC08C3109F0BEC06FEF71E086E083C05C
:100D90009F8D992379F3A091F301A9AB4090EB01CA
:100DA0005090EC016090ED017090EE0123EAC22EAC
:100DB00021E0D22E01E212E0FE0131964F01E12C3A
:100DC000F12CA92EB12CC5010E2C02C0959587954A
:100DD0000A94E2F780FD0BC0F601808D918DA28D03
:100DE000B38DF80180839183A283B38340C0FBA5B8
:100DF000F533E9F129A9211129C0D601D8962D9101
:100E00003D914D915C91DB97F4016081718182810C
:100E100093810E94833CD8012D913D914D915C912D
:100E20000E94833CF8016083718382839383F2E0A4
:100E3000EF16F104E1F4A30192010E94833CD80172
:100E40006D937D938D939C93139711C0F601208D24
:100E5000318D428D538DD8016D917D918D919C91F5
:100E60000E94833CF8016083718382839383FFEF48
:100E7000EF1AFF0A24E0C20ED11C0C5F1F4F34E0B2
:100E8000830E911C64E0E616F10409F09CCF72CF4A
:100E90006FEF71E087E00E949124882311F40C9495
:100EA000CA0F8F8D811103C019AA1BA22CC020E08C
:100EB00030E080E090E0AF8D4A2F50E0BA01082E7C
:100EC00002C0759567950A94E2F760FD0EC0F901BE
:100ED000ED55FE4FC08CD18CE28CF38CF901E151C1
:100EE000FE4FC08AD18AE28AF38A01962C5F3F4F77
:100EF0008430910519F706C08091F001823010F01E
:100F00000C94B80F19AAB091F001BBA7B03529F421
:100F1000EF8DE1110C94BA0F7BC2FBA1F23009F006
:100F200077C22BA5211104C03F8D311171C22BC096
:100F300020E030E0A9016091FB017091FC018091FB
:100F4000FD019091FE010E94783D882311F40C94DC
:100F5000BC0F6BA56C3809F445C240F46230A9F0AF
:100F60006330B1F0613009F053C20AC08BA58E38EE
:100F700009F438C208F433C28F3809F430C248C2C9
:100F80009F8D911145C21BA243C2AFA1A460AFA324
:100F9000BF8DBB2309F4F0CDEBAD0E2F10E03DADBE
:100FA000232F30E038AF2FAB81E090E07C010DAC17
:100FB00002C0EE0CFF1C0A94E2F702C0880F991FD2
:100FC000EA95E2F7E82AF92A8B2F90E08E219F21FB
:100FD000892B09F4D3C7F801EE0FFF1FEE0FFF1F97
:100FE000E151FE4FD801AA0FBB1FAA0FBB1FA5548A
:100FF000BE4F2D913D914D915C9162A973A984A939
:1010000095A90E94823C2B013C01EFA9F8ADEE0F9F
:10101000FF1FEE0FFF1FE151FE4FAFA9B8ADAA0FA2
:10102000BB1FAA0FBB1FA554BE4F2D913D914D91E3
:101030005C9162A973A984A995A90E94823C4B0185
:101040005C01610160E8C622DD2427FEF5C0E8945A
:1010500027F840E150E061E272E08BEB91E00E9402
:10106000E340892B11F481E2A9C78091F20181301C
:10107000B1F423E333E34BEC51E460911802709137
:10108000190280911A0290911B020E94DA3F60932C
:1010900018027093190280931A0290931B02809198
:1010A000180290911902A0911A02B0911B028DA70B
:1010B0009EA7AFA7B8ABA3019201C301B2010E94E2
:1010C000DA3F29966CAF7DAF8EAF9FAF2997A50110
:1010D0009401C501B4010E94DA3F2D966CAF7DAF3B
:1010E0008EAF9FAF2D9720E030E040E850E46DA533
:1010F0007EA58FA598A90E94DA3F2DA53EA54FA5F4
:1011000058A90E94DA3F29962CAD3DAD4EAD5FAD9A
:1011100029970E94823C2D962CAD3DAD4EAD5FAD22
:101120002D970E94823C6B017C0120E030E0A901F8
:101130000E94783D87FD24C7C701B6010E9479400F
:101140006B017C012D962CAD3DAD4EAD5FAD2D9765
:1011500029966CAD7DAD8EAD9FAD29970E94833CE5
:101160000E9479409B01AC01C701B60190580E94D2
:10117000823D6B017C019BA5933021F4F7FAF0943A
:10118000F7F8F09420E030E0A9016DA57EA58FA5C9
:1011900098A90E94783D87FF11C0F7FAF094F7F8FC
:1011A000F0948DA59EA5AFA5B8A9B058809318025C
:1011B00090931902A0931A02B0931B02000F111F03
:1011C000000F111F01501E4FA7019601C501B40168
:1011D0000E94DA3F9B01AC01C301B2010E94823C34
:1011E00020E030E040E05FE30E94DA3FD8016D93F9
:1011F0007D938D939C9313970FA918AD000F111F2A
:10120000000F111F01501E4FA7019601C301B2012B
:101210000E94DA3F9B01AC01C501B4010E94833CEE
:1012200020E030E040E05FE30E94DA3FF8016083B5
:10123000718382839383ECC03DA5232F30E03EA7CA
:101240002DA7E222F322EF2809F49CC661EF2622A3
:101250008091F201813009F47AC0F801EE0FFF1F8E
:10126000EE0FFF1FE150FE4FC080D180E280F3807F
:10127000A7019601C301B2010E94823C2B013C01EF
:10128000EFA9F8ADEE0FFF1FEE0FFF1FE150FE4F6D
:1012900080819181A281B3818DA79EA7AFA7B8ABB2
:1012A0009C01AD01C501B4010E94823C4B015C016F
:1012B000A3019201C301B2010E94DA3F2B013C015C
:1012C000A5019401C501B4010E94DA3F9B01AC0164
:1012D000C301B2010E94833C0E9479404B015C0132
:1012E000A7019601C701B6010E94DA3F6B017C019C
:1012F0002DA53EA54FA558A9CA01B9010E94DA3F04
:101300009B01AC01C701B6010E94833C0E94794059
:101310006B017C01609318027093190280931A028A
:1013200090931B029B01AC01C501B4010E94823C59
:101330004B015C01E894B7F82AE037ED43EA5BE340
:10134000C501B4010E949A3F181664F161C09FEE76
:10135000E92E91E0F92E8DA59EA50C2C02C0959545
:1013600087950A94E2F780FF12C023E333E34BEC46
:1013700051E4D70150966D917D918D919C91539739
:101380000E94DA3FF701608B718B828B938BFFEFAA
:10139000CF1ADF0A24E0E20EF11C34E0C316D104B8
:1013A000D1F65BCF20E030E040E05FE3C501B4015F
:1013B0000E949A3F18160CF456CE2FE632E143E80D
:1013C0005AE3C701B6010E94DA3F9B01AC01C50197
:1013D000B4010E949A3F18160CF445CE19C06FA1B3
:1013E00060616FA38BA58E58823018F48FA188603E
:1013F0008FA39F8D992309F4BFCB40E150E061E2B8
:1014000072E08BEB91E00E94E340892B09F42BCE34
:101410002FA12170AFA1C101A0FF02C08E7D02C02B
:101420008E7D9C7FBBA1B111937C892B09F0ACC54B
:101430008E010F5E1F4F89E0F80111928A95E9F73E
:10144000222309F44AC08BA99CA9867B892B09F029
:101450009DC58091EF01853311F0811197C5809171
:10146000AE019091AF01A091B001B091B1018D8B0F
:101470009E8BAF8BB88F9091AB018091AC01892B83
:10148000898F8091FB019091FC01A091FD01B091A9
:10149000FE01898B9A8BAB8BBC8B8091930185FF6E
:1014A00006C081E292E00E945A35811171C5B801EF
:1014B00081E292E00E94C53980912D0181116CC5B5
:1014C0000E94F32B892B09F467C580E280932D01DC
:1014D0000E9450170E9475225FC580919301F09081
:1014E000AC0181FF26C09BA59150933018F0FFA15D
:1014F000F064FFA32F8D222339F03BA1323021F479
:101500006FA160686FA315C080E1F81212C09091BE
:10151000A30191508FA18074933030F4882349F057
:101520009FA190629FA305C0811103C0AFA1A062DB
:10153000AFA38091100290911102A0911202B0917C
:1015400013028093B7019093B801A093B901B093AF
:10155000BA018091F1018093A401882311F088E001
:10156000898F8091FB019091FC01A091FD01B091C8
:10157000FE018093B2019093B301A093B401B093A4
:10158000B501898B9A8BAB8BBC8B80901C029090A1
:101590001D02A0901E02B0901F02A501940160914F
:1015A000AE017091AF018091B0019091B1010E94A4
:1015B000783DBFA1B074EB2E811103C0EFA1E5FF10
:1015C00020C0FF2071F0FFA1F7FD0BC0EE2021F03D
:1015D00040E050E0BA0102C0B501A4018F2D0E9485
:1015E0009A3580911C0290911D02A0911E02B0912B
:1015F0001F028093AE019093AF01A093B001B0930E
:10160000B101E1100CC08091AE019091AF01A091A9
:10161000B001B091B1018D8B9E8BAF8BB88F809153
:1016200020028093B6018091F9019091AC01981746
:1016300051F04D895E896F89788D0E949A3580912D
:10164000F9018093AC01998D8091AC01892B898F30
:101650008091F8019091AB019817D1F090912D01F4
:10166000923051F061968FAF61970E944D1561964F
:101670008FAD61970E941C2E8091F801811103C0EB
:101680001092AB0105C09091AB01892B8093AB0107
:10169000998D8091AB01892B898F8091EF018430E6
:1016A00049F5609114027091150280911602909193
:1016B000170220912D012230E9F02E966FAF2E9760
:1016C0002F967FAF2F9761968FAF619760969FAFF0
:1016D00060970E944D1540E02E966FAD2E972F9685
:1016E0007FAD2F9761968FAD619760969FAD6097A4
:1016F0000E94142C8091F4018093A7018091F20143
:101700008093A5012BA1233071F58091F501809381
:10171000A801811108C01092290210922A02109289
:101720002B0210922C02C0902902D0902A02E09045
:101730002B02F0902C02A70196016091EB017091B1
:10174000EC018091ED019091EE010E94783D88239B
:1017500051F0C092EB01D092EC01E092ED01F092D9
:10176000EE010E9495358091F6019091A90198179C
:1017700069F08093A90180E1FE013196ABECB1E004
:1017800001900D928A95E1F70E9495358091F301C1
:101790008093A6018091EF018632F1F138F48C310B
:1017A00009F18E31F9F08A3069F04FC08C35D1F1F2
:1017B000863609F441C0883209F047C06BEB71E00E
:1017C00087E02DC06FEF71E089A90E947524809198
:1017D000A90139A9831339C080E1EFEFF1E0ABEC47
:1017E000B1E025C0898D8160898F6BA1662329F0C6
:1017F000B80181E292E00E94C539B8018FEF91E013
:101800000E94C53980E1EFEFF1E0ABEBB1E0019070
:101810000D928A95E1F719C06BEB71E086E00E94AA
:10182000752413C080E1E1E2F2E0ABEDB1E001909C
:101830000D928A95E1F707C080E1EBEDF1E0DF0161
:101840001D928A95E9F70E9495358091F001809369
:10185000A301803509F42CC3BBA1B23009F028C321
:10186000813021F4BE016F5E7F4F06C0811109C037
:10187000898D8160898FB80181E292E00E94C5392B
:101880000EC38250823008F0A3C28091180290915A
:101890001902A0911A02B0911B028BA39CA3ADA3C5
:1018A000BEA3ABAD94E0A99F70011124F701E554EC
:1018B000FE4FFCA7EBA7970121503E4F3AAB29AB57
:1018C000D9014D905D906D907C9020813181428155
:1018D0005381C301B2010E94833C6BAB7CAB8DABE7
:1018E0009EABEDADB4E0EB9F80011124980125542F
:1018F0003E4F3EA72DA7C80181509E4F9CAF8BAF96
:10190000DC018D909D90AD90BC90F90120813181DA
:1019100042815381C501B4010E94833C21966CAF82
:101920007DAF8EAF9FAF219777FA709477F8709460
:10193000D501C401B0588F8F98A3A9A3BAA3F7010A
:10194000EF5DFD4F2BA93CA94DA95EA96081718176
:10195000828193810E94823C6B017C01F801EF5DE2
:10196000FD4F21962CAD3DAD4EAD5FAD2197608111
:101970007181828193810E94823C4B015C01A701AD
:101980009601C301B2010E94DA3F6FAB78AF89AF15
:101990009AAFA50194016F8D78A189A19AA10E94A7
:1019A000DA3F9B01AC016FA978AD89AD9AAD0E9479
:1019B000833C6FAB78AF89AF9AAFA5019401C301A7
:1019C000B2010E94DA3F4B015C01A70196016F8DC5
:1019D00078A189A19AA10E94DA3F9B01AC01C501BF
:1019E000B4010E94823C2FA938AD49AD5AAD0E9486
:1019F000023D6B017C019FA192FF13C02DEB37E3E9
:101A000046E055EBC701B6010E949A3F87FD1DC015
:101A10002BED3FE049EC50E4C701B6010E94823C47
:101A200012C02DEB37E346E055E3C701B6010E9433
:101A3000783D181654F02BED3FE049EC50E4C70117
:101A4000B6010E94833C6B017C01809087019090DD
:101A50008801A0908901B0908A012BA13CA14DA1E1
:101A60005EA1CA01B9010E94833CA50194010E94B4
:101A7000823C9B01AC01C501B4010E94DA3F0E9487
:101A800079404B015C0120E030E040E05FE3C701BA
:101A9000B6010E94DA3F2BA13CA14DA15EA10E949C
:101AA000DA3F9F77A50194010E94823D0E94673E24
:101AB0000E94FB3D78AF6FABDB01AB2B09F4D2CEBC
:101AC000198D4B01A12CB12C13FF12C0C501B4011B
:101AD0000E942A3E9B01AC0169897A898B899C8985
:101AE0000E94DA3F698B7A8B8B8B9C8B177F198FC7
:101AF000C501B4010E942A3E4B015C019B01AC016F
:101B0000C701B6010E94823D6FA378A789A79AA753
:101B10002296EFAD2297B4E0EB9FC00111248C0117
:101B200005541E4FFC01EF5DFD4FD8012D913D91F5
:101B30004D915C9160817181828193810E94823C90
:101B4000A50194010E94823D2D966CAF7DAF8EAFB2
:101B50009FAF2D972FA138A549A55AA5CA01B90154
:101B60000E94DA3F9B01AC0160E070E080E090E40D
:101B70000E94823C6B017C012BEA3AEA4AE25EE376
:101B80006FA178A589A59AA50E94DA3F4B015C0157
:101B900020E030E040E850E4C701B6010E94833CF9
:101BA0009B01AC01C501B4010E94DA3F25966CAFE0
:101BB0007DAF8EAF9FAF259720E030E040E05FE340
:101BC000C701B6010E94DA3F29966CAF7DAF8EAF98
:101BD0009FAF29971BA222242394312CEFA9F8ADA3
:101BE0002E163F0609F43ECEBBA1BC3008F048C01B
:101BF00029962CAD3DAD4EAD5FAD29976F8D78A187
:101C000089A19AA10E94DA3F6B017C0125962CAD37
:101C10003DAD4EAD5FAD2597C301B2010E94DA3FE5
:101C2000A70196010E94833C7B016C0129962CAD93
:101C30003DAD4EAD5FAD2997C301B2010E94DA3FC1
:101C40004B015C0125962CAD3DAD4EAD5FAD2597AA
:101C50006F8D78A189A19AA10E94DA3F9B01AC0106
:101C6000C501B4010E94823C2B013C01EBA1EF5F56
:101C7000EBA3470156018F8E98A2A9A2BAA265C014
:101C8000B10180E090E00E942A3E2FA138A549A52D
:101C90005AA50E94DA3F6B017C010E947D3D6F8F47
:101CA00078A389A39AA3C701B6010E946B404B0198
:101CB0005C01A9A9BAA9CD90DD90ED90FC90F7FA4E
:101CC000F094F7F8F094ABADBCAD8D919D910D9073
:101CD000BC91A02D8BA39CA3ADA3BEA32F8D38A137
:101CE00049A15AA1C701B6010E94DA3F2B013C016C
:101CF000A50194016BA17CA18DA19EA10E94DA3F58
:101D00009B01AC01C301B2010E94833C2B013C0149
:101D1000A5019401C701B6010E94DA3F6B017C0165
:101D20002F8D38A149A15AA16BA17CA18DA19EA1A3
:101D30000E94DA3F9B01AC01C701B6010E94823CC0
:101D40006F8F78A389A39AA31BA2A30192016BA909
:101D50007CA98DA99EA90E94833CEBA5FCA560836C
:101D60007183828393832F8D38A149A15AA1219633
:101D70006CAD7DAD8EAD9FAD21970E94833CADA52E
:101D8000BEA56D937D938D939C9313972D962CAD4B
:101D90003DAD4EAD5FAD2D97F801608171818281BF
:101DA00093810E94833CD8016D937D938D939C9386
:101DB0001397BE016F5E7F4F8BEB91E00E94C53998
:101DC00080912E0181116BC0BFEF2B1A3B0A06CF09
:101DD000898D8460898F80912D01823009F45FC0E4
:101DE0000E944D1580912E01811162C0FFA1F071FA
:101DF000FF2E109232012FA123FB882780F90E9429
:101E00005E1580B1887090910B01891749F084E0CC
:101E10000E94A8160E94331480E00E945E1548C0FC
:101E2000B80181E292E00E94C53981E080932C01E3
:101E300082E00E94B8160E94331480912E01811115
:101E400037C080912D018111F6CF80912C01813016
:101E500081F4FF2051F080E1ECE0F1E0ACE1B1E091
:101E600001900D928A95E1F707C085E00E94A816BF
:101E700003C081E08093320110922C0180E00E9427
:101E80005E150E9433140E94911F0E94032C0E9431
:101E9000C62A0E94C23580913201811188C080E13A
:101EA000E1E2F2E0ABEBB1E001900D928A95E1F74F
:101EB0008091F7018093AA01882309F47FC00E94D2
:101EC0004D158091AA0190912D01833041F49230FB
:101ED000D1F188E00E94B8160E94331434C081E02A
:101EE0008093A3011092A7011092A6011092A40161
:101EF0001092A9011092AC011092AB0184E680937C
:101F000034018093350180933601923091F06BEC6F
:101F100071E080E00E9491248823E1F10E949535D0
:101F200040E050E0BA0180E00E94A12280E00E94DF
:101F30001C2E88EF92E00E94AF2A8FE892E00E9468
:101F4000AF2A0E947D281092AA012FC081E036C0DE
:101F500082E034C088E132C086E230C089E12EC020
:101F600084E02CC08BE12AC085E228C084E126C031
:101F70008EE124C08FE122C086E120C080E21EC035
:101F800082E21CC083E21AC084E218C080E116C05D
:101F90008FE014C087E012C080E1E1E2F2E0ABEB39
:101FA000B1E001900D928A95E1F780E007C00E94B0
:101FB0005A2D7ECF1E8E1FA20C941F02C05BDF4FD6
:101FC0000FB6F894DEBF0FBECDBFDF91CF911F914A
:101FD0000F91FF90EF90DF90CF90BF90AF909F90C8
:101FE0008F907F906F905F904F903F902F900895CB
:101FF00089E893E00C94AF2A4F925F926F927F92A0
:102000008F929F92BF92CF92DF92EF92FF920F93A7
:102010001F93CF93DF93CDB7DEB7E0970FB6F89459
:10202000DEBF0FBECDBF1091060A112391F181E0F2
:1020300080932D018EEF92E00E94AF2A812F0E94A3
:10204000892A0E94F80F85EF91E0019739F0EFE9B6
:10205000FFE03197F1F700C00000F7CF11501230C8
:1020600030F08FB7F8941092060A8FBF12C088EF35
:1020700092E00E94AF2A86EE92E00E94AF2A0E9470
:102080007D2880E10E94AE168091050A84FFFCCF76
:10209000E8CF0091050A002309F418C304FF04C027
:1020A00081E080932E01C9C300FF20C280E1ECE0F3
:1020B000F1E0DE01919601900D928A95E1F7BE0163
:1020C0006F5D7F4FCE0141960E94C1168CE30E9446
:1020D000DC2680912D01883009F44FC068F48130EE
:1020E00009F465C0C8F0823009F464C0843009F096
:1020F00074C089E493E06FC0803209F455C018F4CD
:102100008031F1F16AC0803409F457C0803809F099
:1021100064C081E393E05FC010913702112351F155
:1021200010FF09C083E793E00E94AF2A113019F035
:102130008CE20E94DC2611FF09C08DE693E00E942C
:10214000AF2A153018F08CE20E94DC2612FF09C07D
:1021500087E693E00E94AF2A193018F08CE20E94C3
:10216000DC2613FF04C081E693E00E94AF2A1092A0
:10217000370233C08CE593E02EC088E593E02BC096
:1021800080912F0187FD10C082E593E00E94AF2A65
:1021900080912F0180FF06C080E31AC082FF17C024
:1021A00085FFFACF81E314C08EE493E014C083E48A
:1021B00093E011C08DE393E00EC087E393E00E94AB
:1021C000AF2A80912F0183FFE9CF83E301C082E32F
:1021D0000E94DC2602C00E94AF2A80918201F82F63
:1021E000F170BF2E80FD14C04090EB015090EC01C7
:1021F0006090ED017090EE019BEC892E91E0992E9C
:10220000CE0101967C01FE0171966F0111E019C0AB
:1022100080913901882341F38AE293E03EC0A30113
:1022200092010E94833CF7016083718382839383D0
:10223000BB20E1F0F4E0EF0EF11C1F5F84E0C80E5C
:10224000D11CF40161917191819191914F0124858B
:102250003585468557850E94833CF70160837183ED
:10226000828393831330D9F2B11011C0F70120811A
:10227000318142815381F601608171818281938134
:102280000E94823CF60160837183828393831430C1
:1022900089F6B110C1CF83E293E00E94AF2ACE014C
:1022A00041960E9460288091820181FF1DC08EE1CD
:1022B00093E00E94AF2A9091D40980913B02981735
:1022C00010F08D5D01C08150891B0E94892A8CE22B
:1022D0000E94DC268091DD0B9091DE0B981708F4AC
:1022E0008150891B0E94892A0E94ED2CF82E0E94A1
:1022F0000917182F80B1982F987080910B01E92E43
:10230000E8268F2D812B8E2959F189E193E00E94D7
:10231000AF2AEE2019F080E50E94DC26FF2079F03C
:10232000F0FE03C088E50E94DC26F1FE03C089E5CB
:102330000E94DC26F2FE03C08AE50E94DC261123FF
:1023400079F010FF03C082E50E94DC2611FF03C074
:1023500088E40E94DC2612FF03C083E50E94DC268D
:1023600080913901882321F081508093390118C070
:1023700080912D018C7711F08DE101C089E080936F
:10238000390180913801811103C081E080933801C7
:1023900083E193E00E94AF2ACE0101960E9460285B
:1023A000F0903801FF2021F0FA94F092380196C0A5
:1023B0008EE093E00E94AF2A80912D018C7749F046
:1023C0006091EC097091ED098091EE099091EF090F
:1023D00003C060E070E0CB010E946B2A8CE20E9497
:1023E000DC2660913A0170913B0180913C01909113
:1023F0003D0140E00E94CD2980912D018C7711F0A4
:1024000083E101C089E08093380189E093E00E9474
:10241000AF2A809134010E94892A8CE20E94DC2636
:10242000809135010E94892A8CE20E94DC268091ED
:1024300036010E94892A8091B00087FF07C05E990B
:1024400003C0FF24F39402C082E0F82E10913602FC
:1024500080913502811112608091340281111460E3
:1024600080913302811118608091320281111061D4
:1024700080913102882311F0106204C0F11002C073
:10248000112361F185E093E00E94AF2AFF2041F023
:10249000F1E0FF1202C083E501C083E40E94DC2664
:1024A00010FF03C086E40E94DC2611FF03C08DE408
:1024B0000E94DC2612FF03C080E30E94DC2613FF8B
:1024C00003C081E30E94DC2614FF03C082E30E9464
:1024D000DC2615FF03C083E30E94DC268EE30E9406
:1024E000DC260E94F80F81E00E94AE16802F887EC5
:1024F00009F469C080912D01982F937009F052C0A2
:102500008872A1F080912F01807C81F40E94D11EFD
:1025100082E08093310180912D01803239F407FDF2
:1025200005C080912F01806880932F0180912D013B
:10253000811103C091E090932F0106FF07C085FD34
:1025400005C090912F01906490932F0103FF05C067
:10255000807E19F480E180932D0105FF23C088EF70
:1025600092E00E94AF2A84EA92E00E94AF2A0E9481
:102570007D2880912F0187FD10C090912D0190340E
:1025800039F483FF07C0837E826080932F0102C0ED
:10259000903819F080E480932D0180912F018062A2
:1025A00080932F0107FF0CC080912D01813029F409
:1025B00080912F01856080932F0180E880932D0109
:1025C00088EE0E94AE1601FF44C0802F8876F1F598
:1025D00080912D01803471F480912F0185FD0AC016
:1025E00084FF03C010922D0105C082FF03C08860E4
:1025F00080932F0180912D01882381F084FF26C0D4
:1026000090912F0190FF22C0803141F480913701D9
:10261000882321F088608093370118C0109231011F
:102620000E94F32B892B71F080912F0186FD0AC047
:1026300010922F0188E080932D010E9450170E9474
:10264000752204C010922F0110922D0182E00E9489
:10265000AE1602FF3BC080912D01807D90912F012D
:102660008823A9F080913001811111C097FD0FC01E
:102670000E94BE2A8091310181FF05C090912F01F7
:10268000916090932F01897F809331011CC097FF47
:102690000AC0109231010E94032C0E94911F0E94D7
:1026A0005A2D0E94C62A80912F0185FF08C08F777E
:1026B000816080932F0180E480932D0104C01092EB
:1026C0002F0110922D0184E00E94AE169091070A0E
:1026D0009923A9F18FB7F8941092070A1092080A6B
:1026E0008FBF4091340190FF02C084E601C0842F67
:1026F00091FD865F92FD8A5093FD8F5F94FD81501E
:10270000893C08F088EC811101C081E030913501ED
:1027100095FF02C024E601C0232F96FD22E397FD1A
:1027200029E1841302C0231751F0809334012093D0
:102730003501109238010E94652B0E94BE2AE0915B
:10274000080AEE23E9F08FB7F8941092070A109266
:10275000080A8FBFF0E0E758FC4F8491893C08F0ED
:1027600088EC811101C081E090913401891741F01A
:1027700080933401109238010E94652B0E94BE2A7A
:102780009091090A992309F452C08FB7F8941092D6
:10279000090A8FBF2091360190FF02C084E601C074
:1027A000822F91FD865F92FD8A5093FD8F5F94FD8D
:1027B0008150893C08F088EC8A3008F48AE082175E
:1027C00049F0209131012860209331018093360136
:1027D0001092380180912D0195FF0DC0803159F480
:1027E00020913701211102C022E003C020FF03C065
:1027F000246020933701292F207CC9F0882311F011
:102800008871A9F01091AB0197FF05C017FF02C0B6
:102810001F7701C0106896FF05C016FF02C01F7B1E
:1028200001C01064812F0E941C2E1093AB01809177
:102830002D018C7F11F00E945017E0960FB6F8948E
:10284000DEBF0FBECDBFDF91CF911F910F91FF90E3
:10285000EF90DF90CF90BF909F908F907F906F9080
:102860005F904F900895CF92DF92EF92FF921F9367
:10287000CF93DF930E94FC0F80912F01882309F4EE
:10288000FCC00E94F32B009771F4C091AB018091C2
:10289000AC01C82BC090AE01D090AF01E090B00168
:1028A000F090B10106C0FC01C589C2A8D3A8E4A874
:1028B000F5A88091930181FF03C080E20E949016E9
:1028C000DC2FD07311E0C07480912F01882309F4AC
:1028D000D4C00E941E2D0E94012480912E018111DE
:1028E000CCC090912F0190FFC5C080912D01282F61
:1028F000207C09F474C092FD12C01092370140E0B0
:1029000050E0BA0180E00E94A12280E00E941C2ECB
:1029100090912F019D7F946090932F01ABC08038E0
:10292000E1F488EF92E00E94AF2A81E692E00E94F3
:10293000AF2A0E947D2840E050E0BA0180E00E946A
:10294000A12280E00E941C2E0E945B1F80912E011C
:10295000811193C00E94FC0FF9CF803419F49F7D40
:1029600090932F0180912F0183FF84C09091AC013F
:102970009923C1F081FD16C08091930181FF06C0AB
:10298000809131018860809331010CC0B701A601AC
:102990008D2F0E94A12241E060E070E080E890E489
:1029A0000E94142C8091AB01882371F080912F013B
:1029B00081FD0AC08C2F0E941C2E41E060E070E077
:1029C00080E89FE30E94142C90912F0191FD52C04A
:1029D000906190932F0182E00E94B8164BC09091B5
:1029E00037019923C9F191FF0DC08091AC01882373
:1029F000B1F040E050E0BA0180E00E94A1221093C3
:102A0000370138C09C70B1F18091AC0181110AC0CE
:102A10008091370183FF03C082E00E94B8161092B4
:102A2000370128C088EF92E00E94AF2A8AE692E040
:102A30000E94AF2A0E947D288091930181FF06C0E9
:102A400080913101886080933101E2CFB701A60106
:102A50008D2F0E94A122DCCF8091310183FF0AC01B
:102A6000B701A6018D2F0E94A12280913101877F9D
:102A7000809331010E94FC0F27CFDF91CF911F91EE
:102A8000FF90EF90DF90CF9008950E94F32B892B59
:102A900019F082E00C94B81608950E9445150E9422
:102AA000331480912E01811108C00E94F32B892BD1
:102AB000B1F780912D01883091F3089510920B01A8
:102AC0009091930197FD03C098E090930B018823A8
:102AD00031F090910B0188E0892780930B010895D4
:102AE0008093B30081110DC08091B0008F778093E7
:102AF000B000809139028E7F8093390210923802A3
:102B00000DC08091B00080688093B0008091390240
:102B100081608093390281E0809338020C94012413
:102B20004F925F926F927F928F929F92AF92BF92DD
:102B3000CF92DF92EF92FF92CF936B017C01C09115
:102B4000360180908F0190909001A0909101B090FB
:102B5000920140908B0150908C0160908D0170909B
:102B60008E01A3019201C501B4010E949A3F87FF23
:102B70001AC06C2F70E080E090E00E942C3E2AE0AA
:102B800037ED43E25CE30E94DA3F9B01AC01C701F1
:102B9000B6010E94DA3F6B017C01A30192010E9401
:102BA0009A3F87FD0AC040923A0150923B016092E1
:102BB0003C0170923D018FEF47C0A5019401C70110
:102BC000B6010E94783D1816E4F020E030E0A9013B
:102BD000C701B6010E94783D811109C010923A01E7
:102BE00010923B0110923C0110923D012DC0809249
:102BF0003A0190923B01A0923C01B0923D0181E0EC
:102C000023C0C0923A01D0923B01E0923C01F09285
:102C10003D01A5019401C701B6010E94823C2091AB
:102C20000A0A30910B0A40910C0A50910D0A0E9439
:102C3000DA3F0E94673E20E030E040E85FE30E9418
:102C4000833C0E94FB3D862FCF91FF90EF90DF9059
:102C5000CF90BF90AF909F908F907F906F905F903C
:102C60004F900895CF93DF93C8E9DCE089918823E2
:102C700019F00E94DC26FACFDF91CF910895CF930F
:102C8000DF9321E5829FC0011124EC01DD5F40E567
:102C900050E0BE0188E99CE00E94C92D892B69F4AF
:102CA0001092980C0E944D1540E550E068E97CE0D8
:102CB000CE010E94822D80E001C081E0DF91CF91A2
:102CC0000895CF93DF93C0E08C2F0E943F168111AF
:102CD0000EC01092980C8EE30E94DC260E943216E1
:102CE0008AE30E94DC2687E00E943A2712C0809186
:102CF000980C882371F00E94E501D82F8EE30E9482
:102D0000DC260E9432168AE30E94DC268D2F0E9468
:102D10005828C13011F0C1E0D7CFDF91CF9108958D
:102D20002FB7F8949091090A892B8093090A2FBF35
:102D300008959FB7F8948093080A9FBF08952FB70E
:102D4000F8949091070A892B8093070A2FBF089562
:102D50009FB7F8948093060A9FBF08952FB7F89401
:102D60009091050A809589238093050A2FBF0895C5
:102D70002FB7F8949091050A892B8093050A2FBFED
:102D80000895AF92BF92CF92DF92EF92FF920F938E
:102D90001F93CF93DF9300D000D0CDB7DEB75B0198
:102DA0002EE3E22E21E0F22E8C016B0180E1C80EB1
:102DB000D11CF50161917191819191915F01F701B0
:102DC00021913191419151917F0129833A834B8324
:102DD0005C830E942C3E29813A814B815C810E9458
:102DE000823DF80161937193819391938F01AC14AB
:102DF000BD04F9F60F900F900F900F90DF91CF91D7
:102E00001F910F91FF90EF90DF90CF90BF90AF9008
:102E1000089593B1892F877049F0892F809581702B
:102E200091FF826092FD03C08460089580E0089560
:102E30001F920F920FB60F9211242F933F934F932F
:102E40005F936F937F938F939F93AF93BF93EF9312
:102E5000FF930E940917882391F080FF03C00E940E
:102E6000452C0DC082FF04C08091050A826005C018
:102E700081FF05C08091050A88608093050AFF9153
:102E8000EF91BF91AF919F918F917F916F915F91E2
:102E90004F913F912F910F900FBE0F901F9018955B
:102EA0002F923F924F925F926F927F928F929F925A
:102EB000AF92BF92CF92DF92EF92FF920F931F9348
:102EC000CF93DF93CDB7DEB7EE970FB6F894DEBFA2
:102ED0000FBECDBF8091310180FD4AC790913D0A60
:102EE00080913E0A981709F443C78091DA0A9091BD
:102EF000DB0A892B09F017C31091310112FF09C0B9
:102F00008091D40926E3289FC0011124845C9D4F41
:102F100002C00E94F32B9093DB0A8093DA0A209080
:102F2000DA0A3090DB0A2114310409F421C7009138
:102F3000D609802F817000FF03C01092D609EAC025
:102F40009091D5099F5F953009F0892F8093D5091D
:102F5000E82EF12C36E13E9DF0013F9DF00D11244D
:102F6000E459F54FF0936B0AE0936A0AD101549645
:102F70009C915497948BE6E18E9FC001112420E030
:102F800030E04D915D916D917D91F901E80FF91F50
:102F9000E459F54F689412F8440F551F661F771FC8
:102FA0001694D1F740835183628373832C5F3F4F24
:102FB0002031310531F726E12E9DF0012F9DF00DD6
:102FC00011249F012459354FF10180899189A289EB
:102FD000B38943E0880F991FAA1FBB1F4A95D1F7F9
:102FE000F901808B918BA28BB38BD10150966D919F
:102FF0007D918D919C9153970E942A3E6093DB09AD
:103000007093DC098093DD099093DE09F10122A120
:1030100033A144A155A10E94823D9B01AC01609364
:10302000DF097093E0098093E1099093E20960E081
:1030300070E080EA9FE30E94823D6093E309709311
:10304000E4098093E5099093E6091092D70910925C
:10305000D8091092D9091092DA0911FD02C003FFB4
:103060001FC06091F4097091F5098091F609909163
:10307000F7096093EC097093ED098093EE09909342
:10308000EF099B01AC010E94DA3FD10156966D9386
:103090007D938D939C935997077F0093D6090FC01A
:1030A000F10166897789808D918D0E9479406093C6
:1030B000EC097093ED098093EE099093EF09F6E126
:1030C000FE9DC001FF9D900D11249C012459354F98
:1030D0007901D90155961C928091930181FF1AC004
:1030E000F101858985FF16C026A537A540A951A9FC
:1030F00060E070E080E89FE30E94823D6093000AF8
:103100007093010A8093020A9093030AE1E0D701C9
:103110005596EC931092E8091092E9091092EA0989
:103120001092EB09D1015E962D913D914D915C91EC
:10313000919729833A834B835C8360E070E080E061
:103140009FE30E94823D69877A878B879C87F10184
:1031500042A053A064A075A086889788A08CB18CEB
:1031600011FF44C0F2E0F093E709A50194010E9429
:10317000DA3F9B01AC01C301B2010E94823C6B01AA
:103180007C0120E030E0A9010E94783D87FF1DC04E
:1031900029813A814B815C81CA01B9010E94833C3B
:1031A000A30192010E94DA3F9B01AC01C501B40169
:1031B0000E94823C0E9479406093F4097093F50963
:1031C0008093F6099093F709ABC1C092E809D092B9
:1031D000E909E092EA09F092EB091092F4091092E1
:1031E000F5091092F6091092F7099AC11092E709B1
:1031F0004092F8095092F9096092FA097092FB091D
:1032000012FF0CC01092F4091092F5091092F60901
:103210001092F709C12CD12C760124C0E0913B0219
:10322000EF5FE43209F4E0E08091D409E81759F047
:1032300026E32E9FF0011124E45CFD4FC688D78859
:10324000E08CF18C03C0C12CD12C7601C701B601F2
:103250000E9479406093F4097093F5098093F60910
:103260009093F709C1010E94F22A698B7A8B8B8BAC
:103270009C8B9B01AC010E94DA3F6D837E838F8320
:1032800098879B01AC01C501B4010E949A3F1816B2
:103290000CF070C02D813E814F815885C501B4016D
:1032A0000E94823C9B01AC0169857A858B859C8557
:1032B0000E94DA3F9B01AC01C301B2010E94823C33
:1032C0006093F8097093F9098093FA099093FB09C8
:1032D00020E030E0A9010E94783D18162CF132E080
:1032E0003093E70929813A814B815C81CA01B90198
:1032F0000E94833CA30192010E94DA3F9B01AC0132
:10330000C501B4010E94823C0E9479406093F40997
:103310007093F5098093F6099093F7098091D60987
:1033200088608093D609FCC0A70196016D817E81DB
:103330008F8198850E94823C9B01AC0169857A85CA
:103340008B859C850E94DA3F6093FC097093FD0990
:103350008093FE099093FF0989899A89AB89BC897A
:103360008093F0099093F109A093F209B093F309C7
:1033700093E0BBC0A7019601C501B4010E94823C45
:103380009B01AC0169857A858B859C850E94DA3F1B
:103390009B01AC01C301B2010E94833C20E030E0FC
:1033A00040E05FE30E94DA3F6D877E878F87988BCE
:1033B00020E030E0A9010E949A3F18160CF098C056
:1033C000A30192016D857E858F8598890E94783D45
:1033D00087FF8AC0A70196016D817E818F819885C4
:1033E0000E94823C9B01AC0169857A858B859C8516
:1033F0000E94DA3F6093FC097093FD098093FE09F7
:103400009093FF092D853E854F8558890E94783D10
:1034100087FF39C029893A894B895C892093F00953
:103420003093F1094093F2095093F3092D813E81C5
:103430004F815885C501B4010E94783D811104C0B7
:1034400031E03093E7096CC0A50194016D817E8164
:103450008F8198850E94823C9B01AC0169857A85A9
:103460008B859C850E94DA3F9B01AC01C301B201B0
:103470000E94823C6093F8097093F9098093FA09DD
:103480009093FB094DC08D859E85AF85B88980934B
:10349000F8099093F909A093FA09B093FB09809376
:1034A000FC099093FD09A093FE09B093FF092981BF
:1034B0003A814B815C81CA01B9010E94833C2D8510
:1034C0003E854F8558890E94DA3FA70196010E94E8
:1034D000833C0E9479406093F0097093F1098093D6
:1034E000F2099093F3091CC092E09093E70918C089
:1034F0001092F8091092F9091092FA091092FB093A
:103500008091F4099091F509A091F609B091F7091D
:103510008093F0099093F109A093F209B093F30915
:103520001860109331018091690AA82FB0E0BA8722
:10353000A98727E02A9FF0012B9FF00D1124E15C61
:10354000F54F8091D50984834091DA0A5091DB0AC6
:103550005EAF4DAFDA019296BC91BEA3FA01F3A122
:10356000FFA3DA019496BC91B8A7FA01F5A1F9A7D7
:103570002091E3093091E4094091E5095091E60971
:103580006EA17FA18B2F9F2F0E94823C6AAB7BABE9
:103590008CAB9DAB20E030E0A9010E94783D87FF15
:1035A00004C01AAA1BAA1CAA1DAA2091F8092D83DF
:1035B0003091F9093D874091FA09498B5091FB09F7
:1035C0005D8B8091F0098A8F9091F1099B8FA0917A
:1035D000F209AC8FB091F309BD8F6090EC09709047
:1035E000ED094090EE095090EF09E091FC09EAA73F
:1035F000F091FD09FBA72091FE092CA73091FF094E
:103600003DA74091E70949835091E8095EA7809161
:10361000E9098FA79091EA0998ABA091EB09A9ABB2
:10362000B091F409BEABE091F509EFABF091F6096A
:10363000F8AF2091F70929AF2EA03FA008A519A542
:103640008EE3C82E83ECD82E8EE2E82E89E3F82E86
:103650001E8A1F8A188E198ECE8EDF8EE8A2F9A2DE
:103660009981913009F4E7C008F474C0ADADBEADE6
:103670005E962D913D914D915C919197933009F01B
:1036800009C1C701B6010E94DA3F4B015C0120E08D
:1036900030E040E05FE30E94DA3F9B01AC01B30100
:1036A000C2010E94823C9B01AC01C701B6010E948D
:1036B000DA3F6AA37BA38CA39DA39B01AC01B1015C
:1036C000C8010E94823C1B018C012D813D854989E6
:1036D0005D890E94783D87FD0BC020E030E0A901A4
:1036E0006AA17BA18CA19DA10E94783D18165CF176
:1036F0002D813D8549895D896EA17FA188A599A508
:103700000E94823C9B01AC010E94833C6B017C01C6
:103710002A8D3B8D4C8D5D8DB301C2010E94833C8F
:103720009B01AC01C701B6010E94823D6B017C0187
:103730006A8C7B8C4C8C5D8C2D803D8409891D8925
:10374000B1E0B98311C1A5019401B301C2010E9486
:10375000823C6EC0EDADFEAD268D378D40A151A1EE
:10376000C701B6010E94DA3F4B015C0120E030E066
:1037700040E05FE30E94DA3F9B01AC01B301C2016C
:103780000E94833C9B01AC01C701B6010E94DA3F55
:103790009B01AC01B101C8010E94823C1B018C015C
:1037A0002D813D8549895D890E94783D87FF3AC01A
:1037B0002D813D8549895D896EA17FA188A599A547
:1037C0000E94823C9B01AC010E94833C6B017C0106
:1037D0002A8D3B8D4C8D5D8DB301C2010E94833CCF
:1037E0009B01AC01C701B6010E94823D6B017C01C7
:1037F0002AA53BA54CA55DA56D817D8589899D89FF
:103800000E94783D811103C0F2E0F98302C021E0FB
:1038100029836A8C7B8C4C8C5D8C2D803D8409893E
:103820001D89A2C0A5019401B301C2010E94833C7D
:103830003B012C0199C0A70196016A8D7B8D8C8D6F
:103840009D8D0E94DA3F9B01AC01B101C8010E942D
:10385000823C5B014C012AA53BA54CA55DA50E94BD
:10386000783D87FF7FC02AA53BA54CA55DA5B1018A
:10387000C8010E94823C2A8D3B8D4C8D5D8D0E943B
:10388000823D6B017C012AA43BA40CA51DA532E05E
:1038900039836AC0C701B6010E94DA3F4B015C015F
:1038A0009B01AC01B301C2010E949A3F18169CF51E
:1038B00020E030E040E05FE3C501B4010E94DA3F60
:1038C0009B01AC01B301C2010E94823C9B01AC018F
:1038D000C701B6010E94DA3F9B01AC01B101C801EA
:1038E0000E94823C6AA37AAF8BAF9CAF2EA53FA506
:1038F00048A959A90E949A3F18166CF4A501940191
:10390000B301C2010E94823C3B012C012AA03AACC7
:103910000BAD1CAD29C02EA53FA548A959A9B101E1
:10392000C8010E94823C9B01AC010E94833C6B0158
:103930007C012EA93FA948AD59ADB301C2010E9437
:10394000833C9B01AC01C701B6010E94823D6B0123
:103950007C016EA87FA848AC59AC2EA43FA408A94E
:1039600019A902C015018401A70196016E897F89FA
:10397000888D998D0E94833C6E8B7F8B888F998F69
:103980002E8D3F8D48A159A10E94783D87FF09C027
:103990002E893F89488D598D6E8D7F8D88A199A183
:1039A00031C02AA93BA94CA95DA9B101C8010E9457
:1039B0009A3F1816ACF0C301D2018093EC099093A2
:1039C000ED09A093EE09B093EF09B981B093E7092F
:1039D000E0916A0AF0916B0A9589911134C02FC069
:1039E0002EE333EC4EE259E36E8D7F8D88A199A1D1
:1039F0000E94833C6E8F7F8F88A399A32E893F8975
:103A0000488D598D0E94823C6B017C012EA53FA5FB
:103A100048A959A9B101C8010E949A3F18160CF48F
:103A20001FCEC301D2018093EC099093ED09A093BE
:103A3000EE09B093EF09E981E093E709C9CF8091DE
:103A4000310183FF3FC0ADADBEAD55968C9155970A
:103A5000807349F1D296CD90DD90ED90FC90D59792
:103A60009923D1F02091000A3091010A4091020A75
:103A70005091030A6091EC097091ED098091EE0973
:103A80009091EF090E94DA3F9B01AC01C701B6019A
:103A90000E94DA3F6B017C01C701B6010E949015BC
:103AA0008093040A0AC010923A0110923B011092CE
:103AB0003C0110923D011092040A80913101877FF0
:103AC0008093310127E0E985FA852E9FA0012F9F81
:103AD000500D1124CA01815C954F9E838D83809186
:103AE000040AAD81BE8116968C932091DF09309136
:103AF000E0094091E1095091E209B101C8010E9439
:103B0000DA3F2B013C010E94613D6B017C01609119
:103B1000DB097091DC098091DD099091DE090E943A
:103B2000613D4B015C01A70196010E94823C0E940D
:103B3000FB3D69837A838B839C8329813A81ED8164
:103B4000FE8131832083232B41F48091310181FF59
:103B500004C08160809331010BC12091D70930915D
:103B6000D8094091D9095091DA096E897F89888DE9
:103B7000998D0E94833C6D837E838F839887A301F8
:103B80009201C501B4010E94823C9B01AC016D8190
:103B90007E818F8198850E94823D4B015C0120ECE3
:103BA00031EE44E65EE40E94DA3F0E94613D0E94ED
:103BB000FB3D603D57E075078105910560F427E006
:103BC000A985BA852A9FF0012B9FF00D1124E15C95
:103BD000F54F158254C0603A3FE0730781059105A7
:103BE00068F4A7E049855A85A49FF001A59FF00DD0
:103BF0001124E15CF54FB1E0B5831FC06034EFE103
:103C00007E078105910568F447E029853A85429F42
:103C1000F001439FF00D1124E15CF54F52E0558314
:103C20000CC027E0A985BA852A9FF0012B9FF00DD3
:103C30001124E15CF54F33E03583A7E049855A85CF
:103C4000A49FF001A59FF00D1124E15CF54F2581A3
:103C5000022E04C096958795779567950A94D2F7BA
:103C600049815A8102C0440F551F2A95E2F75183BA
:103C700040836115710551E08507910568F427E0DF
:103C8000A985BA852A9FF0012B9FF00D1124E15CD4
:103C9000F54F7383628304C04FEF5FEF538342831A
:103CA00080913E0A8093690A8F5F863019F0809375
:103CB0003E0A02C010923E0AE091DA0AF091DB0A55
:103CC000C101D80182A393A3A4A3B5A3C092DB0929
:103CD000D092DC09E092DD09F092DE09A3019201A5
:103CE000C701B6010E94823CA50194010E94DA3FFF
:103CF0006093D7097093D8098093D9099093DA0912
:103D00002091E8093091E9094091EA095091EB09C5
:103D1000B101C8010E94783D8111E0C820E030E087
:103D2000A901B101C8010E949A3F90913101181672
:103D300014F092FF04C091609093310119C0109269
:103D4000DB0A1092DA0A90913B028091D40989171C
:103D500009F4C4C881E0890F843209F480E020911D
:103D60003A02921302C080933A0280933B02B6C893
:103D7000EE960FB6F894DEBF0FBECDBFDF91CF91A8
:103D80001F910F91FF90EF90DF90CF90BF90AF9079
:103D90009F908F907F906F905F904F903F902F906B
:103DA0000895CF93DF93C091DA0AD091DB0A209770
:103DB000C9F08091D60981608093D6096091EC09A1
:103DC0007091ED098091EE099091EF099B01AC0192
:103DD0000E94DA3F6E8B7F8B888F998F1092DB0A5F
:103DE0001092DA0ADF91CF91089560917F0170E01F
:103DF00040E0E0918001F0E080E090E030E0582F7A
:103E0000DB01082E02C0B595A7950A94E2F7A0FF42
:103E10000EC0009731F0813031F0823031F020E473
:103E200005C021E003C024E001C020E1422BDF01F6
:103E300002C0B595A7955A95E2F7A0FF0EC000976E
:103E400031F0813031F0823031F020E805C022E0DD
:103E500003C028E001C020E2322B01968430910596
:103E600071F640930E0A30930F0A08951F920F9235
:103E70000FB60F9211248F938091210A88B98F91E8
:103E80000F900FBE0F901F9018951F920F920FB6B4
:103E90000F9211248F939F9388B190910E0A95757C
:103EA0008A7A892B88B915BC9F918F910F900FBE8C
:103EB0000F901F90189580916F008D7F80936F00F9
:103EC00080918100887F8160809381001092100A28
:103ED0008091810190912D018F3F39F42091060A44
:103EE000211103C0903881F402C0943069F090E051
:103EF000009741F0EFE9FFE03197F1F700C00000D3
:103F00000197F6CF81E001C080E09091930192FF8C
:103F100002C091E08927882311F05D9A08955D9889
:103F20000895CF93DF930E945B1F80E3E5EDF9E0F6
:103F3000DF011D928A95E9F7C1E1DAE08CE2FE012A
:103F400011928A95E9F71092DB0A1092DA0A109220
:103F50003D0A1092690A81E080933E0A1092100A8D
:103F60000E94F51E80910F0A8C8B88B18A7A9091FD
:103F70000E0A892B88B988B1857590910F0A892B13
:103F800088B9DF91CF9108951F920F920FB60F92CB
:103F900011242F933F934F935F936F937F938F934E
:103FA0009F93AF93BF93EF93FF938091100A81117A
:103FB0008BC288B19091250A9A7A8575892B88B928
:103FC00088B18A7A9091240A892B8093210A809162
:103FD000230A86BD82E085BD81E08093100A789433
:103FE00080913B0A90913C0A892B09F0D3C08091C3
:103FF0003D0A9091690A981709F4BCC0E0913D0A06
:104000002E2F30E087E0E89FF0011124E15CF54FAE
:10401000F0933C0AE0933B0A82819381909389005C
:1040200080938800808191819093370A8093360A2B
:10403000E4818091380A8E17A1F1E093380A86E175
:10404000E89FF0011124E459F54FF0933A0AE09308
:10405000390A80899189A289B389B695A7959795E0
:10406000879580931D0A90931E0AA0931F0AB09310
:10407000200A8093190A90931A0AA0931B0AB093FE
:104080001C0A8093150A9093160AA093170AB093FE
:10409000180A8093110A9093120AA093130AB093FE
:1040A000140AE091390AF0913A0A90910F0A848932
:1040B00089278093250A87E0829FD001839FB00DD6
:1040C0001124A15CB54F15968C91159740815181B3
:1040D00062817381082E04C0769567955795479540
:1040E0000A94D2F74093260A5093270A6093280A2D
:1040F0007093290A4481558166817781082E04C016
:1041000076956795579547950A94D2F740932A0A72
:1041100050932B0A60932C0A70932D0A4085518589
:1041200062857385082E04C07695679557954795E7
:104130000A94D2F740932E0A50932F0A6093300AC4
:104140007093310A448555856685778504C07695D8
:104150006795579547958A95D2F74093320A5093C1
:10416000330A6093340A7093350A16968C910E9434
:10417000701510C00E945B1FE091390AF0913A0A55
:104180008589882319F080E00E94701584E00E94E0
:10419000B8169AC180912C018130B1F480B1887039
:1041A00090910B01891781F010922C0180E1ECE0D5
:1041B000F1E0ACE1B1E001900D928A95E1F78091D8
:1041C000050A80648093050A1092240A4091260A09
:1041D0005091270A6091280A7091290A8091110A4A
:1041E0009091120AA091130AB091140A840F951F9E
:1041F000A61FB71F8093110A9093120AA093130A67
:10420000B093140AE091390AF0913A0A4089518931
:1042100062897389481759076A077B0768F521E0A7
:104220002093240A4089518962897389841B950BE4
:10423000A60BB70B8093110A9093120AA093130A4E
:10424000B093140A248980910C0190910D01A091E2
:104250000E01B0910F0121FF04C00197A109B1091E
:1042600003C00196A11DB11D80930C0190930D0117
:10427000A0930E01B0930F0140912A0A50912B0A8E
:1042800060912C0A70912D0A8091150A9091160A5E
:10429000A091170AB091180A840F951FA61FB71F87
:1042A0008093150A9093160AA093170AB093180AE0
:1042B0004089518962897389481759076A077B07C2
:1042C00078F52091240A24602093240A408951899A
:1042D00062897389841B950BA60BB70B8093150A13
:1042E0009093160AA093170AB093180A2489809114
:1042F000100190911101A0911201B091130123FFBF
:1043000004C00197A109B10903C00196A11DB11D07
:104310008093100190931101A0931201B0931301A7
:1043200040912E0A50912F0A6091300A7091310A03
:104330008091190A90911A0AA0911B0AB0911C0A47
:10434000840F951FA61FB71F8093190A90931A0A0E
:10435000A0931B0AB0931C0A408951896289738912
:10436000481759076A077B0778F52091240A2061CE
:104370002093240A4089518962897389841B950B93
:10438000A60BB70B8093190A90931A0AA0931B0AE5
:10439000B0931C0A24898091140190911501A09179
:1043A0001601B091170125FF04C00197A109B109B9
:1043B00003C00196A11DB11D8093140190931501B6
:1043C000A0931601B09317014091320A5091330A1D
:1043D0006091340A7091350A80911D0A90911E0AED
:1043E000A0911F0AB091200A840F951FA61FB71F26
:1043F00080931D0A90931E0AA0931F0AB093200A6F
:104400004089518962897389481759076A077B0770
:1044100078F52091240A20642093240A4089518948
:1044200062897389841B950BA60BB70B80931D0AB9
:1044300090931E0AA0931F0AB093200A24898091AA
:10444000180190911901A0911A01B0911B0127FF49
:1044500004C00197A109B10903C00196A11DB11DB6
:104460008093180190931901A0931A01B0931B0136
:1044700080912D01843039F4909133018091240A88
:1044800089238093240A8091360A9091370A0197F4
:104490009093370A8093360A892B69F410923C0A6C
:1044A00010923B0A80913D0A8F5F80933D0A8630CF
:1044B00011F410923D0A90910E0A8091240A8927E6
:1044C0008093240A1092100AFF91EF91BF91AF914F
:1044D0009F918F917F916F915F914F913F912F911C
:1044E0000F900FBE0F901F9018958091930182FF3F
:1044F00002C05D9A01C05D9880910E0A8093240AE3
:1045000080917E0190E09C01285F3F4F220F219512
:104510002093230A880F819587BD80916F00826068
:1045200080936F000895E0EBF0E080818F778083C7
:10453000809139028C7F80933902109238020C945A
:104540000124CF93DF9300D000D01F92CDB7DEB708
:1045500090912E01911137C081110BC010923A0138
:1045600010923B0110923C0110923D010E94932257
:1045700028C0803129F45E98909139029D7F04C053
:104580005E9A909139029260909339024A835B83DC
:104590006C837D8389830E940124909193014A81D9
:1045A0005B816C817D81898191FF05C0803219F426
:1045B00040E050E0BA01CB01BA010E9490150E9480
:1045C0007015109238010F900F900F900F900F9070
:1045D000DF91CF910895579A83E08093B00084E0F3
:1045E0008093B100569A20918F01309190014091B3
:1045F00091015091920160918B0170918C01809199
:104600008D0190918E010E94823C9B01AC0160E083
:1046100070E08EE793E40E94823D60930A0A7093F3
:104620000B0A80930C0A90930D0A0C94932282E15A
:104630008CBD2C9A0895382F90E0931719F02DB562
:10464000207C29F081E0931720F480E008959F5F9B
:10465000F4CF0895AF92BF92CF92DF92EF92FF9284
:104660000F931F93CF93DF93CDB7DEB764970FB649
:10467000F894DEBF0FBECDBFD82E81E58CBD8DB5C1
:104680008E7F8DBD2C988FEF8EBD80E40E941B2302
:104690008111A4C08AEA8EBD80E40E941B2381118F
:1046A0009DC085E58EBD80E40E941B23811196C0CC
:1046B000DEBC80E1ECE0F1E0DE01119601900D92AC
:1046C0008A95E1F70D2D10E07801EE0CFF1CEE0C41
:1046D000FF1CE1E0F0E0EC0FFD1FEE0DFF1D60811F
:1046E0007181828193810E942C3EF701E25CFE4F32
:1046F00020813181428153810E94823D698B7A8B76
:104700008B8B9C8B7E0121E1E20EF11C570134E082
:10471000C32ECE0C80E40E941B23882319F00E9434
:10472000172349C080E40E941B23F50181915F019A
:104730008EBDCE12EFCFD801AA0FBB1FAA0FBB1F91
:10474000A553BE4F000F111F000F111FF801E552B6
:10475000FE4F20813181428153816D917D918D91F8
:104760009C910E94833C9B01AC0169897A898B8969
:104770009C890E94823C698B7A8B8B8B9C8BF2E0AC
:10478000DF120EC02091EB013091EC014091ED0160
:104790005091EE010E94823C698B7A8B8B8B9C8BB3
:1047A00080E40E941B238111BACFF70181917F0120
:1047B0008EBDCE12F5CF80E40E941B2381110EC066
:1047C0008091E50B8EBD80E40E941B23811106C001
:1047D0008091E40B8EBD80E40E941B230E9417236E
:1047E00064960FB6F894DEBF0FBECDBFDF91CF91B8
:1047F0001F910F91FF90EF90DF90CF90BF90AF90FF
:10480000089581E58CBD8DB581608DBD8091E30BF0
:104810008EBD80E10E941B23811158C08091390216
:104820008EBD80E10E941B23811150C02B9A000095
:1048300000002B982C98000000002C9A1EBC80E1F0
:104840000E941B23811142C08EB580958093700C0D
:1048500090916F0C891302C08093E20B80936F0CD0
:104860001EBC80E10E941B23811130C08EB5809553
:1048700080936E0C90916D0C891302C08093E10BB4
:1048800080936D0C1EBC80E10E941B2381111EC011
:104890008EB5809580936C0C90916B0C891302C03F
:1048A0008093E00B80936B0C1EBC80E10E941B2365
:1048B00081110CC08EB5809580936A0C9091690C23
:1048C000891302C08093DF0B8093690C0C9417232B
:1048D0006AE080E090E00E94602D45E650E06EE3E3
:1048E00071E081E090E00C94822DCF93DF9300D0B3
:1048F0001F92CDB7DEB76A837B8389830E944D15F3
:10490000898121E1829FC001112440E150E06A8148
:104910007B819E5F0F900F900F90DF91CF910C9451
:10492000822D1F93CF93DF93182FEB0181E1189F06
:10493000B00111247E5F40E150E0CE010E94C92DFC
:10494000892B59F480E1FE0111928A95E9F7BE01A5
:10495000812F0E94752480E001C081E0DF91CF911A
:104960001F910895EF92FF920F931F93CF93DF93C0
:10497000CDB7DEB760970FB6F894DEBF0FBECDBFE0
:10498000182F80FF24C18AE080937E0189E1809303
:10499000810110927F0186E08093800181E0809305
:1049A00082018AE097EDA3E2BCE3809383019093B8
:1049B0008401A0938501B09386018FE692E1A3E084
:1049C000BBE38093870190938801A0938901B09302
:1049D0008A0180E090E0AAE7B4E480938B01909391
:1049E0008C01A0938D01B0938E0110928F011092D3
:1049F0009001109291011092920183E080939401B2
:104A000080E090E0A8ECB2E4809395019093960149
:104A1000A0939701B093980180E090E0AAEFB4E4EE
:104A20008093990190939A01A0939B01B0939C016C
:104A300089E190E090939E0180939D0180E090E059
:104A4000A0E8BFE380939F019093A001A093A101F0
:104A5000B093A20184E18093930180E090E0A0EA0A
:104A6000B2E480933E0190933F01A0934001B09344
:104A700041018093420190934301A0934401B0937C
:104A800045018FEC97EFABE7B2E48093460190933A
:104A90004701A0934801B09349018FE395E3AEE04D
:104AA000B1E480934A0190934B01A0934C01B093E1
:104AB0004D0180E090E6AAE6B6E480934E01909323
:104AC0004F01A0935001B093510180E090E8ABE317
:104AD000B6E48093520190935301A0935401B09394
:104AE000550180E090E4ACE1B6E4809356019093E8
:104AF0005701A0935801B093590180E090E5A3ECD1
:104B0000B7E480935A0190935B01A0935C01B0934A
:104B10005D0180E09AEBABE5BAE480935E0190938F
:104B20005F01A0936001B093610180936201909353
:104B30006301A0936401B093650180E098ECAFE25B
:104B4000BAE48093660190936701A0936801B093E3
:104B5000690180E69EEFADE4BCE480936A01909326
:104B60006B01A0936C01B0936D0180E090E0AAE727
:104B7000B3EC80936E0190936F01A0937001B0939A
:104B8000710180E090E0A8E4B3EC8093720190930F
:104B90007301A0937401B093750180E090E0A0E7E9
:104BA000B2EC8093760190937701A0937801B09353
:104BB000790180E090E0A4EBB3EC80937A019093CC
:104BC0007B01A0937C01B0937D010E94682411FFBA
:104BD00010C0CE0101967C0180E1F70111928A9507
:104BE000E9F700E0B701802F0E9475240F5F0830BD
:104BF000C9F712FF14C060E080E093E00E94602DCE
:104C000060E081E093E00E94602D60E081E593E048
:104C10000E94602D60E082E593E00E94602D13FF0A
:104C20000AC060E08EEA93E00E94602D60E08FEAA7
:104C300093E00E94602D60960FB6F894DEBF0FBE21
:104C4000CDBFDF91CF911F910F91FF90EF9008950D
:104C50001F920F920FB60F9211242F933F934F93F1
:104C60005F936F937F938F939F93AF93BF93CF93F4
:104C7000EF93FF93C091C600C13271F028F4C831A0
:104C800079F40E94452C5CC0CF3321F0CE3741F43B
:104C900082E003C081E001C088E00E94B81650C0E5
:104CA000C7FF40C0C13F30F08C2F90E0805F91097A
:104CB0000E9499168C2F90E0FC01E458F109EE3126
:104CC000F105F0F5E258FF4F0C94623C80E2E5CF2D
:104CD00080912D0185FF34C080E4DFCF81E00DC0DD
:104CE00082E00BC084E009C088E007C080E105C015
:104CF00080E203C080E401C080E80E949F1620C0CB
:104D000081E00DC082E00BC084E009C088E007C0EC
:104D100080E105C080E203C080E401C080E80E9419
:104D200090160EC0E091DE0B81E08E0F9091DD0BAE
:104D3000891731F0F0E0E452F54FC0838093DE0B29
:104D4000FF91EF91CF91BF91AF919F918F917F9103
:104D50006F915F914F913F912F910F900FBE0F90E8
:104D60001F9018951F920F920FB60F9211248F93D8
:104D70009F93EF93FF938091680CE82FF0E0E95147
:104D8000F44F90819093C6008F5F813809F480E0E2
:104D90008093680C9091E60B891305C08091C10047
:104DA0008F7D8093C100FF91EF919F918F910F9024
:104DB0000FBE0F901F901895E091E60B91E09E0FAB
:104DC000913831F490E004C02091050A24FD0FC011
:104DD0002091680C9217C1F3F0E0E951F44F808301
:104DE0009093E60B8091C10080628093C10008958A
:104DF000CF92DF92EF92FF921F93CF93DF931F9298
:104E0000CDB7DEB7182F6A017B0184E229830E94A7
:104E1000DC26812F0E94892A8DE30E94DC262981CD
:104E2000422FC701B6010E94CD290F90DF91CF918B
:104E30001F91FF90EF90DF90CF900C94F80F1F938D
:104E4000CF93DF931F92CDB7DEB7182F84E269832B
:104E50000E94DC26812F0E94892A8DE30E94DC2695
:104E60006981862F0E94892A0F90DF91CF911F912F
:104E70000C94F80FCF93C82F8AE993E00E94AF2AD1
:104E80008C2F0E94892ACF910C94F80FEF92FF92F9
:104E90000F931F93CF93DF9360917E0170E080E0CA
:104EA0000E941F276091810170E081E00E941F270E
:104EB00060917F0170E082E00E941F276091800175
:104EC00070E083E00E941F276091930162FB6627D8
:104ED00060F970E084E00E941F276091930166FBF7
:104EE000662760F970E085E00E941F27809193019A
:104EF000082E000C990B692F661F6627661F70E04D
:104F000086E00E941F276091820170E08AE00E9483
:104F10001F27409183015091840160918501709118
:104F2000860123E08BE00E94F82640918701509192
:104F300088016091890170918A0123E08CE00E94D0
:104F4000F82660919301617070E08DE00E941F2748
:104F50006091930165FB662760F970E084E10E942F
:104F60001F276091930163FB662760F970E085E17C
:104F70000E941F27609193016295617070E086E145
:104F80000E941F276091940170E087E10E941F2713
:104F9000409195015091960160919701709198010F
:104FA00023E088E10E94F8264091990150919A01EE
:104FB00060919B0170919C0123E089E10E94F82699
:104FC00060919D0170919E018AE10E941F2740918E
:104FD0009F015091A0016091A1017091A20123E075
:104FE0008BE10E94F82640918B0150918C016091D9
:104FF0008D0170918E0120E08EE10E94F826409193
:105000008F0150919001609191017091920120E087
:105010008FE10E94F826609193016695617070E0BF
:1050200080E20E941F27D4E6F12C0EE311E084E019
:10503000E82EED0ECD2F82E0F81691F0E3E0FE169B
:10504000E9F0F1E0FF1631F0F80140815181628111
:1050500073811AC0F801408951896289738914C02B
:1050600020E030E041E655E4F80160A171A182A1A1
:1050700093A10E94823DAB01BC0106C0F80140A98A
:1050800051A962A973A9705823E08C2F0E94F826B9
:105090000C5F1F4FCF5FCE11CECFD65FF394DC38BD
:1050A00021F6DF91CF911F910F91FF90EF9008951E
:1050B000811104C08CE893E00C94AF2A0C943A2739
:1050C0000F931F93CF938C01C0E0F8016191719110
:1050D000819191918F010E947A2AC33019F08CE25C
:1050E0000E94DC26CF5FC43081F7CF911F910F91D2
:1050F000089581E993E00C94AF2A8DE50E94DC26A7
:105100000C94F80F2F923F924F925F926F927F9282
:105110008F929F92AF92BF92CF92DF92EF92FF92C7
:105120000F931F93CF93DF93C091D409C11101C096
:10513000C4E2C150D0913A02CD1709F41BC1EC2E44
:10514000F12C26E3C29F80011124045C1D4FF8015D
:10515000A28CB38CC48CD58C668D778D80A191A1E7
:105160009B01AC010E94833CF80122A133A144A120
:1051700055A10E94DA3F4B018C019B01AC01B501A6
:10518000C6010E94783D87FD02C05401680186E394
:105190008E9DF0018F9DF00D1124E45CFD4FC50143
:1051A000D601868B978BA08FB18FC11101C0C4E24D
:1051B000C150CD1761F026E32E9DC0012F9D900DAB
:1051C00011249C01245C3D4F7901D6E333C08091CA
:1051D0003B02D8135EC00E94D11E5BC0AC2EB12C26
:1051E000DA9DC001DB9D900D1124FC01E45CFD4FB4
:1051F0006F01C11101C0C4E2C15080913B02C813CC
:1052000002C00E94D11EDA9D8001DB9D100D112489
:10521000045C1D4FF801828C938CA48CB58CA50185
:10522000940166897789808D918D0E94783D8111E6
:1052300006C0760180913A02C813D0CF2AC0F80187
:10524000668D778D80A191A19B01AC010E94833C6A
:10525000F80122A133A144A155A10E94DA3FF70130
:1052600026893789408D518D0E94833C2B013C015A
:10527000A50194010E94783DF80187FF05C0468A88
:10528000578A608E718ED5CF868A978AA08EB18E0E
:10529000D0CFD0913A02F6E3DF9F80011124045C65
:1052A0001D4FC1E0CD0FC43209F4C0E02090D409F5
:1052B00086E3382EC21509F45BC0CC2ED12C3C9C61
:1052C000C0013D9C900D11249C01245C3D4F79014F
:1052D000F80146885788608C718CF9018688978818
:1052E000A08CB18CA5019401C301B2010E94783D4C
:1052F00087FF24C0F801668D778D80A191A19B0165
:10530000AC010E94833CF80122A133A144A155A124
:105310000E94DA3F9B01AC01C301B2010E94833CB1
:105320002B013C01A50194010E94783D87FF06C036
:10533000F701468A578A608E718EDC2F3C9CF00103
:105340003D9CF00D1124E45CFD4F228D338D448D86
:10535000558D66897789808D918D0E94783D811168
:1053600001C0DC2FCF5FC43209F4C0E08701A2CFB7
:10537000D0933A02DF91CF911F910F91FF90EF9060
:10538000DF90CF90BF90AF909F908F907F906F9065
:105390005F904F903F902F9008958F929F92AF9281
:1053A000BF92CF92DF92EF92FF920F931F93CF9312
:1053B000DF93CDB7DEB72D970FB6F894DEBF0FBEE3
:1053C000CDBF6B017C01042F20E030E0A9010E94D9
:1053D000783D87FF07C08DE20E94DC26F7FAF09443
:1053E000F7F8F094102F123060F020E030E048EC35
:1053F00052E4C701B6010E94DA3F6B017C011250F2
:10540000F2CF00FF0AC020E030E040E251E4C701E3
:10541000B6010E94DA3F6B017C0120E030E040E001
:105420005FE3C701B6010E94833C0E94F43D10E097
:105430003AE0832E912CA12CB12C611571058105C8
:10544000910591F0EE24E394F12CEC0EFD1EE10E9B
:10545000F11CA50194010E94403C605DF70160834E
:10546000B901CA011F5FE9CF80E3101748F4E1E0FA
:10547000F0E0EC0FFD1FE10FF11D80831F5FF5CF02
:10548000101314C011E0100F80E3FE01E00FF11DB6
:1054900081830CC0101303C08EE20E94DC26FE0143
:1054A000E10FF11D80810E94DC2611501111F2CF15
:1054B0002D960FB6F894DEBF0FBECDBFDF91CF9112
:1054C0001F910F91FF90EF90DF90CF90BF90AF9022
:1054D0009F908F9008952091930120FF08C02BE8A2
:1054E00032E441E25DE30E94DA3F41E001C040E086
:1054F0000C94CD292091930120FF08C02BE832E4C1
:1055000041E25DE30E94DA3F43E001C042E00C94D7
:10551000CD29CF93DF93843630F06AE00E94203C9F
:10552000C0E3C90F03C0C0E08A3030F06AE00E94D7
:10553000203CD0E3D90F01C0D0E0805D0E94DC2682
:10554000DD2319F08D2F0E94DC26CC2329F08C2F2F
:10555000DF91CF910C94DC26DF91CF910895CF930A
:10556000DF93FC018491EF012196882321F00E94B2
:10557000DC26FE01F7CFDF91CF9108950E94D11E66
:1055800080913B0280933A020C948228E2E7FCE08F
:10559000ACE0B1E04D915D916D917C9113974083AA
:1055A00051836283738314964D915D916D917C91CB
:1055B0001797448355836683778318964D915D9141
:1055C0006D917C911B9740875187628773871C96EA
:1055D0008D919D910D90BC91A02D84879587A68774
:1055E000B7870895BF92CF92DF92EF92FF920F9309
:1055F0001F93CF93DF937C01FC0106A517A5D0A9CB
:10560000C1A9858980FF18C06091350170E080E0F4
:1056100090E00E942C3E2AE037ED43E25CE30E94DA
:10562000DA3F9B01AC01B8018D2F9C2F0E94DA3F1D
:105630008B01D82FC92F2DC082FD17C06091340176
:1056400070E080E090E00E942C3E2AE037ED43E2DB
:105650005CE30E94DA3F9B01AC01B8018D2F9C2FC7
:105660000E94DA3F8B01D82FC92FF701B2A4C3A43F
:10567000D4A4F5A42B2D3C2D4D2D5F2DB8018D2FDD
:105680009C2F0E949A3F181624F40B2D1C2DDD2D03
:10569000CF2D20E030E040E85FE3B8018D2F9C2F54
:1056A0000E949A3F181624F000E010E0D0E8CFE303
:1056B000B8018D2F9C2FDF91CF911F910F91FF90FB
:1056C000EF90DF90CF90BF9008955F926F927F929E
:1056D0008F929F92AF92BF92CF92DF92EF92FF9202
:1056E0000F931F93CF93DF93C0913B025090D40947
:1056F00089E9F82E06E716E9DEE796E3692EC51577
:1057000009F455C0AC2EB12C6A9CC0016B9C900D65
:1057100011249C01245C3D4F6901C9010E94F22AB9
:10572000762E872E982EE92E2F2D302F412F5D2F8C
:105730000E949A3F18164CF42F2D302F412F5D2FC9
:105740006F2D702F812F9D2F08C0272D382D492DAB
:105750005E2D672D782D892D9E2D0E94DA3FF60152
:10576000628F738F848F958F6A9C80016B9C100D64
:105770001124045C1D4FF801A6A0B7A0C0A4D1A4B9
:10578000A6019501628D738D848D958D0E949A3F3F
:1057900018162CF4F801A28EB38EC48ED58ECF5F6E
:1057A000C43209F4C0E0F72C8401DE2DA8CF8F2D80
:1057B000902FA12FBD2F8093920C9093930CA093C8
:1057C000940CB093950CDF91CF911F910F91FF90A6
:1057D000EF90DF90CF90BF90AF909F908F907F9091
:1057E0006F905F90089580913B029091D409981733
:1057F00039F026E3829FC0011124845C9D4F0895F7
:1058000080E090E0089584E2E2E7FCE0DF011D9291
:105810008A95E9F710923B021092D40981E08093B7
:10582000710C10923A0208950F931F93CF93C42FD7
:1058300020E030E040EA51E40E94DA3F0E94613DFE
:105840000E94FB3D8B0101151105D9F080912E01BD
:10585000811117C0C11103C00E94331406C00E94F9
:10586000FC0F80912F0181FD0CC02FEF80E792E0AB
:10587000215080409040E1F700C000000150110924
:10588000E2CFCF911F910F9108958091050A84FD79
:105890001DC080E10E94B8160E9493220E940F2E24
:1058A00090912D01892F8C7221F4809131018670A5
:1058B00069F0943031F48091060A811105C086E0C8
:1058C00001C083E00E94A8160C945B1F08951F92EC
:1058D0000F920FB60F9211242F933F934F935F9324
:1058E0006F937F938F939F93AF93BF93EF93FF93A8
:1058F00080B140912D01942F917109F04EC08076B6
:1059000090E025E0959587952A95E1F72091020191
:10591000022E000C330B2817390709F43EC0809380
:105920000201609100012091010131E0009709F02E
:1059300030E051E0223009F050E021E0633009F01E
:1059400020E0252351F0332341F02091970C2F5F65
:105950002093970C21E02093960C609100012091F8
:10596000010151E0213009F050E021E0633009F0FD
:1059700020E0252351F0332341F02091970C215052
:105980002093970C21E02093960C90910101909325
:105990000001809301018091960C80B1877187315D
:1059A00059F0413049F08091060A811105C00E94EA
:1059B000452C81E00E94A816FF91EF91BF91AF9115
:1059C0009F918F917F916F915F914F913F912F9117
:1059D0000F900FBE0F901F90189590B19771809106
:1059E000930186FD02C087E19827992351F0892F02
:1059F000817091FD826092FD8460907119F08860E1
:105A0000089580E0089581B1887E81B982B187616F
:105A100082B98091930183FF0BC080916B008761F5
:105A200080936B0080916800816080936800089586
:105A300080916B00887E80936B00089540910401F3
:105A4000509105014F5F5F4F509305014093040152
:105A500020912D018091030120FF0BC04B3C584049
:105A600098F0809580930301109205011092040133
:105A70000BC04938534150F0809580930301109238
:105A800005011092040102C091E001C090E024FDE4
:105A9000946022FD916080910301892323FD82603F
:105AA00025FD826080618093E30B809139028093B1
:105AB000E40B08956CE071E08BEB91E00C94C1165F
:105AC000F894F999FECF92BD81BD81E08FBB80B57E
:105AD0008627482F082E000C550B262F30E0242354
