:100000000C9401020C9413020C9413020C9413022E
:100010000C946B310C9497170C9413020C941302EC
:100020000C9413020C9413020C9413020C941302FC
:100030000C9413020C943B200C9413020C941302A6
:100040000C94B51F0C9413020C94C41F0C9413024F
:100050000C94DD260C946C270C9413020C94130260
:100060000C9413020C9413020C9413020C941302BC
:100070000C9413020C9413020C94130204400A40D3
:100080000D40104015401D402540C040C040C040BC
:10009000324035403E404740C040C040C040C04074
:1000A000C040C04053405D406940714074407D4055
:1000B00086408C40C040C04095409E40A940DF0330
:1000C000E303E503E703E903EB03EE03B204E60F02
:1000D000E60F1A04E60FE60F240431043E044B0435
:1000E000E60F4F04E60F5D04E60F670471047B041E
:1000F000E60FE60FE60F8B049804A5041E272027C1
:100100005B275B275B275B275B275B275B275B27DF
:100110005B275B27262728272A272C272E273027EF
:10012000322734275B2738273A273C273E274027AA
:1001300042275B2744274627084AD73B3BCE016E20
:1001400084BCBFFDC12F3D6C74319ABD56833DDA2E
:100150003D00C77F11BED9E4BB4C3E916BAAAABE3D
:10016000000000803F05A84CCDB2D44EB93836A966
:10017000020C50B9918688083CA6AAAA2ABE0000A3
:1001800000803F000D0A4772626C20312E316632CA
:10019000205B27242720666F722068656C705D0DD8
:1001A0000A005B4D53473A42544E205A65726F41E4
:1001B0006C6C5D0D0A005B4D53473A42544E205A19
:1001C00065726F435D0D0A005B4D53473A42544ED2
:1001D000205A65726F5A5D0D0A005B4D53473A42D3
:1001E000544E205A65726F595D0D0A005B4D53479E
:1001F0003A42544E205A65726F585D0D0A00244EE3
:10020000002C435F41584953002C50414E454C004F
:100210002C5350495F44495350002C5350495F536D
:1002200052002C4156525F363434005B4F50543AE2
:10023000005B5645523A312E3166322C4255494CBC
:10024000443A31382E30332E32303137005B544C43
:100250004F3A005B4739323A003330003238005BA6
:100260004700204700205300204600205400333828
:100270002E005B47433A47005B484C503A24242009
:10028000242320244720244920244E2024783D760E
:10029000616C20244E783D6C696E6520244A3D6C6B
:1002A000696E652024534C50202443202458202478
:1002B00048207E2021203F206374726C2D785D0DD4
:1002C0000A00536C656570696E6700526573746FE0
:1002D00072696E67207370696E646C650052657335
:1002E000746F72696E672064656661756C74730003
:1002F00050676D20456E6400436865636B204C69F0
:100300006D69747300436865636B20446F6F72009E
:1003100044697361626C656400456E61626C65641A
:100320000043617574696F6E3A20556E6C6F636B34
:10033000656400272448277C2724582720746F20D1
:10034000756E6C6F636B00526573657420746F20FB
:10035000636F6E74696E7565005B4D53473A00417B
:100360004C41524D3A007C413A007C4F763A007C39
:1003700046533A007C57434F3A007C506E3A007C1B
:1003800042663A007C57506F733A007C4D506F7351
:100390003A00536C65657000446F6F723A004368B1
:1003A00065636B00416C61726D00486F6D65004A5A
:1003B0006F6700486F6C643A0052756E0049646C58
:1003C00065005A65726F43005A65726F5A005A652C
:1003D000726F59005A65726F5800010203050810C8
:1003E00020304050607890B0D0F00D0A006F6B0D57
:1003F0000A00204D005B5052423A006572726F72E3
:100400003A0011241FBECFEFD0E1DEBFCDBF2BE0FD
:10041000A0E0B1E001C01D92AE39B207E1F70E9441
:10042000B1360C943D470C9400002F923F924F92AE
:100430005F926F927F928F929F92AF92BF92CF9274
:10044000DF92EF92FF920F931F93CF93DF93CDB77D
:10045000DEB7C055D1090FB6F894DEBF0FBECDBFD1
:1004600082E4EDEFF1E0DF011D928A95E9F78BE080
:10047000E1EBF1E0AEEFB1E001900D928A95E1F78A
:1004800080914E0B843211F00C940A1081E080931D
:10049000FE011092FF0183E08E8FB1E0BFA3212CFB
:1004A000312C1CAA1BAA1DA61F8E1BA267E0962E2C
:1004B00001E07AE0C72ED12CEAE08E2EF1E6AF2ED5
:1004C000F3E0BF2E8E8DE82FF0E0E25BF44FE0808A
:1004D000EE2009F479C29FEB9E0D9A3110F00C9436
:1004E000D60F8F5F8E8FBE01665E7F4FCE014E9618
:1004F0000E940036882311F40C94D80F4A8C5B8C30
:100500006C8C7D8CC301B2010E940A470E94484452
:10051000162F70E080E090E00E9479449B01AC01CE
:10052000C301B2010E94CF4220E030E048EC52E427
:100530000E9427460E9494460E944844CB01E7E46B
:10054000EE1629F0FDE4EF1609F4EAC062C1183294
:1005500009F4C5C020F5143168F4113108F08AC0DF
:10056000143009F452C008F464C01A3009F445C0CC
:100570000C94E60F1C3109F440C050F4163110F011
:100580000C94E60F25E1211B2093000226E0ACC06D
:100590001E3199F1163209F44CC00C94E60F1D334C
:1005A00009F497C0A8F4153381F140F41B3209F423
:1005B0007AC0113309F477C00C94E60F1C3310F0A5
:1005C0000C94E60F6AEC610F6093040229E08CC082
:1005D0001C3538F41A3508F053C0103581F10C94ED
:1005E000E60F1C3551F01F3510F00C94E60F2EE588
:1005F000211B2093FF0125E077C0009731F42BA148
:1006000021110C94DA0F31E03BA31093FD01212F4F
:100610002D7F2C3119F01C3509F063C0009721F0B3
:100620000A9711F00C94E60F610F6093FD0120E032
:1006300060C06BA161110C94DA0FA2E0ABA3109320
:10064000FE01163209F04FC08431910559F08E3108
:10065000910541F08832910529F08233910511F01E
:100660000C94E60FB6010E94794266576093FE0132
:1006700021E03FC06FEE610F6093020222E034C0C0
:10068000892B31F466EA610F6093010223E031C0E7
:100690006A30710511F00C94E60F1A3511F40C94C0
:1006A000E60F24E026C0BBA1B1110C94DA0F113380
:1006B00031F41092030228E0E3E0EBA31AC00A979A
:1006C00011F00C94E60F0093030228E0F3E0FBA383
:1006D00010C0892B11F00C94E60F2AE00AC027E025
:1006E00003C020E001C021E0892B19F087E10C94C0
:1006F0000E1081E090E002C0880F991F2A95E2F762
:100700002BA93CA928233923232B19F085E10C942C
:100710000E102BA93CA9282B392B3CAB2BABD2CEEE
:10072000892B21F71A3040F4173060F5133078F038
:100730001630D0F00C94E60F1E3199F010F40C94A2
:10074000E60F8CE9810F883058F10C94E60F1123E5
:1007500021F0113009F447C004C033E030930502A2
:1007600042C0109305023FC0143021F0153031F023
:1007700080E101C080E28093070202C0109207026C
:100780008CE032C0183021F0193031F080E801C01F
:1007900080E48093060202C0109206028DE024C01D
:1007A000812F90E0FC01E556F109E730F10520F4D6
:1007B000E15AFF4F0C94AF428092060212C064E0EF
:1007C000609306020EC086E00AC088E008C08BE095
:1007D00006C085E004C09092060203C089E08093C1
:1007E00006028EE001C08BE0A1E0B0E002C0AA0FDB
:1007F000BB1F8A95E2F72BA93CA92A233B23232B75
:1008000009F084CFEBA9FCA9EA2BFB2BFCABEBABEB
:1008100059CE8E2DEE0C990BAA0BBB0BFC01E354A9
:10082000F109E831F10510F00C94E60FEA59FF4F99
:100830000C94AF424092090250920A0260920B025D
:1008400070920C0280E09AC040920D0250920E020B
:1008500060920F0270921002FDA5F160FDA781E089
:100860008DC0409211025092120260921302709257
:1008700014022DA522602DA782E080C040921502AF
:100880005092160260921702709218023DA53460D1
:100890003DA783E073C010931D0284E06FC0C301C5
:1008A000B2010E94414460931E0270931F02809324
:1008B00020029093210285E061C040922202509272
:1008C0002302609224027092250286E057C0409273
:1008D000260250922702609228027092290287E035
:1008E0004DC040922A0250922B0260922C027092CC
:1008F0002D0288E043C020E030E04FE753E4C3011D
:10090000B2010E94E745181614F40C94DC0F109302
:100910002E0289E033C040922F0250923002609242
:100920003102709232026F8D61606F8F8AE026C053
:100930004092330250923402609235027092360235
:100940008F8D82608F8F8BE019C04092370250925A
:1009500038026092390270923A029F8D94609F8FA4
:100960008CE00CC040923B0250923C0260923D02EF
:1009700070923E02AF8DA860AF8F8DE0EE24E394BD
:10098000F12C082E02C0EE0CFF1C0A94E2F797012E
:1009900022213321232B11F00C94DE0FF50102C02C
:1009A000F595E7958A95E2F7E0FF0BC020E030E08F
:1009B000A901C301B2010E94C54387FF02C00C9484
:1009C000E00F2E283F287ECDFF8DFF2329F02BA19D
:1009D000211102C032E03BA325FE0FC080911E0210
:1009E00090911F02A0912002B09121028138964976
:1009F000A849B10514F00C94E20F8FA1882301F1EE
:100A000020FC02C00C94EC0F80910002813009F0B0
:100A10003FC023E333E34BEC51E460910902709152
:100A20000A0280910B0290910C020E94274660936B
:100A3000090270930A0280930B0290930C0228C063
:100A40008091FF01813071F49BA1923009F5809172
:100A5000FE018035E9F08823D9F020FC02C00C9417
:100A6000EC0F16C08091B201811112C020FCCCCFD6
:100A70008091C0019091C101A091C201B091C301C8
:100A80008093090290930A02A0930B02B0930C0288
:100A900030FC10C08091BC019091BD01A091BE01BD
:100AA000B091BF0180932A0290932B02A0932C0255
:100AB000B0932D028091FD01843039F426FC03C0EF
:100AC0008CE10C940E10E89426F8809102028823A1
:100AD00091F0813041F4A1E02296AFAF22971DAE94
:100AE000B2E0BBAF0FC022961FAE2297E2E0EDAF9F
:100AF000F1E0FBAF07C022E022962FAF229731E052
:100B00003DAF1BAE80910002813021F06BA16330BC
:100B1000A9F52BC04FE2E42E42E0F42E00E010E0F5
:100B20008F8DC82ED12CC601002E02C095958795B9
:100B30000A94E2F780FF10C023E333E34BEC51E467
:100B4000D7016D917D918D919C910E942746F7016F
:100B500060837183828393830F5F1F4FF4E0EF0EF6
:100B6000F11C04301105F9F6D1CF809103028130D8
:100B700029F42F8D243011F00C94E40F80E1E9ED7D
:100B8000F1E0DE01119601900D928A95E1F78BA9B3
:100B90009CA991FD09C09091FD019BA79A30C9F0D5
:100BA0009C3509F4B2C013C180910402873018F05B
:100BB0008DE10C940E109091B701981761F3BE016E
:100BC0006F5F7F4F0E944725882311F40C94FA0F22
:100BD000E2CFAF8DA11103C08AE10C940E10C101C8
:100BE00080759927892B09F46BCF6091220270914F
:100BF000230280912402909125020E940A470E94BC
:100C000048446730A8F680911D02843141F082305B
:100C100011F00C94E60F27FE02C00C94E60FBFEA19
:100C20002B22662319F0615069AB03C0E0910402E6
:100C3000E9AB6DE072E089A90E944725882311F491
:100C40000C94FA0F80901D024090F9015090FA0127
:100C50006090FB017090FC010DEF11E031EBC32EB1
:100C600031E0D32EE12CF12CFF8DAF2EB12CC5013C
:100C70000E2C02C0959587950A94E2F780FF37C045
:100C800024E182122BC0D601D8962D913D914D9131
:100C90005C91DB9758966D917D918D919C915B97BE
:100CA0000E94CF42F80122A933A944A955A90E9464
:100CB000CF42D80150966D937D938D939C9353971B
:100CC000B2E0EB16F10499F4A30192010E94CF4225
:100CD000F801608B718B828B938B09C0F80182A91C
:100CE00093A9A4A9B5A9808B918BA28BB38BFFEF9D
:100CF000EF1AFF0A0C5F1F4F24E0C20ED11C34E034
:100D0000E316F10409F0B3CF2EC16F8D662309F409
:100D100063CF4090F9015090FA016090FB01709010
:100D2000FC010FE212E0C12CD12CE12CF12CA62EFB
:100D3000B12CF601EF54FE4FC5010E2C02C0959563
:100D400087950A94E2F780FF2BC0A1E0B0E0AC0FDA
:100D5000BD1FAC0DBD1D2D913D914D915C91608DE0
:100D6000718D828D938D0E94CF42D8012D913D913E
:100D70004D915C910E94CF42F80160837183828320
:100D80009383F2E0EF16F104A1F4A30192010E9413
:100D9000CF42D8016D937D938D939C93139709C097
:100DA00080AD91ADA2ADB3ADF80180839183A283F4
:100DB000B383FFEFEF1AFF0A24E0C20ED11C0C5FD1
:100DC0001F4F34E0E316F10409F0B3CFCBC06BA1A1
:100DD000633071F48BA58E3109F48AC0853309F430
:100DE000BBC08C3109F0BEC06DE072E086E083C00C
:100DF0009F8D992379F3A0910102A9AB4090F9014D
:100E00005090FA016090FB017090FC0121EBC22E22
:100E100021E0D22E0FE212E0FE0131964F01E12CCB
:100E2000F12CA92EB12CC5010E2C02C095958795E9
:100E30000A94E2F780FD0BC0F601808D918DA28DA2
:100E4000B38DF80180839183A283B38340C0FBA557
:100E5000F533E9F129A9211129C0D601D8962D91A0
:100E60003D914D915C91DB97F401608171818281AC
:100E700093810E94D042D8012D913D914D915C917A
:100E80000E94D042F8016083718382839383F2E0F1
:100E9000EF16F104E1F4A30192010E94D042D801BF
:100EA0006D937D938D939C93139711C0F601208DC4
:100EB000318D428D538DD8016D917D918D919C9195
:100EC0000E94D042F8016083718382839383FFEF95
:100ED000EF1AFF0A24E0C20ED11C0C5F1F4F34E052
:100EE000830E911C64E0E616F10409F09CCF72CFEA
:100EF0006DE072E087E00E944725882311F40C948E
:100F0000FA0F8F8D811103C019AA1BA22CC020E0FB
:100F100030E080E090E0AF8D4A2F50E0BA01082E1B
:100F200002C0759567950A94E2F760FD0EC0F9015D
:100F3000EF54FE4FC08CD18CE28CF38CF901E3505E
:100F4000FE4FC08AD18AE28AF38A01962C5F3F4F16
:100F50008430910519F706C08091FE01823010F0AF
:100F60000C94E80F19AAB091FE01BBA7B03529F483
:100F7000EF8DE1110C94EA0F7BC2FBA1F23009F076
:100F800077C22BA5211104C03F8D311171C22BC036
:100F900020E030E0A9016091090270910A0280917D
:100FA0000B0290910C020E94C543882311F40C940B
:100FB000EC0F6BA56C3809F445C240F46230A9F01F
:100FC0006330B1F0613009F053C20AC08BA58E388E
:100FD00009F438C208F433C28F3809F430C248C269
:100FE0009F8D911145C21BA243C2AFA1A460AFA3C4
:100FF000BF8DBB2309F4F0CDEBAD0E2F10E03DAD5E
:10100000232F30E038AF2FAB81E090E07C010DACB6
:1010100002C0EE0CFF1C0A94E2F702C0880F991F71
:10102000EA95E2F7E82AF92A8B2F90E08E219F219A
:10103000892B09F4D3C7F801EE0FFF1FEE0FFF1F36
:10104000E350FE4FD801AA0FBB1FAA0FBB1FA75327
:10105000BE4F2D913D914D915C9162A973A984A9D8
:1010600095A90E94CF422B013C01EFA9F8ADEE0FEC
:10107000FF1FEE0FFF1FE350FE4FAFA9B8ADAA0F41
:10108000BB1FAA0FBB1FA753BE4F2D913D914D9182
:101090005C9162A973A984A995A90E94CF424B01D2
:1010A0005C01610160E8C622DD2427FEF5C0E894FA
:1010B00027F840E150E06FE272E089EC91E00E9495
:1010C0003047892B11F481E2A9C780910002813059
:1010D000B1F423E333E34BEC51E4609126027091C9
:1010E000270280912802909129020E94274660934E
:1010F0002602709327028093280290932902809100
:10110000260290912702A0912802B09129028DA772
:101110009EA7AFA7B8ABA3019201C301B2010E9481
:10112000274629966CAF7DAF8EAF9FAF2997A5015B
:101130009401C501B4010E9427462D966CAF7DAF86
:101140008EAF9FAF2D9720E030E040E850E46DA5D2
:101150007EA58FA598A90E9427462DA53EA54FA53F
:1011600058A90E94274629962CAD3DAD4EAD5FADE6
:1011700029970E94CF422D962CAD3DAD4EAD5FAD6F
:101180002D970E94CF426B017C0120E030E0A90145
:101190000E94C54387FD24C7C701B6010E94C64609
:1011A0006B017C012D962CAD3DAD4EAD5FAD2D9705
:1011B00029966CAD7DAD8EAD9FAD29970E94D04232
:1011C0000E94C6469B01AC01C701B60190580E941F
:1011D000CF436B017C019BA5933021F4F7FAF09487
:1011E000F7F8F09420E030E0A9016DA57EA58FA569
:1011F00098A90E94C54387FF11C0F7FAF094F7F849
:10120000F0948DA59EA5AFA5B8A9B05880932602ED
:1012100090932702A0932802B0932902000F111F78
:10122000000F111F035F1D4FA7019601C501B401F7
:101230000E9427469B01AC01C301B2010E94CF422C
:1012400020E030E040E05FE30E942746D8016D9344
:101250007D938D939C9313970FA918AD000F111FC9
:10126000000F111F035F1D4FA7019601C301B201BB
:101270000E9427469B01AC01C501B4010E94D042E7
:1012800020E030E040E05FE30E942746F801608301
:10129000718382839383ECC03DA5232F30E03EA76A
:1012A0002DA7E222F322EF2809F49CC661EF262243
:1012B00080910002813009F47AC0F801EE0FFF1F1F
:1012C000EE0FFF1FE35FFD4FC080D180E280F3800F
:1012D000A7019601C301B2010E94CF422B013C013C
:1012E000EFA9F8ADEE0FFF1FEE0FFF1FE35FFD4FFD
:1012F00080819181A281B3818DA79EA7AFA7B8AB52
:101300009C01AD01C501B4010E94CF424B015C01BB
:10131000A3019201C301B2010E9427462B013C01A7
:10132000A5019401C501B4010E9427469B01AC01AF
:10133000C301B2010E94D0420E94C6464B015C012B
:10134000A7019601C701B6010E9427466B017C01E7
:101350002DA53EA54FA558A9CA01B9010E9427464F
:101360009B01AC01C701B6010E94D0420E94C64653
:101370006B017C0160932602709327028093280200
:10138000909329029B01AC01C501B4010E94CF4298
:101390004B015C01E894B7F82AE037ED43EA5BE3E0
:1013A000C501B4010E94E745181664F161C09DEFC4
:1013B000E92E91E0F92E8DA59EA50C2C02C09595E5
:1013C00087950A94E2F780FF12C023E333E34BECE6
:1013D00051E4D70150966D917D918D919C915397D9
:1013E0000E942746F701608B718B828B938BFFEFF6
:1013F000CF1ADF0A24E0E20EF11C34E0C316D10458
:10140000D1F65BCF20E030E040E05FE3C501B401FE
:101410000E94E74518160CF456CE2FE632E143E859
:101420005AE3C701B6010E9427469B01AC01C501E2
:10143000B4010E94E74518160CF445CE19C06FA1FF
:1014400060616FA38BA58E58823018F48FA18860DD
:101450008FA39F8D992309F4BFCB40E150E06FE249
:1014600072E089EC91E00E943047892B09F42BCE81
:101470002FA12170AFA1C101A0FF02C08E7D02C0CB
:101480008E7D9C7FBBA1B111937C892B09F0ACC5EB
:101490008E010F5E1F4F89E0F80111928A95E9F7DE
:1014A000222309F44AC08BA99CA9867B892B09F0C9
:1014B0009DC58091FD01853311F0811197C5809103
:1014C000BC019091BD01A091BE01B091BF018D8B77
:1014D0009E8BAF8BB88F9091B9018091BA01892B07
:1014E000898F8091090290910A02A0910B02B0911C
:1014F0000C02898B9A8BAB8BBC8B8091A10185FFF1
:1015000006C08FE292E00E940017811171C5B801F8
:101510008FE292E00E941A3180913B0181116CC5EB
:101520000E947730892B09F467C580E280933B01E4
:101530000E94CF170E94EC225FC58091A101F0901C
:10154000BA0181FF26C09BA59150933018F0FFA1EE
:10155000F064FFA32F8D222339F03BA1323021F418
:101560006FA160686FA315C080E1F81212C090915E
:10157000B10191508FA18074933030F4882349F0E9
:101580009FA190629FA305C0811103C0AFA1A0627B
:10159000AFA380911E0290911F02A0912002B091F2
:1015A00021028093C5019093C601A093C701B09317
:1015B000C8018091FF018093B201882311F088E077
:1015C000898F8091090290910A02A0910B02B0913B
:1015D0000C028093C0019093C101A093C201B0930B
:1015E000C301898B9A8BAB8BBC8B80902A02909025
:1015F0002B02A0902C02B0902D02A50194016091C5
:10160000BC017091BD018091BE019091BF010E940B
:10161000C543BFA1B074EB2E811103C0EFA1E5FF5C
:1016200020C0FF2071F0FFA1F7FD0BC0EE2021F0DC
:1016300040E050E0BA0102C0B501A4018F2D0E9424
:10164000622380912A0290912B02A0912C02B091EA
:101650002D028093BC019093BD01A093BE01B09375
:10166000BF01E1100CC08091BC019091BD01A0911F
:10167000BE01B091BF018D8B9E8BAF8BB88F8091D7
:101680002E028093C401809107029091BA019817AD
:1016900051F04D895E896F89788D0E946223809117
:1016A00007028093BA01998D8091BA01892B898FA5
:1016B000809106029091B9019817D1F090913B0169
:1016C000923051F061968FAF61970E9492156196AA
:1016D0008FAD61970E94843580910602811103C00D
:1016E0001092B90105C09091B901892B8093B9017D
:1016F000998D8091B901892B898F8091FD0184306A
:1017000049F5609122027091230280912402909108
:10171000250220913B012230E9F02E966FAF2E97E3
:101720002F967FAF2F9761968FAF619760969FAF8F
:1017300060970E94921540E02E966FAD2E972F96DF
:101740007FAD2F9761968FAD619760969FAD609743
:101750000E94A330809102028093B5018091000223
:101760008093B3012BA1233071F580910302809304
:10177000B601811108C010923702109238021092FF
:10178000390210923A02C0903702D0903802E090AD
:101790003902F0903A02A70196016091F901709127
:1017A000FA018091FB019091FC010E94C5438823BE
:1017B00051F0C092F901D092FA01E092FB01F0924F
:1017C000FC010E948317809104029091B701981741
:1017D00069F08093B70180E1FE013196A9EDB1E097
:1017E00001900D928A95E1F70E9483178091010282
:1017F0008093B4018091FD018632F1F138F48C318F
:1018000009F18E31F9F08A3069F04FC08C35D1F191
:10181000863609F441C0883209F047C069EC71E0AE
:1018200087E02DC06DE072E089A90E942B25809190
:10183000B70139A9831339C080E1EDE0F2E0A9EDE9
:10184000B1E025C0898D8160898F6BA1662329F065
:10185000B8018FE292E00E941A31B8018DE092E067
:101860000E941A3180E1EDE0F2E0A9ECB1E00190D4
:101870000D928A95E1F719C069EC71E086E00E944B
:101880002B2513C080E1EFE2F2E0A9EEB1E0019078
:101890000D928A95E1F707C080E1E9EEF1E0DF0102
:1018A0001D928A95E9F70E9483178091FE0180932B
:1018B000B101803509F42CC3BBA1B23009F028C3B3
:1018C000813021F4BE016F5E7F4F06C0811109C0D7
:1018D000898D8160898FB8018FE292E00E941A3170
:1018E0000EC38250823008F0A3C2809126029091EC
:1018F0002702A0912802B09129028BA39CA3ADA33B
:10190000BEA3ABAD94E0A99F70011124F701E7538A
:10191000FE4FFCA7EBA79701235F3D4F3AAB29ABE6
:10192000D9014D905D906D907C90208131814281F4
:101930005381C301B2010E94D0426BAB7CAB8DAB33
:101940009EABEDADB4E0EB9F8001112498012753CD
:101950003E4F3EA72DA7C801835F9D4F9CAF8BAF25
:10196000DC018D909D90AD90BC90F901208131817A
:1019700042815381C501B4010E94D04221966CAFCF
:101980007DAF8EAF9FAF219777FA709477F8709400
:10199000D501C401B0588F8F98A3A9A3BAA3F701AA
:1019A000E15DFD4F2BA93CA94DA95EA96081718124
:1019B000828193810E94CF426B017C01F801E15D3D
:1019C000FD4F21962CAD3DAD4EAD5FAD21976081B1
:1019D0007181828193810E94CF424B015C01A701FA
:1019E0009601C301B2010E9427466FAB78AF89AF61
:1019F0009AAFA50194016F8D78A189A19AA10E9447
:101A000027469B01AC016FA978AD89AD9AAD0E94C4
:101A1000D0426FAB78AF89AF9AAFA5019401C301F3
:101A2000B2010E9427464B015C01A70196016F8D10
:101A300078A189A19AA10E9427469B01AC01C5010A
:101A4000B4010E94CF422FA938AD49AD5AAD0E94D2
:101A50004F436B017C019FA192FF13C02DEB37E335
:101A600046E055EBC701B6010E94E74587FD1DC062
:101A70002BED3FE049EC50E4C701B6010E94CF4294
:101A800012C02DEB37E346E055E3C701B6010E94D3
:101A9000C543181654F02BED3FE049EC50E4C70164
:101AA000B6010E94D0426B017C018090950190901C
:101AB0009601A0909701B09098012BA13CA14DA157
:101AC0005EA1CA01B9010E94D042A50194010E9401
:101AD000CF429B01AC01C501B4010E9427460E9480
:101AE000C6464B015C0120E030E040E05FE3C70107
:101AF000B6010E9427462BA13CA14DA15EA10E94E8
:101B000027469F77A50194010E94CF430E94B444C9
:101B10000E94484478AF6FABDB01AB2B09F4D2CE07
:101B2000198D4B01A12CB12C13FF12C0C501B401BA
:101B30000E9477449B01AC0169897A898B899C89D1
:101B40000E942746698B7A8B8B8B9C8B177F198F12
:101B5000C501B4010E9477444B015C019B01AC01BB
:101B6000C701B6010E94CF436FA378A789A79AA7A0
:101B70002296EFAD2297B4E0EB9FC00111248C01B7
:101B800007531E4FFC01E15DFD4FD8012D913D91A2
:101B90004D915C9160817181828193810E94CF42DD
:101BA000A50194010E94CF432D966CAF7DAF8EAFFF
:101BB0009FAF2D972FA138A549A55AA5CA01B901F4
:101BC0000E9427469B01AC0160E070E080E090E459
:101BD0000E94CF426B017C012BEA3AEA4AE25EE3C3
:101BE0006FA178A589A59AA50E9427464B015C01A3
:101BF00020E030E040E850E4C701B6010E94D04246
:101C00009B01AC01C501B4010E94274625966CAF2B
:101C10007DAF8EAF9FAF259720E030E040E05FE3DF
:101C2000C701B6010E94274629966CAF7DAF8EAFE3
:101C30009FAF29971BA222242394312CEFA9F8AD42
:101C40002E163F0609F43ECEBBA1BC3008F048C0BA
:101C500029962CAD3DAD4EAD5FAD29976F8D78A126
:101C600089A19AA10E9427466B017C0125962CAD83
:101C70003DAD4EAD5FAD2597C301B2010E94274631
:101C8000A70196010E94D0427B016C0129962CADE0
:101C90003DAD4EAD5FAD2997C301B2010E9427460D
:101CA0004B015C0125962CAD3DAD4EAD5FAD25974A
:101CB0006F8D78A189A19AA10E9427469B01AC0152
:101CC000C501B4010E94CF422B013C01EBA1EF5FA3
:101CD000EBA3470156018F8E98A2A9A2BAA265C0B4
:101CE000B10180E090E00E9477442FA138A549A57A
:101CF0005AA50E9427466B017C010E94CA436F8F40
:101D000078A389A39AA3C701B6010E94B8464B01E4
:101D10005C01A9A9BAA9CD90DD90ED90FC90F7FAED
:101D2000F094F7F8F094ABADBCAD8D919D910D9012
:101D3000BC91A02D8BA39CA3ADA3BEA32F8D38A1D6
:101D400049A15AA1C701B6010E9427462B013C01B7
:101D5000A50194016BA17CA18DA19EA10E942746A3
:101D60009B01AC01C301B2010E94D0422B013C0196
:101D7000A5019401C701B6010E9427466B017C01B1
:101D80002F8D38A149A15AA16BA17CA18DA19EA143
:101D90000E9427469B01AC01C701B6010E94CF42B9
:101DA0006F8F78A389A39AA31BA2A30192016BA9A9
:101DB0007CA98DA99EA90E94D042EBA5FCA56083B9
:101DC0007183828393832F8D38A149A15AA12196D3
:101DD0006CAD7DAD8EAD9FAD21970E94D042ADA57B
:101DE000BEA56D937D938D939C9313972D962CADEB
:101DF0003DAD4EAD5FAD2D97F8016081718182815F
:101E000093810E94D042D8016D937D938D939C93D2
:101E10001397BE016F5E7F4F89EC91E00E941A31EB
:101E200080913C0181116BC0BFEF2B1A3B0A06CF9A
:101E3000898D8460898F80913B01823009F45FC075
:101E40000E94921580913C01811162C0FFA1F07146
:101E5000FF2E109240012FA123FB882780F90E94BA
:101E6000341080B1887090911901891749F084E08D
:101E70000E94E7160E947E1480E00E94341048C041
:101E8000B8018FE292E00E941A3181E080933A011A
:101E900082E00E94F7160E947E1480913C0181111D
:101EA00037C080913B018111F6CF80913A0181309A
:101EB00081F4FF2051F080E1EAE1F1E0AAE2B1E033
:101EC00001900D928A95E1F707C085E00E94E71620
:101ED00003C081E08093400110923A0180E00E94AB
:101EE00034100E947E140E9408200E9487300E94B5
:101EF0002E2C0E94434280914001811188C080E1D4
:101F0000EFE2F2E0A9ECB1E001900D928A95E1F7E1
:101F1000809105028093B801882309F47FC00E9454
:101F200092158091B80190913B01833041F4923039
:101F3000D1F188E00E94F7160E947E1434C081E03F
:101F40008093B1011092B5011092B4011092B201C8
:101F50001092B7011092BA011092B90184E68093F1
:101F600042018093430180934401923091F069EDE6
:101F700071E080E00E9447258823E1F10E948317E9
:101F800040E050E0BA0180E00E94182380E00E9407
:101F9000843589E593E00E94172C80EF92E00E943F
:101FA000172C0E9437291092B8012FC081E036C04B
:101FB00082E034C088E132C086E230C089E12EC0C0
:101FC00084E02CC08BE12AC085E228C084E126C0D1
:101FD0008EE124C08FE122C086E120C080E21EC0D5
:101FE00082E21CC083E21AC084E218C080E116C0FD
:101FF0008FE014C087E012C080E1EFE2F2E0A9ECCC
:10200000B1E001900D928A95E1F780E007C00E944F
:10201000C2347ECF1E8E1FA20C944F02C05BDF4FD6
:102020000FB6F894DEBF0FBECDBFDF91CF911F91E9
:102030000F91FF90EF90DF90CF90BF90AF909F9067
:102040008F907F906F905F904F903F902F9008956A
:102050008AEE93E00C94172C0E947730892B19F0AC
:1020600082E00C94F7160895109219019091A10145
:1020700097FD03C098E090931901882331F0909167
:10208000190188E089278093190108952091A10101
:1020900020FF08C02BE832E441E25DE30E942746BE
:1020A00041E001C040E00C94442B4F925F926F924C
:1020B0007F928F929F92BF92CF92DF92EF92FF9288
:1020C0000F931F93CF93DF93CDB7DEB7E0970FB693
:1020D000F894DEBF0FBECDBF10913C09112359F11A
:1020E00081E080933B018FE593E00E94172C812FC4
:1020F0000E94F12B0E94281084EF91E00E949830FA
:102100001150123030F08FB7F89410923C098FBF05
:1021100012C089E593E00E94172C87E493E00E94A7
:10212000172C0E94372980E10E94ED1680913B090F
:1021300084FFFCCFE8CF00913B09002309F41AC3C8
:1021400004FF04C081E080933C01C2C300FF22C2AF
:1021500080E1EAE1F1E0DE01919601900D928A952D
:10216000E1F7BE016F5D7F4FCE0141960E943B17A4
:102170008CE30E94962780913B01883009F44FC080
:1021800068F4813009F465C0C8F0823009F464C095
:10219000843009F074C08AEA93E06FC0803209F499
:1021A00055C018F48031F1F16AC0803409F457C089
:1021B000803809F064C082E993E05FC01091450265
:1021C000112351F110FF09C084ED93E00E94172CF8
:1021D000113019F08CE20E94962711FF09C08EEC95
:1021E00093E00E94172C153018F08CE20E9496277D
:1021F00012FF09C088EC93E00E94172C193018F0E8
:102200008CE20E94962713FF04C082EC93E00E94A8
:10221000172C1092450233C08DEB93E02EC089EB52
:1022200093E02BC080913D0187FD10C083EB93E0CC
:102230000E94172C80913D0180FF06C080E31AC0E8
:1022400082FF17C085FFFACF81E314C08FEA93E0C5
:1022500014C084EA93E011C08EE993E00EC088E9CF
:1022600093E00E94172C80913D0183FFE9CF83E327
:1022700001C082E30E94962702C00E94172C809121
:102280009001982F9170B92E80FD14C04090F901F3
:102290005090FA016090FB017090FC0199ED892E3D
:1022A00091E0992EFE0131967F01CE0141966C019D
:1022B00011E019C080914701882341F38BE893E036
:1022C0003EC0A30192010E94D042F7016083718356
:1022D00082839383BB20E1F094E0E90EF11C1F5F41
:1022E000E4E0CE0ED11CF401619171918191919144
:1022F0004F0124853585468557850E94D042F701D8
:1023000060837183828393831330D9F2B11011C03B
:10231000F7012081318142815381F6016081718111
:10232000828193810E94CF42F60160837183828310
:102330009383143089F6B110C1CF84E893E00E94F2
:10234000172CCE0141960E941A298091900181FF9D
:102350001FC08FE793E00E94172C90910A0980918B
:102360004902981710F0815E01C08150891B0E94BC
:10237000F12B8CE20E9496278091930A9091940A07
:10238000981710F0805801C08150891B0E94F12BD2
:102390000E94F131F82E0E948817182F80B1982FD3
:1023A000987080911901E92EE8268F2D812B8E29B6
:1023B00059F18AE793E00E94172CEE2019F080E58E
:1023C0000E949627FF2079F0F0FE03C088E50E9466
:1023D0009627F1FE03C089E50E949627F2FE03C00E
:1023E0008AE50E949627112379F010FF03C082E549
:1023F0000E94962711FF03C088E40E94962712FFCF
:1024000003C083E50E94962780914701882321F02D
:1024100081508093470118C080913B018C7711F067
:102420008DE101C089E080934701809146018111CF
:1024300003C081E08093460184E793E00E94172C5B
:10244000CE0101960E941A29F0904601FF2021F04A
:10245000FA94F092460196C08FE693E00E94172C02
:1024600080913B018C7749F060912209709123099A
:10247000809124099091250903C060E070E0CB01B0
:102480000E9446108CE20E9496276091480170914C
:10249000490180914A0190914B0140E00E94442BF8
:1024A00080913B018C7711F083E101C089E080933A
:1024B00046018AE693E00E94172C809142010E9417
:1024C000F12B8CE20E949627809143010E94F12B10
:1024D0008CE20E949627809144010E94F12B80910A
:1024E000B00087FF07C05E9903C0FF24F39402C0C9
:1024F00082E0F82E10914402809143028111126013
:102500008091420281111460809141028111186012
:10251000809140028111106180913F02882311F067
:10252000106204C0F11002C0112361F186E693E04D
:102530000E94172CFF2041F0F1E0FF1202C083E55A
:1025400001C083E40E94962710FF03C086E40E9426
:10255000962711FF03C08DE40E94962712FF03C047
:1025600080E30E94962713FF03C081E30E94962711
:1025700014FF03C082E30E94962715FF03C083E384
:102580000E9496278EE30E9496270E94281081E0E1
:102590000E94ED16802F887E09F469C080913B016E
:1025A000982F937009F052C08872A1F080913D017C
:1025B000807C81F40E94501F82E080933F018091D3
:1025C0003B01803239F407FD05C080913D018068F0
:1025D00080933D0180913B01811103C091E0909374
:1025E0003D0106FF07C085FD05C090913D01906447
:1025F00090933D0103FF05C0807E19F480E1809334
:102600003B0105FF23C089E593E00E94172C85E07C
:1026100093E00E94172C0E94372980913D0187FD8D
:1026200010C090913B01903439F483FF07C0837E42
:10263000826080933D0102C0903819F080E480935D
:102640003B0180913D01806280933D0107FF0CC0FA
:1026500080913B01813029F480913D018560809318
:102660003D0180E880933B0188EE0E94ED1601FF5A
:1026700044C0802F8876F1F580913B01803471F45D
:1026800080913D0185FD0AC084FF03C010923B018B
:1026900005C082FF03C0886080933D0180913B01AB
:1026A000882381F084FF26C090913D0190FF22C0D5
:1026B000803141F480914501882321F08860809326
:1026C000450118C010923F010E947730892B71F0AC
:1026D00080913D0186FD0AC010923D0188E0809303
:1026E0003B010E94CF170E94EC2204C010923D01D2
:1026F00010923B0182E00E94ED1602FF3BC08091E8
:102700003B01807D90913D018823A9F080913E019D
:10271000811111C097FD0FC00E94262C80913F01AE
:1027200081FF05C090913D01916090933D01897FAB
:1027300080933F011CC097FF0AC010923F010E9486
:1027400087300E9408200E94C2340E942E2C809163
:102750003D0185FF08C08F77816080933D0180E453
:1027600080933B0104C010923D0110923B0184E034
:102770000E94ED1610913F09112381F10E94C316AA
:102780003091420110FF02C084E601C0832F11FD89
:10279000865F12FD8A5013FD8F5F14FD8150893CC6
:1027A00008F088EC811101C081E02091430115FF00
:1027B00002C094E601C0922F16FD92E317FD99E145
:1027C000831302C0921751F080934201909343010A
:1027D000109246010E94E92F0E94262C10913E097A
:1027E0001123C9F00E94C316E12FF0E0E651FD4F1E
:1027F0008491893C08F088EC811101C081E09091BE
:102800004201891741F080934201109246010E94D3
:10281000E92F0E94262C90913D09992309F452C07A
:102820008FB7F89410923D098FBF2091440190FF1B
:1028300002C084E601C0822F91FD865F92FD8A501E
:1028400093FD8F5F94FD8150893C08F088EC8A30BD
:1028500008F48AE0821749F020913F012860209314
:102860003F01809344011092460180913B0195FF06
:102870000DC0803159F420914501211102C022E0A0
:1028800003C020FF03C0246020934501292F207C32
:10289000C9F0882311F08871A9F01091B90197FF50
:1028A00005C017FF02C01F7701C0106896FF05C062
:1028B00016FF02C01F7B01C01064812F0E94843567
:1028C0001093B90180913B018C7F11F00E94CF17CA
:1028D000E0960FB6F894DEBF0FBECDBFDF91CF916B
:1028E0001F910F91FF90EF90DF90CF90BF909F903E
:1028F0008F907F906F905F904F900895CF92DF926E
:10290000EF92FF921F93CF93DF930E945510809117
:102910003D01882309F4FEC00E947730009771F4CE
:10292000C091B9018091BA01C82BC090BC01D09070
:10293000BD01E090BE01F090BF0106C0FC01C58959
:10294000C2A8D3A8E4A8F5A88091A10181FF03C083
:1029500080E20E94CB16DC2FD07311E0C07480910E
:102960003D01882309F4D6C00E941F340E94B72479
:102970000E94A02480913C018111CCC090913D0126
:1029800090FFC5C080913B01282F207C09F474C0C2
:1029900092FD12C01092450140E050E0BA0180E083
:1029A0000E94182380E00E94843590913D019D7F14
:1029B000946090933D01ABC08038E1F489E593E0E9
:1029C0000E94172C82EC92E00E94172C0E9437295B
:1029D00040E050E0BA0180E00E94182380E00E94AD
:1029E00084350E94DA1F80913C01811193C00E94BE
:1029F0005510F9CF803419F49F7D90933D0180915B
:102A00003D0183FF84C09091BA019923C1F081FDFB
:102A100016C08091A10181FF06C080913F018860AE
:102A200080933F010CC0B701A6018D2F0E9418238F
:102A300041E060E070E080E890E40E94A330809183
:102A4000B901882371F080913D0181FD0AC08C2F6E
:102A50000E94843541E060E070E080E89FE30E94DE
:102A6000A33090913D0191FD52C0906190933D0142
:102A700082E00E94F7164BC0909145019923C9F15D
:102A800091FF0DC08091BA018823B1F040E050E081
:102A9000BA0180E00E9418231093450138C09C7051
:102AA000B1F18091BA0181110AC08091450183FF83
:102AB00003C082E00E94F7161092450128C089E504
:102AC00093E00E94172C8BEC92E00E94172C0E943E
:102AD00037298091A10181FF06C080913F01886064
:102AE00080933F01E2CFB701A6018D2F0E941823EA
:102AF000DCCF80913F0183FF0AC0B701A6018D2F73
:102B00000E94182380913F01877F80933F010E949C
:102B1000551025CFDF91CF911F91FF90EF90DF905F
:102B2000CF9008950E942C100E947E1480913C0149
:102B3000811108C00E947730892BB1F780913B0149
:102B4000883091F308958093B30081110DC0809176
:102B5000B0008F778093B000809147028E7F809382
:102B60004702109246020DC08091B00080688093A9
:102B7000B0008091470281608093470281E080939A
:102B800046020C94B7244F925F926F927F928F927D
:102B90009F92AF92BF92CF92DF92EF92FF92CF932C
:102BA0006B017C01C091440180909D0190909E0139
:102BB000A0909F01B090A0014090990150909A017F
:102BC00060909B0170909C01A3019201C501B4012A
:102BD0000E94E74587FF1AC06C2F70E080E090E00C
:102BE0000E9479442AE037ED43E25CE30E942746E5
:102BF0009B01AC01C701B6010E9427466B017C0115
:102C0000A30192010E94E74587FD0AC04092480156
:102C10005092490160924A0170924B018FEF47C078
:102C2000A5019401C701B6010E94C5431816E4F03E
:102C300020E030E0A901C701B6010E94C54381111F
:102C400009C0109248011092490110924A01109255
:102C50004B012DC08092480190924901A0924A01F7
:102C6000B0924B0181E023C0C0924801D09249014B
:102C7000E0924A01F0924B01A5019401C701B6010F
:102C80000E94CF4220914009309141094091420970
:102C9000509143090E9427460E94B44420E030E04E
:102CA00040E85FE30E94D0420E944844862FCF91C3
:102CB000FF90EF90DF90CF90BF90AF909F908F905C
:102CC0007F906F905F904F900895CF93DF93CEE405
:102CD000DBE08991882319F00E949627FACFDF91D3
:102CE000CF910895CF93DF9321E5829FC0011124F6
:102CF000EC01DD5F40E550E0BE018EE49BE00E9408
:102D00003135892B69F410924E0B0E94921540E5E3
:102D100050E06EE47BE0CE010E94EA3480E001C026
:102D200081E0DF91CF910895CF93DF93C0E08C2FA6
:102D30000E94721681110EC010924E0B8EE30E94FB
:102D400096270E9465168AE30E94962787E00E94D4
:102D5000F42712C080914E0B882371F00E94150257
:102D6000D82F8EE30E9496270E9465168AE30E9460
:102D700096278D2F0E941229C13011F0C1E0D7CFC4
:102D8000DF91CF9108958FB7F89410923F09109278
:102D90003E098FBF08952FB7F89490913D09892B74
:102DA00080933D092FBF08959FB7F89410923F0973
:102DB00080933E099FBF08952FB7F89490913F09E3
:102DC000892B80933F0910923E092FBF08959FB72A
:102DD000F89480933C099FBF08952FB7F894909181
:102DE0003B098095892380933B092FBF08952FB716
:102DF000F89490913B09892B80933B092FBF08954C
:102E0000AF92BF92CF92DF92EF92FF920F931F93F8
:102E1000CF93DF93EC010CE711E05C0180E1A80E99
:102E2000B11CC990D990E990F99020E030E0A90157
:102E3000C701B6010E94E74518168CF0F8012191F0
:102E40003191419151918F01C701B6010E94C54353
:102E500087FD05C0CA15DB0521F780E001C081E0D0
:102E6000DF91CF911F910F91FF90EF90DF90CF9066
:102E7000BF90AF900895AF92BF92CF92DF92EF9242
:102E8000FF920F931F93CF93DF9300D000D0CDB765
:102E9000DEB75B012CE4E22E21E0F22E8C016B0107
:102EA00080E1C80ED11CF5016191719181919191E0
:102EB0005F01F70121913191419151917F01298366
:102EC0003A834B835C830E94794429813A814B8108
:102ED0005C810E94CF43F801619371938193919338
:102EE0008F01AC14BD04F9F60F900F900F900F9066
:102EF000DF91CF911F910F91FF90EF90DF90CF90D6
:102F0000BF90AF9008950E949215109247010895C6
:102F100093B1892F877049F0892F8095817091FF37
:102F2000826092FD03C08460089580E008951F923E
:102F30000F920FB60F9211242F933F934F935F93ED
:102F40006F937F938F939F93AF93BF93EF93FF9371
:102F50000E948817882391F080FF03C00E94D4301C
:102F60000DC082FF04C080913B09826005C081FFD3
:102F700005C080913B09886080933B09FF91EF91E8
:102F8000BF91AF919F918F917F916F915F914F9181
:102F90003F912F910F900FBE0F901F9018952F9279
:102FA0003F924F925F926F927F928F929F92AF92D9
:102FB000BF92CF92DF92EF92FF920F931F93CF9326
:102FC000DF93CDB7DEB7EE970FB6F894DEBF0FBE36
:102FD000CDBF80913F0180FD4AC7909173098091D8
:102FE0007409981709F443C78091100A9091110A47
:102FF000892B09F017C310913F0112FF09C080917E
:103000000A0926E3289FC0011124865B9D4F02C058
:103010000E9477309093110A8093100A2090100A32
:103020003090110A2114310409F421C700910C09D0
:10303000802F817000FF03C010920C09EAC09091AC
:103040000B099F5F953009F0892F80930B09E82EBB
:10305000F12C36E13E9DF0013F9DF00D1124EE551F
:10306000F64FF093A109E093A009D10154969C91E9
:103070005497948BE6E18E9FC001112420E030E04C
:103080004D915D916D917D91F901E80FF91FEE551C
:10309000F64F689412F8440F551F661F771F169459
:1030A000D1F740835183628373832C5F3F4F20317C
:1030B000310531F726E12E9DF0012F9DF00D1124F1
:1030C0009F012E55364FF10180899189A289B389DC
:1030D00043E0880F991FAA1FBB1F4A95D1F7F9013A
:1030E000808B918BA28BB38BD10150966D917D918A
:1030F0008D919C9153970E9477446093110970932E
:1031000012098093130990931409F10122A133A1AC
:1031100044A155A10E94CF439B01AC0160931509C6
:1031200070931609809317099093180960E070E076
:1031300080EA9FE30E94CF436093190970931A09B4
:1031400080931B0990931C0910920D0910920E098F
:1031500010920F091092100911FD02C003FF1FC049
:1031600060912A0970912B0980912C0990912D0969
:103170006093220970932309809324099093250971
:103180009B01AC010E942746D10156966D937D9319
:103190008D939C935997077F00930C090FC0F10101
:1031A00066897789808D918D0E94C6466093220939
:1031B000709323098093240990932509F6E1FE9DDD
:1031C000C001FF9D900D11249C012E55364F7901B1
:1031D000D90155961C928091A10181FF1AC0F1017D
:1031E000858985FF16C026A537A540A951A960E0AD
:1031F00070E080E89FE30E94CF43609336097093AC
:1032000037098093380990933909E1E0D701559641
:10321000EC9310921E0910921F091092200910922F
:103220002109D1015E962D913D914D915C9191972F
:1032300029833A834B835C8360E070E080E09FE306
:103240000E94CF4369877A878B879C87F10142A0D0
:1032500053A064A075A086889788A08CB18C11FFBC
:1032600044C0F2E0F0931D09A50194010E94274695
:103270009B01AC01C301B2010E94CF426B017C01F2
:1032800020E030E0A9010E94C54387FF1DC02981CD
:103290003A814B815C81CA01B9010E94D042A301ED
:1032A00092010E9427469B01AC01C501B4010E9416
:1032B000CF420E94C64660932A0970932B098093DF
:1032C0002C0990932D09ABC1C0921E09D0921F0901
:1032D000E0922009F092210910922A0910922B09FC
:1032E00010922C0910922D099AC110921D0940923A
:1032F0002E0950922F09609230097092310912FF05
:103300000CC010922A0910922B0910922C091092CD
:103310002D09C12CD12C760124C0E0914902EF5F28
:10332000E03209F4E0E080910A09E81759F026E359
:103330002E9FF0011124E65BFD4FC688D788E08CF4
:10334000F18C03C0C12CD12C7601C701B6010E94BB
:10335000C64660932A0970932B0980932C09909399
:103360002D09C1010E945A2C698B7A8B8B8B9C8B07
:103370009B01AC010E9427466D837E838F839887D3
:103380009B01AC01C501B4010E94E74518160CF081
:1033900070C02D813E814F815885C501B4010E94C6
:1033A000CF429B01AC0169857A858B859C850E9403
:1033B00027469B01AC01C301B2010E94CF4260933A
:1033C0002E0970932F09809330099093310920E0E2
:1033D00030E0A9010E94C54318162CF132E0309369
:1033E0001D0929813A814B815C81CA01B9010E9482
:1033F000D042A30192010E9427469B01AC01C50166
:10340000B4010E94CF420E94C64660932A0970937D
:103410002B0980932C0990932D0980910C098860C9
:1034200080930C09FCC0A70196016D817E818F817C
:1034300098850E94CF429B01AC0169857A858B8576
:103440009C850E94274660933209709333098093CC
:1034500034099093350989899A89AB89BC8980930D
:10346000260990932709A0932809B093290993E08E
:10347000BBC0A7019601C501B4010E94CF429B01C8
:10348000AC0169857A858B859C850E9427469B01C6
:10349000AC01C301B2010E94D04220E030E040E024
:1034A0005FE30E9427466D877E878F87988B20E099
:1034B00030E0A9010E94E74518160CF098C0A3015E
:1034C00092016D857E858F8598890E94C54387FF0F
:1034D0008AC0A70196016D817E818F8198850E94A7
:1034E000CF429B01AC0169857A858B859C850E94C2
:1034F000274660933209709333098093340990937F
:1035000035092D853E854F8558890E94C54387FF23
:1035100039C029893A894B895C89209326093093DF
:10352000270940932809509329092D813E814F8115
:103530005885C501B4010E94C543811104C031E022
:1035400030931D096CC0A50194016D817E818F812E
:1035500098850E94CF429B01AC0169857A858B8555
:103560009C850E9427469B01AC01C301B2010E94C9
:10357000CF4260932E0970932F0980933009909366
:1035800031094DC08D859E85AF85B88980932E0900
:1035900090932F09A0933009B09331098093320999
:1035A00090933309A0933409B093350929813A8166
:1035B0004B815C81CA01B9010E94D0422D853E85B4
:1035C0004F8558890E942746A70196010E94D04244
:1035D0000E94C646609326097093270980932809A4
:1035E000909329091CC092E090931D0918C0109275
:1035F0002E0910922F0910923009109231098091F2
:103600002A0990912B09A0912C09B0912D09809342
:10361000260990932709A0932809B09329091860D7
:1036200010933F0180919F09A82FB0E0BA87A98726
:1036300027E02A9FF0012B9FF00D1124EB58F64F45
:1036400080910B0984834091100A5091110A5EAF5A
:103650004DAFDA019296BC91BEA3FA01F3A1FFA38C
:10366000DA019496BC91B8A7FA01F5A1F9A72091C7
:10367000190930911A0940911B0950911C096EA13A
:103680007FA18B2F9F2F0E94CF426AAB7BAB8CAB6D
:103690009DAB20E030E0A9010E94C54387FF04C034
:1036A0001AAA1BAA1CAA1DAA20912E092D833091AB
:1036B0002F093D8740913009498B509131095D8B2D
:1036C000809126098A8F909127099B8FA0912809C4
:1036D000AC8FB0912909BD8F6090220970902309A9
:1036E0004090240950902509E0913209EAA7F09111
:1036F0003309FBA7209134092CA7309135093DA748
:1037000040911D09498350911E095EA780911F09B0
:103710008FA79091200998ABA0912109A9ABB091F6
:103720002A09BEABE0912B09EFABF0912C09F8AF61
:1037300020912D0929AF2EA03FA008A519A58EE341
:10374000C82E83ECD82E8EE2E82E89E3F82E1E8A4E
:103750001F8A188E198ECE8EDF8EE8A2F9A299816B
:10376000913009F4E7C008F474C0ADADBEAD5E960B
:103770002D913D914D915C919197933009F009C144
:10378000C701B6010E9427464B015C0120E030E0F2
:1037900040E05FE30E9427469B01AC01B301C201F8
:1037A0000E94CF429B01AC01C701B6010E9427468F
:1037B0006AA37BA38CA39DA39B01AC01B101C801AB
:1037C0000E94CF421B018C012D813D8549895D8975
:1037D0000E94C54387FD0BC020E030E0A9016AA12B
:1037E0007BA18CA19DA10E94C54318165CF12D817F
:1037F0003D8549895D896EA17FA188A599A50E9413
:10380000CF429B01AC010E94D0426B017C012A8D0A
:103810003B8D4C8D5D8DB301C2010E94D0429B0156
:10382000AC01C701B6010E94CF436B017C016A8CD9
:103830007B8C4C8C5D8C2D803D8409891D89B1E089
:10384000B98311C1A5019401B301C2010E94CF4205
:103850006EC0EDADFEAD268D378D40A151A1C701E3
:10386000B6010E9427464B015C0120E030E040E0B9
:103870005FE30E9427469B01AC01B301C2010E9495
:10388000D0429B01AC01C701B6010E9427469B01B3
:10389000AC01B101C8010E94CF421B018C012D81F6
:1038A0003D8549895D890E94C54387FF3AC02D81C6
:1038B0003D8549895D896EA17FA188A599A50E9452
:1038C000CF429B01AC010E94D0426B017C012A8D4A
:1038D0003B8D4C8D5D8DB301C2010E94D0429B0196
:1038E000AC01C701B6010E94CF436B017C012AA540
:1038F0003BA54CA55DA56D817D8589899D890E942B
:10390000C543811103C0F2E0F98302C021E029839D
:103910006A8C7B8C4C8C5D8C2D803D8409891D8943
:10392000A2C0A5019401B301C2010E94D0423B0193
:103930002C0199C0A70196016A8D7B8D8C8D9D8D80
:103940000E9427469B01AC01B101C8010E94CF42F1
:103950005B014C012AA53BA54CA55DA50E94C54372
:1039600087FF7FC02AA53BA54CA55DA5B101C80175
:103970000E94CF422A8D3B8D4C8D5D8D0E94CF439E
:103980006B017C012AA43BA40CA51DA532E0398360
:103990006AC0C701B6010E9427464B015C019B012A
:1039A000AC01B301C2010E94E74518169CF520E066
:1039B00030E040E05FE3C501B4010E9427469B016F
:1039C000AC01B301C2010E94CF429B01AC01C7010F
:1039D000B6010E9427469B01AC01B101C8010E94BB
:1039E000CF426AA37AAF8BAF9CAF2EA53FA548A963
:1039F00059A90E94E74518166CF4A5019401B3017A
:103A0000C2010E94CF423B012C012AA03AAC0BAD6F
:103A10001CAD29C02EA53FA548A959A9B101C801CF
:103A20000E94CF429B01AC010E94D0426B017C01FD
:103A30002EA93FA948AD59ADB301C2010E94D042A1
:103A40009B01AC01C701B6010E94CF436B017C0111
:103A50006EA87FA848AC59AC2EA43FA408A919A908
:103A600002C015018401A70196016E897F89888DA6
:103A7000998D0E94D0426E8B7F8B888F998F2E8D6F
:103A80003F8D48A159A10E94C54387FF09C02E89D7
:103A90003F89488D598D6E8D7F8D88A199A131C048
:103AA0002AA93BA94CA95DA9B101C8010E94E7451B
:103AB0001816ACF0C301D201809322099093230918
:103AC000A0932409B0932509B981B0931D09E09111
:103AD000A009F091A1099589911134C02FC02EE35E
:103AE00033EC4EE259E36E8D7F8D88A199A10E943F
:103AF000D0426E8F7F8F88A399A32E893F89488DEE
:103B0000598D0E94CF426B017C012EA53FA548A98B
:103B100059A9B101C8010E94E74518160CF41FCE3F
:103B2000C301D2018093220990932309A093240911
:103B3000B0932509E981E0931D09C9CF80913F0128
:103B400083FF3FC0ADADBEAD55968C915597807348
:103B500049F1D296CD90DD90ED90FC90D5979923C8
:103B6000D1F02091360930913709409138095091B0
:103B7000390960912209709123098091240990915B
:103B800025090E9427469B01AC01C701B6010E948E
:103B900027466B017C01C701B6010E94C3158093C3
:103BA0003A090AC0109248011092490110924A0144
:103BB00010924B0110923A0980913F01877F8093C8
:103BC0003F0127E0E985FA852E9FA0012F9F500D28
:103BD0001124CA018B58964F9E838D8380913A0998
:103BE000AD81BE8116968C932091150930911609EE
:103BF0004091170950911809B101C8010E94274648
:103C00002B013C010E94AE436B017C0160911109C4
:103C10007091120980911309909114090E94AE438A
:103C20004B015C01A70196010E94CF420E944844CB
:103C300069837A838B839C8329813A81ED81FE811C
:103C400031832083232B41F480913F0181FF04C005
:103C5000816080933F010BC120910D0930910E09C5
:103C600040910F09509110096E897F89888D998D37
:103C70000E94D0426D837E838F839887A301920137
:103C8000C501B4010E94CF429B01AC016D817E81D0
:103C90008F8198850E94CF434B015C0120EC31EE6F
:103CA00044E65EE40E9427460E94AE430E944844D8
:103CB000603D57E075078105910560F427E0A9850F
:103CC000BA852A9FF0012B9FF00D1124EB58F64F77
:103CD000158254C0603A3FE073078105910568F48E
:103CE000A7E049855A85A49FF001A59FF00D1124F6
:103CF000EB58F64FB1E0B5831FC06034EFE17E07AB
:103D00008105910568F447E029853A85429FF001D5
:103D1000439FF00D1124EB58F64F52E055830CC031
:103D200027E0A985BA852A9FF0012B9FF00D112469
:103D3000EB58F64F33E03583A7E049855A85A49FB9
:103D4000F001A59FF00D1124EB58F64F2581022EAE
:103D500004C096958795779567950A94D2F749811F
:103D60005A8102C0440F551F2A95E2F751834083C0
:103D70006115710551E08507910568F427E0A98573
:103D8000BA852A9FF0012B9FF00D1124EB58F64FB6
:103D90007383628304C04FEF5FEF5383428380914C
:103DA000740980939F098F5F863019F0809374099E
:103DB00002C010927409E091100AF091110AC10139
:103DC000D80182A393A3A4A3B5A3C0921109D09252
:103DD0001209E0921309F0921409A3019201C7019C
:103DE000B6010E94CF42A50194010E94274660932C
:103DF0000D0970930E0980930F099093100920917B
:103E00001E0930911F094091200950912109B101EB
:103E1000C8010E94C5438111E0C820E030E0A9013B
:103E2000B101C8010E94E74590913F01181614F0B6
:103E300092FF04C0916090933F0119C01092110A43
:103E40001092100A9091490280910A09891709F489
:103E5000C4C881E0890F803209F480E020914802D3
:103E6000921302C08093480280934902B6C8EE962E
:103E70000FB6F894DEBF0FBECDBFDF91CF911F917B
:103E80000F91FF90EF90DF90CF90BF90AF909F90F9
:103E90008F907F906F905F904F903F902F900895FC
:103EA000CF93DF93C091100AD091110A2097C9F0E7
:103EB00080910C09816080930C09609122097091B6
:103EC000230980912409909125099B01AC010E944E
:103ED00027466E8B7F8B888F998F1092110A1092D4
:103EE000100ADF91CF91089560918D0170E040E05C
:103EF000E0918E01F0E080E090E030E0582FDB01AF
:103F0000082E02C0B595A7950A94E2F7A0FF0EC04F
:103F1000009731F0813031F0823031F020E405C07B
:103F200021E003C024E001C020E1422BDF0102C0F8
:103F3000B595A7955A95E2F7A0FF0EC0009731F00E
:103F4000813031F0823031F020E805C022E003C03A
:103F500028E001C020E2322B01968430910571F6F1
:103F6000409344093093450908951F920F920FB66C
:103F70000F9211248F938091570988B98F910F90D8
:103F80000FBE0F901F9018951F920F920FB60F92B1
:103F900011248F939F9388B19091440995758A7AE3
:103FA000892B88B915BC9F918F910F900FBE0F90F0
:103FB0001F90189580916F008D7F80936F00809186
:103FC0008100887F816080938100109246098091F2
:103FD0008F0190913B018F3F39F420913C092111D1
:103FE00003C0903841F402C0943029F090E00E9460
:103FF000983081E001C080E09091A10192FF02C061
:1040000091E08927882311F05D9A08955D980895BD
:10401000CF93DF930E94DA1F80E3EBE0F9E0DF014A
:104020001D928A95E9F7C7E4D9E08CE2FE0111926E
:104030008A95E9F71092110A1092100A10927309EA
:1040400010929F0981E080937409109246090E94A2
:10405000741F809145098C8B88B18A7A90914409AC
:10406000892B88B988B1857590914509892B88B9C4
:10407000DF91CF9108951F920F920FB60F921124E6
:104080002F933F934F935F936F937F938F939F9360
:10409000AF93BF93EF93FF938091460981118BC239
:1040A00088B190915B099A7A8575892B88B988B116
:1040B0008A7A90915A09892B8093570980915909DE
:1040C00086BD82E085BD81E0809346097894809129
:1040D000710990917209892B09F0D3C080917309FD
:1040E00090919F09981709F4BCC0E09173092E2F95
:1040F00030E087E0E89FF0011124EB58F64FF09391
:104100007209E09371098281938190938900809371
:1041100088008081918190936D0980936C09E4817E
:1041200080916E098E17A1F1E0936E0986E1E89FF8
:10413000F0011124EE55F64FF0937009E0936F09EA
:1041400080899189A289B389B695A7959795879516
:104150008093530990935409A0935509B09356093D
:1041600080934F0990935009A0935109B09352093D
:1041700080934B0990934C09A0934D09B0934E093D
:104180008093470990934809A0934909B0934A093D
:10419000E0916F09F0917009909145098489892710
:1041A00080935B0987E0829FD001839FB00D11242B
:1041B000AB58B64F15968C9115974081518162810D
:1041C0007381082E04C076956795579547950A9494
:1041D000D2F740935C0950935D0960935E09709338
:1041E0005F094481558166817781082E04C07695E8
:1041F0006795579547950A94D2F740936009509375
:1042000061096093620970936309408551856285F5
:104210007385082E04C076956795579547950A943F
:10422000D2F74093640950936509609366097093CF
:104230006709448555856685778504C076956795B9
:10424000579547958A95D2F7409368095093690925
:1042500060936A0970936B0916968C910E94A3155E
:1042600010C00E94DA1FE0916F09F09170098589F2
:10427000882319F080E00E94A31584E00E94F716BD
:104280009AC180913A018130B1F480B188709091E7
:104290001901891781F010923A0180E1EAE1F1E019
:1042A000AAE2B1E001900D928A95E1F780913B0975
:1042B000806480933B0910925A0940915C095091A7
:1042C0005D0960915E0970915F0980914709909145
:1042D0004809A0914909B0914A09840F951FA61F6A
:1042E000B71F8093470990934809A0934909B09359
:1042F0004A09E0916F09F0917009408951896289FA
:104300007389481759076A077B0768F521E02093EE
:104310005A094089518962897389841B950BA60BC0
:10432000B70B8093470990934809A0934909B0932C
:104330004A09248980911A0190911B01A0911C01C6
:10434000B0911D0121FF04C00197A109B10903C06B
:104350000196A11DB11D80931A0190931B01A0939A
:104360001C01B0931D014091600950916109609159
:1043700062097091630980914B0990914C09A09159
:104380004D09B0914E09840F951FA61FB71F80934A
:104390004B0990934C09A0934D09B0934E09408965
:1043A000518962897389481759076A077B0778F52D
:1043B00020915A09246020935A09408951896289C1
:1043C0007389841B950BA60BB70B80934B099093B5
:1043D0004C09A0934D09B0934E09248980911E0188
:1043E00090911F01A0912001B091210123FF04C0F1
:1043F0000197A109B10903C00196A11DB11D8093C8
:104400001E0190931F01A0932001B09321014091C0
:1044100064095091650960916609709167098091FE
:104420004F0990915009A0915109B0915209840F00
:10443000951FA61FB71F80934F0990935009A09313
:104440005109B0935209408951896289738948178B
:1044500059076A077B0778F520915A092061209354
:104460005A094089518962897389841B950BA60B6F
:10447000B70B80934F0990935009A0935109B093C3
:10448000520924898091220190912301A091240155
:10449000B091250125FF04C00197A109B10903C00E
:1044A0000196A11DB11D8093220190932301A09339
:1044B0002401B093250140916809509169096091E8
:1044C0006A0970916B098091530990915409A091E8
:1044D0005509B0915609840F951FA61FB71F8093E9
:1044E000530990935409A0935509B09356094089F4
:1044F000518962897389481759076A077B0778F5DC
:1045000020915A09206420935A094089518962896F
:104510007389841B950BA60BB70B8093530990935B
:104520005409A0935509B093560924898091260116
:1045300090912701A0912801B091290127FF04C083
:104540000197A109B10903C00196A11DB11D809376
:10455000260190932701A0932801B093290180910F
:104560003B01843039F49091410180915A098923AB
:1045700080935A0980916C0990916D0901979093ED
:104580006D0980936C09892B69F41092720910925D
:104590007109809173098F5F80937309863011F4DC
:1045A000109273099091440980915A098927809348
:1045B0005A0910924609FF91EF91BF91AF919F91D7
:1045C0008F917F916F915F914F913F912F910F90BC
:1045D0000FBE0F901F9018958091A10182FF02C01D
:1045E0005D9A01C05D988091440980935A09809139
:1045F0008C0190E09C01285F3F4F220F2195209372
:104600005909880F819587BD80916F0082608093E2
:104610006F000895E0EBF0E080818F7780838091D8
:1046200047028C7F80934702109246020C94B72475
:10463000CF93DF9300D000D01F92CDB7DEB790911B
:104640003C01911137C081110BC0109248011092AA
:10465000490110924A0110924B010E940A2328C07E
:10466000803129F45E98909147029D7F04C05E9A44
:10467000909147029260909347024A835B836C83D8
:104680007D8389830E94B7249091A1014A815B8137
:104690006C817D81898191FF05C0803219F440E0F1
:1046A00050E0BA01CB01BA010E94C3150E94A315C4
:1046B000109246010F900F900F900F900F90DF9186
:1046C000CF910895CF93DF9300D000D01F92CDB744
:1046D000DEB790913B019230A9F04A835B836C83F3
:1046E0007D8389830E9492154A815B816C817D81E3
:1046F00089810F900F900F900F900F90DF91CF91C5
:104700000C9418230F900F900F900F900F90DF9143
:10471000CF910895579A83E08093B00084E080930E
:10472000B100569A20919D0130919E0140919F01C8
:104730005091A0016091990170919A0180919B0123
:1047400090919C010E94CF429B01AC0160E070E01F
:104750008EE793E40E94CF43609340097093410930
:1047600080934209909343090C940A2382E18CBD03
:104770002C9A0895382F90E0931719F02DB5207CCE
:1047800029F081E0931720F480E008959F5FF4CF33
:104790000895AF92BF92CF92DF92EF92FF920F9364
:1047A0001F93CF93DF93CDB7DEB764970FB6F8941E
:1047B000DEBF0FBECDBFD82E81E58CBD8DB58E7FFF
:1047C0008DBD2C988FEF8EBD80E40E94BA2381119D
:1047D000A4C08AEA8EBD80E40E94BA2381119DC0E4
:1047E00085E58EBD80E40E94BA23811196C0DEBCAF
:1047F00080E1EAE1F1E0DE01119601900D928A95E7
:10480000E1F70D2D10E07801EE0CFF1CEE0CFF1C03
:10481000E1E0F0E0EC0FFD1FEE0DFF1D6081718106
:10482000828193810E947944F701E45BFE4F2081ED
:104830003181428153810E94CF43698B7A8B8B8B6C
:104840009C8B7E0121E1E20EF11C570134E0C32E66
:10485000CE0C80E40E94BA23882319F00E94B6236C
:1048600049C080E40E94BA23F50181915F018EBDA9
:10487000CE12EFCFD801AA0FBB1FAA0FBB1FA752A2
:10488000BE4F000F111F000F111FF801E751FE4F1F
:1048900020813181428153816D917D918D919C91D7
:1048A0000E94D0429B01AC0169897A898B899C89DD
:1048B0000E94CF42698B7A8B8B8B9C8BF2E0DF124C
:1048C0000EC02091F9013091FA014091FB01509105
:1048D000FC010E94CF42698B7A8B8B8B9C8B80E48E
:1048E0000E94BA238111BACFF70181917F018EBD59
:1048F000CE12F5CF80E40E94BA2381110EC08091C0
:104900009B0A8EBD80E40E94BA23811106C080916B
:104910009A0A8EBD80E40E94BA230E94B623649650
:104920000FB6F894DEBF0FBECDBFDF91CF911F91C0
:104930000F91FF90EF90DF90CF90BF90AF900895D0
:10494000CF938091280B8F5F8093280B81110DC02E
:10495000C091270B8C2F0E94C923CF5FC53018F45C
:10496000C093270B02C01092270BCF91089581E5C9
:104970008CBD8DB581608DBD8091990A8EBD80E121
:104980000E94BA23811158C0809147028EBD80E1F8
:104990000E94BA23811150C02B9A000000002B986E
:1049A0002C98000000002C9A1EBC80E10E94BA23C3
:1049B000811142C08EB580958093260B9091250B76
:1049C000891302C08093980A8093250B1EBC80E156
:1049D0000E94BA23811130C08EB580958093240B3C
:1049E0009091230B891302C08093970A8093230B25
:1049F0001EBC80E10E94BA2381111EC08EB5809535
:104A00008093220B9091210B891302C08093960A08
:104A10008093210B1EBC80E10E94BA2381110CC03F
:104A20008EB580958093200B90911F0B891302C047
:104A30008093950A80931F0B0C94B6236AE080E064
:104A400090E00E94C83445E650E06CE471E081E0FB
:104A500090E00C94EA34CF93DF9300D01F92CDB74F
:104A6000DEB76A837B8389830E949215898121E165
:104A7000829FC001112440E150E06A817B819E5FEA
:104A80000F900F900F90DF91CF910C94EA341F9309
:104A9000CF93DF93182FEB0181E1189FB001112410
:104AA0007E5F40E150E0CE010E943135892B59F400
:104AB00080E1FE0111928A95E9F7BE01812F0E94E3
:104AC0002B2580E001C081E0DF91CF911F910895F7
:104AD000EF92FF920F931F93CF93DF93CDB7DEB783
:104AE00060970FB6F894DEBF0FBECDBF182F80FFC2
:104AF00023C18AE080938C0189E180938F01109219
:104B00008D0110928E0181E0809390018AE097EDF3
:104B1000A3E2BCE38093910190939201A09393014F
:104B2000B09394018DEC9CECACE4BDE380939501D3
:104B300090939601A0939701B093980180E090E044
:104B4000AAE7B4E48093990190939A01A0939B0102
:104B5000B0939C0110929D0110929E0110929F01B2
:104B60001092A00183E08093A20180E090E0A8EC85
:104B7000B2E48093A3019093A401A093A501B09304
:104B8000A60180E090E0AAEFB4E48093A70190939F
:104B9000A801A093A901B093AA0189E190E09093A4
:104BA000AC018093AB0180E090E0A0E8BFE380938C
:104BB000AD019093AE01A093AF01B093B00184E139
:104BC0008093A10180E090E0A0EAB2E480934C01E0
:104BD00090934D01A0934E01B0934F0180935001EB
:104BE00090935101A0935201B09353018FEC97EF32
:104BF000ABE7B2E48093540190935501A093560122
:104C0000B09357018FE395E3AEE0B1E48093580190
:104C100090935901A0935A01B0935B0180E090E614
:104C2000AAE6B6E480935C0190935D01A0935E01D7
:104C3000B0935F0180E090E8ABE3B6E4809360015D
:104C400090936101A0936201B093630180E090E4CE
:104C5000ACE1B6E48093640190936501A093660192
:104C6000B093670180E090E5A3ECB7E4809368011E
:104C700090936901A0936A01B0936B0180E09AEB75
:104C8000ABE5BAE480936C0190936D01A0936E0143
:104C9000B0936F018093700190937101A0937201A2
:104CA000B093730180E098ECAFE2BAE480937401B2
:104CB00090937501A0937601B093770180E69EEF03
:104CC000ADE4BCE48093780190937901A0937A01DC
:104CD000B0937B0180E090E0ACE8B3EC80937C0182
:104CE00090937D01A0937E01B0937F0180E090E0DE
:104CF000A8E4B3EC8093800190938101A09382019A
:104D0000B093830180E090E0A0E7B2EC809384014F
:104D100090938501A0938601B093870180E090E095
:104D2000A4EBB3EC8093880190938901A0938A014E
:104D3000B0938B010E941E2511FF10C0CE01019679
:104D40007C0180E1F70111928A95E9F700E0B70153
:104D5000802F0E942B250F5F0830C9F712FF14C067
:104D600060E080E093E00E94C83460E081E093E07E
:104D70000E94C83460E081E593E00E94C83460E09E
:104D800082E593E00E94C83413FF0AC060E08EEA17
:104D900093E00E94C83460E08FEA93E00E94C83438
:104DA00060960FB6F894DEBF0FBECDBFDF91CF91F6
:104DB0001F910F91FF90EF9008951F920F920FB6E1
:104DC0000F9211242F933F934F935F936F937F9391
:104DD0008F939F93AF93BF93EF93FF93E091C600A0
:104DE000E13271F028F4E83179F40E94D43063C0E4
:104DF000EF3321F0EE3741F482E003C081E001C0DF
:104E000088E00E94F71657C0E7FF44C0E03F48F033
:104E100080913B0185FF4FC08E2F90E00E94D416F9
:104E20004AC08E2F90E0FC01E458F109EE31F10503
:104E300008F041C0E258FF4F0C94AF4280E2E1CF4E
:104E400080913B0185FF37C080E4DBCF81E00DC05E
:104E500082E00BC084E009C088E007C080E105C0A3
:104E600080E203C080E401C080E80E94DC1623C019
:104E700081E00DC082E00BC084E009C088E007C07B
:104E800080E105C080E203C080E401C080E80E94A8
:104E9000CB1611C0A091940A81E08A0F813809F4E1
:104EA00080E09091930A891731F0B0E0AE5EB54F83
:104EB000EC938093940AFF91EF91BF91AF919F91F2
:104EC0008F917F916F915F914F913F912F910F90B3
:104ED0000FBE0F901F9018951F920F920FB60F9252
:104EE00011248F939F93EF93FF9380911E0BE82FD4
:104EF000F0E0E356F54F90819093C6008F5F8138C4
:104F000009F480E080931E0B90919C0A891305C0E0
:104F10008091C1008F7D8093C100FF91EF919F919F
:104F20008F910F900FBE0F901F901895E0919C0AE3
:104F300091E09E0F913831F490E004C020913B093C
:104F400024FD0FC020911E0B9217C1F3F0E0E35631
:104F5000F54F808390939C0A8091C100806280937A
:104F6000C1000895CF92DF92EF92FF921F93CF93EB
:104F7000DF931F92CDB7DEB7182F6A017B0184E261
:104F800029830E949627812F0E94F12B8DE30E9496
:104F900096272981422FC701B6010E94442B0F900A
:104FA000DF91CF911F91FF90EF90DF90CF900C9405
:104FB00028101F93CF93DF931F92CDB7DEB7182F22
:104FC00084E269830E949627812F0E94F12B8DE352
:104FD0000E9496276981862F0E94F12B0F90DF9106
:104FE000CF911F910C942810CF93C82F8BEF93E093
:104FF0000E94172C8C2F0E94F12BCF910C9428101B
:10500000EF92FF920F931F93CF93DF9360918C01E8
:1050100070E080E00E94D92760918F0170E081E00C
:105020000E94D92760918D0170E082E00E94D9270B
:1050300060918E0170E083E00E94D9276091A10108
:1050400062FB662760F970E084E00E94D9276091D6
:10505000A10166FB662760F970E085E00E94D92710
:105060008091A101082E000C990B692F661F6627FD
:10507000661F70E086E00E94D9276091900170E081
:105080008AE00E94D927409191015091920160914C
:1050900093017091940123E08BE00E94B22740912C
:1050A000950150919601609197017091980123E0CC
:1050B0008CE00E94B2276091A101617070E08DE0E8
:1050C0000E94D9276091A10165FB662760F970E015
:1050D00084E10E94D9276091A10163FB662760F9F2
:1050E00070E085E10E94D9276091A101629561700D
:1050F00070E086E10E94D9276091A20170E087E10B
:105100000E94D9274091A3015091A4016091A5016B
:105110007091A60123E088E10E94B2274091A70187
:105120005091A8016091A9017091AA0123E089E141
:105130000E94B2276091AB017091AC018AE10E949C
:10514000D9274091AD015091AE016091AF017091AE
:10515000B00123E08BE10E94B22740919901509168
:105160009A0160919B0170919C0120E08EE10E9468
:10517000B22740919D0150919E0160919F017091D5
:10518000A00120E08FE10E94B2276091A101669505
:10519000617070E080E20E94D927D4E6F12C0CE423
:1051A00011E084E0E82EED0ECD2F82E0F81691F0AC
:1051B000E3E0FE16E9F0F1E0FF1631F0F80140817E
:1051C0005181628173811AC0F801408951896289D5
:1051D000738914C020E030E041E655E4F80160A195
:1051E00071A182A193A10E94CF43AB01BC0106C073
:1051F000F80140A951A962A973A9705823E08C2F26
:105200000E94B2270C5F1F4FCF5FCE11CECFD65F6B
:10521000F394DC3821F6DF91CF911F910F91FF902D
:10522000EF900895811104C08DEE93E00C94172C3B
:105230000C94F4270F931F93CF938C01C0E0F801D7
:1052400061917191819191918F010E94E22BC33004
:1052500019F08CE20E949627CF5FC43081F7CF917E
:105260001F910F91089582EF93E00C94172C8DE518
:105270000E9496270C9428106F927F928F929F9293
:10528000AF92BF92CF92DF92EF92FF920F931F9354
:10529000CF93DF93EB018C015B0180E1A80EB11C81
:1052A00089E9682E96E7792E26E9822E3EE7932E2D
:1052B000C990D990E990F99020E030E0A901C701A8
:1052C000B6010E94C5438823B9F0A7019601F801F1
:1052D00060817181828193810E94CF436B017C0147
:1052E000E894F7F8A7019601B301C4010E94C543F1
:1052F00087FD02C0360147010C5F1F4FCA15DB0551
:10530000B9F6B301C401DF91CF911F910F91FF90C6
:10531000EF90DF90CF90BF90AF909F908F907F9055
:105320006F9008952F923F924F925F926F927F926B
:105330008F929F92AF92BF92CF92DF92EF92FF92A5
:105340000F931F93CF93DF93C0910A09C11101C03E
:10535000C0E2C150D0914802CD1709F41BC1EC2E18
:10536000F12C26E3C29F80011124065B1D4FF8013A
:10537000A28CB38CC48CD58C668D778D80A191A1C5
:105380009B01AC010E94D042F80122A133A144A1AB
:1053900055A10E9427464B018C019B01AC01B50130
:1053A000C6010E94C54387FD02C05401680186E31F
:1053B0008E9DF0018F9DF00D1124E65BFD4FC50120
:1053C000D601868B978BA08FB18FC11101C0C0E22F
:1053D000C150CD1761F026E32E9DC0012F9D900D89
:1053E00011249C01265B3D4F7901D6E333C08091A7
:1053F0004902D8135EC00E94501F5BC0AC2EB12C76
:10540000DA9DC001DB9D900D1124FC01E65BFD4F90
:105410006F01C11101C0C0E2C15080914902C8139F
:1054200002C00E94501FDA9D8001DB9D100D1124E7
:10543000065B1D4FF801828C938CA48CB58CA50162
:10544000940166897789808D918D0E94C543811171
:1054500006C0760180914802C813D0CF2AC0F80157
:10546000668D778D80A191A19B01AC010E94D042F5
:10547000F80122A133A144A155A10E942746F701BA
:1054800026893789408D518D0E94D0422B013C01E5
:10549000A50194010E94C543F80187FF05C0468A13
:1054A000578A608E718ED5CF868A978AA08EB18EEC
:1054B000D0CFD0914802F6E3DF9F80011124065B34
:1054C0001D4FC1E0CD0FC03209F4C0E020900A09A1
:1054D00086E3382EC21509F45BC0CC2ED12C3C9C3F
:1054E000C0013D9C900D11249C01265B3D4F79012C
:1054F000F80146885788608C718CF90186889788F6
:10550000A08CB18CA5019401C301B2010E94C543D6
:1055100087FF24C0F801668D778D80A191A19B0142
:10552000AC010E94D042F80122A133A144A155A1AF
:105530000E9427469B01AC01C301B2010E94D042E8
:105540002B013C01A50194010E94C54387FF06C0C1
:10555000F701468A578A608E718EDC2F3C9CF001E1
:105560003D9CF00D1124E65BFD4F228D338D448D63
:10557000558D66897789808D918D0E94C5438111F3
:1055800001C0DC2FCF5FC03209F4C0E08701A2CF99
:10559000D0934802DF91CF911F910F91FF90EF9030
:1055A000DF90CF90BF90AF909F908F907F906F9043
:1055B0005F904F903F902F9008954F925F926F921F
:1055C0007F92AF92BF92CF92DF92EF92FF920F93B2
:1055D0001F93CF93DF93EC015C0180E1A80EB11C17
:1055E0008E01C12CD12C7601F8014190519061902F
:1055F00071908F0120E030E0A901C301B2010E9447
:10560000C543882371F0A3019201C301B2010E9436
:1056100027469B01AC01C701B6010E94D0426B0135
:105620007C010A151B0501F7C701B6010E94C64699
:105630006B017C019B01AC0160E070E080E89FE3BE
:105640000E94CF432B013C01A30192016881798123
:105650008A819B810E9427466993799389939993C4
:10566000CA15DB0589F7C701B601DF91CF911F91FC
:105670000F91FF90EF90DF90CF90BF90AF907F9011
:105680006F905F904F9008958F929F92AF92BF92CC
:10569000CF92DF92EF92FF920F931F93CF93DF93FE
:1056A000CDB7DEB72D970FB6F894DEBF0FBECDBFD6
:1056B0006B017C01042F20E030E0A9010E94C5436A
:1056C00087FF07C08DE20E949627F7FAF094F7F85B
:1056D000F094102F123060F020E030E048EC52E4FB
:1056E000C701B6010E9427466B017C011250F2CF20
:1056F00000FF0AC020E030E040E251E4C701B601FB
:105700000E9427466B017C0120E030E040E05FE32F
:10571000C701B6010E94D0420E94414410E03AE025
:10572000832E912CA12CB12C611571058105910559
:1057300091F0EE24E394F12CEC0EFD1EE10EF11C31
:10574000A50194010E948D42605DF7016083B9015B
:10575000CA011F5FE9CF80E3101748F4E1E0F0E0F1
:10576000EC0FFD1FE10FF11D80831F5FF5CF1013BC
:1057700014C011E0100F80E3FE01E00FF11D8183E2
:105780000CC0101303C08EE20E949627FE01E10FA9
:10579000F11D80810E94962711501111F2CF2D9694
:1057A0000FB6F894DEBF0FBECDBFDF91CF911F9132
:1057B0000F91FF90EF90DF90CF90BF90AF909F90B0
:1057C0008F9008952091A10120FF08C02BE832E4BA
:1057D00041E25DE30E94274643E001C042E00C94B1
:1057E000442BCF93DF93843630F06AE00E946D4201
:1057F000C0E3C90F03C0C0E08A3030F06AE00E9405
:105800006D42D0E3D90F01C0D0E0805D0E949627A1
:10581000DD2319F08D2F0E949627CC2329F08C2FA1
:10582000DF91CF910C949627DF91CF910895CF937C
:10583000DF93FC018491EF012196882321F00E94DF
:105840009627FE01F7CFDF91CF9108950E94501F58
:1058500080914902809348020C949229EAE2FBE08D
:10586000AAE1B1E04D915D916D917C9113974083D8
:1058700051836283738314964D915D916D917C91F8
:105880001797448355836683778318964D915D916E
:105890006D917C911B9740875187628773871C9617
:1058A0008D919D910D90BC91A02D84879587A687A1
:1058B000B7870895BF92CF92DF92EF92FF920F9336
:1058C0001F93CF93DF937C01FC0106A517A5D0A9F8
:1058D000C1A9858980FF18C06091430170E080E014
:1058E00090E00E9479442AE037ED43E25CE30E94B5
:1058F00027469B01AC01B8018D2F9C2F0E942746A3
:105900008B01D82FC92F2DC082FD17C06091420195
:1059100070E080E090E00E9479442AE037ED43E2B5
:105920005CE30E9427469B01AC01B8018D2F9C2FA0
:105930000E9427468B01D82FC92FF701B2A4C3A418
:10594000D4A4F5A42B2D3C2D4D2D5F2DB8018D2F0A
:105950009C2F0E94E745181624F40B2D1C2DDD2DDD
:10596000CF2D20E030E040E85FE3B8018D2F9C2F81
:105970000E94E745181624F000E010E0D0E8CFE3DD
:10598000B8018D2F9C2FDF91CF911F910F91FF9028
:10599000EF90DF90CF90BF9008952F923F924F925B
:1059A0005F926F927F928F929F92AF92BF92CF92AF
:1059B000DF92EF92FF920F931F93CF93DF93CDB7B8
:1059C000DEB7CA55D1090FB6F894DEBF0FBECDBF02
:1059D0004B0130910A09232E312C26E3229DA00190
:1059E000239D500D1124BA01665B7D4F2B967FAF2E
:1059F0006EAF2B97FB0111922A95E9F7F4012085F0
:105A0000FB01258BF40144815581668177812B96BA
:105A1000EEADFFAD2B9742AB53AB64AB75AB21FF43
:105A20004FC020E1EAE1F1E0DE01919601900D9294
:105A30002A95E1F724968FAF249725969FAF259757
:105A40006CE471E061967FAF6EAF6197CE01C19655
:105A50002F969FAF8EAF2F97FE01B1962996FFAF7D
:105A6000EEAF2997BE016F5E7F4F2D967FAF6EAF71
:105A70002D97E6E33E9FC001112467969FAF8EAF3E
:105A8000679727967FAF6EAF279700E010E0B12CA5
:105A900086E3829D9001839D300D1124C901865BB0
:105AA0009D4F9C01205F3F4F63963FAF2EAF6397A2
:105AB000BC016C5E7F4F65967FAF6EAF659747C048
:105AC00020E1EAE2FBE0B0CF6796EEADFFAD67976D
:105AD000E00FF11FE65BFD4FC082D182E282F382CC
