:100000000C94CD010C94DF010C94DF010C94DF0102
:100010000C94F2280C9463170C94DF010C94DF010C
:100020000C94DF010C94DF010C94DF010C94DF01D0
:100030000C94DF010C94ED1F0C94DF010C94DF0194
:100040000C94811F0C94DF010C94901F0C94DF0121
:100050000C9493260C9422270C94DF010C94DF015E
:100060000C94DF010C94DF010C94DF010C94DF0190
:10007000AB3FB13FB43FB73FBC3FC43FCC3F67400D
:1000800067406740D93FDC3FE53FEE3F6740674050
:100090006740674067406740FA3F0440104018409F
:1000A0001B4024402D403340674067403C40454062
:1000B0005040AB03AF03B103B303B503B703BA03B7
:1000C0007E04B20FB20FE603B20FB20FF003FD03CE
:1000D0000A041704B20F1B04B20F2904B20F330431
:1000E0003D044704B20FB20FB20F57046404710409
:1000F000D426D626112711271127112711271127BA
:100100001127112711271127DC26DE26E026E226FB
:10011000E426E626E826EA261127EE26F026F22631
:10012000F426F626F8261127FA26FC26084AD73B9D
:100130003BCE016E84BCBFFDC12F3D6C74319ABDB6
:1001400056833DDA3D00C77F11BED9E4BB4C3E91DA
:100150006BAAAABE000000803F05A84CCDB2D44EC9
:10016000B93836A9020C50B9918688083CA6AAAACB
:100170002ABE000000803F000D0A4772626C2031E9
:100180002E316632205B27242720666F7220686537
:100190006C705D0D0A00244E002C435F415849539A
:1001A000002C50414E454C002C5350495F4449535C
:1001B00050002C5350495F5352002C4156525F3629
:1001C0003434005B4F50543A005B5645523A312E5E
:1001D0003166322C4255494C443A31382E30332E58
:1001E00032303137005B544C4F3A005B4739323A7A
:1001F000003330003238005B4700204700205300B6
:1002000020460020540033382E005B47433A470015
:100210005B484C503A24242024232024472024499E
:1002200020244E2024783D76616C20244E783D6C4D
:10023000696E6520244A3D6C696E652024534C50DC
:10024000202443202458202448207E2021203F20A1
:100250006374726C2D785D0D0A00536C656570696E
:100260006E6700526573746F72696E672073706990
:100270006E646C6500526573746F72696E6720649A
:10028000656661756C74730050676D20456E64001F
:10029000436865636B204C696D69747300436865DE
:1002A000636B20446F6F720044697361626C6564B4
:1002B00000456E61626C65640043617574696F6EC0
:1002C0003A20556E6C6F636B656400272448277C69
:1002D0002724582720746F20756E6C6F636B005253
:1002E0006573657420746F20636F6E74696E7565D5
:1002F000005B4D53473A00414C41524D3A007C411E
:100300003A007C4F763A007C46533A007C57434F84
:100310003A007C506E3A007C42663A007C57506F3F
:10032000733A007C4D506F733A00536C65657000F2
:10033000446F6F723A00436865636B00416C617291
:100340006D00486F6D65004A6F6700486F6C643AD6
:100350000052756E0049646C65005A65726F430007
:100360005A65726F5A005A65726F59005A65726FFA
:10037000580001020305081020304050607890B00A
:10038000D0F00D0A006F6B0D0A00204D005B50523B
:10039000423A006572726F723A0011241FBECFEFAD
:1003A000D0E1DEBFCDBF2BE0A0E0B1E001C01D92E7
:1003B000A03AB207E1F70E9487360C94E3460C940A
:1003C00000002F923F924F925F926F927F928F9296
:1003D0009F92AF92BF92CF92DF92EF92FF920F93D4
:1003E0001F93CF93DF93CDB7DEB7C055D1090FB6BA
:1003F000F894DEBF0FBECDBF82E4EDEFF1E0DF0188
:100400001D928A95E9F78BE0E1EBF1E0AEEFB1E008
:1004100001900D928A95E1F78091500B843211F092
:100420000C94D60F81E08093FE011092FF0183E0CF
:100430008E8FB1E0BFA3212C312C1CAA1BAA1DA6B4
:100440001F8E1BA267E0962E01E07AE0C72ED12C0A
:10045000EAE08E2EF1E6AF2EF3E0BF2E8E8DE82F70
:10046000F0E0E05BF44FE080EE2009F479C29FEB0E
:100470009E0D9A3110F00C94A20F8F5F8E8FBE01EB
:10048000665E7F4FCE014E960E94D635882311F4CA
:100490000C94A40F4A8C5B8C6C8C7D8CC301B201D4
:1004A0000E94B0460E94EE43162F70E080E090E07C
:1004B0000E941F449B01AC01C301B2010E9475421E
:1004C00020E030E048EC52E40E94CD450E943A46DC
:1004D0000E94EE43CB01E7E4EE1629F0FDE4EF16AF
:1004E00009F4EAC062C1183209F4C5C020F514311C
:1004F00068F4113108F08AC0143009F452C008F4CD
:1005000064C01A3009F445C00C94B20F1C3109F4D0
:1005100040C050F4163110F00C94B20F25E1211BAD
:100520002093000226E0ACC01E3199F1163209F486
:100530004CC00C94B20F1D3309F497C0A8F41533C6
:1005400081F140F41B3209F47AC0113309F477C009
:100550000C94B20F1C3310F00C94B20F6AEC610FC4
:100560006093040229E08CC01C3538F41A3508F079
:1005700053C0103581F10C94B20F1C3551F01F356A
:1005800010F00C94B20F2EE5211B2093FF0125E003
:1005900077C0009731F42BA121110C94A60F31E004
:1005A0003BA31093FD01212F2D7F2C3119F01C3519
:1005B00009F063C0009721F00A9711F00C94B20F74
:1005C000610F6093FD0120E060C06BA161110C948C
:1005D000A60FA2E0ABA31093FE01163209F04FC0A4
:1005E0008431910559F08E31910541F088329105A1
:1005F00029F08233910511F00C94B20FB6010E94DC
:100600001F4266576093FE0121E03FC06FEE610F0D
:100610006093020222E034C0892B31F466EA610F54
:100620006093010223E031C06A30710511F00C942F
:10063000B20F1A3511F40C94B20F24E026C0BBA1FE
:10064000B1110C94A60F113331F41092030228E07B
:10065000E3E0EBA31AC00A9711F00C94B20F0093D9
:10066000030228E0F3E0FBA310C0892B11F00C94E7
:10067000B20F2AE00AC027E003C020E001C021E059
:10068000892B19F087E10C94DA0F81E090E002C029
:10069000880F991F2A95E2F72BA93CA92823392313
:1006A000232B19F085E10C94DA0F2BA93CA9282BF8
:1006B000392B3CAB2BABD2CE892B21F71A3040F42F
:1006C000173060F5133078F01630D0F00C94B20F7C
:1006D0001E3199F010F40C94B20F8CE9810F883020
:1006E00058F10C94B20F112321F0113009F447C0D6
:1006F00004C033E03093050242C0109305023FC0AE
:10070000143021F0153031F080E101C080E2809397
:10071000070202C0109207028CE032C0183021F0AC
:10072000193031F080E801C080E48093060202C0F5
:10073000109206028DE024C0812F90E0FC01E55666
:10074000F109E730F10520F4E75AFF4F0C945542C8
:100750008092060212C064E0609306020EC086E03A
:100760000AC088E008C08BE006C085E004C0909213
:10077000060203C089E0809306028EE001C08BE090
:10078000A1E0B0E002C0AA0FBB1F8A95E2F72BA937
:100790003CA92A233B23232B09F084CFEBA9FCA9F6
:1007A000EA2BFB2BFCABEBAB59CE8E2DEE0C990B51
:1007B000AA0BBB0BFC01E354F109E831F10510F081
:1007C0000C94B20FE05AFF4F0C945542409209022C
:1007D00050920A0260920B0270920C0280E09AC062
:1007E00040920D0250920E0260920F02709210021F
:1007F000FDA5F160FDA781E08DC0409211025092ED
:10080000120260921302709214022DA522602DA78D
:1008100082E080C040921502509216026092170248
:10082000709218023DA534603DA783E073C0109319
:100830001D0284E06FC0C301B2010E94E7436093D0
:100840001E0270931F02809320029093210285E084
:1008500061C0409222025092230260922402709260
:10086000250286E057C040922602509227026092ED
:1008700028027092290287E04DC040922A025092CD
:100880002B0260922C0270922D0288E043C020E07F
:1008900030E04FE753E4C301B2010E948D451816C2
:1008A00014F40C94A80F10932E0289E033C04092E8
:1008B0002F025092300260923102709232026F8D9C
:1008C00061606F8F8AE026C04092330250923402FA
:1008D00060923502709236028F8D82608F8F8BE02E
:1008E00019C04092370250923802609239027092D9
:1008F0003A029F8D94609F8F8CE00CC040923B0227
:1009000050923C0260923D0270923E02AF8DA86010
:10091000AF8F8DE0EE24E394F12C082E02C0EE0C94
:10092000FF1C0A94E2F7970122213321232B11F0B7
:100930000C94AA0FF50102C0F595E7958A95E2F7A8
:10094000E0FF0BC020E030E0A901C301B2010E942A
:100950006B4387FF02C00C94AC0F2E283F287ECD3E
:10096000FF8DFF2329F02BA1211102C032E03BA310
:1009700025FE0FC080911E0290911F02A0912002BF
:10098000B091210281389649A849B10514F00C9420
:10099000AE0F8FA1882301F120FC02C00C94B80F88
:1009A00080910002813009F03FC023E333E34BEC38
:1009B00051E46091090270910A0280910B029091BA
:1009C0000C020E94CD456093090270930A02809345
:1009D0000B0290930C0228C08091FF01813071F4CA
:1009E0009BA1923009F58091FE018035E9F08823C2
:1009F000D9F020FC02C00C94B80F16C08091B2014F
:100A0000811112C020FCCCCF8091C0019091C10116
:100A1000A091C201B091C3018093090290930A0290
:100A2000A0930B02B0930C0230FC10C08091BC016B
:100A30009091BD01A091BE01B091BF0180932A02A7
:100A400090932B02A0932C02B0932D028091FD0174
:100A5000843039F426FC03C08CE10C94DA0FE8945E
:100A600026F880910202882391F0813041F4A1E0C0
:100A70002296AFAF22971DAEB2E0BBAF0FC0229659
:100A80001FAE2297E2E0EDAFF1E0FBAF07C022E03E
:100A900022962FAF229731E03DAF1BAE809100022E
:100AA000813021F06BA16330A9F52BC04FE2E42E19
:100AB00042E0F42E00E010E08F8DC82ED12CC6014C
:100AC000002E02C0959587950A94E2F780FF10C02A
:100AD00023E333E34BEC51E4D7016D917D918D918C
:100AE0009C910E94CD45F70160837183828393833B
:100AF0000F5F1F4FF4E0EF0EF11C04301105F9F603
:100B0000D1CF80910302813029F42F8D243011F050
:100B10000C94B00F80E1E9EDF1E0DE011196019057
:100B20000D928A95E1F78BA99CA991FD09C090913E
:100B3000FD019BA79A30C9F09C3509F4B2C013C1DE
:100B400080910402873018F08DE10C94DA0F9091B7
:100B5000B701981761F3BE016F5F7F4F0E94FD24BC
:100B6000882311F40C94C60FE2CFAF8DA11103C0FE
:100B70008AE10C94DA0FC10180759927892B09F459
:100B80006BCF609122027091230280912402909198
:100B900025020E94B0460E94EE436730A8F680917D
:100BA0001D02843141F0823011F00C94B20F27FE07
:100BB00002C00C94B20FBFEA2B22662319F06150D9
:100BC00069AB03C0E0910402E9AB6DE072E089A972
:100BD0000E94FD24882311F40C94C60F80901D02FE
:100BE0004090F9015090FA016090FB017090FC0177
:100BF0000DEF11E031EBC32E31E0D32EE12CF12CBF
:100C0000FF8DAF2EB12CC5010E2C02C09595879596
:100C10000A94E2F780FF37C024E182122BC0D6018C
:100C2000D8962D913D914D915C91DB9758966D91A1
:100C30007D918D919C915B970E947542F80122A94C
:100C400033A944A955A90E947542D80150966D93C5
:100C50007D938D939C935397B2E0EB16F10499F436
:100C6000A30192010E947542F801608B718B828B07
:100C7000938B09C0F80182A993A9A4A9B5A9808B77
:100C8000918BA28BB38BFFEFEF1AFF0A0C5F1F4F04
:100C900024E0C20ED11C34E0E316F10409F0B3CF16
:100CA0002EC16F8D662309F463CF4090F9015090F7
:100CB000FA016090FB017090FC010FE212E0C12C80
:100CC000D12CE12CF12CA62EB12CF601EF54FE4FC5
:100CD000C5010E2C02C0959587950A94E2F780FF16
:100CE0002BC0A1E0B0E0AC0FBD1FAC0DBD1D2D9120
:100CF0003D914D915C91608D718D828D938D0E949F
:100D00007542D8012D913D914D915C910E947542A3
:100D1000F8016083718382839383F2E0EF16F1041C
:100D2000A1F4A30192010E947542D8016D937D93B5
:100D30008D939C93139709C080AD91ADA2ADB3ADD7
:100D4000F80180839183A283B383FFEFEF1AFF0A38
:100D500024E0C20ED11C0C5F1F4F34E0E316F104F7
:100D600009F0B3CFCBC06BA1633071F48BA58E318A
:100D700009F48AC0853309F4BBC08C3109F0BEC0C8
:100D80006DE072E086E083C09F8D992379F3A09196
:100D90000102A9AB4090F9015090FA016090FB016B
:100DA0007090FC0121EBC22E21E0D22E0FE212E066
:100DB000FE0131964F01E12CF12CA92EB12CC50179
:100DC0000E2C02C0959587950A94E2F780FD0BC022
:100DD000F601808D918DA28DB38DF8018083918372
:100DE000A283B38340C0FBA5F533E9F129A9211102
:100DF00029C0D601D8962D913D914D915C91DB97FC
:100E0000F40160817181828193810E947642D801D0
:100E10002D913D914D915C910E947642F801608345
:100E2000718382839383F2E0EF16F104E1F4A3016E
:100E300092010E947642D8016D937D938D939C938D
:100E4000139711C0F601208D318D428D538DD8013D
:100E50006D917D918D919C910E947642F801608305
:100E6000718382839383FFEFEF1AFF0A24E0C20E9F
:100E7000D11C0C5F1F4F34E0830E911C64E0E6161A
:100E8000F10409F09CCF72CF6DE072E087E00E9420
:100E9000FD24882311F40C94C60F8F8D811103C09B
:100EA00019AA1BA22CC020E030E080E090E0AF8DBA
:100EB0004A2F50E0BA01082E02C0759567950A9432
:100EC000E2F760FD0EC0F901EF54FE4FC08CD18CEB
:100ED000E28CF38CF901E350FE4FC08AD18AE28A9A
:100EE000F38A01962C5F3F4F8430910519F706C0B5
:100EF0008091FE01823010F00C94B40F19AAB091C9
:100F0000FE01BBA7B03529F4EF8DE1110C94B60FAB
:100F10007BC2FBA1F23009F077C22BA5211104C0DE
:100F20003F8D311171C22BC020E030E0A9016091EA
:100F3000090270910A0280910B0290910C020E94AA
:100F40006B43882311F40C94B80F6BA56C3809F42B
:100F500045C240F46230A9F06330B1F0613009F06D
:100F600053C20AC08BA58E3809F438C208F433C2C4
:100F70008F3809F430C248C29F8D911145C21BA21F
:100F800043C2AFA1A460AFA3BF8DBB2309F4F0CDD2
:100F9000EBAD0E2F10E03DAD232F30E038AF2FAB7F
:100FA00081E090E07C010DAC02C0EE0CFF1C0A94C5
:100FB000E2F702C0880F991FEA95E2F7E82AF92ABA
:100FC0008B2F90E08E219F21892B09F4D3C7F80144
:100FD000EE0FFF1FEE0FFF1FE350FE4FD801AA0FC9
:100FE000BB1FAA0FBB1FA753BE4F2D913D914D9123
:100FF0005C9162A973A984A995A90E9475422B01ED
:101000003C01EFA9F8ADEE0FFF1FEE0FFF1FE350FD
:10101000FE4FAFA9B8ADAA0FBB1FAA0FBB1FA753A6
:10102000BE4F2D913D914D915C9162A973A984A908
:1010300095A90E9475424B015C01610160E8C622DE
:10104000DD2427FEF5C0E89427F840E150E06FE288
:1010500072E089EC91E00E94D646892B11F481E27E
:10106000A9C7809100028130B1F423E333E34BEC54
:1010700051E460912602709127028091280290919C
:1010800029020E94CD456093260270932702809327
:101090002802909329028091260290912702A09124
:1010A0002802B09129028DA79EA7AFA7B8ABA301D4
:1010B0009201C301B2010E94CD4529966CAF7DAF6C
:1010C0008EAF9FAF2997A5019401C501B4010E947D
:1010D000CD452D966CAF7DAF8EAF9FAF2D9720E0A5
:1010E00030E040E850E46DA57EA58FA598A90E9448
:1010F000CD452DA53EA54FA558A90E94CD452996C1
:101100002CAD3DAD4EAD5FAD29970E9475422D9639
:101110002CAD3DAD4EAD5FAD2D970E9475426B017C
:101120007C0120E030E0A9010E946B4387FD24C7C9
:10113000C701B6010E946C466B017C012D962CAD57
:101140003DAD4EAD5FAD2D9729966CAD7DAD8EADAD
:101150009FAD29970E9476420E946C469B01AC018C
:10116000C701B60190580E9475436B017C019BA595
:10117000933021F4F7FAF094F7F8F09420E030E09F
:10118000A9016DA57EA58FA598A90E946B4387FF35
:1011900011C0F7FAF094F7F8F0948DA59EA5AFA5CD
:1011A000B8A9B0588093260290932702A0932802F2
:1011B000B0932902000F111F000F111F035F1D4F75
:1011C000A7019601C501B4010E94CD459B01AC0168
:1011D000C301B2010E94754220E030E040E05FE3CD
:1011E0000E94CD45D8016D937D938D939C93139769
:1011F0000FA918AD000F111F000F111F035F1D4F26
:10120000A7019601C301B2010E94CD459B01AC012B
:10121000C501B4010E94764220E030E040E05FE387
:101220000E94CD45F8016083718382839383ECC073
:101230003DA5232F30E03EA72DA7E222F322EF2881
:1012400009F49CC661EF262280910002813009F4E6
:101250007AC0F801EE0FFF1FEE0FFF1FE35FFD4F97
:10126000C080D180E280F380A7019601C301B20162
:101270000E9475422B013C01EFA9F8ADEE0FFF1F54
:10128000EE0FFF1FE35FFD4F80819181A281B3814B
:101290008DA79EA7AFA7B8AB9C01AD01C501B40156
:1012A0000E9475424B015C01A3019201C301B2018E
:1012B0000E94CD452B013C01A5019401C501B4015B
:1012C0000E94CD459B01AC01C301B2010E94764250
:1012D0000E946C464B015C01A7019601C701B60153
:1012E0000E94CD456B017C012DA53EA54FA558A9B7
:1012F000CA01B9010E94CD459B01AC01C701B601ED
:101300000E9476420E946C466B017C01609326022B
:101310007093270280932802909329029B01AC01CD
:10132000C501B4010E9475424B015C01E894B7F815
:101330002AE037ED43EA5BE3C501B4010E948D4525
:10134000181664F161C09DEFE92E91E0F92E8DA58C
:101350009EA50C2C02C0959587950A94E2F780FF14
:1013600012C023E333E34BEC51E4D70150966D9167
:101370007D918D919C9153970E94CD45F701608B93
:10138000718B828B938BFFEFCF1ADF0A24E0E20E82
:10139000F11C34E0C316D104D1F65BCF20E030E07D
:1013A00040E05FE3C501B4010E948D4518160CF4BE
:1013B00056CE2FE632E143E85AE3C701B6010E9458
:1013C000CD459B01AC01C501B4010E948D451816A5
:1013D0000CF445CE19C06FA160616FA38BA58E5828
:1013E000823018F48FA188608FA39F8D992309F410
:1013F000BFCB40E150E06FE272E089EC91E00E94E7
:10140000D646892B09F42BCE2FA12170AFA1C101A3
:10141000A0FF02C08E7D02C08E7D9C7FBBA1B1115A
:10142000937C892B09F0ACC58E010F5E1F4F89E0BC
:10143000F80111928A95E9F7222309F44AC08BA991
:101440009CA9867B892B09F09DC58091FD01853380
:1014500011F0811197C58091BC019091BD01A091BF
:10146000BE01B091BF018D8B9E8BAF8BB88F9091D9
:10147000B9018091BA01892B898F809109029091DD
:101480000A02A0910B02B0910C02898B9A8BAB8B54
:10149000BC8B8091A10185FF06C08FE292E00E9483
:1014A000CC16811171C5B8018FE292E00E9485359A
:1014B00080913B0181116CC50E94EC34892B09F4A9
:1014C00067C580E280933B010E949B170E949E2289
:1014D0005FC58091A101F090BA0181FF26C09BA554
:1014E0009150933018F0FFA1F064FFA32F8D2223B9
:1014F00039F03BA1323021F46FA160686FA315C0B1
:1015000080E1F81212C09091B10191508FA18074C6
:10151000933030F4882349F09FA190629FA305C0C7
:10152000811103C0AFA1A062AFA380911E02909170
:101530001F02A0912002B09121028093C5019093D7
:10154000C601A093C701B093C8018091FF018093A9
:10155000B201882311F088E0898F8091090290916F
:101560000A02A0910B02B0910C028093C0019093EB
:10157000C101A093C201B093C301898B9A8BAB8B3D
:10158000BC8B80902A0290902B02A0902C02B090ED
:101590002D02A50194016091BC017091BD01809163
:1015A000BE019091BF010E946B43BFA1B074EB2EAE
:1015B000811103C0EFA1E5FF20C0FF2071F0FFA162
:1015C000F7FD0BC0EE2021F040E050E0BA0102C070
:1015D000B501A4018F2D0E94182380912A029091B9
:1015E0002B02A0912C02B0912D028093BC0190930C
:1015F000BD01A093BE01B093BF01E1100CC080916A
:10160000BC019091BD01A091BE01B091BF018D8B35
:101610009E8BAF8BB88F80912E028093C4018091F6
:1016200007029091BA01981751F04D895E896F8930
:10163000788D0E941823809107028093BA01998DBA
:101640008091BA01892B898F809106029091B9010E
:101650009817D1F090913B01923051F061968FAF85
:1016600061970E945E1561968FAD61970E94352D3E
:1016700080910602811103C01092B90105C09091BA
:10168000B901892B8093B901998D8091B901892B7A
:10169000898F8091FD01843049F56091220270911B
:1016A0002302809124029091250220913B01223057
:1016B000E9F02E966FAF2E972F967FAF2F976196FA
:1016C0008FAF619760969FAF60970E945E1540E074
:1016D0002E966FAD2E972F967FAD2F9761968FAD7B
:1016E000619760969FAD60970E94183580910202C5
:1016F0008093B501809100028093B3012BA1233028
:1017000071F5809103028093B601811108C0109297
:101710003702109238021092390210923A02C090A9
:101720003702D0903802E0903902F0903A02A701D7
:1017300096016091F9017091FA018091FB019091FD
:10174000FC010E946B43882351F0C092F901D092B2
:10175000FA01E092FB01F092FC010E944F17809188
:1017600004029091B701981769F08093B70180E166
:10177000FE013196A9EDB1E001900D928A95E1F755
:101780000E944F17809101028093B4018091FD0166
:101790008632F1F138F48C3109F18E31F9F08A306A
:1017A00069F04FC08C35D1F1863609F441C08832DA
:1017B00009F047C069EC71E087E02DC06DE072E090
:1017C00089A90E94E1248091B70139A9831339C006
:1017D00080E1EDE0F2E0A9EDB1E025C0898D816006
:1017E000898F6BA1662329F0B8018FE292E00E94F5
:1017F0008535B8018DE092E00E94853580E1EDE00D
:10180000F2E0A9ECB1E001900D928A95E1F719C0E0
:1018100069EC71E086E00E94E12413C080E1EFE210
:10182000F2E0A9EEB1E001900D928A95E1F707C0D0
:1018300080E1E9EEF1E0DF011D928A95E9F70E946F
:101840004F178091FE018093B101803509F42CC3BC
:10185000BBA1B23009F028C3813021F4BE016F5E14
:101860007F4F06C0811109C0898D8160898FB801C1
:101870008FE292E00E9485350EC38250823008F0DC
:10188000A3C28091260290912702A0912802B091D4
:1018900029028BA39CA3ADA3BEA3ABAD94E0A99FEB
:1018A00070011124F701E753FE4FFCA7EBA7970146
:1018B000235F3D4F3AAB29ABD9014D905D906D90C0
:1018C0007C902081318142815381C301B2010E9409
:1018D00076426BAB7CAB8DAB9EABEDADB4E0EB9FDA
:1018E00080011124980127533E4F3EA72DA7C80120
:1018F000835F9D4F9CAF8BAFDC018D909D90AD9031
:10190000BC90F9012081318142815381C501B4012C
:101910000E94764221966CAF7DAF8EAF9FAF21972C
:1019200077FA709477F87094D501C401B0588F8F0E
:1019300098A3A9A3BAA3F701E15DFD4F2BA93CA988
:101940004DA95EA960817181828193810E94754257
:101950006B017C01F801E15DFD4F21962CAD3DADA1
:101960004EAD5FAD219760817181828193810E942C
:1019700075424B015C01A7019601C301B2010E94AF
:10198000CD456FAB78AF89AF9AAFA50194016F8D4C
:1019900078A189A19AA10E94CD459B01AC016FA9B4
:1019A00078AD89AD9AAD0E9476426FAB78AF89AFC2
:1019B0009AAFA5019401C301B2010E94CD454B012C
:1019C0005C01A70196016F8D78A189A19AA10E945F
:1019D000CD459B01AC01C501B4010E9475422FA900
:1019E00038AD49AD5AAD0E94F5426B017C019FA113
:1019F00092FF13C02DEB37E346E055EBC701B6016C
:101A00000E948D4587FD1DC02BED3FE049EC50E461
:101A1000C701B6010E94754212C02DEB37E346E0C4
:101A200055E3C701B6010E946B43181654F02BED25
:101A30003FE049EC50E4C701B6010E9476426B01D9
:101A40007C018090950190909601A0909701B090B4
:101A500098012BA13CA14DA15EA1CA01B9010E9430
:101A60007642A50194010E9475429B01AC01C5011B
:101A7000B4010E94CD450E946C464B015C0120E000
:101A800030E040E05FE3C701B6010E94CD452BA1E5
:101A90003CA14DA15EA10E94CD459F77A501940177
:101AA0000E9475430E945A440E94EE4378AF6FAB88
:101AB000DB01AB2B09F4D2CE198D4B01A12CB12C3B
:101AC00013FF12C0C501B4010E941D449B01AC016B
:101AD00069897A898B899C890E94CD45698B7A8B2B
:101AE0008B8B9C8B177F198FC501B4010E941D44FD
:101AF0004B015C019B01AC01C701B6010E9475431B
:101B00006FA378A789A79AA72296EFAD2297B4E092
:101B1000EB9FC00111248C0107531E4FFC01E15DB6
:101B2000FD4FD8012D913D914D915C916081718166
:101B3000828193810E947542A50194010E947543A0
:101B40002D966CAF7DAF8EAF9FAF2D972FA138A58F
:101B500049A55AA5CA01B9010E94CD459B01AC0116
:101B600060E070E080E090E40E9475426B017C01CF
:101B70002BEA3AEA4AE25EE36FA178A589A59AA525
:101B80000E94CD454B015C0120E030E040E850E48C
:101B9000C701B6010E9476429B01AC01C501B401A8
:101BA0000E94CD4525966CAF7DAF8EAF9FAF259738
:101BB00020E030E040E05FE3C701B6010E94CD4580
:101BC00029966CAF7DAF8EAF9FAF29971BA22224C1
:101BD0002394312CEFA9F8AD2E163F0609F43ECE22
:101BE000BBA1BC3008F048C029962CAD3DAD4EAD30
:101BF0005FAD29976F8D78A189A19AA10E94CD45EB
:101C00006B017C0125962CAD3DAD4EAD5FAD2597AA
:101C1000C301B2010E94CD45A70196010E94764200
:101C20007B016C0129962CAD3DAD4EAD5FAD299782
:101C3000C301B2010E94CD454B015C0125962CAD3C
:101C40003DAD4EAD5FAD25976F8D78A189A19AA16D
:101C50000E94CD459B01AC01C501B4010E947542B3
:101C60002B013C01EBA1EF5FEBA3470156018F8EE7
:101C700098A2A9A2BAA265C0B10180E090E00E943A
:101C80001D442FA138A549A55AA50E94CD456B0139
:101C90007C010E9470436F8F78A389A39AA3C70128
:101CA000B6010E945E464B015C01A9A9BAA9CD907C
:101CB000DD90ED90FC90F7FAF094F7F8F094ABAD6E
:101CC000BCAD8D919D910D90BC91A02D8BA39CA33B
:101CD000ADA3BEA32F8D38A149A15AA1C701B6015A
:101CE0000E94CD452B013C01A50194016BA17CA173
:101CF0008DA19EA10E94CD459B01AC01C301B20103
:101D00000E9476422B013C01A5019401C701B60156
:101D10000E94CD456B017C012F8D38A149A15AA1AC
:101D20006BA17CA18DA19EA10E94CD459B01AC0120
:101D3000C701B6010E9475426F8F78A389A39AA349
:101D40001BA2A30192016BA97CA98DA99EA90E9447
:101D50007642EBA5FCA560837183828393832F8DEC
:101D600038A149A15AA121966CAD7DAD8EAD9FAD34
:101D700021970E947642ADA5BEA56D937D938D936C
:101D80009C9313972D962CAD3DAD4EAD5FAD2D9729
:101D9000F80160817181828193810E947642D8012D
:101DA0006D937D938D939C931397BE016F5E7F4FD0
:101DB00089EC91E00E94853580913C0181116BC0D6
:101DC000BFEF2B1A3B0A06CF898D8460898F8091E3
:101DD0003B01823009F45FC00E945E1580913C0196
:101DE000811162C0FFA1F071FF2E109240012FA15E
:101DF00023FB882780F90E94001080B188709091A1
:101E00001901891749F084E00E94B3160E944A1410
:101E100080E00E94001048C0B8018FE292E00E946A
:101E2000853581E080933A0182E00E94C3160E94CA
:101E30004A1480913C01811137C080913B0181118E
:101E4000F6CF80913A01813081F4FF2051F080E19A
:101E5000EAE1F1E0AAE2B1E001900D928A95E1F7A2
:101E600007C085E00E94B31603C081E08093400163
:101E700010923A0180E00E9400100E944A140E94D1
:101E8000BA1F0E94FC340E94A3300E94E941809155
:101E90004001811188C080E1EFE2F2E0A9ECB1E0FD
:101EA00001900D928A95E1F7809105028093B80127
:101EB000882309F47FC00E945E158091B80190913B
:101EC0003B01833041F49230D1F188E00E94C31687
:101ED0000E944A1434C081E08093B1011092B50190
:101EE0001092B4011092B2011092B7011092BA018F
:101EF0001092B90184E6809342018093430180935C
:101F00004401923091F069ED71E080E00E94FD247F
:101F10008823E1F10E944F1740E050E0BA0180E0D1
:101F20000E94CE2280E00E94352D81EF92E00E9437
:101F30008C3088E892E00E948C300E94ED2810924C
:101F4000B8012FC081E036C082E034C088E132C0E1
:101F500086E230C089E12EC084E02CC08BE12AC02B
:101F600085E228C084E126C08EE124C08FE122C032
:101F700086E120C080E21EC082E21CC083E21AC05B
:101F800084E218C080E116C08FE014C087E012C060
:101F900080E1EFE2F2E0A9ECB1E001900D928A95C8
:101FA000E1F780E007C00E94732C7ECF1E8E1FA237
:101FB0000C941B02C05BDF4F0FB6F894DEBF0FBE60
:101FC000CDBFDF91CF911F910F91FF90EF90DF90E8
:101FD000CF90BF90AF909F908F907F906F905F90C9
:101FE0004F903F902F90089582E893E00C948C30AE
:101FF0000E94EC34892B19F082E00C94C3160895EA
:10200000109219019091A10197FD03C098E090935F
:102010001901882331F09091190188E08927809374
:10202000190108952091A10120FF08C02BE832E496
:1020300041E25DE30E94CD4541E001C040E00C94E7
:10204000B92F4F925F926F927F928F929F92BF9221
:10205000CF92DF92EF92FF920F931F93CF93DF9374
:10206000CDB7DEB7E0970FB6F894DEBF0FBECDBF99
:1020700010913E09112359F181E080933B0187EFD4
:1020800092E00E948C30812F0E9466300E94F40FF3
:1020900084EF91E00E940D351150123030F08FB76F
:1020A000F89410923E098FBF12C081EF92E00E9417
:1020B0008C308FED92E00E948C300E94ED2880E100
:1020C0000E94B91680913D0984FFFCCFE8CF0091B2
:1020D0003D09002309F41AC304FF04C081E0809382
:1020E0003C01C2C300FF22C280E1EAE1F1E0DE016F
:1020F000919601900D928A95E1F7BE016F5D7F4F39
:10210000CE0141960E9407178CE30E944C278091D4
:102110003B01883009F44FC068F4813009F465C090
:10212000C8F0823009F464C0843009F074C082E4DD
:1021300093E06FC0803209F455C018F48031F1F19A
:102140006AC0803409F457C0803809F064C08AE25C
:1021500093E05FC010914502112351F110FF09C0B7
:102160008CE693E00E948C30113019F08CE20E94D2
:102170004C2711FF09C086E693E00E948C30153091
:1021800018F08CE20E944C2712FF09C080E693E011
:102190000E948C30193018F08CE20E944C2713FFFB
:1021A00004C08AE593E00E948C301092450233C04F
:1021B00085E593E02EC081E593E02BC080913D0141
:1021C00087FD10C08BE493E00E948C3080913D012C
:1021D00080FF06C080E31AC082FF17C085FFFACFD8
:1021E00081E314C087E493E014C08CE393E011C052
:1021F00086E393E00EC080E393E00E948C308091F0
:102200003D0183FFE9CF83E301C082E30E944C27B5
:1022100002C00E948C3080919001982F9170B92E4D
:1022200080FD14C04090F9015090FA016090FB01CC
:102230007090FC0199ED892E91E0992EFE01319666
:102240007F01CE0141966C0111E019C080914701D8
:10225000882341F383E293E03EC0A30192010E94F0
:102260007642F7016083718382839383BB20E1F020
:1022700094E0E90EF11C1F5FE4E0CE0ED11CF401E6
:1022800061917191819191914F01248535854685A8
:1022900057850E947642F70160837183828393831E
:1022A0001330D9F2B11011C0F70120813181428180
:1022B0005381F60160817181828193810E94754210
:1022C000F6016083718382839383143089F6B110A1
:1022D000C1CF8CE193E00E948C30CE0141960E94E8
:1022E000D0288091900181FF1FC087E193E00E9478
:1022F0008C3090910C0980914B02981710F0815E00
:1023000001C08150891B0E9466308CE20E944C27DC
:102310008091950A9091960A981710F0805801C004
:102320008150891B0E9466300E947829F82E0E94F5
:102330005417182F80B1982F987080911901E92EA9
:10234000E8268F2D812B8E2959F182E193E00E949E
:102350008C30EE2019F080E50E944C27FF2079F0A8
:10236000F0FE03C088E50E944C27F1FE03C089E51A
:102370000E944C27F2FE03C08AE50E944C271123DD
:1023800079F010FF03C082E50E944C2711FF03C0C3
:1023900088E40E944C2712FF03C083E50E944C276B
:1023A00080914701882321F081508093470118C014
:1023B00080913B018C7711F08DE101C089E0809321
:1023C000470180914601811103C081E0809346015D
:1023D0008CE093E00E948C30CE0101960E94D028C0
:1023E000F0904601FF2021F0FA94F092460196C049
:1023F00087E093E00E948C3080913B018C7749F01C
:1024000060912409709125098091260990912709EE
:1024100003C060E070E0CB010E9412108CE20E94C9
:102420004C27609148017091490180914A01909137
:102430004B0140E00E94B92F80913B018C7711F055
:1024400083E101C089E08093460182E093E00E942D
:102450008C30809142010E9466308CE20E944C27B1
:10246000809143010E9466308CE20E944C2780914B
:1024700044010E9466308091B00087FF07C05E99DA
:1024800003C0FF24F39402C082E0F82E10914402AE
:102490008091430281111260809142028111146087
:1024A0008091410281111860809140028111106178
:1024B00080913F02882311F0106204C0F11002C025
:1024C000112361F18EEF92E00E948C30FF2041F0E9
:1024D000F1E0FF1202C083E501C083E40E944C27B3
:1024E00010FF03C086E40E944C2711FF03C08DE457
:1024F0000E944C2712FF03C080E30E944C2713FF69
:1025000003C081E30E944C2714FF03C082E30E94B2
:102510004C2715FF03C083E30E944C278EE30E94E3
:102520004C270E94F40F81E00E94B916802F887E0C
:1025300009F469C080913B01982F937009F052C053
:102540008872A1F080913D01807C81F40E941C1F63
:1025500082E080933F0180913B01803239F407FD96
:1025600005C080913D01806880933D0180913B01D1
:10257000811103C091E090933D0106FF07C085FDE6
:1025800005C090913D01906490933D0103FF05C00B
:10259000807E19F480E180933B0105FF23C081EF29
:1025A00092E00E948C308DE992E00E948C300E9473
:1025B000ED2880913D0187FD10C090913B01903442
:1025C00039F483FF07C0837E826080933D0102C09F
:1025D000903819F080E480933B0180913D01806246
:1025E00080933D0107FF0CC080913B01813029F4AD
:1025F00080913D01856080933D0180E880933B019F
:1026000088EE0E94B91601FF44C0802F8876F1F54C
:1026100080913B01803471F480913D0185FD0AC0B9
:1026200084FF03C010923B0105C082FF03C0886095
:1026300080933D0180913B01882381F084FF26C077
:1026400090913D0190FF22C0803141F4809145017D
:10265000882321F088608093450118C010923F01C3
:102660000E94EC34892B71F080913D0186FD0AC0F7
:1026700010923D0188E080933B010E949B170E94CD
:102680009E2204C010923D0110923B0182E00E9404
:10269000B91602FF3BC080913B01807D90913D01C6
:1026A0008823A9F080913E01811111C097FD0FC0D0
:1026B0000E949B3080913F0181FF05C090913D01B8
:1026C000916090933D01897F80933F011CC097FFEB
:1026D0000AC010923F010E94FC340E94BA1F0E945F
:1026E000732C0E94A33080913D0185FF08C08F7735
:1026F000816080933D0180E480933B0104C010928F
:102700003D0110923B0184E00E94B91610914109ED
:10271000112381F10E948F163091420110FF02C0F7
:1027200084E601C0832F11FD865F12FD8A5013FDE0
:102730008F5F14FD8150893C08F088EC811101C045
:1027400081E02091430115FF02C094E601C0922F61
:1027500016FD92E317FD99E1831302C0921751F021
:102760008093420190934301109246010E945E348F
:102770000E949B30109140091123C9F00E948F16CE
:10278000E12FF0E0EE57FD4F8491893C08F088EC92
:10279000811101C081E090914201891741F080933D
:1027A0004201109246010E945E340E949B3090913B
:1027B0003F09992309F452C08FB7F89410923F094A
:1027C0008FBF2091440190FF02C084E601C0822F98
:1027D00091FD865F92FD8A5093FD8F5F94FD81503D
:1027E000893C08F088EC8A3008F48AE0821749F0C6
:1027F00020913F01286020933F0180934401109273
:10280000460180913B0195FF0DC0803159F4209124
:102810004501211102C022E003C020FF03C0246053
:1028200020934501292F207CC9F0882311F088715D
:10283000A9F01091B90197FF05C017FF02C01F77DB
:1028400001C0106896FF05C016FF02C01F7B01C0C3
:102850001064812F0E94352D1093B90180913B01A6
:102860008C7F11F00E949B17E0960FB6F894DEBFA4
:102870000FBECDBFDF91CF911F910F91FF90EF90D1
:10288000DF90CF90BF909F908F907F906F905F90E0
:102890004F900895CF92DF92EF92FF921F93CF93C4
:1028A000DF930E94211080913D01882309F4FEC02E
:1028B0000E94EC34009771F4C091B9018091BA0183
:1028C000C82BC090BC01D090BD01E090BE01F0903B
:1028D000BF0106C0FC01C589C2A8D3A8E4A8F5A819
:1028E0008091A10181FF03C080E20E949716DC2F36
:1028F000D07311E0C07480913D01882309F4D6C0E3
:102900000E949F2B0E946D240E94562480913C01BE
:102910008111CCC090913D0190FFC5C080913B01D9
:10292000282F207C09F474C092FD12C0109245013A
:1029300040E050E0BA0180E00E94CE2280E00E9498
:10294000352D90913D019D7F946090933D01ABC0EA
:102950008038E1F481EF92E00E948C308AE592E0C9
:102960000E948C300E94ED2840E050E0BA0180E0E7
:102970000E94CE2280E00E94352D0E94A61F8091E9
:102980003C01811193C00E942110F9CF803419F4C9
:102990009F7D90933D0180913D0183FF84C0909184
:1029A000BA019923C1F081FD16C08091A10181FF78
:1029B00006C080913F01886080933F010CC0B70141
:1029C000A6018D2F0E94CE2241E060E070E080E8F9
:1029D00090E40E9418358091B901882371F08091AC
:1029E0003D0181FD0AC08C2F0E94352D41E060E041
:1029F00070E080E89FE30E94183590913D0191FDC1
:102A000052C0906190933D0182E00E94C3164BC07A
:102A1000909145019923C9F191FF0DC08091BA01B0
:102A20008823B1F040E050E0BA0180E00E94CE225D
:102A30001093450138C09C70B1F18091BA018111A9
:102A40000AC08091450183FF03C082E00E94C31643
:102A50001092450128C081EF92E00E948C3083E6FD
:102A600092E00E948C300E94ED288091A10181FFAC
:102A700006C080913F01886080933F01E2CFB7019B
:102A8000A6018D2F0E94CE22DCCF80913F0183FFD3
:102A90000AC0B701A6018D2F0E94CE2280913F016E
:102AA000877F80933F010E94211025CFDF91CF9136
:102AB0001F91FF90EF90DF90CF9008950E94F80F44
:102AC0000E944A1480913C01811108C00E94EC349C
:102AD000892BB1F780913B01883091F30895809361
:102AE000B30081110DC08091B0008F778093B0004A
:102AF000809147028E7F80934702109246020DC05C
:102B00008091B00080688093B0008091470281601E
:102B10008093470281E0809346020C946D244F928B
:102B20005F926F927F928F929F92AF92BF92CF925D
:102B3000DF92EF92FF92CF936B017C01C091440131
:102B400080909D0190909E01A0909F01B090A00167
:102B50004090990150909A0160909B0170909C0167
:102B6000A3019201C501B4010E948D4587FF1AC0DF
:102B70006C2F70E080E090E00E941F442AE037ED67
:102B800043E25CE30E94CD459B01AC01C701B60165
:102B90000E94CD456B017C01A30192010E948D45ED
:102BA00087FD0AC0409248015092490160924A0153
:102BB00070924B018FEF47C0A5019401C701B60188
:102BC0000E946B431816E4F020E030E0A901C70131
:102BD000B6010E946B43811109C010924801109206
:102BE000490110924A0110924B012DC08092480178
:102BF00090924901A0924A01B0924B0181E023C01A
:102C0000C0924801D0924901E0924A01F0924B01F2
:102C1000A5019401C701B6010E94754220914209A5
:102C20003091430940914409509145090E94CD4596
:102C30000E945A4420E030E040E85FE30E94764280
:102C40000E94EE43862FCF91FF90EF90DF90CF90C0
:102C5000BF90AF909F908F907F906F905F904F90BC
:102C60000895CF93DF93C0E5DBE08991882319F0C5
:102C70000E944C27FACFDF91CF910895CF93DF9335
:102C800021E5829FC0011124EC01DD5F40E550E0A9
:102C9000BE0180E59BE00E94E22C892B69F4109232
:102CA000500B0E945E1540E550E060E57BE0CE01F0
:102CB0000E949B2C80E001C081E0DF91CF910895BC
:102CC000CF93DF93C0E08C2F0E943E1681110EC07F
:102CD0001092500B8EE30E944C270E9431168AE31B
:102CE0000E944C2787E00E94AA2712C08091500BB7
:102CF000882371F00E94E101D82F8EE30E944C27B7
:102D00000E9431168AE30E944C278D2F0E94C8280A
:102D1000C13011F0C1E0D7CFDF91CF9108958FB7C7
:102D2000F89410924109109240098FBF08952FB76F
:102D3000F89490913F09892B80933F092FBF089504
:102D40009FB7F89410924109809340099FBF08955E
:102D50002FB7F89490914109892B809341091092E3
:102D600040092FBF08959FB7F89480933E099FBFF5
:102D700008952FB7F89490913D0980958923809309
:102D80003D092FBF08952FB7F89490913D09892BE5
:102D900080933D092FBF0895AF92BF92CF92DF92EB
:102DA000EF92FF920F931F93CF93DF93EC010CE709
:102DB00011E05C0180E1A80EB11CC990D990E990A6
:102DC000F99020E030E0A901C701B6010E948D45CD
:102DD00018168CF0F80121913191419151918F0198
:102DE000C701B6010E946B4387FD05C0CA15DB050C
:102DF00021F780E001C081E0DF91CF911F910F9119
:102E0000FF90EF90DF90CF90BF90AF900895AF927A
:102E1000BF92CF92DF92EF92FF920F931F93CF93C7
:102E2000DF9300D000D0CDB7DEB75B012CE4E22EFB
:102E300021E0F22E8C016B0180E1C80ED11CF5015E
:102E400061917191819191915F01F701219131918E
:102E5000419151917F0129833A834B835C830E9486
:102E60001F4429813A814B815C810E947543F8019E
:102E700061937193819391938F01AC14BD04F9F622
:102E80000F900F900F900F90DF91CF911F910F91A6
:102E9000FF90EF90DF90CF90BF90AF9008950E9489
:102EA0005E1510924701089593B1892F877049F0FC
:102EB000892F8095817091FF826092FD03C08460AC
:102EC000089580E008951F920F920FB60F9211247B
:102ED0002F933F934F935F936F937F938F939F9322
:102EE000AF93BF93EF93FF930E945417882391F001
:102EF00080FF03C00E9449350DC082FF04C080914D
:102F00003D09826005C081FF05C080913D09886050
:102F100080933D09FF91EF91BF91AF919F918F9168
:102F20007F916F915F914F913F912F910F900FBEC5
:102F30000F901F9018952F923F924F925F926F9231
:102F40007F928F929F92AF92BF92CF92DF92EF9239
:102F5000FF920F931F93CF93DF93CDB7DEB7EE971A
:102F60000FB6F894DEBF0FBECDBF80913F0180FD4C
:102F70004AC79091750980917609981709F443C75B
:102F80008091120A9091130A892B09F017C31091AE
:102F90003F0112FF09C080910C0926E3289FC00160
:102FA0001124845B9D4F02C00E94EC349093130A5D
:102FB0008093120A2090120A3090130A21143104CF
:102FC00009F421C700910E09802F817000FF03C012
:102FD00010920E09EAC090910D099F5F953009F09B
:102FE000892F80930D09E82EF12C36E13E9DF001EA
:102FF0003F9DF00D1124EC55F64FF093A309E0939B
:10300000A209D10154969C915497948BE6E18E9F2E
:10301000C001112420E030E04D915D916D917D91D2
:10302000F901E80FF91FEC55F64F689412F8440FB8
:10303000551F661F771F1694D1F740835183628313
:1030400073832C5F3F4F2031310531F726E12E9DF0
:10305000F0012F9DF00D11249F012C55364FF101E9
:1030600080899189A289B38943E0880F991FAA1F9B
:10307000BB1F4A95D1F7F901808B918BA28BB38B43
:10308000D10150966D917D918D919C9153970E94A5
:103090001D4460931309709314098093150990934C
:1030A0001609F10122A133A144A155A10E94754343
:1030B0009B01AC016093170970931809809319095B
:1030C00090931A0960E070E080EA9FE30E947543E4
:1030D00060931B0970931C0980931D0990931E092E
:1030E00010920F09109210091092110910921209F2
:1030F00011FD02C003FF1FC060912C0970912D09C2
:1031000080912E0990912F096093240970932509CD
:1031100080932609909327099B01AC010E94CD451D
:10312000D10156966D937D938D939C935997077F0C
:1031300000930E090FC0F10166897789808D918D0A
:103140000E946C4660932409709325098093260998
:1031500090932709F6E1FE9DC001FF9D900D11247B
:103160009C012C55364F7901D90155961C928091BE
:10317000A10181FF1AC0F101858985FF16C026A52E
:1031800037A540A951A960E070E080E89FE30E9464
:103190007543609338097093390980933A09909385
:1031A0003B09E1E0D7015596EC931092200910926B
:1031B00021091092220910922309D1015E962D91C6
:1031C0003D914D915C91919729833A834B835C8328
:1031D00060E070E080E09FE30E94754369877A8732
:1031E0008B879C87F10142A053A064A075A08688BC
:1031F0009788A08CB18C11FF44C0F2E0F0931F09B6
:10320000A50194010E94CD459B01AC01C301B2010F
:103210000E9475426B017C0120E030E0A9010E9410
:103220006B4387FF1DC029813A814B815C81CA01B4
:10323000B9010E947642A30192010E94CD459B01F3
:10324000AC01C501B4010E9475420E946C466093B6
:103250002C0970932D0980932E0990932F09ABC1EF
:10326000C0922009D0922109E0922209F09223090C
:1032700010922C0910922D0910922E0910922F09EC
:103280009AC110921F094092300950923109609200
:1032900032097092330912FF0CC010922C0910925F
:1032A0002D0910922E0910922F09C12CD12C7601D4
:1032B00024C0E0914B02EF5FE03209F4E0E080913E
:1032C0000C09E81759F026E32E9FF0011124E45B66
:1032D000FD4FC688D788E08CF18C03C0C12CD12C5F
:1032E0007601C701B6010E946C4660932C09709369
:1032F0002D0980932E0990932F09C1010E94CF3090
:10330000698B7A8B8B8B9C8B9B01AC010E94CD458A
:103310006D837E838F8398879B01AC01C501B401C7
:103320000E948D4518160CF070C02D813E814F8192
:103330005885C501B4010E9475429B01AC016985A5
:103340007A858B859C850E94CD459B01AC01C3018C
:10335000B2010E94754260933009709331098093E5
:1033600032099093330920E030E0A9010E946B43B9
:1033700018162CF132E030931F0929813A814B81D4
:103380005C81CA01B9010E947642A30192010E94A8
:10339000CD459B01AC01C501B4010E9475420E945C
:1033A0006C4660932C0970932D0980932E0990939D
:1033B0002F0980910E09886080930E09FCC0A70137
:1033C00096016D817E818F8198850E9475429B0157
:1033D000AC0169857A858B859C850E94CD4560937B
:1033E0003409709335098093360990933709898998
:1033F0009A89AB89BC898093280990932909A09365
:103400002A09B0932B0993E0BBC0A7019601C5011F
:10341000B4010E9475429B01AC0169857A858B8558
:103420009C850E94CD459B01AC01C301B2010E9465
:10343000764220E030E040E05FE30E94CD456D87BA
:103440007E878F87988B20E030E0A9010E948D4510
:1034500018160CF098C0A30192016D857E858F85AA
:1034600098890E946B4387FF8AC0A70196016D81EE
:103470007E818F8198850E9475429B01AC01698590
:103480007A858B859C850E94CD4560933409709325
:10349000350980933609909337092D853E854F85F0
:1034A00058890E946B4387FF39C029893A894B8923
:1034B0005C89209328093093290940932A09509365
:1034C0002B092D813E814F815885C501B4010E9491
:1034D0006B43811104C031E030931F096CC0A5011A
:1034E00094016D817E818F8198850E9475429B0138
:1034F000AC0169857A858B859C850E94CD459B01B1
:10350000AC01C301B2010E9475426093300970930F
:10351000310980933209909333094DC08D859E8582
:10352000AF85B8898093300990933109A09332090F
:10353000B09333098093340990933509A0933609E9
:10354000B093370929813A814B815C81CA01B90165
:103550000E9476422D853E854F8558890E94CD4533
:10356000A70196010E9476420E946C46609328094A
:103570007093290980932A0990932B091CC092E02B
:1035800090931F0918C010923009109231091092BF
:1035900032091092330980912C0990912D09A09144
:1035A0002E09B0912F098093280990932909A0939F
:1035B0002A09B0932B09186010933F018091A1094B
:1035C000A82FB0E0BA87A98727E02A9FF0012B9F98
:1035D000F00D1124E958F64F80910D098483409134
:1035E000120A5091130A5EAF4DAFDA019296BC9168
:1035F000BEA3FA01F3A1FFA3DA019496BC91B8A788
:10360000FA01F5A1F9A720911B0930911C094091FD
:103610001D0950911E096EA17FA18B2F9F2F0E9423
:1036200075426AAB7BAB8CAB9DAB20E030E0A9016F
:103630000E946B4387FF04C01AAA1BAA1CAA1DAADA
:10364000209130092D83309131093D874091320915
:10365000498B509133095D8B809128098A8F909115
:1036600029099B8FA0912A09AC8FB0912B09BD8F9E
:1036700060902409709025094090260950902709F0
:10368000E0913409EAA7F0913509FBA720913609AA
:103690002CA7309137093DA740911F0949835091CC
:1036A00020095EA7809121098FA79091220998ABEC
:1036B000A0912309A9ABB0912C09BEABE0912D09D3
:1036C000EFABF0912E09F8AF20912F0929AF2EA072
:1036D0003FA008A519A58EE3C82E83ECD82E8EE254
:1036E000E82E89E3F82E1E8A1F8A188E198ECE8E38
:1036F000DF8EE8A2F9A29981913009F4E7C008F4BD
:1037000074C0ADADBEAD5E962D913D914D915C9175
:103710009197933009F009C1C701B6010E94CD45C8
:103720004B015C0120E030E040E05FE30E94CD45CA
:103730009B01AC01B301C2010E9475429B01AC0127
:10374000C701B6010E94CD456AA37BA38CA39DA3AC
:103750009B01AC01B101C8010E9475421B018C01A3
:103760002D813D8549895D890E946B4387FD0BC092
:1037700020E030E0A9016AA17BA18CA19DA10E945B
:103780006B4318165CF12D813D8549895D896EA1D9
:103790007FA188A599A50E9475429B01AC010E945A
:1037A00076426B017C012A8D3B8D4C8D5D8DB30182
:1037B000C2010E9476429B01AC01C701B6010E9482
:1037C00075436B017C016A8C7B8C4C8C5D8C2D80ED
:1037D0003D8409891D89B1E0B98311C1A501940116
:1037E000B301C2010E9475426EC0EDADFEAD268DE3
:1037F000378D40A151A1C701B6010E94CD454B01B3
:103800005C0120E030E040E05FE30E94CD459B0199
:10381000AC01B301C2010E9476429B01AC01C70119
:10382000B6010E94CD459B01AC01B101C8010E94C7
:1038300075421B018C012D813D8549895D890E945E
:103840006B4387FF3AC02D813D8549895D896EA113
:103850007FA188A599A50E9475429B01AC010E9499
:1038600076426B017C012A8D3B8D4C8D5D8DB301C1
:10387000C2010E9476429B01AC01C701B6010E94C1
:1038800075436B017C012AA53BA54CA55DA56D8107
:103890007D8589899D890E946B43811103C0F2E077
:1038A000F98302C021E029836A8C7B8C4C8C5D8C6F
:1038B0002D803D8409891D89A2C0A5019401B30111
:1038C000C2010E9476423B012C0199C0A7019601DA
:1038D0006A8D7B8D8C8D9D8D0E94CD459B01AC01A9
:1038E000B101C8010E9475425B014C012AA53BA5AC
:1038F0004CA55DA50E946B4387FF7FC02AA53BA511
:103900004CA55DA5B101C8010E9475422A8D3B8D71
:103910004C8D5D8D0E9475436B017C012AA43BA4F4
:103920000CA51DA532E039836AC0C701B6010E940B
:10393000CD454B015C019B01AC01B301C2010E946A
:103940008D4518169CF520E030E040E05FE3C501AE
:10395000B4010E94CD459B01AC01B301C2010E949C
:1039600075429B01AC01C701B6010E94CD459B0188
:10397000AC01B101C8010E9475426AA37AAF8BAF56
:103980009CAF2EA53FA548A959A90E948D451816A0
:103990006CF4A5019401B301C2010E9475423B0180
:1039A0002C012AA03AAC0BAD1CAD29C02EA53FA519
:1039B00048A959A9B101C8010E9475429B01AC01F7
:1039C0000E9476426B017C012EA93FA948AD59ADFA
:1039D000B301C2010E9476429B01AC01C701B6014E
:1039E0000E9475436B017C016EA87FA848AC59AC5E
:1039F0002EA43FA408A919A902C015018401A7019A
:103A000096016E897F89888D998D0E9476426E8B92
:103A10007F8B888F998F2E8D3F8D48A159A10E9451
:103A20006B4387FF09C02E893F89488D598D6E8D64
:103A30007F8D88A199A131C02AA93BA94CA95DA974
:103A4000B101C8010E948D451816ACF0C301D20126
:103A50008093240990932509A0932609B093270900
:103A6000B981B0931F09E091A209F091A30995894A
:103A7000911134C02FC02EE333EC4EE259E36E8D2A
:103A80007F8D88A199A10E9476426E8F7F8F88A337
:103A900099A32E893F89488D598D0E9475426B01EB
:103AA0007C012EA53FA548A959A9B101C8010E94D2
:103AB0008D4518160CF41FCEC301D2018093240942
:103AC00090932509A0932609B0932709E981E093F3
:103AD0001F09C9CF80913F0183FF3FC0ADADBEAD8F
:103AE00055968C915597807349F1D296CD90DD9083
:103AF000ED90FC90D5979923D1F020913809309121
:103B0000390940913A0950913B096091240970911B
:103B1000250980912609909127090E94CD459B0196
:103B2000AC01C701B6010E94CD456B017C01C70104
:103B3000B6010E948F1580933C090AC0109248017B
:103B40001092490110924A0110924B0110923C09C7
:103B500080913F01877F80933F0127E0E985FA85C7
:103B60002E9FA0012F9F500D1124CA018958964FF6
:103B70009E838D8380913C09AD81BE8116968C9386
:103B800020911709309118094091190950911A098B
:103B9000B101C8010E94CD452B013C010E94544354
:103BA0006B017C01609113097091140980911509D2
:103BB000909116090E9454434B015C01A7019601A4
:103BC0000E9475420E94EE4369837A838B839C83B3
:103BD00029813A81ED81FE8131832083232B41F4B9
:103BE00080913F0181FF04C0816080933F010BC140
:103BF00020910F093091100940911109509112093B
:103C00006E897F89888D998D0E9476426D837E832F
:103C10008F839887A3019201C501B4010E94754268
:103C20009B01AC016D817E818F8198850E947543D7
:103C30004B015C0120EC31EE44E65EE40E94CD4590
:103C40000E9454430E94EE43603D57E07507810592
:103C5000910560F427E0A985BA852A9FF0012B9F82
:103C6000F00D1124E958F64F158254C0603A3FE038
:103C700073078105910568F4A7E049855A85A49FDB
:103C8000F001A59FF00D1124E958F64FB1E0B5837E
:103C90001FC06034EFE17E078105910568F447E0BD
:103CA00029853A85429FF001439FF00D1124E95880
:103CB000F64F52E055830CC027E0A985BA852A9FAC
:103CC000F0012B9FF00D1124E958F64F33E03583B6
:103CD000A7E049855A85A49FF001A59FF00D112406
:103CE000E958F64F2581022E04C096958795779561
:103CF00067950A94D2F749815A8102C0440F551F33
:103D00002A95E2F7518340836115710551E08507DB
:103D1000910568F427E0A985BA852A9FF0012B9FB9
:103D2000F00D1124E958F64F7383628304C04FEFFE
:103D30005FEF53834283809176098093A1098F5F5F
:103D4000863019F08093760902C010927609E091CE
:103D5000120AF091130AC101D80182A393A3A4A36C
:103D6000B5A3C0921309D0921409E0921509F092FC
:103D70001609A3019201C701B6010E947542A5016F
:103D800094010E94CD4560930F09709310098093B0
:103D90001109909312092091200930912109409135
:103DA000220950912309B101C8010E946B4381117E
:103DB000E0C820E030E0A901B101C8010E948D45B2
:103DC00090913F01181614F092FF04C091609093F7
:103DD0003F0119C01092130A1092120A90914B02DF
:103DE00080910C09891709F4C4C881E0890F8032D9
:103DF00009F480E020914A02921302C080934A02A3
:103E000080934B02B6C8EE960FB6F894DEBF0FBE95
:103E1000CDBFDF91CF911F910F91FF90EF90DF9079
:103E2000CF90BF90AF909F908F907F906F905F905A
:103E30004F903F902F900895CF93DF93C091120A37
:103E4000D091130A2097C9F080910E098160809368
:103E50000E0960912409709125098091260990919D
:103E600027099B01AC010E94CD456E8B7F8B888F0B
:103E7000998F1092130A1092120ADF91CF91089530
:103E800060918D0170E040E0E0918E01F0E080E013
:103E900090E030E0582FDB01082E02C0B595A795C1
:103EA0000A94E2F7A0FF0EC0009731F0813031F0A4
:103EB000823031F020E405C021E003C024E001C0DD
:103EC00020E1422BDF0102C0B595A7955A95E2F794
:103ED000A0FF0EC0009731F0813031F0823031F018
:103EE00020E805C022E003C028E001C020E2322B18
:103EF00001968430910571F6409346093093470945
:103F000008951F920F920FB60F9211248F938091F4
:103F1000590988B98F910F900FBE0F901F90189577
:103F20001F920F920FB60F9211248F939F9388B117
:103F30009091460995758A7A892B88B915BC9F910D
:103F40008F910F900FBE0F901F901895EFE6F0E045
:103F500080818D7F8083E1E8F0E08081887F8160CF
:103F600080831092480980E29EE4909349028093F6
:103F700048020895CF93DF930E94A61F80E3EDE0EF
:103F8000F9E0DF011D928A95E9F7C9E4D9E08CE2F6
:103F9000FE0111928A95E9F71092130A1092120A03
:103FA000109275091092A10981E080937609109210
:103FB00048090E94401F809147098C8B88B18A7AFA
:103FC00090914609892B88B988B1857590914709E8
:103FD000892B88B9DF91CF9108951F920F920FB668
:103FE0000F9211242F933F934F935F936F937F937F
:103FF0008F939F93AF93BF93EF93FF938091480963
:1040000081118BC288B190915D099A7A8575892B4F
:1040100088B988B18A7A90915C09892B8093590973
:1040200080915B0986BD82E085BD81E0809348096F
:1040300078948091730990917409892B09F0D3C009
:10404000809175099091A109981709F4BCC0E0917D
:1040500075092E2F30E087E0E89FF0011124E95820
:10406000F64FF0937409E0937309828193819093E2
:104070008900809388008081918190936F0980935B
:104080006E09E481809170098E17A1F1E0937009A7
:1040900086E1E89FF0011124EC55F64FF093720988
:1040A000E093710980899189A289B389B695A79512
:1040B000979587958093550990935609A093570932
:1040C000B09358098093510990935209A0935309D2
:1040D000B093540980934D0990934E09A0934F09D2
:1040E000B09350098093490990934A09A0934B09D2
:1040F000B0934C09E0917109F091720990914709D0
:104100008489892780935D0987E0829FD001839FFE
:10411000B00D1124A958B64F15968C911597408172
:10412000518162817381082E04C0769567955795F9
:1041300047950A94D2F740935E0950935F096093C4
:104140006009709361094481558166817781082EE9
:1041500004C076956795579547950A94D2F7409392
:1041600062095093630960936409709365094085FF
:10417000518562857385082E04C07695679557959D
:1041800047950A94D2F74093660950936709609364
:10419000680970936909448555856685778504C0EB
:1041A00076956795579547958A95D2F740936A0912
:1041B00050936B0960936C0970936D0916968C91FE
:1041C0000E946F1510C00E94A61FE0917109F09126
:1041D00072098589882319F080E00E946F1584E0B8
:1041E0000E94C3169AC180913A018130B1F480B126
:1041F000887090911901891781F010923A0180E13D
:10420000EAE1F1E0AAE2B1E001900D928A95E1F7CE
:1042100080913D09806480933D0910925C09409132
:104220005E0950915F096091600970916109809108
:10423000490990914A09A0914B09B0914C09840F0A
:10424000951FA61FB71F8093490990934A09A09311
:104250004B09B0934C09E0917109F09172094089C2
:10426000518962897389481759076A077B0768F57E
:1042700021E020935C094089518962897389841BFC
:10428000950BA60BB70B8093490990934A09A0930D
:104290004B09B0934C09248980911A0190911B011C
:1042A000A0911C01B0911D0121FF04C00197A1093B
:1042B000B10903C00196A11DB11D80931A0190930D
:1042C0001B01A0931C01B0931D0140916209509104
:1042D0006309609164097091650980914D0990911D
:1042E0004E09A0914F09B0915009840F951FA61F48
:1042F000B71F80934D0990934E09A0934F09B09337
:1043000050094089518962897389481759076A079A
:104310007B0778F520915C09246020935C09408933
:10432000518962897389841B950BA60BB70B809307
:104330004D0990934E09A0934F09B09350092489D9
:1043400080911E0190911F01A0912001B091210147
:1043500023FF04C00197A109B10903C00196A11D63
:10436000B11D80931E0190931F01A0932001B09373
:104370002101409166095091670960916809709127
:1043800069098091510990915209A0915309B09106
:104390005409840F951FA61FB71F8093510990934E
:1043A0005209A0935309B0935409408951896289F5
:1043B0007389481759076A077B0778F520915C09CC
:1043C000206120935C094089518962897389841B2B
:1043D000950BA60BB70B8093510990935209A093AC
:1043E0005309B093540924898091220190912301AB
:1043F000A0912401B091250125FF04C00197A109D6
:10440000B10903C00196A11DB11D809322019093B3
:104410002301A0932401B093250140916A09509192
:104420006B0960916C0970916D09809155099091AB
:104430005609A0915709B0915809840F951FA61FDE
:10444000B71F8093550990935609A0935709B093CD
:1044500058094089518962897389481759076A0741
:104460007B0778F520915C09206420935C094089E2
:10447000518962897389841B950BA60BB70B8093B6
:10448000550990935609A0935709B0935809248968
:104490008091260190912701A0912801B0912901D6
:1044A00027FF04C00197A109B10903C00196A11D0E
:1044B000B11D8093260190932701A0932801B0930A
:1044C000290180913B01843039F490914101809120
:1044D0005C09892380935C0980916E0990916F0932
:1044E000019790936F0980936E09892B69F410925C
:1044F000740910927309809175098F5F8093750913
:10450000863011F4109275099091460980915C09EA
:10451000892780935C0910924809FF91EF91BF9120
:10452000AF919F918F917F916F915F914F913F914B
:104530002F910F900FBE0F901F9018958091A101A1
:1045400082FF02C05D9A01C05D9880914609809308
:104550005C0980918C0190E09C01285F3F4F220F05
:10456000219520935B09880F819587BD80916F000D
:10457000826080936F001092490210924802089561
:10458000E0EBF0E080818F778083809147028C7F21
:1045900080934702109246020C946D24CF93DF93D0
:1045A00000D000D01F92CDB7DEB790913C019111A1
:1045B00037C081110BC0109248011092490110922E
:1045C0004A0110924B010E94C02228C0803129F478
:1045D0005E98909147029D7F04C05E9A9091470239
:1045E0009260909347024A835B836C837D838983C7
:1045F0000E946D249091A1014A815B816C817D8133
:10460000898191FF05C0803219F440E050E0BA0181
:10461000CB01BA010E948F150E946F1510924601BE
:104620000F900F900F900F900F90DF91CF91089502
:10463000CF93DF9300D000D01F92CDB7DEB790911B
:104640003B019230A9F04A835B836C837D8389832D
:104650000E945E154A815B816C817D8189810F900A
:104660000F900F900F900F90DF91CF910C94CE226E
:104670000F900F900F900F900F90DF91CF910895B2
:10468000579A83E08093B00084E08093B100569AFB
:1046900020919D0130919E0140919F015091A00178
:1046A0006091990170919A0180919B0190919C0178
:1046B0000E9475429B01AC0160E070E08EE793E4DC
:1046C0000E947543609342097093430980934409A3
:1046D000909345090C94C02282E18CBD2C9A0895D8
:1046E000382F90E0931719F02DB5207C29F081E048
:1046F000931720F480E008959F5FF4CF0895AF9260
:10470000BF92CF92DF92EF92FF920F931F93CF93BE
:10471000DF93CDB7DEB764970FB6F894DEBF0FBE58
:10472000CDBFD82E81E58CBD8DB58E7F8DBD2C98EB
:104730008FEF8EBD80E40E9470238111A4C08AEAAD
:104740008EBD80E40E94702381119DC085E58EBDE1
:1047500080E40E947023811196C0DEBC80E1EAE112
:10476000F1E0DE01119601900D928A95E1F70D2D91
:1047700010E07801EE0CFF1CEE0CFF1CE1E0F0E015
:10478000EC0FFD1FEE0DFF1D608171818281938111
:104790000E941F44F701E45BFE4F2081318142817A
:1047A00053810E947543698B7A8B8B8B9C8B7E0126
:1047B00021E1E20EF11C570134E0C32ECE0C80E45F
:1047C0000E947023882319F00E946C2349C080E462
:1047D0000E947023F50181915F018EBDCE12EFCF53
:1047E000D801AA0FBB1FAA0FBB1FA752BE4F000FB5
:1047F000111F000F111FF801E751FE4F2081318179
:10480000428153816D917D918D919C910E94764260
:104810009B01AC0169897A898B899C890E947542C8
:10482000698B7A8B8B8B9C8BF2E0DF120EC0209110
:10483000F9013091FA014091FB015091FC010E9475
:104840007542698B7A8B8B8B9C8B80E40E947023E2
:104850008111BACFF70181917F018EBDCE12F5CFC4
:1048600080E40E94702381110EC080919D0A8EBD4C
:1048700080E40E947023811106C080919C0A8EBD45
:1048800080E40E9470230E946C2364960FB6F89413
:10489000DEBF0FBECDBFDF91CF911F910F91FF9073
:1048A000EF90DF90CF90BF90AF900895CF9380911D
:1048B0002A0B8F5F80932A0B81110DC0C091290BA9
:1048C0008C2F0E947F23CF5FC53018F4C093290B33
:1048D00002C01092290BCF91089581E58CBD8DB552
:1048E00081608DBD80919B0A8EBD80E10E94702306
:1048F000811158C0809147028EBD80E10E947023D3
:10490000811150C02B9A000000002B982C980000B9
:1049100000002C9A1EBC80E10E947023811142C0CD
:104920008EB580958093280B9091270B891302C038
:1049300080939A0A8093270B1EBC80E10E9470230B
:10494000811130C08EB580958093260B9091250BF8
:10495000891302C08093990A8093250B1EBC80E1C5
:104960000E94702381111EC08EB580958093240B08
:104970009091230B891302C08093980A8093230B94
:104980001EBC80E10E94702381110CC08EB5809501
:104990008093220B9091210B891302C08093970A78
:1049A0008093210B0C946C236AE080E090E00E94DD
:1049B000792C45E650E06CE471E081E090E00C94E5
:1049C0009B2CCF93DF9300D01F92CDB7DEB76A83C5
:1049D0007B8389830E945E15898121E1829FC001CA
:1049E000112440E150E06A817B819E5F0F900F901F
:1049F0000F90DF91CF910C949B2C1F93CF93DF935B
:104A0000182FEB0181E1189FB00111247E5F40E176
:104A100050E0CE010E94E22C892B59F480E1FE0186
:104A200011928A95E9F7BE01812F0E94E12480E06E
:104A300001C081E0DF91CF911F910895EF92FF9225
:104A40000F931F93CF93DF93CDB7DEB760970FB669
:104A5000F894DEBF0FBECDBF182F80FF23C18AE0C0
:104A600080938C0189E180938F0110928D011092C7
:104A70008E0181E0809390018AE097EDA3E2BCE390
:104A80008093910190939201A0939301B09394012C
:104A90008DEC9CECACE4BDE3809395019093960182
:104AA000A0939701B093980180E090E0AAE7B4E466
:104AB0008093990190939A01A0939B01B0939C01DC
:104AC00010929D0110929E0110929F011092A001E0
:104AD00083E08093A20180E090E0A8ECB2E48093B0
:104AE000A3019093A401A093A501B093A60180E037
:104AF00090E0AAEFB4E48093A7019093A801A0935B
:104B0000A901B093AA0189E190E09093AC01809350
:104B1000AB0180E090E0A0E8BFE38093AD0190930B
:104B2000AE01A093AF01B093B00184E18093A101E5
:104B300080E090E0A0EAB2E480934C0190934D01B4
:104B4000A0934E01B0934F01809350019093510177
:104B5000A0935201B09353018FEC97EFABE7B2E40F
:104B60008093540190935501A0935601B09357013F
:104B70008FE395E3AEE0B1E480935801909359013F
:104B8000A0935A01B0935B0180E090E6AAE6B6E4F8
:104B900080935C0190935D01A0935E01B0935F01EF
:104BA00080E090E8ABE3B6E480936001909361010C
:104BB000A0936201B093630180E090E4ACE1B6E4BD
:104BC0008093640190936501A0936601B09367019F
:104BD00080E090E5A3ECB7E48093680190936901CD
:104BE000A0936A01B0936B0180E09AEBABE5BAE465
:104BF00080936C0190936D01A0936E01B0936F014F
:104C00008093700190937101A0937201B09373012E
:104C100080E098ECAFE2BAE4809374019093750160
:104C2000A0937601B093770180E69EEFADE4BCE4FB
:104C30008093780190937901A0937A01B0937B01DE
:104C400080E090E0ACE8B3EC80937C0190937D0130
:104C5000A0937E01B0937F0180E090E0A8E4B3ECE4
:104C60008093800190938101A0938201B09383018E
:104C700080E090E0A0E7B2EC8093840190938501FE
:104C8000A0938601B093870180E090E0A4EBB3ECA1
:104C90008093880190938901A0938A01B0938B013E
:104CA0000E94D42411FF10C0CE0101967C0180E146
:104CB000F70111928A95E9F700E0B701802F0E9471
:104CC000E1240F5F0830C9F712FF14C060E080E0F4
:104CD00093E00E94792C60E081E093E00E94792CBF
:104CE00060E081E593E00E94792C60E082E593E04A
:104CF0000E94792C13FF0AC060E08EEA93E00E94C4
:104D0000792C60E08FEA93E00E94792C60960FB6D0
:104D1000F894DEBF0FBECDBFDF91CF911F910F91F1
:104D2000FF90EF9008951F920F920FB60F921124EB
:104D30002F933F934F935F936F937F938F939F93A3
:104D4000AF93BF93EF93FF93E091C600E13271F010
:104D500028F4E83179F40E94493563C0EF3321F03B
:104D6000EE3741F482E003C081E001C088E00E9498
:104D7000C31657C0E7FF44C0E03F48F080913B01B5
:104D800085FF4FC08E2F90E00E94A0164AC08E2F44
:104D900090E0FC01E458F109EE31F10508F041C062
:104DA000E858FF4F0C94554280E2E1CF80913B01DF
:104DB00085FF37C080E4DBCF81E00DC082E00BC00F
:104DC00084E009C088E007C080E105C080E203C03C
:104DD00080E401C080E80E94A81623C081E00DC0D5
:104DE00082E00BC084E009C088E007C080E105C014
:104DF00080E203C080E401C080E80E94971611C0E1
:104E0000A091960A81E08A0F813809F480E09091A0
:104E1000950A891731F0B0E0AC5EB54FEC93809302
:104E2000960AFF91EF91BF91AF919F918F917F91E2
:104E30006F915F914F913F912F910F900FBE0F9007
:104E40001F9018951F920F920FB60F9211248F93F7
:104E50009F93EF93FF938091200BE82FF0E0E156B2
:104E6000F54F90819093C6008F5F813809F480E000
:104E70008093200B90919E0A891305C08091C100F8
:104E80008F7D8093C100FF91EF919F918F910F9043
:104E90000FBE0F901F901895E0919E0A91E09E0F13
:104EA000913831F490E004C020913D0924FD0FC0F9
:104EB0002091200B9217C1F3F0E0E156F54F80836B
:104EC00090939E0A8091C10080628093C1000895F2
:104ED000CF92DF92EF92FF921F93CF93DF931F92B7
:104EE000CDB7DEB7182F6A017B0184E229830E94C7
:104EF0004C27812F0E9466308DE30E944C27298128
:104F0000422FC701B6010E94B92F0F90DF91CF91B8
:104F10001F91FF90EF90DF90CF900C94F40F1F93B0
:104F2000CF93DF931F92CDB7DEB7182F84E269834A
:104F30000E944C27812F0E9466308DE30E944C27EF
:104F40006981862F0E9466300F90DF91CF911F916B
:104F50000C94F40FCF93C82F83E993E00E948C3018
:104F60008C2F0E946630CF910C94F40FEF92FF9239
:104F70000F931F93CF93DF9360918C0170E080E0DB
:104F80000E948F2760918F0170E081E00E948F273F
:104F900060918D0170E082E00E948F2760918E0108
:104FA00070E083E00E948F276091A10162FB662779
:104FB00060F970E084E00E948F276091A10166FB98
:104FC000662760F970E085E00E948F278091A1013B
:104FD000082E000C990B692F661F6627661F70E06C
:104FE00086E00E948F276091900170E08AE00E9425
:104FF0008F2740919101509192016091930170919E
:10500000940123E08BE00E94682740919501509124
:105010009601609197017091980123E08CE00E94C5
:1050200068276091A101617070E08DE00E948F2778
:105030006091A10165FB662760F970E084E10E9440
:105040008F276091A10163FB662760F970E085E11D
:105050000E948F276091A1016295617070E086E1E6
:105060000E948F276091A20170E087E10E948F2744
:105070004091A3015091A4016091A5017091A601F6
:1050800023E088E10E9468274091A7015091A80180
:105090006091A9017091AA0123E089E10E9468272B
:1050A0006091AB017091AC018AE10E948F27409121
:1050B000AD015091AE016091AF017091B00123E05C
:1050C0008BE10E9468274091990150919A0160916B
:1050D0009B0170919C0120E08EE10E946827409125
:1050E0009D0150919E0160919F017091A00120E06F
:1050F0008FE10E9468276091A1016695617070E060
:1051000080E20E948F27D4E6F12C0CE411E084E0C9
:10511000E82EED0ECD2F82E0F81691F0E3E0FE16BA
:10512000E9F0F1E0FF1631F0F80140815181628130
:1051300073811AC0F801408951896289738914C04A
:1051400020E030E041E655E4F80160A171A182A1C0
:1051500093A10E947543AB01BC0106C0F80140A9B0
:1051600051A962A973A9705823E08C2F0E94682767
:105170000C5F1F4FCF5FCE11CECFD65FF394DC38DC
:1051800021F6DF91CF911F910F91FF90EF9008953D
:10519000811104C085E893E00C948C300C94AA270C
:1051A0000F931F93CF938C01C0E0F801619171912F
:1051B000819191918F010E945730C33019F08CE298
:1051C0000E944C27CF5FC43081F7CF911F910F9180
:1051D00008958AE893E00C948C308DE50E944C276A
:1051E0000C94F40F1F920F920FB60F9211242F936D
:1051F0003F934F935F936F937F938F939F93AF935F
:10520000BF93EF93FF9380B140913B01942F917135
:1052100009F04EC0807690E025E0959587952A9517
:10522000E1F720910201022E000C330B28173907F9
:1052300009F43EC0809302016091000120910101B8
:1052400031E0009709F030E051E0223009F050E001
:1052500021E0633009F020E0252351F0332341F0B1
:10526000209106012F5F2093060121E02093070182
:10527000609100012091010151E0213009F050E0DE
:1052800021E0633009F020E0252351F0332341F081
:105290002091060121502093060121E0209307016F
:1052A0009091010190930001809301018091070189
:1052B00080B18771873159F0413049F080913E09C2
:1052C000811105C00E94493581E00E94B316FF910B
:1052D000EF91BF91AF919F918F917F916F915F916E
:1052E0004F913F912F910F900FBE0F901F901895E7
:1052F00090B197718091A10186FD02C087E1982746
:10530000992351F0892F817091FD826092FD846014
:10531000907119F08860089580E008952F923F926F
:105320004F925F926F927F928F929F92AF92BF92B5
:10533000CF92DF92EF92FF920F931F93CF93DF9361
:10534000CDB7DEB7A6970FB6F894DEBF0FBECDBFC0
:1053500090913C019111BFC18AA33E0121E1620EEF
:10536000711C89E0D3011D928A95E9F786E0898F47
:105370009CE7A92E91E0B92EFE017A964F0100E03C
:1053800010E0C12CD12C76013AA1232F30E039A3B3
:1053900028A3902F0115110531F0013031F00230B2
:1053A00031F080E405C081E003C084E001C080E109
:1053B000D4018D934D01E8A1F9A102C0F595E795BF
:1053C0009A95E2F7E0FF17C020E030E040EC5FEB99
:1053D000D5016D917D918D919C910E94CD451B01D0
:1053E0002C019B01AC01C701B6010E948D45181626
:1053F00014F0610172010F5F1F4FB4E0AB0EB11CDE
:105400000430110531F68090A7019090A801A0907A
:10541000A901B090AA0104E011E06AE171E0CE01B7
:1054200001960E9407178091A201E82FF0E0FCA3EB
:10543000EBA3FE0131962AE131E03F8F2E8F3EA390
:105440002DA320E030E060E090E01601270157FA3C
:10545000509457F8509448A159A1022E02C0559576
:1054600047950A94E2F740FF29C06F5FADA1BEA146
:105470001D921D921D921C9213974BA15CA1022EAE
:1054800002C0559547950A94E2F740FF03C01123E7
:1054900019F007C0112329F0C082D182E282F38281
:1054A00004C020823182428253824AE150E04C0F94
:1054B0005D1F420F531FDA018C91982B2F5F3F4FD6
:1054C00034964DA15EA14C5F5F4F5EA34DA3243087
:1054D000310509F6F92E70E080E090E00E941D444D
:1054E0000E946C469B01AC01F0924101C501B401E0
:1054F0000E94CD45698B7A8B8B8B9C8BB301CE013F
:1055000001960E94423154E050933F010E949B1744
:105510000E949E221123E9F00E947829FE017A96CA
:1055200020E030E090E06191462F4F2159F0AC012E
:10553000022E02C0559547950A94E2F740FF02C03B
:105540006095F6222F5F3F4F2430310561F7F092CE
:1055500041010E949B1780913D09847339F1F090BD
:105560003D09F4FE03C086E00E94B316F5FE03C0B9
:1055700087E00E94B316111107C00E9478299AA1F2
:10558000892339F088E003C0F2FE03C089E00E945D
:10559000B31680913E09882329F00E9449350E9464
:1055A0004A1499C084E00E94B91604C08F2D8575F5
:1055B00009F0B0CF0E94BA1F8091AB019091AC016D
:1055C0000E940D35A1E01A27C9F020E030E040EA42
:1055D00050E46091AD017091AE018091AF01909166
:1055E000B0010E94CD456B017C018090A301909099
:1055F000A401A090A501B090A60110C0C090AD017B
:10560000D090AE01E090AF01F090B0018090A70182
:105610009090A801A090A901B090AA01015009F0B2
:10562000FCCEC090A201D12C8090AD019090AE0133
:10563000A090AF01B090B0012401350177FA7094C9
:1056400077F870948CE4E82E81E0F82E00E010E00A
:1056500088A199A1002E02C0959587950A94E2F73A
:1056600080FF29C0C601002E02C0959587950A9437
:10567000E2F7F70180FF0EC020A931A942A953A982
:10568000C501B4010E947642D7012D913D914D9103
:105690005C9106C02081318142815381C301B201F6
:1056A0000E94CD450E949A45AE8DBF8D6D937D932E
:1056B0008D939C9313970F5F1F4FEE8DFF8D349644
:1056C000FF8FEE8FF4E0EF0EF11C0430110509F0AE
:1056D000BFCF10923F01A6960FB6F894DEBF0FBE63
:1056E000CDBFDF91CF911F910F91FF90EF90DF9091
:1056F000CF90BF90AF909F908F907F906F905F9072
:105700004F903F902F90089581B1887E81B982B1EA
:10571000876182B98091A10183FF0BC080916B00EA
:10572000876180936B00809168008160809368003E
:10573000089580916B00887E80936B00089580911E
:105740000401909105010196909305018093040155
:105750008091480290914902009741F120913B01CC
:10576000211124C00197C9F480918F018F3F21F44A
:1057700090913E09992329F090E00E940D3581E037
:1057800001C080E09091A10192FF02C091E08927C1
:10579000882311F05D9A01C05D9880914802909134
:1057A00049020197909349028093480290913B01EE
:1057B00020910401309105018091030190FF0BC0FD
:1057C0002B3C384098F0809580930301109205019E
:1057D000109204010BC02938334150F0809580931A
:1057E0000301109205011092040102C021E001C0E2
:1057F00020E094FD246080910301822392FD826069
:1058000093FD826095FD82602091B00027FF02C069
:105810002BB1906890939D0A90910901911102C05B
:1058200080610BC0913011F4806207C0923011F496
:10583000806403C0933009F480689091080191114D
:10584000886080939B0A80910A0180939C0A089546
:10585000CF93DF930E949F2B0E946D24C0E0D0E085
:10586000CE010E947F230E944A1483E090E00E94B0
:105870000D352196C430D10599F7DF91CF91089568
:10588000CF92DF92EF92FF926091790070E080E01A
:1058900090E00E941D4420E030E040EA51E40E9484
:1058A00076429B01AC010E94CD4520E030E842EAFF
:1058B00053E40E9475430E943A466B017C0120E04C
:1058C00030E040E85FE30E946B4387FD06C0C701FC
:1058D000B6010E94EE43862F01C081E0FF90EF9059
:1058E000DF90CF9008956AE171E089EC91E00C942B
:1058F0000717F894F999FECF92BD81BD81E08FBB67
:1059000080B58627482F082E000C550B262F30E037
:1059100024233523232B39F06F3F19F060BD84E039
:1059200006C084E104C0882321F060BD84E28FBBFF
:10593000F99A789408958F929F92AF92BF92CF92E6
:10594000DF92EF92FF920F931F93CF937C014A0156
:105950006B01C40ED51E8B01C0E05C01A61AB70A0C
:10596000C8018A0D9B1D0C151D0599F0C11108C0B9
:105970002C2FCC0F330B232F221F2227221F01C0D5
:1059800021E0F80161918F01C22FC60F0E94792C8E
:10599000E7CF6C2FC701880D991DCF911F910F91F3
:1059A000FF90EF90DF90CF90BF90AF909F908F903F
:1059B0000C94792CF999FECF92BD81BD81E08FBB0B
:1059C00080B508958F929F92AF92BF92CF92DF924F
:1059D000EF92FF920F931F93CF934B017A016C01CB
:1059E000C40ED51E8C01C0E05B01A81AB90AC5011E
:1059F000800F911F0C151D0599F00E94DA2CC11122
:105A000008C02C2FCC0F330B232F221F2227221F3D
:105A100001C021E0C22FC80FF80181938F01E7CFA9
:105A2000C4018E0D9F1D0E94DA2C21E030E0C817C2
:105A300011F020E030E0C901CF911F910F91FF904C
:105A4000EF90DF90CF90BF90AF909F908F90089590
:105A50005D985D9880914702837F80934702109202
:105A60004302109244020C946D24CF9390913C0118
:105A7000911175C0C82F811103C00E94282D6BC0E1
:105A800086FF09C05D9A8091470284608093470237
:105A900081E080934402C7FF09C05D9A809147026C
:105AA00088608093470281E0809343020E946D24C6
:105AB000CA3049F48091470280618093470281E0B7
:105AC0008093420248C0CB3041F4809147028F7EE0
:105AD00080934702109242023EC0C43049F4809144
