:100000000C940D020C941F020C941F020C941F02FE
:100010000C944E310C9468120C941F020C941F0225
:100020000C941F020C941F020C941F020C941F02CC
:100030000C941F020C940C1B0C941F020C941F02B6
:100040000C94861A0C941F020C94951A0C941F029F
:100050000C9413270C94A1270C941F020C941F02DC
:100060000C941F020C941F020C941F020C941F028C
:100070000C941F020C941F020C941F02A63DAC3D71
:10008000AF3DB23DB73DBF3DC73D623E623E623EC1
:10009000D43DD73DE03DE93D623E623E623E623E78
:1000A000623E623EF53DFF3D0B3E133E163E1F3E57
:1000B000283E2E3E623E623E373E403E4B3EEB03C4
:1000C000ED03F103F303F503F803FA03BE04F20FA3
:1000D000F20F2604F20FF20F30043D044A045704D5
:1000E000F20F5B04F20F6904F20F73047D048704BE
:1000F000F20FF20FF20F9704A404B1045227542711
:100100008F278F278F278F278F278F278F278F273F
:100110008F278F275A275C275E276027622764274F
:10012000662768278F276C276E277027722774270A
:1001300076278F2778277A27084AD73B3BCE016E50
:1001400084BCBFFDC12F3D6C74319ABD56833DDA2E
:100150003D00C77F11BED9E4BB4C3E916BAAAABE3D
:10016000000000803F05A84CCDB2D44EB93836A966
:10017000020C50B9918688083CA6AAAA2ABE0000A3
:1001800000803F000D0A4772626C20312E316632CA
:10019000205B27242720666F722068656C705D0DD8
:1001A0000A005B4D53473A5A65726F416C6C2C44A0
:1001B00049414C5D0D0A005B4D53473A5A65726FD9
:1001C000582C50414E454C5D0D0A005B4D53473A4B
:1001D0005A65726F592C50414E454C5D0D0A005BBB
:1001E0004D53473A5A65726F5A2C50414E454C5DFB
:1001F0000D0A005B4D53473A5A65726F416C6C2C87
:1002000050414E454C5D0D0A00244E002C435F4189
:10021000584953002C4A4F47504144002C535049F1
:100220005F44495350002C5350495F5352002C41B6
:10023000544D454741363434005B4F50543A005BCF
:100240005645523A312E3166322C4255494C443A89
:1002500030342E30332E32303137005B544C4F3A2D
:10026000005B4739323A003330003238005B4700D8
:10027000204700204D00205300204600205400332A
:10028000382E005B47433A47005B484C503A2424E1
:1002900020242320244720244920244E2024783D54
:1002A00076616C20244E783D6C696E6520244A3D51
:1002B0006C696E652024534C502024432024582020
:1002C0002448207E2021203F206374726C2D785DAD
:1002D0000D0A00536C656570696E67005265737432
:1002E0006F72696E67207370696E646C6500526529
:1002F00073746F72696E672064656661756C747380
:100300000050676D20456E6400436865636B204C48
:10031000696D69747300436865636B20446F6F7225
:100320000044697361626C656400456E61626C656E
:10033000640043617574696F6E3A20556E6C6F632B
:100340006B656400272448277C2724582720746F76
:1003500020756E6C6F636B00526573657420746FEB
:1003600020636F6E74696E7565005B4D53473A008C
:100370006F6B0D0A00414C41524D3A007C413A00EE
:100380007C4F763A007C46533A007C57434F3A0004
:100390007C5352696E3A007C506E3A007C42663A59
:1003A000007C57506F733A007C4D506F733A005386
:1003B0006C65657000446F6F723A00436865636BEB
:1003C00000416C61726D00486F6D65004A6F670097
:1003D000486F6C643A0052756E0049646C65005A4F
:1003E00065726F5A005A65726F59005A65726F587C
:1003F000005A65726F416C6C000102030508102001
:10040000304050607890B0D0F00D0A005B505242FE
:100410003A006572726F723A000011241FBECFEF6E
:10042000D0E1DEBFCDBF28E0A0E0B1E001C01D9269
:10043000A932B207E1F70E9463360C944A450C9446
:1004400000002F923F924F925F926F927F928F9215
:100450009F92AF92BF92CF92DF92EF92FF920F9353
:100460001F93CF93DF93CDB7DEB7C055D1090FB639
:10047000F894DEBF0FBECDBF82E4E6E0F2E0DF011C
:100480001D928A95E9F78BE0EAEBF1E0A7E0B2E094
:1004900001900D928A95E1F78091D907843211F08D
:1004A0000C94161081E0809307021092080283E0FA
:1004B0008E8FB1E0BFA3212C312C1CAA1BAA1DA634
:1004C0001F8E1BA267E0962E01E07AE0C72ED12C8A
:1004D000EAE08E2EF1E6AF2EF3E0BF2E8E8DE82FF0
:1004E000F0E0E752F84FE080EE2009F479C29FEB8C
:1004F0009E0D9A3110F00C94E20F8F5F8E8FBE012B
:10050000665E7F4FCE014E960E94B235882311F46D
:100510000C94E40F4A8C5B8C6C8C7D8CC301B20113
:100520000E9417450E945542162F70E080E090E02F
:100530000E9486429B01AC01C301B2010E94DC40D3
:1005400020E030E048EC52E40E9434440E94A14490
:100550000E945542CB01E7E4EE1629F0FDE4EF16C8
:1005600009F4EAC062C1183209F4C5C020F514319B
:1005700068F4113108F08AC0143009F452C008F44C
:1005800064C01A3009F445C00C94F20F1C3109F410
:1005900040C050F4163110F00C94F20F25E1211BED
:1005A0002093090226E0ACC01E3199F1163209F4FD
:1005B0004CC00C94F20F1D3309F497C0A8F4153306
:1005C00081F140F41B3209F47AC0113309F477C089
:1005D0000C94F20F1C3310F00C94F20F6AEC610FC4
:1005E00060930D0229E08CC01C3538F41A3508F0F0
:1005F00053C0103581F10C94F20F1C3551F01F35AA
:1006000010F00C94F20F2EE5211B2093080225E038
:1006100077C0009731F42BA121110C94E60F31E043
:100620003BA310930602212F2D7F2C3119F01C358E
:1006300009F063C0009721F00A9711F00C94F20FB3
:10064000610F6093060220E060C06BA161110C9401
:10065000E60FA2E0ABA310930702163209F04FC0D9
:100660008431910559F08E31910541F08832910520
:1006700029F08233910511F00C94F20FB6010E941B
:10068000864066576093070221E03FC06FEE610F1E
:1006900060930B0222E034C0892B31F466EA610FCB
:1006A00060930A0223E031C06A30710511F00C94A6
:1006B000F20F1A3511F40C94F20F24E026C0BBA1FE
:1006C000B1110C94E60F113331F410920C0228E0B2
:1006D000E3E0EBA31AC00A9711F00C94F20F009319
:1006E0000C0228E0F3E0FBA310C0892B11F00C945E
:1006F000F20F2AE00AC027E003C020E001C021E099
:10070000892B19F087E10C941A1081E090E002C067
:10071000880F991F2A95E2F72BA93CA92823392392
:10072000232B19F085E10C941A102BA93CA9282B36
:10073000392B3CAB2BABD2CE892B21F71A3040F4AE
:10074000173060F5133078F01630D0F00C94F20FBB
:100750001E3199F010F40C94F20F8CE9810F88305F
:1007600058F10C94F20F112321F0113009F447C015
:1007700004C033E030930E0242C010930E023FC01B
:10078000143021F0153031F080E101C080E2809317
:10079000100202C0109210028CE032C0183021F01A
:1007A000193031F080E801C080E480930F0202C06C
:1007B00010920F028DE024C0812F90E0FC01E556DD
:1007C000F109E730F10520F4E15AFF4F0C94BC40E9
:1007D00080920F0212C08BE00EC064E060930F02A3
:1007E0000CC085E008C086E006C090920F0205C0EC
:1007F00088E001C089E080930F028EE001C08BE0A9
:10080000A1E0B0E002C0AA0FBB1F8A95E2F72BA9B6
:100810003CA92A233B23232B09F084CFEBA9FCA975
:10082000EA2BFB2BFCABEBAB59CE8E2DEE0C990BD0
:10083000AA0BBB0BFC01E354F109E831F10510F000
:100840000C94F20FEA59FF4F0C94BC4040921202F4
:1008500050921302609214027092150280E09AC0C6
:10086000409216025092170260921802709219027A
:10087000FDA5F160FDA781E08DC040921A02509263
:100880001B0260921C0270921D022DA522602DA7F2
:1008900082E080C040921E0250921F0260922002AD
:1008A000709221023DA534603DA783E073C0109390
:1008B000260284E06FC0C301B2010E944E426093E1
:1008C0002702709328028093290290932A0285E0E0
:1008D00061C040922B0250922C0260922D027092C5
:1008E0002E0286E057C040922F0250923002609252
:1008F00031027092320287E04DC040923302509232
:100900003402609235027092360288E043C020E0E3
:1009100030E04FE753E4C301B2010E94F4431816DC
:1009200014F40C94E80F1093370289E033C040921E
:1009300038025092390260923A0270923B026F8DF7
:1009400061606F8F8AE026C040923C0250923D0267
:1009500060923E0270923F028F8D82608F8F8BE09B
:1009600019C040924002509241026092420270923D
:1009700043029F8D94609F8F8CE00CC04092440294
:10098000509245026092460270924702AF8DA86075
:10099000AF8F8DE0EE24E394F12C082E02C0EE0C14
:1009A000FF1C0A94E2F7970122213321232B11F037
:1009B0000C94EA0FF50102C0F595E7958A95E2F7E8
:1009C000E0FF0BC020E030E0A901C301B2010E94AA
:1009D000D24187FF02C00C94EC0F2E283F287ECD19
:1009E000FF8DFF2329F02BA1211102C032E03BA390
:1009F00025FE0FC08091270290912802A091290224
:100A0000B0912A0281389649A849B10514F00C9496
:100A1000EE0F8FA1882301F120FC02C00C94F80F87
:100A200080910902813009F03FC023E333E34BECAE
:100A300051E460911202709113028091140290911E
:100A400015020E9434446093120270931302809343
:100A500014029093150228C080910802813071F42D
:100A60009BA1923009F5809107028035E9F0882337
:100A7000D9F020FC02C00C94F80F16C08091BB0185
:100A8000811112C020FCCCCF8091C9019091CA0184
:100A9000A091CB01B091CC018093120290931302EC
:100AA000A0931402B093150230FC10C08091C501D0
:100AB0009091C601A091C701B091C8018093330203
:100AC00090933402A0933502B093360280910602CF
:100AD000843039F426FC03C08CE10C941A10E8949D
:100AE00026F880910B02882391F0813041F4A1E037
:100AF0002296AFAF22971DAEB2E0BBAF0FC02296D9
:100B00001FAE2297E2E0EDAFF1E0FBAF07C022E0BD
:100B100022962FAF229731E03DAF1BAE80910902A4
:100B2000813021F06BA16330A9F52BC048E3E42E9E
:100B300042E0F42E00E010E08F8DC82ED12CC601CB
:100B4000002E02C0959587950A94E2F780FF10C0A9
:100B500023E333E34BEC51E4D7016D917D918D910B
:100B60009C910E943444F701608371838283938354
:100B70000F5F1F4FF4E0EF0EF11C04301105F9F682
:100B8000D1CF80910C02813029F42F8D243011F0C7
:100B90000C94F00F80E1E2EEF1E0DE01119601909D
:100BA0000D928A95E1F78BA99CA991FD09C09091BE
:100BB00006029BA79A30C9F09C3509F4B2C013C154
:100BC00080910D02873018F08DE10C941A109091ED
:100BD000C001981761F3BE016F5F7F4F0E947C25B3
:100BE000882311F40C940610E2CFAF8DA11103C03D
:100BF0008AE10C941A10C10180759927892B09F498
:100C00006BCF60912B0270912C0280912D029091FC
:100C10002E020E9417450E9455426730A8F6809127
:100C20002602843141F0823011F00C94F20F27FE3D
:100C300002C00C94F20FBFEA2B22662319F0615018
:100C400069AB03C0E0910D02E9AB66E172E089A9EE
:100C50000E947C25882311F40C94061080902602B3
:100C600040900202509003026090040270900502CE
:100C700006E012E03AEBC32E31E0D32EE12CF12C4A
:100C8000FF8DAF2EB12CC5010E2C02C09595879516
:100C90000A94E2F780FF37C024E182122BC0D6010C
:100CA000D8962D913D914D915C91DB9758966D9121
:100CB0007D918D919C915B970E94DC40F80122A967
:100CC00033A944A955A90E94DC40D80150966D93E0
:100CD0007D938D939C935397B2E0EB16F10499F4B6
:100CE000A30192010E94DC40F801608B718B828B22
:100CF000938B09C0F80182A993A9A4A9B5A9808BF7
:100D0000918BA28BB38BFFEFEF1AFF0A0C5F1F4F83
:100D100024E0C20ED11C34E0E316F10409F0B3CF95
:100D20002EC16F8D662309F463CF4090020250906C
:100D30000302609004027090050208E312E0C12CE7
:100D4000D12CE12CF12CA62EB12CF601E654FE4F4D
:100D5000C5010E2C02C0959587950A94E2F780FF95
:100D60002BC0A1E0B0E0AC0FBD1FAC0DBD1D2D919F
:100D70003D914D915C91608D718D828D938D0E941E
:100D8000DC40D8012D913D914D915C910E94DC4059
:100D9000F8016083718382839383F2E0EF16F1049C
:100DA000A1F4A30192010E94DC40D8016D937D93D0
:100DB0008D939C93139709C080AD91ADA2ADB3AD57
:100DC000F80180839183A283B383FFEFEF1AFF0AB8
:100DD00024E0C20ED11C0C5F1F4F34E0E316F10477
:100DE00009F0B3CFCBC06BA1633071F48BA58E310A
:100DF00009F48AC0853309F4BBC08C3109F0BEC048
:100E000066E172E086E083C09F8D992379F3A0911B
:100E10000A02A9AB409002025090030260900402C3
:100E2000709005022AEBC22E21E0D22E08E312E0D8
:100E3000FE0131964F01E12CF12CA92EB12CC501F8
:100E40000E2C02C0959587950A94E2F780FD0BC0A1
:100E5000F601808D918DA28DB38DF80180839183F1
:100E6000A283B38340C0FBA5F533E9F129A9211181
:100E700029C0D601D8962D913D914D915C91DB977B
:100E8000F40160817181828193810E94DD40D801EB
:100E90002D913D914D915C910E94DD40F801608360
:100EA000718382839383F2E0EF16F104E1F4A301EE
:100EB00092010E94DD40D8016D937D938D939C93A8
:100EC000139711C0F601208D318D428D538DD801BD
:100ED0006D917D918D919C910E94DD40F801608320
:100EE000718382839383FFEFEF1AFF0A24E0C20E1F
:100EF000D11C0C5F1F4F34E0830E911C64E0E6169A
:100F0000F10409F09CCF72CF66E172E087E00E94A5
:100F10007C25882311F40C9406108F8D811103C059
:100F200019AA1BA22CC020E030E080E090E0AF8D39
:100F30004A2F50E0BA01082E02C0759567950A94B1
:100F4000E2F760FD0EC0F901E654FE4FC08CD18C73
:100F5000E28CF38CF901EA5FFD4FC08AD18AE28A04
:100F6000F38A01962C5F3F4F8430910519F706C034
:100F700080910702823010F00C94F40F19AAB091FE
:100F80000702BBA7B03529F4EF8DE1110C94F60FE1
:100F90007BC2FBA1F23009F077C22BA5211104C05E
:100FA0003F8D311171C22BC020E030E0A90160916A
:100FB00012027091130280911402909115020E9406
:100FC000D241882311F40C94F80F6BA56C3809F406
:100FD00045C240F46230A9F06330B1F0613009F0ED
:100FE00053C20AC08BA58E3809F438C208F433C244
:100FF0008F3809F430C248C29F8D911145C21BA29F
:1010000043C2AFA1A460AFA3BF8DBB2309F4F0CD51
:10101000EBAD0E2F10E03DAD232F30E038AF2FABFE
:1010200081E090E07C010DAC02C0EE0CFF1C0A9444
:10103000E2F702C0880F991FEA95E2F7E82AF92A39
:101040008B2F90E08E219F21892B09F4D3C7F801C3
:10105000EE0FFF1FEE0FFF1FEA5FFD4FD801AA0F33
:10106000BB1FAA0FBB1FAE52BE4F2D913D914D919C
:101070005C9162A973A984A995A90E94DC402B0107
:101080003C01EFA9F8ADEE0FFF1FEE0FFF1FEA5F67
:10109000FD4FAFA9B8ADAA0FBB1FAA0FBB1FAE5221
:1010A000BE4F2D913D914D915C9162A973A984A988
:1010B00095A90E94DC404B015C01610160E8C622F9
:1010C000DD2427FEF5C0E89427F840E150E068E30E
:1010D00072E082ED91E00E943D45892B11F481E29E
:1010E000A9C7809109028130B1F423E333E34BECCB
:1010F00051E460912F027091300280913102909101
:1011000032020E94344460932F0270933002809325
:1011100031029093320280912F0290913002A0917F
:101120003102B09132028DA79EA7AFA7B8ABA30141
:101130009201C301B2010E94344429966CAF7DAF85
:101140008EAF9FAF2997A5019401C501B4010E94FC
:1011500034442D966CAF7DAF8EAF9FAF2D9720E0BE
:1011600030E040E850E46DA57EA58FA598A90E94C7
:1011700034442DA53EA54FA558A90E943444299674
:101180002CAD3DAD4EAD5FAD29970E94DC402D9654
:101190002CAD3DAD4EAD5FAD2D970E94DC406B0197
:1011A0007C0120E030E0A9010E94D24187FD24C7E4
:1011B000C701B6010E94D3446B017C012D962CAD72
:1011C0003DAD4EAD5FAD2D9729966CAD7DAD8EAD2D
:1011D0009FAD29970E94DD400E94D3449B01AC0142
:1011E000C701B60190580E94DC416B017C019BA5B0
:1011F000933021F4F7FAF094F7F8F09420E030E01F
:10120000A9016DA57EA58FA598A90E94D24187FF4F
:1012100011C0F7FAF094F7F8F0948DA59EA5AFA54C
:10122000B8A9B05880932F0290933002A093310256
:10123000B0933202000F111F000F111F0A5E1D4FE5
:10124000A7019601C501B4010E9434449B01AC0181
:10125000C301B2010E94DC4020E030E040E05FE3E7
:101260000E943444D8016D937D938D939C93139782
:101270000FA918AD000F111F000F111F0A5E1D4F9F
:10128000A7019601C301B2010E9434449B01AC0145
:10129000C501B4010E94DD4020E030E040E05FE3A2
:1012A0000E943444F8016083718382839383ECC08D
:1012B0003DA5232F30E03EA72DA7E222F322EF2801
:1012C00009F49CC661EF262280910902813009F45D
:1012D0007AC0F801EE0FFF1FEE0FFF1FEA5EFD4F11
:1012E000C080D180E280F380A7019601C301B201E2
:1012F0000E94DC402B013C01EFA9F8ADEE0FFF1F6F
:10130000EE0FFF1FEA5EFD4F80819181A281B381C4
:101310008DA79EA7AFA7B8AB9C01AD01C501B401D5
:101320000E94DC404B015C01A3019201C301B201A8
:101330000E9434442B013C01A5019401C501B40174
:101340000E9434449B01AC01C301B2010E94DD4004
:101350000E94D3444B015C01A7019601C701B6016D
:101360000E9434446B017C012DA53EA54FA558A9D0
:10137000CA01B9010E9434449B01AC01C701B60106
:101380000E94DD400E94D3446B017C0160932F02D8
:101390007093300280933102909332029B01AC0132
:1013A000C501B4010E94DC404B015C01E894B7F830
:1013B0002AE037ED43EA5BE3C501B4010E94F44340
:1013C000181664F161C096E0E92E92E0F92E8DA521
:1013D0009EA50C2C02C0959587950A94E2F780FF94
:1013E00012C023E333E34BEC51E4D70150966D91E7
:1013F0007D918D919C9153970E943444F701608BAD
:10140000718B828B938BFFEFCF1ADF0A24E0E20E01
:10141000F11C34E0C316D104D1F65BCF20E030E0FC
:1014200040E05FE3C501B4010E94F44318160CF4D8
:1014300056CE2FE632E143E85AE3C701B6010E94D7
:1014400034449B01AC01C501B4010E94F443181659
:101450000CF445CE19C06FA160616FA38BA58E58A7
:10146000823018F48FA188608FA39F8D992309F48F
:10147000BFCB40E150E068E372E082ED91E00E9472
:101480003D45892B09F42BCE2FA12170AFA1C101BD
:10149000A0FF02C08E7D02C08E7D9C7FBBA1B111DA
:1014A000937C892B09F0ACC58E010F5E1F4F89E03C
:1014B000F80111928A95E9F7222309F44AC08BA911
:1014C0009CA9867B892B09F09DC5809106028533F6
:1014D00011F0811197C58091C5019091C601A0912D
:1014E000C701B091C8018D8B9E8BAF8BB88F909147
:1014F000C2018091C301892B898F80911202909142
:101500001302A0911402B0911502898B9A8BAB8BB8
:10151000BC8B8091AA0185FF06C088E392E00E94FF
:10152000A511811171C5B80188E392E00E94FD30D8
:101530008091440181116CC50E947E30892B09F491
:1015400067C580E2809344010E94A0120E94BD1DE5
:101550005FC58091AA01F090C30181FF26C09BA5C1
:101560009150933018F0FFA1F064FFA32F8D222338
:1015700039F03BA1323021F46FA160686FA315C030
:1015800080E1F81212C09091BA0191508FA180743D
:10159000933030F4882349F09FA190629FA305C047
:1015A000811103C0AFA1A062AFA3809127029091E7
:1015B0002802A0912902B0912A028093CE01909333
:1015C000CF01A093D001B093D10180910802809304
:1015D000BB01882311F088E0898F809112029091DD
:1015E0001302A0911402B09115028093C901909347
:1015F000CA01A093CB01B093CC01898B9A8BAB8BA2
:10160000BC8B8090330290903402A0903502B09051
:101610003602A50194016091C5017091C6018091C7
:10162000C7019091C8010E94D241BFA1B074EB2EB6
:10163000811103C0EFA1E5FF20C0FF2071F0FFA1E1
:10164000F7FD0BC0EE2021F040E050E0BA0102C0EF
:10165000B501A4018F2D0E94284080913302909102
:101660003402A0913502B09136028093C501909367
:10167000C601A093C701B093C801E1100CC08091CE
:10168000C5019091C601A091C701B091C8018D8B91
:101690009E8BAF8BB88F809137028093CD01809164
:1016A00010029091C301981751F04D895E896F899E
:1016B000788D0E942840809110028093C301998DFB
:1016C0008091C301892B898F80910F029091C20173
:1016D0009817D1F090914401923051F061968FAFFC
:1016E00061970E94B32361968FAD61970E943A354E
:1016F00080910F02811103C01092C20105C0909128
:10170000C201892B8093C201998D8091C201892BDE
:10171000898F80910602843049F560912B02709187
:101720002C0280912D0290912E02209144012230B2
:10173000E9F02E966FAF2E972F967FAF2F97619679
:101740008FAF619760969FAF60970E94B32340E090
:101750002E966FAD2E972F967FAD2F9761968FADFA
:10176000619760969FAD60970E94AA3080910B02AE
:101770008093BE01809109028093BC012BA123308C
:1017800071F580910C028093BF01811108C0109205
:101790004002109241021092420210924302C09005
:1017A0004002D0904102E0904202F0904302A70133
:1017B000960160910202709103028091040290915F
:1017C00005020E94D241882351F0C0920202D092B9
:1017D0000302E0920402F09205020E9454128091EA
:1017E0000D029091C001981769F08093C00180E1CB
:1017F000FE013196A2EEB1E001900D928A95E1F7DB
:101800000E94541280910A028093BD0180910602C9
:101810008632F1F138F48C3109F18E31F9F08A30E9
:1018200069F04FC08C35D1F1863609F441C0883259
:1018300009F047C062ED71E087E02DC066E172E01B
:1018400089A90E9460258091C00139A9831339C0FC
:1018500080E1E6E1F2E0A2EEB1E025C0898D816091
:10186000898F6BA1662329F0B80188E392E00E947A
:10187000FD30B80186E192E00E94FD3080E1E6E1B2
:10188000F2E0A2EDB1E001900D928A95E1F719C066
:1018900062ED71E086E00E94602513C080E1E8E31C
:1018A000F2E0A2EFB1E001900D928A95E1F707C056
:1018B00080E1E2EFF1E0DF011D928A95E9F70E94F5
:1018C0005412809107028093BA01803509F42CC329
:1018D000BBA1B23009F028C3813021F4BE016F5E94
:1018E0007F4F06C0811109C0898D8160898FB80141
:1018F00088E392E00E94FD300EC38250823008F0EF
:10190000A3C280912F0290913002A0913102B09138
:1019100032028BA39CA3ADA3BEA3ABAD94E0A99F61
:1019200070011124F701EE52FE4FFCA7EBA79701BF
:101930002A5E3D4F3AAB29ABD9014D905D906D9039
:101940007C902081318142815381C301B2010E9488
:10195000DD406BAB7CAB8DAB9EABEDADB4E0EB9FF4
:101960008001112498012E523E4F3EA72DA7C80199
:101970008A5E9D4F9CAF8BAFDC018D909D90AD90AA
:10198000BC90F9012081318142815381C501B401AC
:101990000E94DD4021966CAF7DAF8EAF9FAF219747
:1019A00077FA709477F87094D501C401B0588F8F8E
:1019B00098A3A9A3BAA3F701E85CFD4F2BA93CA902
:1019C0004DA95EA960817181828193810E94DC4072
:1019D0006B017C01F801E85CFD4F21962CAD3DAD1B
:1019E0004EAD5FAD219760817181828193810E94AC
:1019F000DC404B015C01A7019601C301B2010E94CA
:101A000034446FAB78AF89AF9AAFA50194016F8D65
:101A100078A189A19AA10E9434449B01AC016FA9CD
:101A200078AD89AD9AAD0E94DD406FAB78AF89AFDC
:101A30009AAFA5019401C301B2010E9434444B0145
:101A40005C01A70196016F8D78A189A19AA10E94DE
:101A500034449B01AC01C501B4010E94DC402FA9B4
:101A600038AD49AD5AAD0E945C416B017C019FA12C
:101A700092FF13C02DEB37E346E055EBC701B601EB
:101A80000E94F44387FD1DC02BED3FE049EC50E47C
:101A9000C701B6010E94DC4012C02DEB37E346E0DF
:101AA00055E3C701B6010E94D241181654F02BED40
:101AB0003FE049EC50E4C701B6010E94DD406B01F4
:101AC0007C0180909E0190909F01A090A001B09019
:101AD000A1012BA13CA14DA15EA1CA01B9010E94A7
:101AE000DD40A50194010E94DC409B01AC01C501D1
:101AF000B4010E9434440E94D3444B015C0120E0B5
:101B000030E040E05FE3C701B6010E9434442BA1FE
:101B10003CA14DA15EA10E9434449F77A501940190
:101B20000E94DC410E94C1420E94554278AF6FABD7
:101B3000DB01AB2B09F4D2CE198D4B01A12CB12CBA
:101B400013FF12C0C501B4010E9484429B01AC0185
:101B500069897A898B899C890E943444698B7A8B44
:101B60008B8B9C8B177F198FC501B4010E94844217
:101B70004B015C019B01AC01C701B6010E94DC4135
:101B80006FA378A789A79AA72296EFAD2297B4E012
:101B9000EB9FC00111248C010E521E4FFC01E85C2A
:101BA000FD4FD8012D913D914D915C9160817181E6
:101BB000828193810E94DC40A50194010E94DC4156
:101BC0002D966CAF7DAF8EAF9FAF2D972FA138A50F
:101BD00049A55AA5CA01B9010E9434449B01AC0130
:101BE00060E070E080E090E40E94DC406B017C01EA
:101BF0002BEA3AEA4AE25EE36FA178A589A59AA5A5
:101C00000E9434444B015C0120E030E040E850E4A5
:101C1000C701B6010E94DD409B01AC01C501B401C2
:101C20000E94344425966CAF7DAF8EAF9FAF259751
:101C300020E030E040E05FE3C701B6010E94344499
:101C400029966CAF7DAF8EAF9FAF29971BA2222440
:101C50002394312CEFA9F8AD2E163F0609F43ECEA1
:101C6000BBA1BC3008F048C029962CAD3DAD4EADAF
:101C70005FAD29976F8D78A189A19AA10E94344404
:101C80006B017C0125962CAD3DAD4EAD5FAD25972A
:101C9000C301B2010E943444A70196010E94DD40B5
:101CA0007B016C0129962CAD3DAD4EAD5FAD299702
:101CB000C301B2010E9434444B015C0125962CAD56
:101CC0003DAD4EAD5FAD25976F8D78A189A19AA1ED
:101CD0000E9434449B01AC01C501B4010E94DC4068
:101CE0002B013C01EBA1EF5FEBA3470156018F8E67
:101CF00098A2A9A2BAA265C0B10180E090E00E94BA
:101D000084422FA138A549A55AA50E9434446B01ED
:101D10007C010E94D7416F8F78A389A39AA3C70142
:101D2000B6010E94C5444B015C01A9A9BAA9CD9096
:101D3000DD90ED90FC90F7FAF094F7F8F094ABADED
:101D4000BCAD8D919D910D90BC91A02D8BA39CA3BA
:101D5000ADA3BEA32F8D38A149A15AA1C701B601D9
:101D60000E9434442B013C01A50194016BA17CA18C
:101D70008DA19EA10E9434449B01AC01C301B2011C
:101D80000E94DD402B013C01A5019401C701B60171
:101D90000E9434446B017C012F8D38A149A15AA1C6
:101DA0006BA17CA18DA19EA10E9434449B01AC013A
:101DB000C701B6010E94DC406F8F78A389A39AA364
:101DC0001BA2A30192016BA97CA98DA99EA90E94C7
:101DD000DD40EBA5FCA560837183828393832F8D07
:101DE00038A149A15AA121966CAD7DAD8EAD9FADB4
:101DF00021970E94DD40ADA5BEA56D937D938D9387
:101E00009C9313972D962CAD3DAD4EAD5FAD2D97A8
:101E1000F80160817181828193810E94DD40D80147
:101E20006D937D938D939C931397BE016F5E7F4F4F
:101E300082ED91E00E94FD308091450181116BC0DF
:101E4000BFEF2B1A3B0A06CF898D8460898F809162
:101E50004401823009F45FC00E94B32380914501A0
:101E6000811162C0FFA1F071FF2E109249012FA1D4
:101E700023FB882780F90E94C42380B18870909149
:101E80002201891749F084E00E948C110E94992256
:101E900080E00E94C42348C0B80188E392E00E9419
:101EA000FD3081E08093430182E00E949C110E94FA
:101EB000992280914501811137C08091440181119F
:101EC000F6CF80914301813081F4FF2051F080E111
:101ED000E3E2F1E0A3E3B1E001900D928A95E1F72E
:101EE00007C085E00E948C1103C081E08093490106
:101EF0001092430180E00E94C4230E9499220E9414
:101F0000D91A0E948E300E94352C0E945040809138
:101F10004901811188C080E1E8E3F2E0A2EDB1E07F
:101F200001900D928A95E1F780910E028093C10194
:101F3000882309F47FC00E94B3238091C10190914E
:101F40004401833041F49230D1F188E00E949C1129
:101F50000E94992234C081E08093BA011092BE01A0
:101F60001092BD011092BB011092C0011092C301EA
:101F70001092C20184E680934B0180934C018093C0
:101F80004D01923091F062EE71E080E00E947C257C
:101F90008823E1F10E94541240E050E0BA0180E051
:101FA0000E94E91D80E00E943A358AE693E00E9493
:101FB0001E2C81E093E00E941E2C0E946B1E10924A
:101FC000C1012FC081E036C082E034C088E132C058
:101FD00086E230C089E12EC084E02CC08BE12AC0AB
:101FE00085E228C084E126C08EE124C08FE122C0B2
:101FF00086E120C080E21EC082E21CC083E21AC0DB
:1020000084E218C080E116C08FE014C087E012C0DF
:1020100080E1E8E3F2E0A2EDB1E001900D928A9553
:10202000E1F780E007C00E9478347ECF1E8E1FA2A9
:102030000C945B02C05BDF4F0FB6F894DEBF0FBE9F
:10204000CDBFDF91CF911F910F91FF90EF90DF9067
:10205000CF90BF90AF909F908F907F906F905F9048
:102060004F903F902F9008958093B30081110DC041
:102070008091B0008F778093B00080914D028E7F69
:1020800080934D02109248020DC08091B00080688C
:102090008093B00080914D02816080934D0281E079
:1020A000809348020C94EC244F925F926F927F923F
:1020B0008F929F92AF92BF92CF92DF92EF92FF9258
:1020C000CF936B017C01C0914D018090A60190904F
:1020D000A701A090A801B090A9014090A201509042
:1020E000A3016090A4017090A501A3019201C50114
:1020F000B4010E94F44387FF1AC06C2F70E080E0A7
:1021000090E00E9486422AE037ED43E25CE30E94C1
:1021100034449B01AC01C701B6010E9434446B01F9
:102120007C01A30192010E94F44387FD0AC0409202
:1021300051015092520160925301709254018FEFFD
:1021400047C0A5019401C701B6010E94D2411816EB
:10215000E4F020E030E0A901C701B6010E94D241BD
:10216000811109C010925101109252011092530135
:10217000109254012DC08092510190925201A09270
:102180005301B092540181E023C0C0925101D0921A
:102190005201E0925301F0925401A5019401C7014C
:1021A000B6010E94DC402091490230914A024091E0
:1021B0004B0250914C020E9434440E94C14220E0E4
:1021C00030E040E85FE30E94DD400E945542862FE8
:1021D000CF91FF90EF90DF90CF90BF90AF909F9006
:1021E0008F907F906F905F904F90089580916B00DB
:1021F000887E80936B0084E00E94643283E00E94BA
:1022000064320E94992280914501811106C00E948A
:1022100078340E94352C0C94EA310895CF93DF93E3
:10222000C9EDD7E08991882319F00E94CB27FACF16
:10223000DF91CF910895CF93DF9321E5829FC00175
:102240001124EC01DD5F40E550E0BE0189ED97E02F
:102250000E94E734892B69F41092D9070E94B323B6
:1022600040E550E069ED77E0CE010E94A03480E0C7
:1022700001C081E0DF91CF910895CF93DF93C0E05B
:102280008C2F0E941B1181110EC01092D9078EE372
:102290000E94CB270E940E118AE30E94CB2787E081
:1022A0000E940E2812C08091D907882371F00E94E5
:1022B0002102D82F8EE30E94CB270E940E118AE3C1
:1022C0000E94CB278D2F0E942C29C13011F0C1E034
:1022D000D7CFDF91CF9108958FB7F8941092E5058D
:1022E0001092E4058FBF08952FB7F8949091E305FD
:1022F000892B8093E3052FBF08959FB7F8948093AF
:10230000E4059FBF08952FB7F8949091E505892BB8
:102310008093E5052FBF08959FB7F8948093E20559
:102320009FBF08952FB7F8949091E1058095892378
:102330008093E1052FBF08952FB7F8949091E105A0
:10234000892B8093E1052FBF08958F929F92AF92C2
:10235000BF92CF92DF92EF92FF920F931F93CF9392
:10236000DF93C090AB01D12C25E8E22E21E0F22EC4
:102370008C01C0E0D0E0C6010C2E02C09595879577
:102380000A94E2F7F80180809180A280B38020E077
:1023900030E0A90180FF15C0C501B4010E94D241FF
:1023A00087FD2CC0F70180819181A281B3819C01BE
:1023B000AD015058C501B4010E94F443181694F4BD
:1023C0001DC0C501B4010E94F4431816BCF0F7010A
:1023D0002081318142815381C501B4010E94D241E3
:1023E00087FD0CC02196F4E0EF0EF11C0C5F1F4F2F
:1023F000C430D10509F0BFCF80E001C081E0DF919A
:10240000CF911F910F91FF90EF90DF90CF90BF90F1
:10241000AF909F908F900895AF92BF92CF92DF922E
:10242000EF92FF920F931F93CF93DF9300D000D0D2
:10243000CDB7DEB75B0125E5E22E21E0F22E8C015F
:102440006B0180E1C80ED11CF50161917191819100
:1024500091915F01F70121913191419151917F015A
:1024600029833A834B835C830E94864229813A8187
:102470004B815C810E94DC41F801619371938193EF
:1024800091938F01AC14BD04F9F60F900F900F904B
:102490000F90DF91CF911F910F91FF90EF90DF9000
:1024A000CF90BF90AF9008950E94B3231092500137
:1024B000089593B1892F877049F0892F8095817095
:1024C00091FF826092FD03C08460089580E00895CA
:1024D0001F920F920FB60F9211242F933F934F9399
:1024E0005F936F937F938F939F93AF93BF93EF937C
:1024F000FF930E945912882391F080FF03C00E942D
:10250000DB300DC082FF04C08091E105826005C010
:1025100081FF05C08091E10588608093E105FF910E
:10252000EF91BF91AF919F918F917F916F915F914B
:102530004F913F912F910F900FBE0F901F901895C4
:102540002F923F924F925F926F927F928F929F92C3
:10255000AF92BF92CF92DF92EF92FF920F931F93B1
:10256000CF93DF93CDB7DEB7EE970FB6F894DEBF0B
:102570000FBECDBF8091480180FD4AC790911506DE
:1025800080911606981709F443C78091B20690917E
:10259000B306892B09F017C31091480112FF09C037
:1025A0008091B00526E3289FC0011124805B9D4FD8
:1025B00002C00E947E309093B3068093B2062090B2
:1025C000B2063090B3062114310409F421C70091FA
:1025D000B205802F817000FF03C01092B205EAC0DF
:1025E0009091B1059F5F953009F0892F8093B105D7
:1025F000E82EF12C36E13E9DF0013F9DF00D1124B7
:10260000EC5BF94FF0934306E0934206D1015496F8
:102610009C915497948BE6E18E9FC001112420E099
:1026200030E04D915D916D917D91F901E80FF91FB9
:10263000EC5BF94F689412F8440F551F661F771F23
:102640001694D1F740835183628373832C5F3F4F8D
:102650002031310531F726E12E9DF0012F9DF00D3F
:1026600011249F012C5B394FF10180899189A28946
:10267000B38943E0880F991FAA1FBB1F4A95D1F762
:10268000F901808B918BA28BB38BD10150966D9108
:102690007D918D919C9153970E9484426093B705E0
:1026A0007093B8058093B9059093BA05F10122A102
:1026B00033A144A155A10E94DC419B01AC01609370
:1026C000BB057093BC058093BD059093BE0560E08B
:1026D00070E080EA9FE30E94DC416093BF05709345
:1026E000C0058093C1059093C2051092B305109266
:1026F000B4051092B5051092B60511FD02C003FF96
:102700001FC06091D0057091D1058091D205909144
:10271000D3056093C8057093C9058093CA0590934B
:10272000CB059B01AC010E943444D10156966D93B8
:102730007D938D939C935997077F0093B2050FC0AB
:10274000F10166897789808D918D0E94D3446093D1
:10275000C8057093C9058093CA059093CB05F6E12F
:10276000FE9DC001FF9D900D11249C012C5B394FF3
:102770007901D90155961C928091AA0181FF1AC056
:10278000F101858985FF16C026A537A540A951A965
:1027900060E070E080E89FE30E94DC416093DC052C
:1027A0007093DD058093DE059093DF05E1E0D701AE
:1027B0005596EC931092C4051092C5051092C6056B
:1027C0001092C705D1015E962D913D914D915C917E
:1027D000919729833A834B835C8360E070E080E0CB
:1027E0009FE30E94DC4169877A878B879C87F10190
:1027F00042A053A064A075A086889788A08CB18C55
:1028000011FF44C0F2E0F093C305A50194010E94BA
:1028100034449B01AC01C301B2010E94DC406B0156
:102820007C0120E030E0A9010E94D24187FF1DC059
:1028300029813A814B815C81CA01B9010E94DD4046
:10284000A30192010E9434449B01AC01C501B40173
:102850000E94DC400E94D3446093D0057093D10560
:102860008093D2059093D305ABC1C092C405D0929A
:10287000C505E092C605F092C7051092D0051092EA
:10288000D1051092D2051092D3059AC11092C305BA
:102890004092D4055092D5056092D6057092D70526
:1028A00012FF0CC01092D0051092D1051092D205E3
:1028B0001092D305C12CD12C760124C0E0914F0297
:1028C000EF5FE03109F4E0E08091B005E81759F0DE
:1028D00026E32E9FF0011124E05BFD4FC688D788C8
:1028E000E08CF18C03C0C12CD12C7601C701B6015C
:1028F0000E94D3446093D0057093D1058093D20594
:102900009093D305C1010E94612C698B7A8B8B8BCC
:102910009C8B9B01AC010E9434446D837E838F832A
:1029200098879B01AC01C501B4010E94F4431816BD
:102930000CF070C02D813E814F815885C501B401D6
:102940000E94DC409B01AC0169857A858B859C8562
:102950000E9434449B01AC01C301B2010E94DC40DF
:102960006093D4057093D5058093D6059093D705D1
:1029700020E030E0A9010E94D24118162CF132E08B
:102980003093C30529813A814B815C81CA01B90129
:102990000E94DD40A30192010E9434449B01AC01DE
:1029A000C501B4010E94DC400E94D3446093D0056D
:1029B0007093D1058093D2059093D3058091B20591
:1029C00088608093B205FCC0A70196016D817E816D
:1029D0008F8198850E94DC409B01AC0169857A85D6
:1029E0008B859C850E9434446093D8057093D905EB
:1029F0008093DA059093DB0589899A89AB89BC8934
:102A00008093CC059093CD05A093CE05B093CF05D0
:102A100093E0BBC0A7019601C501B4010E94DC4050
:102A20009B01AC0169857A858B859C850E94344425
:102A30009B01AC01C301B2010E94DD4020E030E007
:102A400040E05FE30E9434446D877E878F87988BD8
:102A500020E030E0A9010E94F44318160CF098C061
:102A6000A30192016D857E858F8598890E94D24150
:102A700087FF8AC0A70196016D817E818F8198852D
:102A80000E94DC409B01AC0169857A858B859C8521
:102A90000E9434446093D8057093D9058093DA0579
:102AA0009093DB052D853E854F8558890E94D24144
:102AB00087FF39C029893A894B895C892093CC05E5
:102AC0003093CD054093CE055093CF052D813E81A7
:102AD0004F815885C501B4010E94D241811104C0C3
:102AE00031E03093C3056CC0A50194016D817E81F6
:102AF0008F8198850E94DC409B01AC0169857A85B5
:102B00008B859C850E9434449B01AC01C301B201BA
:102B10000E94DC406093D4057093D5058093D60560
:102B20009093D7054DC08D859E85AF85B8898093DC
:102B3000D4059093D505A093D605B093D70580937F
:102B4000D8059093D905A093DA05B093DB052981C8
:102B50003A814B815C81CA01B9010E94DD402D851B
:102B60003E854F8558890E943444A70196010E94F2
:102B7000DD400E94D3446093CC057093CD058093D3
:102B8000CE059093CF051CC092E09093C30518C06A
:102B90001092D4051092D5051092D6051092D70543
:102BA0008091D0059091D105A091D205B091D30527
:102BB0008093CC059093CD05A093CE05B093CF051F
:102BC00018601093480180914106A82FB0E0BA87A1
:102BD000A98727E02A9FF0012B9FF00D1124E95EC1
:102BE000F94F8091B10584834091B2065091B306AC
:102BF0005EAF4DAFDA019296BC91BEA3FA01F3A18C
:102C0000FFA3DA019496BC91B8A7FA01F5A1F9A740
:102C10002091BF053091C0054091C1055091C2057A
:102C20006EA17FA18B2F9F2F0E94DC406AAB7BABF4
:102C30008CAB9DAB20E030E0A9010E94D24187FF20
:102C400004C01AAA1BAA1CAA1DAA2091D4052D8370
:102C50003091D5053D874091D605498B5091D705D8
:102C60005D8B8091CC058A8F9091CD059B8FA09133
:102C7000CE05AC8FB091CF05BD8F6090C805709028
:102C8000C9054090CA055090CB05E091D805EAA748
:102C9000F091D905FBA72091DA052CA73091DB052F
:102CA0003DA74091C30549835091C4055EA780911B
:102CB000C5058FA79091C60598ABA091C705A9AB94
:102CC000B091D005BEABE091D105EFABF091D2054C
:102CD000F8AF2091D30529AF2EA03FA008A519A5D4
:102CE0008EE3C82E83ECD82E8EE2E82E89E3F82EF0
:102CF0001E8A1F8A188E198ECE8EDF8EE8A2F9A248
:102D00009981913009F4E7C008F474C0ADADBEAD4F
:102D10005E962D913D914D915C919197933009F084
:102D200009C1C701B6010E9434444B015C0120E097
:102D300030E040E05FE30E9434449B01AC01B3010A
:102D4000C2010E94DC409B01AC01C701B6010E9498
:102D500034446AA37BA38CA39DA39B01AC01B10166
:102D6000C8010E94DC401B018C012D813D854989F1
:102D70005D890E94D24187FD0BC020E030E0A901AF
:102D80006AA17BA18CA19DA10E94D24118165CF181
:102D90002D813D8549895D896EA17FA188A599A571
:102DA0000E94DC409B01AC010E94DD406B017C0174
:102DB0002A8D3B8D4C8D5D8DB301C2010E94DD409B
:102DC0009B01AC01C701B6010E94DC416B017C0193
:102DD0006A8C7B8C4C8C5D8C2D803D8409891D898F
:102DE000B1E0B98311C1A5019401B301C2010E94F0
:102DF000DC406EC0EDADFEAD268D378D40A151A1FA
:102E0000C701B6010E9434444B015C0120E030E070
:102E100040E05FE30E9434449B01AC01B301C20176
:102E20000E94DD409B01AC01C701B6010E94344401
:102E30009B01AC01B101C8010E94DC401B018C0167
:102E40002D813D8549895D890E94D24187FF3AC025
:102E50002D813D8549895D896EA17FA188A599A5B0
:102E60000E94DC409B01AC010E94DD406B017C01B3
:102E70002A8D3B8D4C8D5D8DB301C2010E94DD40DA
:102E80009B01AC01C701B6010E94DC416B017C01D2
:102E90002AA53BA54CA55DA56D817D8589899D8968
:102EA0000E94D241811103C0F2E0F98302C021E007
:102EB00029836A8C7B8C4C8C5D8C2D803D840989A8
:102EC0001D89A2C0A5019401B301C2010E94DD4089
:102ED0003B012C0199C0A70196016A8D7B8D8C8DD9
:102EE0009D8D0E9434449B01AC01B101C8010E9438
:102EF000DC405B014C012AA53BA54CA55DA50E94C9
:102F0000D24187FF7FC02AA53BA54CA55DA5B10195
:102F1000C8010E94DC402A8D3B8D4C8D5D8D0E9446
:102F2000DC416B017C012AA43BA40CA51DA532E069
:102F300039836AC0C701B6010E9434444B015C0169
:102F40009B01AC01B301C2010E94F44318169CF529
:102F500020E030E040E05FE3C501B4010E9434446A
:102F60009B01AC01B301C2010E94DC409B01AC019A
:102F7000C701B6010E9434449B01AC01B101C801F4
:102F80000E94DC406AA37AAF8BAF9CAF2EA53FA511
:102F900048A959A90E94F44318166CF4A50194019C
:102FA000B301C2010E94DC403B012C012AA03AACD3
:102FB0000BAD1CAD29C02EA53FA548A959A9B1014B
:102FC000C8010E94DC409B01AC010E94DD406B0106
:102FD0007C012EA93FA948AD59ADB301C2010E94A1
:102FE000DD409B01AC01C701B6010E94DC416B01D1
:102FF0007C016EA87FA848AC59AC2EA43FA408A9B8
:1030000019A902C015018401A70196016E897F8963
:10301000888D998D0E94DD406E8B7F8B888F998F74
:103020002E8D3F8D48A159A10E94D24187FF09C032
:103030002E893F89488D598D6E8D7F8D88A199A1EC
:1030400031C02AA93BA94CA95DA9B101C8010E94C0
:10305000F4431816ACF0C301D2018093C8059093D5
:10306000C905A093CA05B093CB05B981B093C30538
:10307000E0914206F09143069589911134C02FC02A
:103080002EE333EC4EE259E36E8D7F8D88A199A13A
:103090000E94DD406E8F7F8F88A399A32E893F8980
:1030A000488D598D0E94DC406B017C012EA53FA507
:1030B00048A959A9B101C8010E94F44318160CF49B
:1030C0001FCEC301D2018093C8059093C905A09378
:1030D000CA05B093CB05E981E093C305C9CF8091C0
:1030E000480183FF3FC0ADADBEAD55968C9155975D
:1030F000807349F1D296CD90DD90ED90FC90D597FC
:103100009923D1F02091DC053091DD054091DE0559
:103110005091DF056091C8057091C9058091CA057D
:103120009091CB050E9434449B01AC01C701B601CC
:103130000E9434446B017C01C701B6010E94541007
:103140008093E0050AC01092510110925201109232
:103150005301109254011092E00580914801877F3D
:103160008093480127E0E985FA852E9FA0012F9FD3
:10317000500D1124CA01895E994F9E838D838091E1
:10318000E005AD81BE8116968C932091BB053091F0
:10319000BC054091BD055091BE05B101C8010E941A
:1031A00034442B013C010E94BB416B017C016091C6
:1031B000B7057091B8058091B9059091BA050E9444
:1031C000BB414B015C01A70196010E94DC400E94BB
:1031D000554269837A838B839C8329813A81ED816F
:1031E000FE8131832083232B41F48091480181FFAC
:1031F00004C08160809348010BC12091B3053091D8
:10320000B4054091B5055091B6056E897F89888DCA
:10321000998D0E94DD406D837E838F839887A30103
:103220009201C501B4010E94DC409B01AC016D819B
:103230007E818F8198850E94DC414B015C0120ECEE
:1032400031EE44E65EE40E9434440E94BB410E9499
:103250005542603D57E075078105910560F427E010
:10326000A985BA852A9FF0012B9FF00D1124E95EF4
:10327000F94F158254C0603A3FE07307810591050C
:1032800068F4A7E049855A85A49FF001A59FF00D39
:103290001124E95EF94FB1E0B5831FC06034EFE15E
:1032A0007E078105910568F447E029853A85429FAC
:1032B000F001439FF00D1124E95EF94F52E0558370
:1032C0000CC027E0A985BA852A9FF0012B9FF00D3D
:1032D0001124E95EF94F33E03583A7E049855A852B
:1032E000A49FF001A59FF00D1124E95EF94F2581FF
:1032F000022E04C096958795779567950A94D2F724
:1033000049815A8102C0440F551F2A95E2F7518323
:1033100040836115710551E08507910568F427E048
:10332000A985BA852A9FF0012B9FF00D1124E95E33
:10333000F94F7383628304C04FEF5FEF538342837F
:1033400080911606809341068F5F863019F0809336
:10335000160602C010921606E091B206F091B3066E
:10336000C101D80182A393A3A4A3B5A3C092B705BA
:10337000D092B805E092B905F092BA05A301920186
:10338000C701B6010E94DC40A50194010E943444AB
:103390006093B3057093B4058093B5059093B6051B
:1033A0002091C4053091C5054091C6055091C705CF
:1033B000B101C8010E94D2418111E0C820E030E093
:1033C000A901B101C8010E94F44390914801181667
:1033D00014F092FF04C091609093480119C01092BC
:1033E000B3061092B20690914F028091B0058917F2
:1033F00009F4C4C881E0890F803109F480E020918C
:103400004E02921302C080934E0280934F02B6C8C0
:10341000EE960FB6F894DEBF0FBECDBFDF91CF9111
:103420001F910F91FF90EF90DF90CF90BF90AF90E2
:103430009F908F907F906F905F904F903F902F90D4
:103440000895CF93DF93C091B206D091B306209731
:10345000C9F08091B20581608093B2056091C80582
:103460007091C9058091CA059091CB059B01AC0173
:103470000E9434446E8B7F8B888F998F1092B30695
:103480001092B206DF91CF9108956091960170E09D
:1034900040E0E0919701F0E080E090E030E0582FCC
:1034A000DB01082E02C0B595A7950A94E2F7A0FFAC
:1034B0000EC0009731F0813031F0823031F020E4DD
:1034C00005C021E003C024E001C020E1422BDF0160
:1034D00002C0B595A7955A95E2F7A0FF0EC00097D8
:1034E00031F0813031F0823031F020E805C022E047
:1034F00003C028E001C020E2322B01968430910500
:1035000071F64093E6053093E70508951F920F92F8
:103510000FB60F9211248F938091F90588B98F917E
:103520000F900FBE0F901F9018951F920F920FB61D
:103530000F9211248F939F9388B19091E605957512
:103540008A7A892B88B915BC9F918F910F900FBEF5
:103550000F901F90189580916F008D7F80936F0062
:1035600080918100887F8160809381001092E805BE
:1035700080919801909144018F3F39F42091E205A8
:10358000211103C0903841F402C0943029F090E03A
:103590000E949F3081E001C080E09091AA0192FFDB
:1035A00002C091E08927882311F05D9A08955D9803
:1035B0000895CF93DF930E94AB1A80E3E1EBF5E02F
:1035C000DF011D928A95E9F7C9EED5E08CE2FE0194
:1035D00011928A95E9F71092B3061092B2061092F2
:1035E00015061092410681E0809316061092E805B8
:1035F0000E94451A8091E7058C8B88B18A7A909158
:10360000E605892B88B988B185759091E705892BE6
:1036100088B9DF91CF9108951F920F920FB60F9244
:1036200011242F933F934F935F936F937F938F93C7
:103630009F93AF93BF93EF93FF938091E805811120
:103640008BC288B19091FD059A7A8575892B88B9CE
:1036500088B18A7A9091FC05892B8093F905809135
:10366000FB0586BD82E085BD81E08093E805789406
:103670008091130690911406892B09F0D3C0809194
:10368000150690914106981709F4BCC0E091150603
:103690002E2F30E087E0E89FF0011124E95EF94F1A
:1036A000F0931406E093130682819381909389002E
:1036B000809388008081918190930F0680930E06FD
:1036C000E481809110068E17A1F1E093100686E147
:1036D000E89FF0011124EC5BF94FF0931206E093A0
:1036E000110680899189A289B389B695A795979586
:1036F00087958093F5059093F605A093F705B09311
:10370000F8058093F1059093F205A093F305B0932B
:10371000F4058093ED059093EE05A093EF05B0932B
:10372000F0058093E9059093EA05A093EB05B0932B
:10373000EC05E0911106F09112069091E70584895D
:1037400089278093FD0587E0829FD001839FB00D7C
:103750001124A95EB94F15968C911597408151811E
:1037600062817381082E04C07695679557954795B9
:103770000A94D2F74093FE055093FF05609300062C
:10378000709301064481558166817781082E04C0BB
:1037900076956795579547950A94D2F74093020618
:1037A0005093030660930406709305064085518587
:1037B00062857385082E04C0769567955795479561
:1037C0000A94D2F7409306065093070660930806C2
:1037D00070930906448555856685778504C076957E
:1037E0006795579547958A95D2F740930A06509367
:1037F0000B0660930C0670930D0616968C910E9432
:10380000341010C00E94AB1AE0911106F09112061C
:103810008589882319F080E00E94341084E00E949A
:103820009C119AC1809143018130B1F480B18870BC
:1038300090912201891781F01092430180E1E3E227
:10384000F1E0A3E3B1E001900D928A95E1F7809158
:10385000E10580648093E1051092FC054091FE052E
:103860005091FF0560910006709101068091E90575
:103870009091EA05A091EB05B091EC05840F951F9E
:10388000A61FB71F8093E9059093EA05A093EB0567
:10389000B093EC05E0911106F09112064089518930
:1038A00062897389481759076A077B0768F521E021
:1038B0002093FC054089518962897389841B950B8B
:1038C000A60BB70B8093E9059093EA05A093EB054F
:1038D000B093EC0524898091230190912401A0915B
:1038E0002501B091260121FF04C00197A109B1096A
:1038F00003C00196A11DB11D809323019093240163
:10390000A0932501B0932601409102065091030631
:1039100060910406709105068091ED059091EE0589
:10392000A091EF05B091F005840F951FA61FB71F5A
:103930008093ED059093EE05A093EF05B093F0050D
:103940004089518962897389481759076A077B073B
:1039500078F52091FC0524602093FC05408951896D
:1039600062897389841B950BA60BB70B8093ED05B9
:103970009093EE05A093EF05B093F0052489809114
:10398000270190912801A0912901B0912A0123FFDC
:1039900004C00197A109B10903C00196A11DB11D81
:1039A0008093270190932801A0932901B0932A01C5
:1039B000409106065091070660910806709109062D
:1039C0008091F1059091F205A091F305B091F40575
:1039D000840F951FA61FB71F8093F1059093F205E2
:1039E000A093F305B093F4054089518962897389E6
:1039F000481759076A077B0778F52091FC05206175
:103A00002093FC054089518962897389841B950B39
:103A1000A60BB70B8093F1059093F205A093F305E5
:103A2000B093F405248980912B0190912C01A091F1
:103A30002D01B0912E0125FF04C00197A109B10904
:103A400003C00196A11DB11D80932B0190932C0101
:103A5000A0932D01B0932E0140910A0650910B06C0
:103A600060910C0670910D068091F5059091F60518
:103A7000A091F705B091F805840F951FA61FB71FF9
:103A80008093F5059093F605A093F705B093F8059C
:103A90004089518962897389481759076A077B07EA
:103AA00078F52091FC0520642093FC05408951891C
:103AB00062897389841B950BA60BB70B8093F50560
:103AC0009093F605A093F705B093F80524898091AB
:103AD0002F0190913001A0913101B091320127FF67
:103AE00004C00197A109B10903C00196A11DB11D30
:103AF00080932F0190933001A0933101B093320154
:103B000080914401843039F490914A018091FC0500
:103B100089238093FC0580910E0690910F060197F2
:103B200090930F0680930E06892B69F41092140669
:103B300010921306809115068F5F809315068630CC
:103B400011F4109215069091E6058091FC058927E5
:103B50008093FC051092E805FF91EF91BF91AF9122
:103B60009F918F917F916F915F914F913F912F9195
:103B70000F900FBE0F901F9018958091AA0182FFA1
:103B800002C05D9A01C05D988091E6058093FC05B6
:103B90008091950190E09C01285F3F4F220F219575
:103BA0002093FB05880F819587BD80916F0082600F
:103BB00080936F000895E0EBF0E080818F77808341
:103BC00080914D028C7F80934D02109248020C949C
:103BD000EC24CF93DF9300D000D01F92CDB7DEB797
:103BE00090914501911137C081110BC01092510184
:103BF0001092520110925301109254010E94DB1D49
:103C000028C0803129F45E9890914D029D7F04C0B8
:103C10005E9A90914D02926090934D024A835B832D
:103C20006C837D8389830E94EC249091AA014A8150
:103C30005B816C817D81898191FF05C0803219F49F
:103C400040E050E0BA01CB01BA010E9454100E943A
:103C5000341010924F010F900F900F900F900F9013
:103C6000DF91CF9108950F931F93CF938C01C0E004
:103C7000F80161917191819191918F010E94E92BDD
:103C8000C33019F08CE20E94CB27CF5FC43081F79C
:103C9000CF911F910F91089589E094E00C941E2C10
:103CA0001F93CF93DF931F92CDB7DEB7182F84E217
:103CB00069830E94CB27812F0E94F82B8DE30E94FD
:103CC000CB276981862F0E94F82B0F90DF91CF912F
:103CD0001F910C944C1E8DE50E94CB270C944C1E1A
:103CE0004F925F926F927F928F929F92BF92CF92EC
:103CF000DF92EF92FF920F931F93CF93DF93CDB795
:103D0000DEB7E0970FB6F894DEBF0FBECDBF1091BF
:103D1000E205112359F181E08093440185E793E0A6
:103D20000E941E2C812F0E94F82B0E944C1E84EFB3
:103D300091E00E949F301150123030F08FB7F8940C
:103D40001092E2058FBF12C08AE693E00E941E2CFB
:103D500088E593E00E941E2C0E946B1E80E10E9469
:103D600092118091E10584FFFCCFE8CF1091E1052D
:103D7000112309F41AC314FF04C081E080934501A4
:103D8000C2C310FF22C280E1E3E2F1E0DE019196BE
:103D900001900D928A95E1F7BE016F5D7F4FCE01D4
:103DA00041960E940C128CE30E94CB278091440123
:103DB000883009F449C068F4813009F45FC0C8F064
:103DC000823009F45EC0843009F06EC087EC93E065
:103DD00069C0803209F44FC018F48031C1F164C069
:103DE000803409F451C0803809F05EC08FEA93E056
:103DF00059C00091B606002321F1073019F481EF74
:103E000093E01AC000FF09C08BEE93E00E941E2CC5
:103E1000013019F08EE20E94CB2701FF09C085EE28
:103E200093E00E941E2C053018F08EE20E94CB27F2
:103E300002FF04C08FED93E00E941E2C1092B60684
:103E400033C08AED93E02EC086ED93E02BC08091C5
:103E5000460187FD10C080ED93E00E941E2C8091EA
:103E6000460180FF06C080E31AC082FF17C085FFAD
:103E7000FACF81E314C08CEC93E014C081EC93E0A2
:103E800011C08BEB93E00EC085EB93E00E941E2CDB
:103E90008091460183FFE9CF83E301C082E30E9462
:103EA000CB2702C00E941E2C80919901982F9170FF
:103EB000B92E80FD14C04090020250900302609021
:103EC00004027090050282EE882E81E0982EFE0199
:103ED00031967F01CE0141966C0101E019C08091BD
:103EE0005001882341F388EA93E03EC0A301920188
:103EF0000E94DD40F7016083718382839383BB203E
:103F0000E1F094E0E90EF11C0F5FE4E0CE0ED11C6D
:103F1000F40161917191819191914F0124853585D1
:103F2000468557850E94DD40F70160837183828357
:103F300093830330D9F2B11011C0F7012081318190
:103F400042815381F60160817181828193810E9457
:103F5000DC40F6016083718382839383043089F6A9
:103F6000B110C1CF81EA93E00E941E2CCE01419690
:103F70000E94331E8091990181FF1FC08CE993E05C
:103F80000E941E2C9091B00580914F02981710F05E
:103F9000815F01C08150891B0E94F82B8CE20E9436
:103FA000CB278091380790913907981710F08058E7
:103FB00001C08150891B0E94F82B0E94D431F82E39
:103FC0000E945912082F80B1982F98708091220179
:103FD000E92EE8268F2D802B8E2959F187E993E071
:103FE0000E941E2CEE2019F080E50E94CB27FF20B6
:103FF00079F0F0FE03C088E50E94CB27F1FE03C0F4
:1040000089E50E94CB27F2FE03C08AE50E94CB27F8
:10401000002379F000FF03C082E50E94CB2701FF57
:1040200003C088E40E94CB2702FF03C083E50E94FF
:10403000CB2790913C0780913D07892B90913B07BE
:10404000892B90913A07892BE9F080E993E00E944F
:104050001E2C80913D070E94F82B8CE20E94CB27FA
:1040600080913C070E94F82B8CE20E94CB27809124
:104070003B070E94F82B8CE20E94CB2780913A07E5
:104080000E94F82B80915001882321F08150809369
:10409000500118C0809144018C7711F08DE101C06E
:1040A00089E08093500180914F01811103C081E02C
:1040B00080934F018AE893E00E941E2CCE01019666
:1040C0000E94331E00914F01002321F00150009304
:1040D0004F0173C085E893E00E941E2C809144013B
:1040E0008C7749F06091C8057091C9058091CA0527
:1040F0009091CB0503C060E070E0CB010E94DA2B09
:104100008CE20E94CB276091510170915201809105
:1041100053019091540140E00E943C2B8091440156
:104120008C7711F083E101C089E080934F0180E832
:1041300093E00E941E2C80914B010E94F82B8CE290
:104140000E94CB2780914C010E94F82B8CE20E94A8
:10415000CB2780914D010E94F82B8091B00087FF02
:1041600005C05E9902C001E001C002E0F090B50612
:104170008091B406882321F0FF2DF260FF2E06C047
:10418000011104C0FF20C9F0FF24F3948CE793E0F1
:104190000E941E2C002339F0013011F483E501C088
:1041A00083E40E94CB27F0FE03C086E40E94CB2765
:1041B000F1FE03C08DE40E94CB278EE30E94CB2743
:1041C0000E944C1E81E00E949211812F887E09F48A
:1041D00069C080914401982F937009F052C0887291
:1041E000A1F080914601807C81F40E94211A82E036
:1041F0008093480180914401803239F417FD05C055
:10420000809146018068809346018091440181112C
:1042100003C091E09093460116FF07C085FD05C0DD
:104220009091460190649093460113FF05C0807EF3
:1042300019F480E18093440115FF23C08AE693E0DE
:104240000E941E2C86E193E00E941E2C0E946B1E91
:104250008091460187FD10C090914401903439F45B
:1042600083FF07C0837E82608093460102C090383E
:1042700019F080E48093440180914601806280932C
:10428000460117FF0CC080914401813029F48091D0
:10429000460185608093460180E88093440188EE62
:1042A0000E94921111FF44C0812F8876F1F5809110
:1042B0004401803471F48091460185FD0AC084FF79
:1042C00003C01092440105C082FF03C08860809340
:1042D000460180914401882381F084FF26C090919B
:1042E000460190FF22C0803141F480914E01882325
:1042F00021F0886080934E0118C0109248010E94FE
:104300007E30892B71F08091460186FD0AC01092A3
:10431000460188E0809344010E94A0120E94BD1DC6
:1043200004C0109246011092440182E00E94921152
:1043300012FF3BC080914401807D9091460188230B
:10434000A9F080914701811111C097FD0FC00E9413
:104350002D2C8091480181FF05C09091460191600C
:1043600090934601897F809348011CC097FF0AC043
:10437000109248010E948E300E94D91A0E9478340F
:104380000E94352C8091460185FF08C08F7781609F
:104390008093460180E48093440104C0109246015A
:1043A0001092440184E00E9492111091E5051123BE
:1043B00081F10E946C1130914B0110FF02C084E624
:1043C00001C0832F11FD865F12FD8A5013FD8F5FA0
:1043D00014FD8150893C08F088EC811101C081E016
:1043E00020914C0115FF02C094E601C0922F16FDEA
:1043F00092E317FD99E1831302C0921751F0809365
:104400004B0190934C0110924F010E94F02F0E949B
:104410002D2C1091E4051123C9F00E946C11E12F9D
:10442000F0E0E750FC4F8491893C08F088EC811162
:1044300001C081E090914B01891741F080934B01BD
:1044400010924F010E94F02F0E942D2C9091E305B5
:10445000992309F452C08FB7F8941092E3058FBFE7
:1044600020914D0190FF02C084E601C0822F91FD92
:10447000865F92FD8A5093FD8F5F94FD8150893C49
:1044800008F088EC8A3008F48AE0821749F020911D
:10449000480128602093480180934D0110924F01FC
:1044A0008091440195FF0DC0803159F420914E0157
:1044B000211102C022E003C020FF03C0246020932A
:1044C0004E01292F207CC9F0882311F08871A9F0B2
:1044D0001091C20197FF05C017FF02C01F7701C0EE
:1044E000106896FF05C016FF02C01F7B01C0106454
:1044F000812F0E943A351093C201809144018C7F34
:1045000011F00E94A012E0960FB6F894DEBF0FBE25
:10451000CDBFDF91CF911F910F91FF90EF90DF9072
:10452000CF90BF909F908F907F906F905F904F90B3
:104530000895CF92DF92EF92FF921F93CF93DF9374
:104540000E94701E80914601882309F4FCC00E94DD
:104550007E30009771F4C091C2018091C301C82BD5
:10456000C090C501D090C601E090C701F090C8018D
:1045700006C0FC01C589C2A8D3A8E4A8F5A880910B
:10458000AA0181FF03C080E20E947411DC2FD07366
:1045900011E0C07480914601882309F4D4C00E94C0
:1045A00005320E94EC24809145018111CCC090918C
:1045B000460190FFC5C080914401282F207C09F45A
:1045C00074C092FD12C010924E0140E050E0BA015A
:1045D00080E00E94E91D80E00E943A3590914601FA
:1045E0009D7F946090934601ABC08038E1F48AE6E9
:1045F00093E00E941E2C83ED92E00E941E2C0E94EC
:104600006B1E40E050E0BA0180E00E94E91D80E0AE
:104610000E943A350E94AB1A80914501811193C0E6
:104620000E94701EF9CF803419F49F7D909346014B
:104630008091460183FF84C09091C3019923C1F00A
:1046400081FD16C08091AA0181FF06C080914801BA
:104650008860809348010CC0B701A6018D2F0E948D
:10466000E91D41E060E070E080E890E40E94AA303B
:104670008091C201882371F08091460181FD0AC0BA
:104680008C2F0E943A3541E060E070E080E89FE3C3
:104690000E94AA309091460191FD52C09061909382
:1046A000460182E00E949C114BC090914E019923DB
:1046B000C9F191FF0DC08091C3018823B1F040E0A2
:1046C00050E0BA0180E00E94E91D10934E0138C00D
:1046D0009C70B1F18091C30181110AC080914E019B
:1046E00083FF03C082E00E949C1110924E0128C0FB
:1046F0008AE693E00E941E2C8CED92E00E941E2C14
:104700000E946B1E8091AA0181FF06C08091480122
:10471000886080934801E2CFB701A6018D2F0E94E7
:10472000E91DDCCF8091480183FF0AC0B701A601D3
:104730008D2F0E94E91D80914801877F8093480159
:104740000E94701E27CFDF91CF911F91FF90EF90B5
:10475000DF90CF9008950E947E30892B19F082E07F
:104760000C949C1108950E94AB230E949922809181
:104770004501811108C00E947E30892BB1F78091DC
:104780004401883091F30895109222019091AA017A
:1047900097FD03C098E090932201882331F0909117
:1047A000220188E0892780932201089582E18CBD4F
:1047B0002C9A0895382F90E0931719F02DB5207C8E
:1047C00029F081E0931720F480E008959F5FF4CFF3
:1047D0000895579A83E08093B00084E08093B100FD
:1047E000569A2091A6013091A7014091A8015091BD
:1047F000A9016091A2017091A3018091A4019091FF
:10480000A5010E94DC409B01AC0160E070E08EE7F6
:1048100093E40E94DC416093490270934A028093C2
:104820004B0290934C020C94DB1DAF92BF92CF923F
:10483000DF92EF92FF920F931F93CF93DF93CDB749
:10484000DEB764970FB6F894DEBF0FBECDBFD82E8B
:1048500081E58CBD8DB58E7F8DBD2C988FEF8EBD83
:1048600080E40E94DA238111A4C08AEA8EBD80E42C
:104870000E94DA2381119DC085E58EBD80E40E94EF
:10488000DA23811196C0DEBC80E1E3E2F1E0DE01D3
:10489000119601900D928A95E1F70D2D10E07801A7
:1048A000EE0CFF1CEE0CFF1CE1E0F0E0EC0FFD1F36
:1048B000EE0DFF1D60817181828193810E9486428D
:1048C000F701EB5AFE4F20813181428153810E94D2
:1048D000DC41698B7A8B8B8B9C8B7E0121E1E20E14
:1048E000F11C570134E0C32ECE0C80E40E94DA2381
:1048F000882319F00E94D62349C080E40E94DA235D
:10490000F50181915F018EBDCE12EFCFD801AA0FC4
:10491000BB1FAA0FBB1FAE51BE4F000F111F000FD0
:10492000111FF801EE50FE4F2081318142815381E9
:104930006D917D918D919C910E94DD409B01AC0118
:1049400069897A898B899C890E94DC40698B7A8B82
:104950008B8B9C8BF2E0DF120EC020910202309113
:10496000030240910402509105020E94DC40698BD1
:104970007A8B8B8B9C8B80E40E94DA238111BACFD7
:10498000F70181917F018EBDCE12F5CF80E40E94A8
:10499000DA2381110EC0809140078EBD80E40E9411
:1049A000DA23811106C080913F078EBD80E40E940A
:1049B000DA230E94D62364960FB6F894DEBF0FBEAA
:1049C000CDBFDF91CF911F910F91FF90EF90DF90BE
:1049D000CF90BF90AF90089581E58CBD8DB581607B
:1049E0008DBD80913E078EBD80E10E94DA2381114A
:1049F00058C080914D028EBD80E10E94DA23811162
:104A000050C02B9A000000002B982C98000000004A
:104A10002C9A1EBC80E10E94DA23811142C08EB51F
:104A200080958093B3079091B207891302C0809359
:104A30003D078093B2071EBC80E10E94DA238111FA
:104A400030C08EB580958093B1079091B0078913DF
:104A500002C080933C078093B0071EBC80E10E9497
:104A6000DA2381111EC08EB580958093AF07909197
:104A7000AE07891302C080933B078093AE071EBC2C
:104A800080E10E94DA2381110CC08EB5809580935D
:104A9000AD079091AC07891302C080933A078093C9
:104AA000AC070C94D6236AE080E090E00E947E344C
:104AB00045E650E065E571E081E090E00C94A034BB
:104AC000CF93DF9300D01F92CDB7DEB76A837B838D
:104AD00089830E94B323898121E1829FC00111242F
:104AE00040E150E06A817B819E5F0F900F900F90B4
:104AF000DF91CF910C94A0341F93CF93DF93182FA5
:104B0000EB0181E1189FB00111247E5F40E150E08C
:104B1000CE010E94E734892B59F480E1FE01119205
:104B20008A95E9F7BE01812F0E94602580E001C0CF
:104B300081E0DF91CF911F910895EF92FF920F9343
:104B40001F93CF93DF93CDB7DEB760970FB6F8947E
:104B5000DEBF0FBECDBF182F80FF24C18AE0809337
:104B6000950189E1809398011092960186E08093E7
:104B7000970181E0809399018AE097EDA3E2BCE37D
:104B800080939A0190939B01A0939C01B0939D0107
:104B90008FE692E1A3E0BBE380939E0190939F0197
:104BA000A093A001B093A10180E090E0AAE7B4E453
:104BB0008093A2019093A301A093A401B093A501B7
:104BC0001092A6011092A7011092A8011092A901BB
:104BD00083E08093AB0180E090E0A8ECB2E48093A6
:104BE000AC019093AD01A093AE01B093AF0180E012
:104BF00090E0AAEFB4E48093B0019093B101A09348
:104C0000B201B093B30189E190E09093B501809334
:104C1000B40180E090E0A0E8BFE38093B6019093F8
:104C2000B701A093B801B093B90184E18093AA01C0
:104C300080E090E0A0EAB2E48093550190935601A1
:104C4000A0935701B09358018093590190935A0152
:104C5000A0935B01B0935C018FEC97EFABE7B2E4FC
:104C600080935D0190935E01A0935F01B09360011A
:104C70008FE395E3AEE0B1E480936101909362012C
:104C8000A0936301B093640180E090E6AAE6B6E4E5
:104C90008093650190936601A0936701B0936801CA
:104CA00080E090E8ABE3B6E48093690190936A01F9
:104CB000A0936B01B0936C0180E090E4ACE1B6E4AA
:104CC00080936D0190936E01A0936F01B09370017A
:104CD00080E090E5A3ECB7E48093710190937201BA
:104CE000A0937301B093740180E09AEBABE5BAE452
:104CF0008093750190937601A0937701B09378012A
:104D00008093790190937A01A0937B01B0937C0109
:104D100080E098ECAFE2BAE480937D0190937E014D
:104D2000A0937F01B093800180E69EEFADE4BCE4E8
:104D30008093810190938201A0938301B0938401B9
:104D400080E090E0AAE7B3EC809385019093860120
:104D5000A0938701B093880180E090E0A8E4B3ECD1
:104D60008093890190938A01A0938B01B0938C0169
:104D700080E090E0A0E7B2EC80938D0190938E01EB
:104D8000A0938F01B093900180E090E0A4EBB3EC8E
:104D90008093910190939201A0939301B093940119
:104DA0000E94532511FF10C0CE0101967C0180E1C5
:104DB000F70111928A95E9F700E0B701802F0E9470
:104DC00060250F5F0830C9F712FF14C060E080E073
:104DD00093E00E947E3460E081E093E00E947E34A4
:104DE00060E081E593E00E947E3460E082E593E03C
:104DF0000E947E3413FF0AC060E08EEA93E00E94B6
:104E00007E3460E08FEA93E00E947E3460960FB6B5
:104E1000F894DEBF0FBECDBFDF91CF911F910F91F0
:104E2000FF90EF9008951F920F920FB60F921124EA
:104E30002F933F934F935F936F937F938F939F93A2
:104E4000AF93BF93CF93EF93FF93C091C600C1324E
:104E500071F028F4C83179F40E94DB3060C0CF33A0
:104E600021F0CE3741F482E003C081E001C088E048
:104E70000E949C1154C0C7FF41C0C13F30F08C2F2D
:104E800090E0805F91090E947D118C2F90E0FC01E1
:104E9000E458F109EE31F10508F041C0E258FF4F46
:104EA0000C94BC4080E2E4CF8091440185FF37C080
:104EB00080E4DECF81E00DC082E00BC084E009C059
:104EC00088E007C080E105C080E203C080E401C043
:104ED00080E80E94831123C081E00DC082E00BC0F6
:104EE00084E009C088E007C080E105C080E203C01B
:104EF00080E401C080E80E94741111C0E09139077C
:104F000081E08E0F813809F480E09091380789178D
:104F100031F0F0E0E954F94FC08380933907FF91F5
:104F2000EF91CF91BF91AF919F918F917F916F91B1
:104F30005F914F913F912F910F900FBE0F901F9057
:104F400018951F920F920FB60F9211248F939F9373
:104F5000EF93FF938091AB07E82FF0E0EE5BF84F03
:104F600090819093C6008F5F893609F480E080932A
:104F7000AB0790914107891305C08091C1008F7DD7
:104F80008093C100FF91EF919F918F910F900FBE81
:104F90000F901F901895E091410791E09E0F993670
:104FA00031F490E004C02091E10524FD0FC0209170
:104FB000AB079217C1F3F0E0EE5BF84F808390935C
:104FC00041078091C10080628093C1000895CF9213
:104FD000DF92EF92FF921F93CF93DF931F92CDB793
:104FE000DEB7182F6A017B0184E229830E94CB2758
:104FF000812F0E94F82B8DE30E94CB272981422F1D
:10500000C701B6010E943C2B0F90DF91CF911F91F9
:10501000FF90EF90DF90CF900C944C1ECF93C82F51
:1050200082E194E00E941E2C8C2F0E94F82BCF91DD
:105030000C944C1EEF92FF920F931F93CF93DF932C
:105040006091950170E080E00E94501E609198018F
:1050500070E081E00E94501E6091960170E082E055
:105060000E94501E6091970170E083E00E94501EE4
:105070006091AA0162FB662760F970E084E00E94FB
:10508000501E6091AA0166FB662760F970E085E01A
:105090000E94501E8091AA01082E000C990B692FC6
:1050A000661F6627661F70E086E00E94501E6091B2
:1050B000990170E08AE00E94501E40919A0150913F
:1050C0009B0160919C0170919D0123E08BE00E9407
:1050D000E72740919E0150919F016091A00170913E
:1050E000A10123E08CE00E94E7276091AA01617092
:1050F00070E08DE00E94501E6091AA0165FB66275A
:1051000060F970E084E10E94501E6091AA0163FB87
:10511000662760F970E085E10E94501E6091AA0147
:105120006295617070E086E10E94501E6091AB0153
:1051300070E087E10E94501E4091AC015091AD019A
:105140006091AE017091AF0123E088E10E94E727F2
:105150004091B0015091B1016091B2017091B301E1
:1051600023E089E10E94E7276091B4017091B501C5
:105170008AE10E94501E4091B6015091B7016091A2
:10518000B8017091B90123E08BE10E94E7274091BB
:10519000A2015091A3016091A4017091A50120E0AA
:1051A0008EE10E94E7274091A6015091A7016091EE
:1051B000A8017091A90120E08FE10E94E72760918A
:1051C000AA016695617070E080E20E94501ED4E6EC
:1051D000F12C05E511E084E0E82EED0ECD2F82E004
:1051E000F81691F0E3E0FE16E9F0F1E0FF1631F079
:1051F000F80140815181628173811AC0F8014089B0
:1052000051896289738914C020E030E041E655E499
:10521000F80160A171A182A193A10E94DC41AB01C0
:10522000BC0106C0F80140A951A962A973A9705830
:1052300023E08C2F0E94E7270C5F1F4FCF5FCE111A
:10524000CECFD65FF394DC3821F6DF91CF911F915A
:105250000F91FF90EF900895811104C080E793E0D3
:105260000C941E2C0C940E286F927F928F929F921A
:10527000AF92BF92CF92DF92EF92FF920F931F9364
:10528000CF93DF93EB018C015B0180E1A80EB11C91
:1052900089E9682E96E7792E26E9822E3EE7932E3D
:1052A000C990D990E990F99020E030E0A901C701B8
:1052B000B6010E94D2418823B9F0A7019601F801F6
:1052C00060817181828193810E94DC416B017C014C
:1052D000E894F7F8A7019601B301C4010E94D241F6
:1052E00087FD02C0360147010C5F1F4FCA15DB0561
:1052F000B9F6B301C401DF91CF911F910F91FF90D7
:10530000EF90DF90CF90BF90AF909F908F907F9065
:105310006F9008952F923F924F925F926F927F927B
:105320008F929F92AF92BF92CF92DF92EF92FF92B5
:105330000F931F93CF93DF93C091B005C11101C0AC
:10534000C0E1C150D0914E02CD1709F41BC1EC2E23
:10535000F12C26E3C29F80011124005B1D4FF80150
:10536000A28CB38CC48CD58C668D778D80A191A1D5
:105370009B01AC010E94DD40F80122A133A144A1B0
:1053800055A10E9434444B018C019B01AC01B50135
:10539000C6010E94D24187FD02C05401680186E324
:1053A0008E9DF0018F9DF00D1124E05BFD4FC50136
:1053B000D601868B978BA08FB18FC11101C0C0E140
:1053C000C150CD1761F026E32E9DC0012F9D900D99
:1053D00011249C01205B3D4F7901D6E333C08091BD
:1053E0004F02D8135EC00E94211A5BC0AC2EB12CB4
:1053F000DA9DC001DB9D900D1124FC01E05BFD4FA7
:105400006F01C11101C0C0E1C15080914F02C813AA
:1054100002C00E94211ADA9D8001DB9D100D11242B
:10542000005B1D4FF801828C938CA48CB58CA50178
:10543000940166897789808D918D0E94D241811176
:1054400006C0760180914E02C813D0CF2AC0F80161
:10545000668D778D80A191A19B01AC010E94DD40FA
:10546000F80122A133A144A155A10E943444F701BF
:1054700026893789408D518D0E94DD402B013C01EA
:10548000A50194010E94D241F80187FF05C0468A18
:10549000578A608E718ED5CF868A978AA08EB18EFC
:1054A000D0CFD0914E02F6E3DF9F80011124005B44
:1054B0001D4FC1E0CD0FC03109F4C0E02090B00510
:1054C00086E3382EC21509F45BC0CC2ED12C3C9C4F
:1054D000C0013D9C900D11249C01205B3D4F790142
:1054E000F80146885788608C718CF9018688978806
:1054F000A08CB18CA5019401C301B2010E94D241DC
:1055000087FF24C0F801668D778D80A191A19B0152
:10551000AC010E94DD40F80122A133A144A155A1B4
:105520000E9434449B01AC01C301B2010E94DD40E2
:105530002B013C01A50194010E94D24187FF06C0C6
:10554000F701468A578A608E718EDC2F3C9CF001F1
:105550003D9CF00D1124E05BFD4F228D338D448D79
:10556000558D66897789808D918D0E94D2418111F8
:1055700001C0DC2FCF5FC03109F4C0E08701A2CFAA
:10558000D0934E02DF91CF911F910F91FF90EF903A
:10559000DF90CF90BF90AF909F908F907F906F9053
:1055A0005F904F903F902F9008954F925F926F922F
:1055B0007F92AF92BF92CF92DF92EF92FF920F93C2
:1055C0001F93CF93DF93EC015C0180E1A80EB11C27
:1055D0008E01C12CD12C7601F8014190519061903F
:1055E00071908F0120E030E0A901C301B2010E9457
:1055F000D241882371F0A3019201C301B2010E943C
:1056000034449B01AC01C701B6010E94DD406B012F
:105610007C010A151B0501F7C701B6010E94D3449E
:105620006B017C019B01AC0160E070E080E89FE3CE
:105630000E94DC412B013C01A30192016881798128
:105640008A819B810E9434446993799389939993C9
:10565000CA15DB0589F7C701B601DF91CF911F910C
:105660000F91FF90EF90DF90CF90BF90AF907F9021
:105670006F905F904F9008958F929F92AF92BF92DC
:10568000CF92DF92EF92FF920F931F93CF93DF930E
:10569000CDB7DEB72D970FB6F894DEBF0FBECDBFE6
:1056A0006B017C01042F20E030E0A9010E94D2416F
:1056B00087FF07C08DE20E94CB27F7FAF094F7F836
:1056C000F094102F123060F020E030E048EC52E40B
:1056D000C701B6010E9434446B017C011250F2CF25
:1056E00000FF0AC020E030E040E251E4C701B6010B
:1056F0000E9434446B017C0120E030E040E05FE335
:10570000C701B6010E94DD400E944E4210E03AE01F
:10571000832E912CA12CB12C611571058105910569
:1057200091F0EE24E394F12CEC0EFD1EE10EF11C41
:10573000A50194010E949A40605DF7016083B90160
:10574000CA011F5FE9CF80E3101748F4E1E0F0E001
:10575000EC0FFD1FE10FF11D80831F5FF5CF1013CC
:1057600014C011E0100F80E3FE01E00FF11D8183F2
:105770000CC0101303C08EE20E94CB27FE01E10F84
:10578000F11D80810E94CB2711501111F2CF2D966F
:105790000FB6F894DEBF0FBECDBFDF91CF911F9142
:1057A0000F91FF90EF90DF90CF90BF90AF909F90C0
:1057B0008F9008952091AA0120FF08C02BE832E4C1
:1057C00041E25DE30E94344441E001C040E00C94BA
:1057D0003C2B2091AA0120FF08C02BE832E441E2D3
:1057E0005DE30E94344443E001C042E00C943C2B52
:1057F000CF93DF93843630F06AE00E947A40C0E3B2
:10580000C90F03C0C0E08A3030F06AE00E947A40DD
:10581000D0E3D90F01C0D0E0805D0E94CB27DD230B
:1058200019F08D2F0E94CB27CC2329F08C2FDF91EC
:10583000CF910C94CB27DF91CF910895CF93DF9335
:10584000FC018491EF012196882321F00E94CB274F
:10585000FE01F7CFDF91CF9108950E94211A809128
:105860004F0280934E020C948A29E5EBF7E0A3E205
:10587000B1E04D915D916D917C911397408351837F
:105880006283738314964D915D916D917C9117970E
:10589000448355836683778318964D915D916D910E
:1058A0007C911B9740875187628773871C968D91E7
:1058B0009D910D90BC91A02D84879587A687B78771
:1058C0000895BF92CF92DF92EF92FF920F931F93B2
:1058D000CF93DF937C01FC0106A517A5D0A9C1A930
:1058E000858980FF18C060914C0170E080E090E0F5
:1058F0000E9486422AE037ED43E25CE30E94344492
:105900009B01AC01B8018D2F9C2F0E9434448B0168
:10591000D82FC92F2DC082FD17C060914B0170E0B8
:1059200080E090E00E9486422AE037ED43E25CE3AB
:105930000E9434449B01AC01B8018D2F9C2F0E9422
:1059400034448B01D82FC92FF701B2A4C3A4D4A427
:10595000F5A42B2D3C2D4D2D5F2DB8018D2F9C2FA7
:105960000E94F443181624F40B2D1C2DDD2DCF2D91
:1059700020E030E040E85FE3B8018D2F9C2F0E94CB
:10598000F443181624F000E010E0D0E8CFE3B801AB
:105990008D2F9C2FDF91CF911F910F91FF90EF9052
:1059A000DF90CF90BF9008952F923F924F925F92D9
:1059B0006F927F928F929F92AF92BF92CF92DF921F
:1059C000EF92FF920F931F93CF93DF93CDB7DEB784
:1059D000CA55D1090FB6F894DEBF0FBECDBF4B013B
:1059E0003091B005232E312C26E3229DA001239D6A
:1059F000500D1124BA01605B7D4F2B967FAF6EAFC7
:105A00002B97FB0111922A95E9F7F4012085FB0100
:105A1000258BF40144815581668177812B96EEAD0B
:105A2000FFAD2B9742AB53AB64AB75AB21FF4FC0BF
:105A300020E1E3E2F1E0DE01919601900D922A95DA
:105A4000E1F724968FAF249725969FAF259765E5BC
:105A500071E061967FAF6EAF6197CE01C1962F96D0
:105A60009FAF8EAF2F97FE01B1962996FFAFEEAF95
:105A70002997BE016F5E7F4F2D967FAF6EAF2D973A
:105A8000E6E33E9FC001112467969FAF8EAF6797F4
:105A900027967FAF6EAF279700E010E0B12C86E32A
:105AA000829D9001839D300D1124C901805B9D4F23
:105AB0009C01205F3F4F63963FAF2EAF6397BC01C1
:105AC0006C5E7F4F65967FAF6EAF659747C020E1F4
:105AD000E5EBF7E0B0CF6796EEADFFAD6797E00F6F
