:100000000C9401020C9413020C9413020C9413022E
:100010000C9466310C94A6170C9413020C941302E2
:100020000C9413020C9413020C9413020C941302FC
:100030000C9413020C944A200C9413020C94130297
:100040000C94C41F0C9413020C94D31F0C94130231
:100050000C94EC260C947A270C9413020C94130243
:100060000C9413020C9413020C9413020C941302BC
:100070000C9413020C9413020C941302813F873FDB
:100080008A3F8D3F923F9A3FA23F3D403D403D40D9
:10009000AF3FB23FBB3FC43F3D403D403D403D4090
:1000A0003D403D40D03FDA3FE63FEE3FF13FFA3F73
:1000B000034009403D403D4012401B402640DF03C5
:1000C000E303E503E703E903EB03EE03B204E60F02
:1000D000E60F1A04E60FE60F240431043E044B0435
:1000E000E60F4F04E60F5D04E60F670471047B041E
:1000F000E60FE60FE60F8B049804A5042B272D27A7
:100100006827682768276827682768276827682777
:100110006827682733273527372739273B273D2787
:100120003F27412768274527472749274B274D2742
:100130004F27682751275327084AD73B3BCE016EEC
:1001400084BCBFFDC12F3D6C74319ABD56833DDA2E
:100150003D00C77F11BED9E4BB4C3E916BAAAABE3D
:10016000000000803F05A84CCDB2D44EB93836A966
:10017000020C50B9918688083CA6AAAA2ABE0000A3
:1001800000803F000D0A4772626C20312E316632CA
:10019000205B27242720666F722068656C705D0DD8
:1001A0000A005B4D53473A42544E205A65726F41E4
:1001B0006C6C5D0D0A005B4D53473A42544E205A19
:1001C00065726F435D0D0A005B4D53473A42544ED2
:1001D000205A65726F5A5D0D0A005B4D53473A42D3
:1001E000544E205A65726F595D0D0A005B4D53479E
:1001F0003A42544E205A65726F585D0D0A00244EE3
:10020000002C435F41584953002C50414E454C004F
:100210002C5350495F44495350002C5350495F536D
:1002200052002C4156525F363434005B4F50543AE2
:10023000005B5645523A312E3166322C4255494CBC
:10024000443A30382E30332E32303137005B544C44
:100250004F3A005B4739323A003330003238005BA6
:100260004700204700205300204600205400333828
:100270002E005B47433A47005B484C503A24242009
:10028000242320244720244920244E2024783D760E
:10029000616C20244E783D6C696E6520244A3D6C6B
:1002A000696E652024534C50202443202458202478
:1002B00048207E2021203F206374726C2D785D0DD4
:1002C0000A00536C656570696E6700526573746FE0
:1002D00072696E67207370696E646C650052657335
:1002E000746F72696E672064656661756C74730003
:1002F00050676D20456E6400436865636B204C69F0
:100300006D69747300436865636B20446F6F72009E
:1003100044697361626C656400456E61626C65641A
:100320000043617574696F6E3A20556E6C6F636B34
:10033000656400272448277C2724582720746F20D1
:10034000756E6C6F636B00526573657420746F20FB
:10035000636F6E74696E7565005B4D53473A00417B
:100360004C41524D3A007C413A007C4F763A007C39
:1003700046533A007C57434F3A007C506E3A007C1B
:1003800042663A007C57506F733A007C4D506F7351
:100390003A00536C65657000446F6F723A004368B1
:1003A00065636B00416C61726D00486F6D65004A5A
:1003B0006F6700486F6C643A0052756E0049646C58
:1003C00065005A65726F43005A65726F5A005A652C
:1003D000726F59005A65726F5800010203050810C8
:1003E00020304050607890B0D0F00D0A00204D00D1
:1003F0006F6B0D0A005B5052423A006572726F7269
:100400003A0011241FBECFEFD0E1DEBFCDBF2DE0FB
:10041000A0E0B1E001C01D92AE34B207E1F70E9446
:100420006C360C94A0460C9400002F923F924F9291
:100430005F926F927F928F929F92AF92BF92CF9274
:10044000DF92EF92FF920F931F93CF93DF93CDB77D
:10045000DEB7C055D1090FB6F894DEBF0FBECDBFD1
:1004600082E4EDEFF1E0DF011D928A95E9F78BE080
:10047000E1EBF1E0AEEFB1E001900D928A95E1F78A
:100480008091FE0C843211F00C940A1081E080936C
:10049000FE011092FF0183E08E8FB1E0BFA3212CFB
:1004A000312C1CAA1BAA1DA61F8E1BA267E0962E2C
:1004B00001E07AE0C72ED12CEAE08E2EF1E6AF2ED5
:1004C000F3E0BF2E8E8DE82FF0E0E250F34FE08096
:1004D000EE2009F479C29FEB9E0D9A3110F00C9436
:1004E000D60F8F5F8E8FBE01665E7F4FCE014E9618
:1004F0000E94BB35882311F40C94D80F4A8C5B8C76
:100500006C8C7D8CC301B2010E946D460E94AB438E
:10051000162F70E080E090E00E94DC439B01AC016C
:10052000C301B2010E94324220E030E048EC52E4C4
:100530000E948A450E94F7450E94AB43CB01E7E445
:10054000EE1629F0FDE4EF1609F4EAC062C1183294
:1005500009F4C5C020F5143168F4113108F08AC0DF
:10056000143009F452C008F464C01A3009F445C0CC
:100570000C94E60F1C3109F440C050F4163110F011
:100580000C94E60F25E1211B2093000226E0ACC06D
:100590001E3199F1163209F44CC00C94E60F1D334C
:1005A00009F497C0A8F4153381F140F41B3209F423
:1005B0007AC0113309F477C00C94E60F1C3310F0A5
:1005C0000C94E60F6AEC610F6093040229E08CC082
:1005D0001C3538F41A3508F053C0103581F10C94ED
:1005E000E60F1C3551F01F3510F00C94E60F2EE588
:1005F000211B2093FF0125E077C0009731F42BA148
:1006000021110C94DA0F31E03BA31093FD01212F4F
:100610002D7F2C3119F01C3509F063C0009721F0B3
:100620000A9711F00C94E60F610F6093FD0120E032
:1006300060C06BA161110C94DA0FA2E0ABA3109320
:10064000FE01163209F04FC08431910559F08E3108
:10065000910541F08832910529F08233910511F01E
:100660000C94E60FB6010E94DC4166576093FE01D0
:1006700021E03FC06FEE610F6093020222E034C0C0
:10068000892B31F466EA610F6093010223E031C0E7
:100690006A30710511F00C94E60F1A3511F40C94C0
:1006A000E60F24E026C0BBA1B1110C94DA0F113380
:1006B00031F41092030228E0E3E0EBA31AC00A979A
:1006C00011F00C94E60F0093030228E0F3E0FBA383
:1006D00010C0892B11F00C94E60F2AE00AC027E025
:1006E00003C020E001C021E0892B19F087E10C94C0
:1006F0000E1081E090E002C0880F991F2A95E2F762
:100700002BA93CA928233923232B19F085E10C942C
:100710000E102BA93CA9282B392B3CAB2BABD2CEEE
:10072000892B21F71A3040F4173060F5133078F038
:100730001630D0F00C94E60F1E3199F010F40C94A2
:10074000E60F8CE9810F883058F10C94E60F1123E5
:1007500021F0113009F447C004C033E030930502A2
:1007600042C0109305023FC0143021F0153031F023
:1007700080E101C080E28093070202C0109207026C
:100780008CE032C0183021F0193031F080E801C01F
:1007900080E48093060202C0109206028DE024C01D
:1007A000812F90E0FC01E556F109E730F10520F4D6
:1007B000E15AFF4F0C9412428092060212C064E08C
:1007C000609306020EC086E00AC088E008C08BE095
:1007D00006C085E004C09092060203C089E08093C1
:1007E00006028EE001C08BE0A1E0B0E002C0AA0FDB
:1007F000BB1F8A95E2F72BA93CA92A233B23232B75
:1008000009F084CFEBA9FCA9EA2BFB2BFCABEBABEB
:1008100059CE8E2DEE0C990BAA0BBB0BFC01E354A9
:10082000F109E831F10510F00C94E60FEA59FF4F99
:100830000C9412424092090250920A0260920B02FA
:1008400070920C0280E09AC040920D0250920E020B
:1008500060920F0270921002FDA5F160FDA781E089
:100860008DC0409211025092120260921302709257
:1008700014022DA522602DA782E080C040921502AF
:100880005092160260921702709218023DA53460D1
:100890003DA783E073C010931D0284E06FC0C301C5
:1008A000B2010E94A44360931E0270931F028093C2
:1008B00020029093210285E061C040922202509272
:1008C0002302609224027092250286E057C0409273
:1008D000260250922702609228027092290287E035
:1008E0004DC040922A0250922B0260922C027092CC
:1008F0002D0288E043C020E030E04FE753E4C3011D
:10090000B2010E944A45181614F40C94DC0F10939F
:100910002E0289E033C040922F0250923002609242
:100920003102709232026F8D61606F8F8AE026C053
:100930004092330250923402609235027092360235
:100940008F8D82608F8F8BE019C04092370250925A
:1009500038026092390270923A029F8D94609F8FA4
:100960008CE00CC040923B0250923C0260923D02EF
:1009700070923E02AF8DA860AF8F8DE0EE24E394BD
:10098000F12C082E02C0EE0CFF1C0A94E2F797012E
:1009900022213321232B11F00C94DE0FF50102C02C
:1009A000F595E7958A95E2F7E0FF0BC020E030E08F
:1009B000A901C301B2010E94284387FF02C00C9421
:1009C000E00F2E283F287ECDFF8DFF2329F02BA19D
:1009D000211102C032E03BA325FE0FC080911E0210
:1009E00090911F02A0912002B09121028138964976
:1009F000A849B10514F00C94E20F8FA1882301F1EE
:100A000020FC02C00C94EC0F80910002813009F0B0
:100A10003FC023E333E34BEC51E460910902709152
:100A20000A0280910B0290910C020E948A45609309
:100A3000090270930A0280930B0290930C0228C063
:100A40008091FF01813071F49BA1923009F5809172
:100A5000FE018035E9F08823D9F020FC02C00C9417
:100A6000EC0F16C08091B201811112C020FCCCCFD6
:100A70008091C0019091C101A091C201B091C301C8
:100A80008093090290930A02A0930B02B0930C0288
:100A900030FC10C08091BC019091BD01A091BE01BD
:100AA000B091BF0180932A0290932B02A0932C0255
:100AB000B0932D028091FD01843039F426FC03C0EF
:100AC0008CE10C940E10E89426F8809102028823A1
:100AD00091F0813041F4A1E02296AFAF22971DAE94
:100AE000B2E0BBAF0FC022961FAE2297E2E0EDAF9F
:100AF000F1E0FBAF07C022E022962FAF229731E052
:100B00003DAF1BAE80910002813021F06BA16330BC
:100B1000A9F52BC04FE2E42E42E0F42E00E010E0F5
:100B20008F8DC82ED12CC601002E02C095958795B9
:100B30000A94E2F780FF10C023E333E34BEC51E467
:100B4000D7016D917D918D919C910E948A45F7010D
:100B500060837183828393830F5F1F4FF4E0EF0EF6
:100B6000F11C04301105F9F6D1CF809103028130D8
:100B700029F42F8D243011F00C94E40F80E1E9ED7D
:100B8000F1E0DE01119601900D928A95E1F78BA9B3
:100B90009CA991FD09C09091FD019BA79A30C9F0D5
:100BA0009C3509F4B2C013C180910402873018F05B
:100BB0008DE10C940E109091B701981761F3BE016E
:100BC0006F5F7F4F0E945625882311F40C94FA0F13
:100BD000E2CFAF8DA11103C08AE10C940E10C101C8
:100BE00080759927892B09F46BCF6091220270914F
:100BF000230280912402909125020E946D460E945A
:100C0000AB436730A8F680911D02843141F08230F9
:100C100011F00C94E60F27FE02C00C94E60FBFEA19
:100C20002B22662319F0615069AB03C0E0910402E6
:100C3000E9AB6DE072E089A90E945625882311F482
:100C40000C94FA0F80901D024090F9015090FA0127
:100C50006090FB017090FC010DEF11E031EBC32EB1
:100C600031E0D32EE12CF12CFF8DAF2EB12CC5013C
:100C70000E2C02C0959587950A94E2F780FF37C045
:100C800024E182122BC0D601D8962D913D914D9131
:100C90005C91DB9758966D917D918D919C915B97BE
:100CA0000E943242F80122A933A944A955A90E9401
:100CB0003242D80150966D937D938D939C935397B8
:100CC000B2E0EB16F10499F4A30192010E943242C2
:100CD000F801608B718B828B938B09C0F80182A91C
:100CE00093A9A4A9B5A9808B918BA28BB38BFFEF9D
:100CF000EF1AFF0A0C5F1F4F24E0C20ED11C34E034
:100D0000E316F10409F0B3CF2EC16F8D662309F409
:100D100063CF4090F9015090FA016090FB01709010
:100D2000FC010FE212E0C12CD12CE12CF12CA62EFB
:100D3000B12CF601EF54FE4FC5010E2C02C0959563
:100D400087950A94E2F780FF2BC0A1E0B0E0AC0FDA
:100D5000BD1FAC0DBD1D2D913D914D915C91608DE0
:100D6000718D828D938D0E943242D8012D913D91DB
:100D70004D915C910E943242F801608371838283BD
:100D80009383F2E0EF16F104A1F4A30192010E9413
:100D90003242D8016D937D938D939C93139709C034
:100DA00080AD91ADA2ADB3ADF80180839183A283F4
:100DB000B383FFEFEF1AFF0A24E0C20ED11C0C5FD1
:100DC0001F4F34E0E316F10409F0B3CFCBC06BA1A1
:100DD000633071F48BA58E3109F48AC0853309F430
:100DE000BBC08C3109F0BEC06DE072E086E083C00C
:100DF0009F8D992379F3A0910102A9AB4090F9014D
:100E00005090FA016090FB017090FC0121EBC22E22
:100E100021E0D22E0FE212E0FE0131964F01E12CCB
:100E2000F12CA92EB12CC5010E2C02C095958795E9
:100E30000A94E2F780FD0BC0F601808D918DA28DA2
:100E4000B38DF80180839183A283B38340C0FBA557
:100E5000F533E9F129A9211129C0D601D8962D91A0
:100E60003D914D915C91DB97F401608171818281AC
:100E700093810E943342D8012D913D914D915C9117
:100E80000E943342F8016083718382839383F2E08E
:100E9000EF16F104E1F4A30192010E943342D8015C
:100EA0006D937D938D939C93139711C0F601208DC4
:100EB000318D428D538DD8016D917D918D919C9195
:100EC0000E943342F8016083718382839383FFEF32
:100ED000EF1AFF0A24E0C20ED11C0C5F1F4F34E052
:100EE000830E911C64E0E616F10409F09CCF72CFEA
:100EF0006DE072E087E00E945625882311F40C947F
:100F0000FA0F8F8D811103C019AA1BA22CC020E0FB
:100F100030E080E090E0AF8D4A2F50E0BA01082E1B
:100F200002C0759567950A94E2F760FD0EC0F9015D
:100F3000EF54FE4FC08CD18CE28CF38CF901E3505E
:100F4000FE4FC08AD18AE28AF38A01962C5F3F4F16
:100F50008430910519F706C08091FE01823010F0AF
:100F60000C94E80F19AAB091FE01BBA7B03529F483
:100F7000EF8DE1110C94EA0F7BC2FBA1F23009F076
:100F800077C22BA5211104C03F8D311171C22BC036
:100F900020E030E0A9016091090270910A0280917D
:100FA0000B0290910C020E942843882311F40C94A8
:100FB000EC0F6BA56C3809F445C240F46230A9F01F
:100FC0006330B1F0613009F053C20AC08BA58E388E
:100FD00009F438C208F433C28F3809F430C248C269
:100FE0009F8D911145C21BA243C2AFA1A460AFA3C4
:100FF000BF8DBB2309F4F0CDEBAD0E2F10E03DAD5E
:10100000232F30E038AF2FAB81E090E07C010DACB6
:1010100002C0EE0CFF1C0A94E2F702C0880F991F71
:10102000EA95E2F7E82AF92A8B2F90E08E219F219A
:10103000892B09F4D3C7F801EE0FFF1FEE0FFF1F36
:10104000E350FE4FD801AA0FBB1FAA0FBB1FA75327
:10105000BE4F2D913D914D915C9162A973A984A9D8
:1010600095A90E9432422B013C01EFA9F8ADEE0F89
:10107000FF1FEE0FFF1FE350FE4FAFA9B8ADAA0F41
:10108000BB1FAA0FBB1FA753BE4F2D913D914D9182
:101090005C9162A973A984A995A90E9432424B016F
:1010A0005C01610160E8C622DD2427FEF5C0E894FA
:1010B00027F840E150E06FE272E089EC91E00E9495
:1010C0009346892B11F481E2A9C7809100028130F7
:1010D000B1F423E333E34BEC51E4609126027091C9
:1010E000270280912802909129020E948A456093EC
:1010F0002602709327028093280290932902809100
:10110000260290912702A0912802B09129028DA772
:101110009EA7AFA7B8ABA3019201C301B2010E9481
:101120008A4529966CAF7DAF8EAF9FAF2997A501F9
:101130009401C501B4010E948A452D966CAF7DAF24
:101140008EAF9FAF2D9720E030E040E850E46DA5D2
:101150007EA58FA598A90E948A452DA53EA54FA5DD
:1011600058A90E948A4529962CAD3DAD4EAD5FAD84
:1011700029970E9432422D962CAD3DAD4EAD5FAD0C
:101180002D970E9432426B017C0120E030E0A901E2
:101190000E94284387FD24C7C701B6010E94294643
:1011A0006B017C012D962CAD3DAD4EAD5FAD2D9705
:1011B00029966CAD7DAD8EAD9FAD29970E943342CF
:1011C0000E9429469B01AC01C701B60190580E94BC
:1011D00032436B017C019BA5933021F4F7FAF09424
:1011E000F7F8F09420E030E0A9016DA57EA58FA569
:1011F00098A90E94284387FF11C0F7FAF094F7F8E6
:10120000F0948DA59EA5AFA5B8A9B05880932602ED
:1012100090932702A0932802B0932902000F111F78
:10122000000F111F035F1D4FA7019601C501B401F7
:101230000E948A459B01AC01C301B2010E94324267
:1012400020E030E040E05FE30E948A45D8016D93E2
:101250007D938D939C9313970FA918AD000F111FC9
:10126000000F111F035F1D4FA7019601C301B201BB
:101270000E948A459B01AC01C501B4010E94334222
:1012800020E030E040E05FE30E948A45F80160839F
:10129000718382839383ECC03DA5232F30E03EA76A
:1012A0002DA7E222F322EF2809F49CC661EF262243
:1012B00080910002813009F47AC0F801EE0FFF1F1F
:1012C000EE0FFF1FE35FFD4FC080D180E280F3800F
:1012D000A7019601C301B2010E9432422B013C01D9
:1012E000EFA9F8ADEE0FFF1FEE0FFF1FE35FFD4FFD
:1012F00080819181A281B3818DA79EA7AFA7B8AB52
:101300009C01AD01C501B4010E9432424B015C0158
:10131000A3019201C301B2010E948A452B013C0145
:10132000A5019401C501B4010E948A459B01AC014D
:10133000C301B2010E9433420E9429464B015C0165
:10134000A7019601C701B6010E948A456B017C0185
:101350002DA53EA54FA558A9CA01B9010E948A45ED
:101360009B01AC01C701B6010E9433420E9429468D
:101370006B017C0160932602709327028093280200
:10138000909329029B01AC01C501B4010E94324235
:101390004B015C01E894B7F82AE037ED43EA5BE3E0
:1013A000C501B4010E944A45181664F161C09DEF61
:1013B000E92E91E0F92E8DA59EA50C2C02C09595E5
:1013C00087950A94E2F780FF12C023E333E34BECE6
:1013D00051E4D70150966D917D918D919C915397D9
:1013E0000E948A45F701608B718B828B938BFFEF94
:1013F000CF1ADF0A24E0E20EF11C34E0C316D10458
:10140000D1F65BCF20E030E040E05FE3C501B401FE
:101410000E944A4518160CF456CE2FE632E143E8F6
:101420005AE3C701B6010E948A459B01AC01C50180
:10143000B4010E944A4518160CF445CE19C06FA19C
:1014400060616FA38BA58E58823018F48FA18860DD
:101450008FA39F8D992309F4BFCB40E150E06FE249
:1014600072E089EC91E00E949346892B09F42BCE1F
:101470002FA12170AFA1C101A0FF02C08E7D02C0CB
:101480008E7D9C7FBBA1B111937C892B09F0ACC5EB
:101490008E010F5E1F4F89E0F80111928A95E9F7DE
:1014A000222309F44AC08BA99CA9867B892B09F0C9
:1014B0009DC58091FD01853311F0811197C5809103
:1014C000BC019091BD01A091BE01B091BF018D8B77
:1014D0009E8BAF8BB88F9091B9018091BA01892B07
:1014E000898F8091090290910A02A0910B02B0911C
:1014F0000C02898B9A8BAB8BBC8B8091A10185FFF1
:1015000006C08FE292E00E940F17811171C5B801E9
:101510008FE292E00E94153180913B0181116CC5F0
:101520000E947230892B09F467C580E280933B01E9
:101530000E94DE170E94FB225FC58091A101F090FE
:10154000BA0181FF26C09BA59150933018F0FFA1EE
:10155000F064FFA32F8D222339F03BA1323021F418
:101560006FA160686FA315C080E1F81212C090915E
:10157000B10191508FA18074933030F4882349F0E9
:101580009FA190629FA305C0811103C0AFA1A0627B
:10159000AFA380911E0290911F02A0912002B091F2
:1015A00021028093C5019093C601A093C701B09317
:1015B000C8018091FF018093B201882311F088E077
:1015C000898F8091090290910A02A0910B02B0913B
:1015D0000C028093C0019093C101A093C201B0930B
:1015E000C301898B9A8BAB8BBC8B80902A02909025
:1015F0002B02A0902C02B0902D02A50194016091C5
:10160000BC017091BD018091BE019091BF010E940B
:101610002843BFA1B074EB2E811103C0EFA1E5FFF9
:1016200020C0FF2071F0FFA1F7FD0BC0EE2021F0DC
:1016300040E050E0BA0102C0B501A4018F2D0E9424
:10164000712380912A0290912B02A0912C02B091DB
:101650002D028093BC019093BD01A093BE01B09375
:10166000BF01E1100CC08091BC019091BD01A0911F
:10167000BE01B091BF018D8B9E8BAF8BB88F8091D7
:101680002E028093C401809107029091BA019817AD
:1016900051F04D895E896F89788D0E947123809108
:1016A00007028093BA01998D8091BA01892B898FA5
:1016B000809106029091B9019817D1F090913B0169
:1016C000923051F061968FAF61970E9493156196A9
:1016D0008FAD61970E943F3580910602811103C052
:1016E0001092B90105C09091B901892B8093B9017D
:1016F000998D8091B901892B898F8091FD0184306A
:1017000049F5609122027091230280912402909108
:10171000250220913B012230E9F02E966FAF2E97E3
:101720002F967FAF2F9761968FAF619760969FAF8F
:1017300060970E94931540E02E966FAD2E972F96DE
:101740007FAD2F9761968FAD619760969FAD609743
:101750000E949E30809102028093B5018091000228
:101760008093B3012BA1233071F580910302809304
:10177000B601811108C010923702109238021092FF
:10178000390210923A02C0903702D0903802E090AD
:101790003902F0903A02A70196016091F901709127
:1017A000FA018091FB019091FC010E94284388235B
:1017B00051F0C092F901D092FA01E092FB01F0924F
:1017C000FC010E949217809104029091B701981732
:1017D00069F08093B70180E1FE013196A9EDB1E097
:1017E00001900D928A95E1F70E9492178091010273
:1017F0008093B4018091FD018632F1F138F48C318F
:1018000009F18E31F9F08A3069F04FC08C35D1F191
:10181000863609F441C0883209F047C069EC71E0AE
:1018200087E02DC06DE072E089A90E943A25809181
:10183000B70139A9831339C080E1EDE0F2E0A9EDE9
:10184000B1E025C0898D8160898F6BA1662329F065
:10185000B8018FE292E00E941531B8018DE092E06C
:101860000E94153180E1EDE0F2E0A9ECB1E00190D9
:101870000D928A95E1F719C069EC71E086E00E944B
:101880003A2513C080E1EFE2F2E0A9EEB1E0019069
:101890000D928A95E1F707C080E1E9EEF1E0DF0102
:1018A0001D928A95E9F70E9492178091FE0180931C
:1018B000B101803509F42CC3BBA1B23009F028C3B3
:1018C000813021F4BE016F5E7F4F06C0811109C0D7
:1018D000898D8160898FB8018FE292E00E94153175
:1018E0000EC38250823008F0A3C2809126029091EC
:1018F0002702A0912802B09129028BA39CA3ADA33B
:10190000BEA3ABAD94E0A99F70011124F701E7538A
:10191000FE4FFCA7EBA79701235F3D4F3AAB29ABE6
:10192000D9014D905D906D907C90208131814281F4
:101930005381C301B2010E9433426BAB7CAB8DABD0
:101940009EABEDADB4E0EB9F8001112498012753CD
:101950003E4F3EA72DA7C801835F9D4F9CAF8BAF25
:10196000DC018D909D90AD90BC90F901208131817A
:1019700042815381C501B4010E94334221966CAF6C
:101980007DAF8EAF9FAF219777FA709477F8709400
:10199000D501C401B0588F8F98A3A9A3BAA3F701AA
:1019A000E15DFD4F2BA93CA94DA95EA96081718124
:1019B000828193810E9432426B017C01F801E15DDA
:1019C000FD4F21962CAD3DAD4EAD5FAD21976081B1
:1019D0007181828193810E9432424B015C01A70197
:1019E0009601C301B2010E948A456FAB78AF89AFFF
:1019F0009AAFA50194016F8D78A189A19AA10E9447
:101A00008A459B01AC016FA978AD89AD9AAD0E9462
:101A100033426FAB78AF89AF9AAFA5019401C30190
:101A2000B2010E948A454B015C01A70196016F8DAE
:101A300078A189A19AA10E948A459B01AC01C501A8
:101A4000B4010E9432422FA938AD49AD5AAD0E946F
:101A5000B2426B017C019FA192FF13C02DEB37E3D3
:101A600046E055EBC701B6010E944A4587FD1DC0FF
:101A70002BED3FE049EC50E4C701B6010E94324231
:101A800012C02DEB37E346E055E3C701B6010E94D3
:101A90002843181654F02BED3FE049EC50E4C70101
:101AA000B6010E9433426B017C01809095019090B9
:101AB0009601A0909701B09098012BA13CA14DA157
:101AC0005EA1CA01B9010E943342A50194010E949E
:101AD00032429B01AC01C501B4010E948A450E94BB
:101AE00029464B015C0120E030E040E05FE3C701A4
:101AF000B6010E948A452BA13CA14DA15EA10E9486
:101B00008A459F77A50194010E9432430E941744A1
:101B10000E94AB4378AF6FABDB01AB2B09F4D2CEA5
:101B2000198D4B01A12CB12C13FF12C0C501B401BA
:101B30000E94DA439B01AC0169897A898B899C896F
:101B40000E948A45698B7A8B8B8B9C8B177F198FB0
:101B5000C501B4010E94DA434B015C019B01AC0159
:101B6000C701B6010E9432436FA378A789A79AA73D
:101B70002296EFAD2297B4E0EB9FC00111248C01B7
:101B800007531E4FFC01E15DFD4FD8012D913D91A2
:101B90004D915C9160817181828193810E9432427A
:101BA000A50194010E9432432D966CAF7DAF8EAF9C
:101BB0009FAF2D972FA138A549A55AA5CA01B901F4
:101BC0000E948A459B01AC0160E070E080E090E4F7
:101BD0000E9432426B017C012BEA3AEA4AE25EE360
:101BE0006FA178A589A59AA50E948A454B015C0141
:101BF00020E030E040E850E4C701B6010E943342E3
:101C00009B01AC01C501B4010E948A4525966CAFC9
:101C10007DAF8EAF9FAF259720E030E040E05FE3DF
:101C2000C701B6010E948A4529966CAF7DAF8EAF81
:101C30009FAF29971BA222242394312CEFA9F8AD42
:101C40002E163F0609F43ECEBBA1BC3008F048C0BA
:101C500029962CAD3DAD4EAD5FAD29976F8D78A126
:101C600089A19AA10E948A456B017C0125962CAD21
:101C70003DAD4EAD5FAD2597C301B2010E948A45CF
:101C8000A70196010E9433427B016C0129962CAD7D
:101C90003DAD4EAD5FAD2997C301B2010E948A45AB
:101CA0004B015C0125962CAD3DAD4EAD5FAD25974A
:101CB0006F8D78A189A19AA10E948A459B01AC01F0
:101CC000C501B4010E9432422B013C01EBA1EF5F40
:101CD000EBA3470156018F8E98A2A9A2BAA265C0B4
:101CE000B10180E090E00E94DA432FA138A549A518
:101CF0005AA50E948A456B017C010E942D436F8F7B
:101D000078A389A39AA3C701B6010E941B464B0181
:101D10005C01A9A9BAA9CD90DD90ED90FC90F7FAED
:101D2000F094F7F8F094ABADBCAD8D919D910D9012
:101D3000BC91A02D8BA39CA3ADA3BEA32F8D38A1D6
:101D400049A15AA1C701B6010E948A452B013C0155
:101D5000A50194016BA17CA18DA19EA10E948A4541
:101D60009B01AC01C301B2010E9433422B013C0133
:101D7000A5019401C701B6010E948A456B017C014F
:101D80002F8D38A149A15AA16BA17CA18DA19EA143
:101D90000E948A459B01AC01C701B6010E943242F4
:101DA0006F8F78A389A39AA31BA2A30192016BA9A9
:101DB0007CA98DA99EA90E943342EBA5FCA5608356
:101DC0007183828393832F8D38A149A15AA12196D3
:101DD0006CAD7DAD8EAD9FAD21970E943342ADA518
:101DE000BEA56D937D938D939C9313972D962CADEB
:101DF0003DAD4EAD5FAD2D97F8016081718182815F
:101E000093810E943342D8016D937D938D939C936F
:101E10001397BE016F5E7F4F89EC91E00E941531F0
:101E200080913C0181116BC0BFEF2B1A3B0A06CF9A
:101E3000898D8460898F80913B01823009F45FC075
:101E40000E94931580913C01811162C0FFA1F07145
:101E5000FF2E109240012FA123FB882780F90E94BA
:101E6000A41580B1887090911901891749F084E018
:101E70000E94F6160E94771480E00E94A41548C0C4
:101E8000B8018FE292E00E94153181E080933A011F
:101E900082E00E9406170E94771480913C01811114
:101EA00037C080913B018111F6CF80913A0181309A
:101EB00081F4FF2051F080E1EAE1F1E0AAE2B1E033
:101EC00001900D928A95E1F707C085E00E94F61611
:101ED00003C081E08093400110923A0180E00E94AB
:101EE000A4150E9477140E9417200E9482300E943D
:101EF000292C0E94A64180914001811188C080E177
:101F0000EFE2F2E0A9ECB1E001900D928A95E1F7E1
:101F1000809105028093B801882309F47FC00E9454
:101F200093158091B80190913B01833041F4923038
:101F3000D1F188E00E9406170E94771434C081E036
:101F40008093B1011092B5011092B4011092B201C8
:101F50001092B7011092BA011092B90184E68093F1
:101F600042018093430180934401923091F069EDE6
:101F700071E080E00E9456258823E1F10E949217CB
:101F800040E050E0BA0180E00E94272380E00E94F8
:101F90003F3589E593E00E94122C80EF92E00E9489
:101FA000122C0E9449101092B8012FC081E036C057
:101FB00082E034C088E132C086E230C089E12EC0C0
:101FC00084E02CC08BE12AC085E228C084E126C0D1
:101FD0008EE124C08FE122C086E120C080E21EC0D5
:101FE00082E21CC083E21AC084E218C080E116C0FD
:101FF0008FE014C087E012C080E1EFE2F2E0A9ECCC
:10200000B1E001900D928A95E1F780E007C00E944F
:102010007D347ECF1E8E1FA20C944F02C05BDF4F1B
:102020000FB6F894DEBF0FBECDBFDF91CF911F91E9
:102030000F91FF90EF90DF90CF90BF90AF909F9067
:102040008F907F906F905F904F903F902F9008956A
:102050000F931F93CF938C01C0E0F80161917191B0
:10206000819191918F010E94DD2BC33019F08CE298
:102070000E94A427CF5FC43081F7CF911F910F91A9
:1020800008958DEE93E00C94122C8AEE93E00C945C
:10209000122C8DE50E94A4270C9445104F925F925C
:1020A0006F927F928F929F92BF92CF92DF92EF9228
:1020B000FF920F931F93CF93DF93CDB7DEB7E097D7
:1020C0000FB6F894DEBF0FBECDBF1091EC0A1123FE
:1020D00059F181E080933B018FE593E00E94122C3F
:1020E000812F0E94EC2B0E94451084EF91E00E940A
:1020F00093301150123030F08FB7F8941092EC0AF0
:102100008FBF12C089E593E00E94122C87E493E010
:102110000E94122C0E94491080E10E94FC168091BE
:10212000EB0A84FFFCCFE8CF0091EB0A002309F40F
:102130001AC304FF04C081E080933C01C2C300FFC6
:1021400022C280E1EAE1F1E0DE01919601900D9278
:102150008A95E1F7BE016F5D7F4FCE0141960E94E7
:102160004A178CE30E94A42780913B01883009F430
:102170004FC068F4813009F465C0C8F0823009F4BA
:1021800064C0843009F074C08AEA93E06FC0803282
:1021900009F455C018F48031F1F16AC0803409F4B3
:1021A00057C0803809F064C082E993E05FC01091A5
:1021B0004502112351F110FF09C084ED93E00E9404
:1021C000122C113019F08CE20E94A42711FF09C0D3
:1021D0008EEC93E00E94122C153018F08CE20E94D5
:1021E000A42712FF09C088EC93E00E94122C19303A
:1021F00018F08CE20E94A42713FF04C082EC93E045
:102200000E94122C1092450233C08DEB93E02EC039
:1022100089EB93E02BC080913D0187FD10C083EBDB
:1022200093E00E94122C80913D0180FF06C080E364
:102230001AC082FF17C085FFFACF81E314C08FEA6E
:1022400093E014C084EA93E011C08EE993E00EC0DD
:1022500088E993E00E94122C80913D0183FFE9CF31
:1022600083E301C082E30E94A42702C00E94122CD3
:1022700080919001982F9170B92E80FD14C04090EC
:10228000F9015090FA016090FB017090FC0199ED0A
:10229000892E91E0992EFE0131967F01CE01419663
:1022A0006C0111E019C080914701882341F38BE84C
:1022B00093E03EC0A30192010E943342F701608384
:1022C000718382839383BB20E1F094E0E90EF11CDB
:1022D0001F5FE4E0CE0ED11CF401619171918191F8
:1022E00091914F0124853585468557850E9433425B
:1022F000F70160837183828393831330D9F2B11025
:1023000011C0F7012081318142815381F601608142
:102310007181828193810E943242F60160837183D0
:1023200082839383143089F6B110C1CF84E893E09F
:102330000E94122CCE0141960E942810809190019B
:1023400081FF1FC08FE793E00E94122C9091BA0A80
:1023500080914902981710F0895D01C08150891B56
:102360000E94EC2B8CE20E94A4278091430C909158
:10237000440C981710F0805801C08150891B0E94AE
:10238000EC2B0E949531F82E0E949717182F80B1E0
:10239000982F987080911901E92EE8268F2D812BB6
:1023A0008E2959F18AE793E00E94122CEE2019F051
:1023B00080E50E94A427FF2079F0F0FE03C088E5A5
:1023C0000E94A427F1FE03C089E50E94A427F2FE23
:1023D00003C08AE50E94A427112379F010FF03C0EF
:1023E00082E50E94A42711FF03C088E40E94A4276D
:1023F00012FF03C083E50E94A42780914701882330
:1024000021F081508093470118C080913B018C7767
:1024100011F08DE101C089E0809347018091460170
:10242000811103C081E08093460184E793E00E941C
:10243000122CCE0101960E942810F0904601FF2038
:1024400021F0FA94F092460196C08FE693E00E9444
:10245000122C80913B018C7749F06091D20A7091E7
:10246000D30A8091D40A9091D50A03C060E070E04D
:10247000CB010E94CE2B8CE20E94A42760914801E0
:102480007091490180914A0190914B0140E00E9476
:10249000302B80913B018C7711F083E101C089E002
:1024A000809346018AE693E00E94122C80914201BB
:1024B0000E94EC2B8CE20E94A427809143010E9491
:1024C000EC2B8CE20E94A427809144010E94EC2B0B
:1024D0008091B00087FF07C05E9903C0FF24F3948A
:1024E00002C082E0F82E10914402809143028111D3
:1024F0001260809142028111146080914102811129
:102500001860809140028111106180913F02882300
:1025100011F0106204C0F11002C0112361F186E6CF
:1025200093E00E94122CFF2041F0F1E0FF1202C064
:1025300083E501C083E40E94A42710FF03C086E462
:102540000E94A42711FF03C08DE40E94A42712FF5C
:1025500003C080E30E94A42713FF03C081E30E940D
:10256000A42714FF03C082E30E94A42715FF03C021
:1025700083E30E94A4278EE30E94A4270E944510B3
:1025800081E00E94FC16802F887E09F469C080914A
:102590003B01982F937009F052C08872A1F080918E
:1025A0003D01807C81F40E945F1F82E080933F01A7
:1025B00080913B01803239F407FD05C080913D01D7
:1025C000806880933D0180913B01811103C091E0BF
:1025D00090933D0106FF07C085FD05C090913D0128
:1025E000906490933D0103FF05C0807E19F480E163
:1025F00080933B0105FF23C089E593E00E94122CE4
:1026000085E093E00E94122C0E94491080913D01C8
:1026100087FD10C090913B01903439F483FF07C0CF
:10262000837E826080933D0102C0903819F080E47F
:1026300080933B0180913D01806280933D0107FFC3
:102640000CC080913B01813029F480913D0185606F
:1026500080933D0180E880933B0188EE0E94FC1648
:1026600001FF44C0802F8876F1F580913B018034D2
:1026700071F480913D0185FD0AC084FF03C0109272
:102680003B0105C082FF03C0886080933D018091BB
:102690003B01882381F084FF26C090913D0190FF8B
:1026A00022C0803141F480914501882321F0886067
:1026B0008093450118C010923F010E947230892B0F
:1026C00071F080913D0186FD0AC010923D0188E0C5
:1026D00080933B010E94DE170E94FB2204C01092EF
:1026E0003D0110923B0182E00E94FC1602FF3BC0BC
:1026F00080913B01807D90913D018823A9F08091DC
:102700003E01811111C097FD0FC00E94212C8091C4
:102710003F0181FF05C090913D01916090933D0183
:10272000897F80933F011CC097FF0AC010923F0130
:102730000E9482300E9417200E947D340E94292C22
:1027400080913D0185FF08C08F77816080933D01B6
:1027500080E480933B0104C010923D0110923B0144
:1027600084E00E94FC161091EF0A112381F10E946F
:10277000D6163091420110FF02C084E601C0832FBB
:1027800011FD865F12FD8A5013FD8F5F14FD81508D
:10279000893C08F088EC811101C081E0209143015F
:1027A00015FF02C094E601C0922F16FD92E317FDBB
:1027B00099E1831302C0921751F0809342019093E4
:1027C0004301109246010E94E42F0E94212C109197
:1027D000EE0A1123C9F00E94D616E12FF0E0E6526E
:1027E000FC4F8491893C08F088EC811101C081E0A4
:1027F00090914201891741F0809342011092460165
:102800000E94E42F0E94212C9091ED0A992309F453
:1028100052C08FB7F8941092ED0A8FBF20914401F7
:1028200090FF02C084E601C0822F91FD865F92FD79
:102830008A5093FD8F5F94FD8150893C08F088ECAD
:102840008A3008F48AE0821749F020913F0128601D
:1028500020933F01809344011092460180913B01F7
:1028600095FF0DC0803159F420914501211102C01E
:1028700022E003C020FF03C0246020934501292FDC
:10288000207CC9F0882311F08871A9F01091B9015A
:1028900097FF05C017FF02C01F7701C0106896FFA1
:1028A00005C016FF02C01F7B01C01064812F0E946B
:1028B0003F351093B90180913B018C7F11F00E944C
:1028C000DE17E0960FB6F894DEBF0FBECDBFDF91E6
:1028D000CF911F910F91FF90EF90DF90CF90BF901D
:1028E0009F908F907F906F905F904F900895CF92C0
:1028F000DF92EF92FF921F93CF93DF930E944E10CF
:1029000080913D01882309F4FEC00E947230009737
:1029100071F4C091B9018091BA01C82BC090BC017B
:10292000D090BD01E090BE01F090BF0106C0FC0157
:10293000C589C2A8D3A8E4A8F5A88091A10181FF08
:1029400003C080E20E94DE16DC2FD07311E0C07459
:1029500080913D01882309F4D6C00E94CD310E94A8
:10296000C6240E94AF2480913C018111CCC090917B
:102970003D0190FFC5C080913B01282F207C09F4C8
:1029800074C092FD12C01092450140E050E0BA01BF
:1029900080E00E94272380E00E943F3590913D0116
:1029A0009D7F946090933D01ABC08038E1F489E550
:1029B00093E00E94122C82EC92E00E94122C0E9462
:1029C000491040E050E0BA0180E00E94272380E0F7
:1029D0000E943F350E94E91F80913C01811193C004
:1029E0000E944E10F9CF803419F49F7D90933D01E1
:1029F00080913D0183FF84C09091BA019923C1F079
:102A000081FD16C08091A10181FF06C080913F0128
:102A1000886080933F010CC0B701A6018D2F0E94F2
:102A2000272341E060E070E080E890E40E949E305F
:102A30008091B901882371F080913D0181FD0AC028
:102A40008C2F0E943F3541E060E070E080E89FE31A
:102A50000E949E3090913D0191FD52C090619093F3
:102A60003D0182E00E9406174BC0909145019923D9
:102A7000C9F191FF0DC08091BA018823B1F040E007
:102A800050E0BA0180E00E9427231093450138C02E
:102A90009C70B1F18091BA0181110AC08091450109
:102AA00083FF03C082E00E9406171092450128C0F0
:102AB00089E593E00E94122C8BEC92E00E94122C8C
:102AC0000E9449108091A10181FF06C080913F01C1
:102AD000886080933F01E2CFB701A6018D2F0E944D
:102AE0002723DCCF80913F0183FF0AC0B701A601F5
:102AF0008D2F0E94272380913F01877F80933F0184
:102B00000E944E1025CFDF91CF911F91FF90EF9043
:102B1000DF90CF9008950E947230892B19F082E0E7
:102B20000C94061708950E948B150E9477148091CB
:102B30003C01811108C00E947230892BB1F780914D
:102B40003B01883091F30895109219019091A101F1
:102B500097FD03C098E090931901882331F090917C
:102B6000190188E089278093190108958093B300A3
:102B700081110DC08091B0008F778093B00080915B
:102B800047028E7F80934702109246020DC08091CB
:102B9000B00080688093B00080914702816080938C
:102BA000470281E0809346020C94C6244F925F92C4
:102BB0006F927F928F929F92AF92BF92CF92DF924D
:102BC000EF92FF92CF936B017C01C0914401809002
:102BD0009D0190909E01A0909F01B090A001409017
:102BE000990150909A0160909B0170909C01A30103
:102BF0009201C501B4010E944A4587FF1AC06C2F9B
:102C000070E080E090E00E94DC432AE037ED43E290
:102C10005CE30E948A459B01AC01C701B6010E949A
:102C20008A456B017C01A30192010E944A4587FD00
:102C30000AC0409248015092490160924A01709244
:102C40004B018FEF47C0A5019401C701B6010E9457
:102C500028431816E4F020E030E0A901C701B601CE
:102C60000E942843811109C0109248011092490125
:102C700010924A0110924B012DC08092480190920F
:102C80004901A0924A01B0924B0181E023C0C09259
:102C90004801D0924901E0924A01F0924B01A5010E
:102CA0009401C701B6010E9432422091F00A30918E
:102CB000F10A4091F20A5091F30A0E948A450E945B
:102CC000174420E030E040E85FE30E9433420E9476
:102CD000AB43862FCF91FF90EF90DF90CF90BF90C6
:102CE000AF909F908F907F906F905F904F900895DE
:102CF000CF93DF93CEEFDCE08991882319F00E9417
:102D0000A427FACFDF91CF910895CF93DF9321E5E8
:102D1000829FC0011124EC01DD5F40E550E0BE015F
:102D20008EEF9CE00E94EC34892B69F41092FE0C2B
:102D30000E94931540E550E06EEF7CE0CE010E94CA
:102D4000A53480E001C081E0DF91CF910895CF9359
:102D5000DF93C0E08C2F0E94851681110EC0109267
:102D6000FE0C8EE30E94A4270E9478168AE30E943C
:102D7000A42787E00E94022812C08091FE0C8823BD
:102D800071F00E941502D82F8EE30E94A4270E94A2
:102D900078168AE30E94A4278D2F0E942029C13033
:102DA00011F0C1E0D7CFDF91CF9108958FB7F8949C
:102DB0001092EF0A1092EE0A8FBF08952FB7F89481
:102DC0009091ED0A892B8093ED0A2FBF08959FB74C
:102DD000F8948093EE0A9FBF08952FB7F8949091CE
:102DE000EF0A892B8093EF0A2FBF08959FB7F894BD
:102DF0008093EC0A9FBF08952FB7F8949091EB0A47
:102E0000809589238093EB0A2FBF08952FB7F894FC
:102E10009091EB0A892B8093EB0A2FBF0895AF9214
:102E2000BF92CF92DF92EF92FF920F931F93CF93B7
:102E3000DF93EC010CE711E05C0180E1A80EB11C0E
:102E4000C990D990E990F99020E030E0A901C7013C
:102E5000B6010E944A4518168CF0F8012191319173
:102E6000419151918F01C701B6010E94284387FD0E
:102E700005C0CA15DB0521F780E001C081E0DF91C4
:102E8000CF911F910F91FF90EF90DF90CF90BF9067
:102E9000AF900895AF92BF92CF92DF92EF92FF92E0
:102EA0000F931F93CF93DF9300D000D0CDB7DEB741
:102EB0005B012CE4E22E21E0F22E8C016B0180E11B
:102EC000C80ED11CF50161917191819191915F01C1
:102ED000F70121913191419151917F0129833A83E9
:102EE0004B835C830E94DC4329813A814B815C8166
:102EF0000E943243F80161937193819391938F0102
:102F0000AC14BD04F9F60F900F900F900F90DF9165
:102F1000CF911F910F91FF90EF90DF90CF90BF90D6
:102F2000AF9008950E94931510924701089593B1B0
:102F3000892F877049F0892F8095817091FF826079
:102F400092FD03C08460089580E008951F920F925F
:102F50000FB60F9211242F933F934F935F936F936C
:102F60007F938F939F93AF93BF93EF93FF930E94B1
:102F70009717882391F080FF03C00E94CF300DC0C7
:102F800082FF04C08091EB0A826005C081FF05C00A
:102F90008091EB0A88608093EB0AFF91EF91BF91DB
:102FA000AF919F918F917F916F915F914F913F91E1
:102FB0002F910F900FBE0F901F9018952F923F9258
:102FC0004F925F926F927F928F929F92AF92BF9239
:102FD000CF92DF92EF92FF920F931F93CF93DF93E5
:102FE000CDB7DEB7EE970FB6F894DEBF0FBECDBFFC
:102FF00080913F0180FD4AC79091230B8091240B63
:10300000981709F443C78091C00B9091C10B892B8D
:1030100009F017C310913F0112FF09C08091BA0A4D
:1030200026E3289FC0011124865B9D4F02C00E94A9
:1030300072309093C10B8093C00B2090C00B3090E6
:10304000C10B2114310409F421C70091BC0A802F5F
:10305000817000FF03C01092BC0AEAC09091BB0AC5
:103060009F5F953009F0892F8093BB0AE82EF12CE1
:1030700036E13E9DF0013F9DF00D1124EE5AF44FD4
:10308000F093510BE093500BD10154969C915497BF
:10309000948BE6E18E9FC001112420E030E04D9139
:1030A0005D916D917D91F901E80FF91FEE5AF44F92
:1030B000689412F8440F551F661F771F1694D1F7B6
:1030C00040835183628373832C5F3F4F20313105EE
:1030D00031F726E12E9DF0012F9DF00D11249F0167
:1030E0002E5A344FF10180899189A289B38943E036
:1030F000880F991FAA1FBB1F4A95D1F7F901808B32
:10310000918BA28BB38BD10150966D917D918D9156
:103110009C9153970E94DA436093C10A7093C20A4C
:103120008093C30A9093C40AF10122A133A144A160
:1031300055A10E9432439B01AC016093C50A709374
:10314000C60A8093C70A9093C80A60E070E080EADC
:103150009FE30E9432436093C90A7093CA0A809326
:10316000CB0A9093CC0A1092BD0A1092BE0A10921C
:10317000BF0A1092C00A11FD02C003FF1FC0609178
:10318000DA0A7091DB0A8091DC0A9091DD0A609383
:10319000D20A7093D30A8093D40A9093D50A9B01E4
:1031A000AC010E948A45D10156966D937D938D9313
:1031B0009C935997077F0093BC0A0FC0F101668961
:1031C0007789808D918D0E9429466093D20A7093F1
:1031D000D30A8093D40A9093D50AF6E1FE9DC001EC
:1031E000FF9D900D11249C012E5A344F7901D90175
:1031F00055961C928091A10181FF1AC0F101858929
:1032000085FF16C026A537A540A951A960E070E04A
:1032100080E89FE30E9432436093E60A7093E70AD6
:103220008093E80A9093E90AE1E0D7015596EC9380
:103230001092CE0A1092CF0A1092D00A1092D10AA0
:10324000D1015E962D913D914D915C91919729838D
:103250003A834B835C8360E070E080E09FE30E94F0
:10326000324369877A878B879C87F10142A053A0FC
:1032700064A075A086889788A08CB18C11FF44C08B
:10328000F2E0F093CD0AA50194010E948A459B01CA
:10329000AC01C301B2010E9432426B017C0120E00B
:1032A00030E0A9010E94284387FF1DC029813A818F
:1032B0004B815C81CA01B9010E943342A301920192
:1032C0000E948A459B01AC01C501B4010E943242B3
:1032D0000E9429466093DA0A7093DB0A8093DC0A25
:1032E0009093DD0AABC1C092CE0AD092CF0AE09291
:1032F000D00AF092D10A1092DA0A1092DB0A1092E8
:10330000DC0A1092DD0A9AC11092CD0A4092DE0AC0
:103310005092DF0A6092E00A7092E10A12FF0CC03C
:103320001092DA0A1092DB0A1092DC0A1092DD0A7F
:10333000C12CD12C760124C0E0914902EF5FE83224
:1033400009F4E0E08091BA0AE81759F026E32E9FCD
:10335000F0011124E65BFD4FC688D788E08CF18C24
:1033600003C0C12CD12C7601C701B6010E942946A9
:103370006093DA0A7093DB0A8093DC0A9093DD0A8B
:10338000C1010E94552C698B7A8B8B8B9C8B9B0186
:10339000AC010E948A456D837E838F8398879B0151
:1033A000AC01C501B4010E944A4518160CF070C06A
:1033B0002D813E814F815885C501B4010E94324262
:1033C0009B01AC0169857A858B859C850E948A4525
:1033D0009B01AC01C301B2010E9432426093DE0A3C
:1033E0007093DF0A8093E00A9093E10A20E030E0D6
:1033F000A9010E94284318162CF132E03093CD0A1F
:1034000029813A814B815C81CA01B9010E94334212
:10341000A30192010E948A459B01AC01C501B40140
:103420000E9432420E9429466093DA0A7093DB0AB6
:103430008093DC0A9093DD0A8091BC0A88608093B7
:10344000BC0AFCC0A70196016D817E818F819885A1
:103450000E9432429B01AC0169857A858B859C85EF
:103460000E948A456093E20A7093E30A8093E40A1B
:103470009093E50A89899A89AB89BC898093D60A99
:103480009093D70AA093D80AB093D90A93E0BBC00F
:10349000A7019601C501B4010E9432429B01AC0113
:1034A00069857A858B859C850E948A459B01AC0144
:1034B000C301B2010E94334220E030E040E05FE30C
:1034C0000E948A456D877E878F87988B20E030E049
:1034D000A9010E944A4518160CF098C0A301920158
:1034E0006D857E858F8598890E94284387FF8AC0D5
:1034F000A70196016D817E818F8198850E9432425D
:103500009B01AC0169857A858B859C850E948A45E3
:103510006093E20A7093E30A8093E40A9093E50AC9
:103520002D853E854F8558890E94284387FF39C0E5
:1035300029893A894B895C892093D60A3093D70A26
:103540004093D80A5093D90A2D813E814F815885E6
:10355000C501B4010E942843811104C031E03093B9
:10356000CD0A6CC0A50194016D817E818F81988503
:103570000E9432429B01AC0169857A858B859C85CE
:103580000E948A459B01AC01C301B2010E943242F4
:103590006093DE0A7093DF0A8093E00A9093E10A59
:1035A0004DC08D859E85AF85B8898093DE0A909346
:1035B000DF0AA093E00AB093E10A8093E20A9093B5
:1035C000E30AA093E40AB093E50A29813A814B818A
:1035D0005C81CA01B9010E9433422D853E854F8529
:1035E00058890E948A45A70196010E9433420E9491
:1035F00029466093D60A7093D70A8093D80A90938D
:10360000D90A1CC092E09093CD0A18C01092DE0A2D
:103610001092DF0A1092E00A1092E10A8091DA0A11
:103620009091DB0AA091DC0AB091DD0A8093D60A62
:103630009093D70AA093D80AB093D90A1860109330
:103640003F0180914F0BA82FB0E0BA87A98727E0F0
:103650002A9FF0012B9FF00D1124EB5DF44F809118
:10366000BB0A84834091C00B5091C10B5EAF4DAF3C
:10367000DA019296BC91BEA3FA01F3A1FFA3DA018D
:103680009496BC91B8A7FA01F5A1F9A72091C90AAF
:103690003091CA0A4091CB0A5091CC0A6EA17FA109
:1036A0008B2F9F2F0E9432426AAB7BAB8CAB9DABC2
:1036B00020E030E0A9010E94284387FF04C01AAA35
:1036C0001BAA1CAA1DAA2091DE0A2D833091DF0AB5
:1036D0003D874091E00A498B5091E10A5D8B8091D2
:1036E000D60A8A8F9091D70A9B8FA091D80AAC8F67
:1036F000B091D90ABD8F6090D20A7090D30A4090E1
:10370000D40A5090D50AE091E20AEAA7F091E30AC0
:10371000FBA72091E40A2CA73091E50A3DA7409130
:10372000CD0A49835091CE0A5EA78091CF0A8FA718
:103730009091D00A98ABA091D10AA9ABB091DA0AC6
:10374000BEABE091DB0AEFABF091DC0AF8AF209161
:10375000DD0A29AF2EA03FA008A519A58EE3C82E2B
:1037600083ECD82E8EE2E82E89E3F82E1E8A1F8A7B
:10377000188E198ECE8EDF8EE8A2F9A29981913033
:1037800009F4E7C008F474C0ADADBEAD5E962D91EE
:103790003D914D915C919197933009F009C1C7011A
:1037A000B6010E948A454B015C0120E030E040E018
:1037B0005FE30E948A459B01AC01B301C2010E94F4
:1037C00032429B01AC01C701B6010E948A456AA33F
:1037D0007BA38CA39DA39B01AC01B101C8010E94F6
:1037E00032421B018C012D813D8549895D890E94F2
:1037F000284387FD0BC020E030E0A9016AA17BA12E
:103800008CA19DA10E94284318165CF12D813D8555
:1038100049895D896EA17FA188A599A50E94324240
:103820009B01AC010E9433426B017C012A8D3B8DD0
:103830004C8D5D8DB301C2010E9433429B01AC01EE
:10384000C701B6010E9432436B017C016A8C7B8CFC
:103850004C8C5D8C2D803D8409891D89B1E0B98334
:1038600011C1A5019401B301C2010E9432426EC090
:10387000EDADFEAD268D378D40A151A1C701B6013A
:103880000E948A454B015C0120E030E040E05FE3AC
:103890000E948A459B01AC01B301C2010E943342E0
:1038A0009B01AC01C701B6010E948A459B01AC0196
:1038B000B101C8010E9432421B018C012D813D855E
:1038C00049895D890E94284387FF3AC02D813D8543
:1038D00049895D896EA17FA188A599A50E94324280
:1038E0009B01AC010E9433426B017C012A8D3B8D10
:1038F0004C8D5D8DB301C2010E9433429B01AC012E
:10390000C701B6010E9432436B017C012AA53BA589
:103910004CA55DA56D817D8589899D890E9428437F
:10392000811103C0F2E0F98302C021E029836A8C8F
:103930007B8C4C8C5D8C2D803D8409891D89A2C0B7
:10394000A5019401B301C2010E9433423B012C0145
:1039500099C0A70196016A8D7B8D8C8D9D8D0E94EB
:103960008A459B01AC01B101C8010E9432425B0152
:103970004C012AA53BA54CA55DA50E94284387FFC5
:103980007FC02AA53BA54CA55DA5B101C8010E9439
:1039900032422A8D3B8D4C8D5D8D0E9432436B01EE
:1039A0007C012AA43BA40CA51DA532E039836AC082
:1039B000C701B6010E948A454B015C019B01AC0125
:1039C000B301C2010E944A4518169CF520E030E080
:1039D00040E05FE3C501B4010E948A459B01AC0150
:1039E000B301C2010E9432429B01AC01C701B60182
:1039F0000E948A459B01AC01B101C8010E9432427C
:103A00006AA37AAF8BAF9CAF2EA53FA548A959A951
:103A10000E944A4518166CF4A5019401B301C20135
:103A20000E9432423B012C012AA03AAC0BAD1CADE6
:103A300029C02EA53FA548A959A9B101C8010E94D6
:103A400032429B01AC010E9433426B017C012EA9E2
:103A50003FA948AD59ADB301C2010E9433429B0159
:103A6000AC01C701B6010E9432436B017C016EA814
:103A70007FA848AC59AC2EA43FA408A919A902C03C
:103A800015018401A70196016E897F89888D998D22
:103A90000E9433426E8B7F8B888F998F2E8D3F8D46
:103AA00048A159A10E94284387FF09C02E893F8958
:103AB000488D598D6E8D7F8D88A199A131C02AA91D
:103AC0003BA94CA95DA9B101C8010E944A4518163D
:103AD000ACF0C301D2018093D20A9093D30AA09391
:103AE000D40AB093D50AB981B093CD0AE091500BB6
:103AF000F091510B9589911134C02FC02EE333EC16
:103B00004EE259E36E8D7F8D88A199A10E943342C8
:103B10006E8F7F8F88A399A32E893F89488D598DF9
:103B20000E9432426B017C012EA53FA548A959A9EC
:103B3000B101C8010E944A4518160CF41FCEC301FA
:103B4000D2018093D20A9093D30AA093D40AB0935F
:103B5000D50AE981E093CD0AC9CF80913F0183FF67
:103B60003FC0ADADBEAD55968C915597807349F170
:103B7000D296CD90DD90ED90FC90D5979923D1F021
:103B80002091E60A3091E70A4091E80A5091E90A4B
:103B90006091D20A7091D30A8091D40A9091D50A8B
:103BA0000E948A459B01AC01C701B6010E948A456B
:103BB0006B017C01C701B6010E94D6158093EA0A09
:103BC0000AC0109248011092490110924A011092C5
:103BD0004B011092EA0A80913F01877F80933F0159
:103BE00027E0E985FA852E9FA0012F9F500D112413
:103BF000CA018B5D944F9E838D838091EA0AAD81CB
:103C0000BE8116968C932091C50A3091C60A4091C8
:103C1000C70A5091C80AB101C8010E948A452B0108
:103C20003C010E9411436B017C016091C10A7091BB
:103C3000C20A8091C30A9091C40A0E9411434B01A9
:103C40005C01A70196010E9432420E94AB43698346
:103C50007A838B839C8329813A81ED81FE81318334
:103C60002083232B41F480913F0181FF04C08160B8
:103C700080933F010BC12091BD0A3091BE0A409153
:103C8000BF0A5091C00A6E897F89888D998D0E94E4
:103C900033426D837E838F839887A3019201C50190
:103CA000B4010E9432429B01AC016D817E818F8103
:103CB00098850E9432434B015C0120EC31EE44E6D2
:103CC0005EE40E948A450E9411430E94AB43603D1E
:103CD00057E075078105910560F427E0A985BA854D
:103CE0002A9FF0012B9FF00D1124EB5DF44F1582FC
:103CF00054C0603A3FE073078105910568F4A7E07E
:103D000049855A85A49FF001A59FF00D1124EB5D14
:103D1000F44FB1E0B5831FC06034EFE17E07810549
:103D2000910568F447E029853A85429FF001439F59
:103D3000F00D1124EB5DF44F52E055830CC027E0E9
:103D4000A985BA852A9FF0012B9FF00D1124EB5D08
:103D5000F44F33E03583A7E049855A85A49FF001ED
:103D6000A59FF00D1124EB5DF44F2581022E04C0B8
:103D700096958795779567950A94D2F749815A81E8
:103D800002C0440F551F2A95E2F751834083611505
:103D9000710551E08507910568F427E0A985BA858A
:103DA0002A9FF0012B9FF00D1124EB5DF44F7383DC
:103DB000628304C04FEF5FEF538342838091240BF3
:103DC00080934F0B8F5F863019F08093240B02C0D5
:103DD0001092240BE091C00BF091C10BC101D801EE
:103DE00082A393A3A4A3B5A3C092C10AD092C20A8E
:103DF000E092C30AF092C40AA3019201C701B6017E
:103E00000E943242A50194010E948A456093BD0A36
:103E10007093BE0A8093BF0A9093C00A2091CE0A85
:103E20003091CF0A4091D00A5091D10AB101C80116
:103E30000E9428438111E0C820E030E0A901B101CF
:103E4000C8010E944A4590913F01181614F092FF54
:103E500004C0916090933F0119C01092C10B109261
:103E6000C00B909149028091BA0A891709F4C4C81D
:103E700081E0890F883209F480E020914802921392
:103E800002C08093480280934902B6C8EE960FB6EE
:103E9000F894DEBF0FBECDBFDF91CF911F910F9180
:103EA000FF90EF90DF90CF90BF90AF909F908F905A
:103EB0007F906F905F904F903F902F900895CF9399
:103EC000DF93C091C00BD091C10B2097C9F08091B6
:103ED000BC0A81608093BC0A6091D20A7091D30AB7
:103EE0008091D40A9091D50A9B01AC010E948A4529
:103EF0006E8B7F8B888F998F1092C10B1092C00BA5
:103F0000DF91CF91089560918D0170E040E0E091E4
:103F10008E01F0E080E090E030E0582FDB01082EC9
:103F200002C0B595A7950A94E2F7A0FF0EC00097CE
:103F300031F0813031F0823031F020E405C021E0F1
:103F400003C024E001C020E1422BDF0102C0B5958F
:103F5000A7955A95E2F7A0FF0EC0009731F0813087
:103F600031F0823031F020E805C022E003C028E0C3
:103F700001C020E2322B01968430910571F6409306
:103F8000F40A3093F50A08951F920F920FB60F921C
:103F900011248F938091070B88B98F910F900FBEDA
:103FA0000F901F9018951F920F920FB60F92112429
:103FB0008F939F9388B19091F40A95758A7A892B93
:103FC00088B915BC9F918F910F900FBE0F901F90D5
:103FD000189580916F008D7F80936F008091810094
:103FE000887F8160809381001092F60A80918F0112
:103FF00090913B018F3F39F42091EC0A211103C0CD
:10400000903841F402C0943029F090E00E9493303F
:1040100081E001C080E09091A10192FF02C091E097
:104020008927882311F05D9A08955D980895CF93AC
:10403000DF930E94E91F80E3EBEBFAE0DF011D92C2
:104040008A95E9F7C7EFDAE08CE2FE0111928A95D2
:10405000E9F71092C10B1092C00B1092230B109233
:104060004F0B81E08093240B1092F60A0E94831F6D
:104070008091F50A8C8B88B18A7A9091F40A892B09
:1040800088B988B185759091F50A892B88B9DF9137
:10409000CF9108951F920F920FB60F9211242F9374
:1040A0003F934F935F936F937F938F939F93AF93C0
:1040B000BF93EF93FF938091F60A81118BC288B171
:1040C00090910B0B9A7A8575892B88B988B18A7A79
:1040D00090910A0B892B8093070B8091090B86BD69
:1040E00082E085BD81E08093F60A78948091210B6F
:1040F0009091220B892B09F0D3C08091230B9091D2
:104100004F0B981709F4BCC0E091230B2E2F30E021
:1041100087E0E89FF0011124EB5DF44FF093220B50
:10412000E093210B82819381909389008093880092
:104130008081918190931D0B80931C0BE481809171
:104140001E0B8E17A1F1E0931E0B86E1E89FF00194
:104150001124EE5AF44FF093200BE0931F0B80894B
:104160009189A289B389B695A795979587958093EC
:10417000030B9093040BA093050BB093060B809355
:10418000FF0A9093000BA093010BB093020B809356
:10419000FB0A9093FC0AA093FD0AB093FE0A809359
:1041A000F70A9093F80AA093F90AB093FA0AE091FB
:1041B0001F0BF091200B9091F50A84898927809339
:1041C0000B0B87E0829FD001839FB00D1124AB5D64
:1041D000B44F15968C9115974081518162817381FE
:1041E000082E04C076956795579547950A94D2F79F
:1041F00040930C0B50930D0B60930E0B70930F0BB1
:104200004481558166817781082E04C07695679533
:10421000579547950A94D2F74093100B5093110B82
:104220006093120B7093130B4085518562857385E3
:10423000082E04C076956795579547950A94D2F74E
:104240004093140B5093150B6093160B7093170B40
:10425000448555856685778504C07695679557951D
:1042600047958A95D2F74093180B5093190B60939A
:104270001A0B70931B0B16968C910E94B61510C0EA
:104280000E94E91FE0911F0BF091200B8589882384
:1042900019F080E00E94B61584E00E9406179AC1CA
:1042A00080913A018130B1F480B188709091190108
:1042B000891781F010923A0180E1EAE1F1E0AAE287
:1042C000B1E001900D928A95E1F78091EB0A80644C
:1042D0008093EB0A10920A0B40910C0B50910D0B3E
:1042E00060910E0B70910F0B8091F70A9091F80A74
:1042F000A091F90AB091FA0A840F951FA61FB71F63
:104300008093F70A9093F80AA093F90AB093FA0AF7
:10431000E0911F0BF091200B4089518962897389CC
:10432000481759076A077B0768F521E020930A0BB5
:104330004089518962897389841B950BA60BB70B41
:104340008093F70A9093F80AA093F90AB093FA0AB7
:10435000248980911A0190911B01A0911C01B091B8
:104360001D0121FF04C00197A109B10903C00196F5
:10437000A11DB11D80931A0190931B01A0931C01F4
:10438000B0931D014091100B5091110B6091120BD5
:104390007091130B8091FB0A9091FC0AA091FD0A89
:1043A000B091FE0A840F951FA61FB71F8093FB0ACA
:1043B0009093FC0AA093FD0AB093FE0A40895189AC
:1043C00062897389481759076A077B0778F5209136
:1043D0000A0B246020930A0B4089518962897389F2
:1043E000841B950BA60BB70B8093FB0A9093FC0ADA
:1043F000A093FD0AB093FE0A248980911E0190913A
:104400001F01A0912001B091210123FF04C0019759
:10441000A109B10903C00196A11DB11D80931E0120
:1044200090931F01A0932001B09321014091140BA0
:104430005091150B6091160B7091170B8091FF0A2C
:104440009091000BA091010BB091020B840F951F6E
:10445000A61FB71F8093FF0A9093000BA093010B38
:10446000B093020B408951896289738948175907B3
:104470006A077B0778F520910A0B206120930A0BCD
:104480004089518962897389841B950BA60BB70BF0
:104490008093FF0A9093000BA093010BB093020B43
:1044A00024898091220190912301A0912401B0914F
:1044B000250125FF04C00197A109B10903C0019698
:1044C000A11DB11D8093220190932301A09324018B
:1044D000B09325014091180B5091190B60911A0B64
:1044E00070911B0B8091030B9091040BA091050B15
:1044F000B091060B840F951FA61FB71F8093030B67
:104500009093040BA093050BB093060B408951893F
:1045100062897389481759076A077B0778F52091E4
:104520000A0B206420930A0B4089518962897389A0
:10453000841B950BA60BB70B8093030B9093040B76
:10454000A093050BB093060B2489809126019091CE
:104550002701A0912801B091290127FF04C00197EC
:10456000A109B10903C00196A11DB11D80932601C7
:1045700090932701A0932801B093290180913B01DA
:10458000843039F49091410180910A0B8923809302
:104590000A0B80911C0B90911D0B019790931D0BA2
:1045A00080931C0B892B69F41092220B1092210B23
:1045B0008091230B8F5F8093230B863011F4109230
:1045C000230B9091F40A80910A0B892780930A0BA0
:1045D0001092F60AFF91EF91BF91AF919F918F9149
:1045E0007F916F915F914F913F912F910F900FBEEF
:1045F0000F901F9018958091A10182FF02C05D9AD3
:1046000001C05D988091F40A80930A0B80918C011F
:1046100090E09C01285F3F4F220F21952093090BCA
:10462000880F819587BD80916F00826080936F00B5
:104630000895E0EBF0E080818F77808380914702DE
:104640008C7F80934702109246020C94C624CF932D
:10465000DF9300D000D01F92CDB7DEB790913C0120
:10466000911137C081110BC010924801109249017D
:1046700010924A0110924B010E94192328C08031E8
:1046800029F45E98909147029D7F04C05E9A9091B4
:1046900047029260909347024A835B836C837D83D9
:1046A00089830E94C6249091A1014A815B816C811B
:1046B0007D81898191FF05C0803219F440E050E08E
:1046C000BA01CB01BA010E94D6150E94B61510920C
:1046D00046010F900F900F900F900F90DF91CF91A8
:1046E0000895CF93DF9300D000D01F92CDB7DEB7EF
:1046F00090913B019230A9F04A835B836C837D8368
:1047000089830E9493154A815B816C817D818981B7
:104710000F900F900F900F900F90DF91CF910C940E
:1047200027230F900F900F900F900F90DF91CF9154
:104730000895579A83E08093B00084E08093B1009D
:10474000569A20919D0130919E0140919F01509178
:10475000A0016091990170919A0180919B019091C3
:104760009C010E9432429B01AC0160E070E08EE748
:1047700093E40E9432436093F00A7093F10A8093AD
:10478000F20A9093F30A0C94192382E18CBD2C9ABF
:104790000895382F90E0931719F02DB5207C29F05B
:1047A00081E0931720F480E008959F5FF4CF08958F
:1047B000AF92BF92CF92DF92EF92FF920F931F932F
:1047C000CF93DF93CDB7DEB764970FB6F894DEBF13
:1047D0000FBECDBFD82E81E58CBD8DB58E7F8DBD32
:1047E0002C988FEF8EBD80E40E94C9238111A4C054
:1047F0008AEA8EBD80E40E94C92381119DC085E5AF
:104800008EBD80E40E94C923811196C0DEBC80E188
:10481000EAE1F1E0DE01119601900D928A95E1F74F
:104820000D2D10E07801EE0CFF1CEE0CFF1CE1E0FA
:10483000F0E0EC0FFD1FEE0DFF1D608171818281A4
:1048400093810E94DC43F701E45BFE4F20813181BC
:10485000428153810E943243698B7A8B8B8B9C8B74
:104860007E0121E1E20EF11C570134E0C32ECE0C93
:1048700080E40E94C923882319F00E94C52349C0FF
:1048800080E40E94C923F50181915F018EBDCE12A3
:10489000EFCFD801AA0FBB1FAA0FBB1FA752BE4F55
:1048A000000F111F000F111FF801E751FE4F20816B
:1048B0003181428153816D917D918D919C910E94B6
:1048C00033429B01AC0169897A898B899C890E945A
:1048D0003242698B7A8B8B8B9C8BF2E0DF120EC09D
:1048E0002091F9013091FA014091FB015091FC01B6
:1048F0000E943242698B7A8B8B8B9C8B80E40E9466
:10490000C9238111BACFF70181917F018EBDCE12EB
:10491000F5CF80E40E94C92381110EC080914B0C19
:104920008EBD80E40E94C923811106C080914A0C8B
:104930008EBD80E40E94C9230E94C52364960FB6F1
:10494000F894DEBF0FBECDBFDF91CF911F910F91C5
:10495000FF90EF90DF90CF90BF90AF900895CF93EE
:104960008091D80C8F5F8093D80C81110DC0C091BD
:10497000D70C8C2F0E94D823CF5FC53018F4C0937A
:10498000D70C02C01092D70CCF91089581E58CBD51
:104990008DB581608DBD8091490C8EBD80E10E94F6
:1049A000C923811158C0809147028EBD80E10E94C9
:1049B000C923811150C02B9A000000002B982C981D
:1049C000000000002C9A1EBC80E10E94C9238111C6
:1049D00042C08EB580958093D60C9091D50C8913EA
:1049E00002C08093480C8093D50C1EBC80E10E94CD
:1049F000C923811130C08EB580958093D40C9091DD
:104A0000D30C891302C08093470C8093D30C1EBC37
:104A100080E10E94C92381111EC08EB580958093CC
:104A2000D20C9091D10C891302C08093460C8093D4
:104A3000D10C1EBC80E10E94C92381110CC08EB52F
:104A400080958093D00C9091CF0C891302C08093F5
:104A5000450C8093CF0C0C94C5236AE080E090E075
:104A60000E94833445E650E06CE471E081E090E020
:104A70000C94A534CF93DF9300D01F92CDB7DEB74F
:104A80006A837B8389830E949315898121E1829FB8
:104A9000C001112440E150E06A817B819E5F0F904C
:104AA0000F900F90DF91CF910C94A5341F93CF936B
:104AB000DF93182FEB0181E1189FB00111247E5F75
:104AC00040E150E0CE010E94EC34892B59F480E1A2
:104AD000FE0111928A95E9F7BE01812F0E943A25C5
:104AE00080E001C081E0DF91CF911F910895EF92A6
:104AF000FF920F931F93CF93DF93CDB7DEB76097ED
:104B00000FB6F894DEBF0FBECDBF182F80FF23C1B4
:104B10008AE080938C0189E180938F0110928D014E
:104B200010928E0181E0809390018AE097EDA3E2DC
:104B3000BCE38093910190939201A0939301B09371
:104B400094018DEC9CECACE4BDE3809395019093D3
:104B50009601A0939701B093980180E090E0AAE7B6
:104B6000B4E48093990190939A01A0939B01B09330
:104B70009C0110929D0110929E0110929F01109233
:104B8000A00183E08093A20180E090E0A8ECB2E471
:104B90008093A3019093A401A093A501B093A601D3
:104BA00080E090E0AAEFB4E48093A7019093A8017D
:104BB000A093A901B093AA0189E190E09093AC0180
:104BC0008093AB0180E090E0A0E8BFE38093AD016B
:104BD0009093AE01A093AF01B093B00184E18093B4
:104BE000A10180E090E0A0EAB2E480934C019093B0
:104BF0004D01A0934E01B0934F01809350019093CB
:104C00005101A0935201B09353018FEC97EFABE7A2
:104C1000B2E48093540190935501A0935601B09350
:104C200057018FE395E3AEE0B1E480935801909390
:104C30005901A0935A01B0935B0180E090E6AAE687
:104C4000B6E480935C0190935D01A0935E01B09304
:104C50005F0180E090E8ABE3B6E48093600190935D
:104C60006101A0936201B093630180E090E4ACE144
:104C7000B6E48093640190936501A0936601B093BC
:104C8000670180E090E5A3ECB7E48093680190931E
:104C90006901A0936A01B0936B0180E09AEBABE5E8
:104CA000BAE480936C0190936D01A0936E01B09370
:104CB0006F018093700190937101A0937201B09382
:104CC000730180E098ECAFE2BAE4809374019093B2
:104CD0007501A0937601B093770180E69EEFADE475
:104CE000BCE48093780190937901A0937A01B0930A
:104CF0007B0180E090E0ACE8B3EC80937C01909382
:104D00007D01A0937E01B0937F0180E090E0A8E454
:104D1000B3EC8093800190938101A0938201B093C2
:104D2000830180E090E0A0E7B2EC8093840190934F
:104D30008501A0938601B093870180E090E0A4EB09
:104D4000B3EC8093880190938901A0938A01B0937A
:104D50008B010E942D2511FF10C0CE0101967C0110
:104D600080E1F70111928A95E9F700E0B701802F01
:104D70000E943A250F5F0830C9F712FF14C060E0A7
:104D800080E093E00E94833460E081E093E00E9441
:104D9000833460E081E593E00E94833460E082E543
:104DA00093E00E94833413FF0AC060E08EEA93E030
:104DB0000E94833460E08FEA93E00E94833460961F
:104DC0000FB6F894DEBF0FBECDBFDF91CF911F911C
:104DD0000F91FF90EF9008951F920F920FB60F92D0
:104DE00011242F933F934F935F936F937F938F93F0
:104DF0009F93AF93BF93CF93EF93FF93C091C60060
:104E0000C13271F028F4C83179F40E94CF3060C00B
:104E1000CF3321F0CE3741F482E003C081E001C0FE
:104E200088E00E94061754C0C7FF41C0C13F30F060
:104E30008C2F90E0805F91090E94E7168C2F90E004
:104E4000FC01E458F109EE31F10508F041C0E258E7
:104E5000FF4F0C94124280E2E4CF80913B0185FF2A
:104E600037C080E4DECF81E00DC082E00BC084E07B
:104E700009C088E007C080E105C080E203C080E48B
:104E800001C080E80E94ED1623C081E00DC082E0E1
:104E90000BC084E009C088E007C080E105C080E263
:104EA00003C080E401C080E80E94DE1611C0E091DA
:104EB000440C81E08E0F813809F480E09091430C1E
:104EC000891731F0F0E0EE53F44FC0838093440C27
:104ED000FF91EF91CF91BF91AF919F918F917F9172
:104EE0006F915F914F913F912F910F900FBE0F9057
:104EF0001F9018951F920F920FB60F9211248F9347
:104F00009F93EF93FF938091CE0CE82FF0E0E35B4B
:104F1000F34F90819093C6008F5F813809F480E051
:104F20008093CE0C90914C0C891305C08091C100E8
:104F30008F7D8093C100FF91EF919F918F910F9092
:104F40000FBE0F901F901895E0914C0C91E09E0FB2
:104F5000913831F490E004C02091EB0A24FD0FC099
:104F60002091CE0C9217C1F3F0E0E35BF34F808306
:104F700090934C0C8091C10080628093C100089591
:104F8000CF92DF92EF92FF921F93CF93DF931F9206
:104F9000CDB7DEB7182F6A017B0184E229830E9416
:104FA000A427812F0E94EC2B8DE30E94A427298146
:104FB000422FC701B6010E94302B0F90DF91CF9195
:104FC0001F91FF90EF90DF90CF900C9445101F93AE
:104FD000CF93DF931F92CDB7DEB7182F84E269839A
:104FE0000E94A427812F0E94EC2B8DE30E94A4270E
:104FF0006981862F0E94EC2B0F90DF91CF911F913A
:105000000C944510CF93C82F8BEF93E00E94122C85
:105010008C2F0E94EC2BCF910C944510EF92FF92B5
:105020000F931F93CF93DF9360918C0170E080E02A
:105030000E94E72760918F0170E081E00E94E727DE
:1050400060918D0170E082E00E94E72760918E01FF
:1050500070E083E00E94E7276091A10162FB662770
:1050600060F970E084E00E94E7276091A10166FB8F
:10507000662760F970E085E00E94E7278091A10132
:10508000082E000C990B692F661F6627661F70E0BB
:1050900086E00E94E7276091900170E08AE00E941C
:1050A000E727409191015091920160919301709195
:1050B000940123E08BE00E94C0274091950150911C
:1050C0009601609197017091980123E08CE00E9415
:1050D000C0276091A101617070E08DE00E94E72718
:1050E0006091A10165FB662760F970E084E10E9490
:1050F000E7276091A10163FB662760F970E085E115
:105100000E94E7276091A1016295617070E086E1DD
:105110000E94E7276091A20170E087E10E94E727E3
:105120004091A3015091A4016091A5017091A60145
:1051300023E088E10E94C0274091A7015091A80177
:105140006091A9017091AA0123E089E10E94C02722
:105150006091AB017091AC018AE10E94E727409118
:10516000AD015091AE016091AF017091B00123E0AB
:105170008BE10E94C0274091990150919A01609162
:105180009B0170919C0120E08EE10E94C02740911C
:105190009D0150919E0160919F017091A00120E0BE
:1051A0008FE10E94C0276091A1016695617070E057
:1051B00080E20E94E727D4E6F12C0CE411E084E0C1
:1051C000E82EED0ECD2F82E0F81691F0E3E0FE160A
:1051D000E9F0F1E0FF1631F0F80140815181628180
:1051E00073811AC0F801408951896289738914C09A
:1051F00020E030E041E655E4F80160A171A182A110
:1052000093A10E943243AB01BC0106C0F80140A942
:1052100051A962A973A9705823E08C2F0E94C0275E
:105220000C5F1F4FCF5FCE11CECFD65FF394DC382B
:1052300021F6DF91CF911F910F91FF90EF9008958C
:10524000811104C080EF93E00C94122C0C9402287E
:105250006F927F928F929F92AF92BF92CF92DF9286
:10526000EF92FF920F931F93CF93DF93EB018C018B
:105270005B0180E1A80EB11C89E9682E96E7792EC2
:1052800026E9822E3EE7932EC990D990E990F990B5
:1052900020E030E0A901C701B6010E94284388231D
:1052A000B9F0A7019601F801608171818281938133
:1052B0000E9432436B017C01E894F7F8A701960144
:1052C000B301C4010E94284387FD02C03601470193
:1052D0000C5F1F4FCA15DB05B9F6B301C401DF919E
:1052E000CF911F910F91FF90EF90DF90CF90BF90E3
:1052F000AF909F908F907F906F9008952F923F92E4
:105300004F925F926F927F928F929F92AF92BF92D5
:10531000CF92DF92EF92FF920F931F93CF93DF9381
:10532000C091BA0AC11101C0C8E2C150D09148026F
:10533000CD1709F41BC1EC2EF12C26E3C29F80018E
:105340001124065B1D4FF801A28CB38CC48CD58C44
:10535000668D778D80A191A19B01AC010E943342A3
:10536000F80122A133A144A155A10E948A454B0115
:105370008C019B01AC01B501C6010E94284387FD49
:1053800002C05401680186E38E9DF0018F9DF00DEF
:105390001124E65BFD4FC501D601868B978BA08F4C
:1053A000B18FC11101C0C8E2C150CD1761F026E331
:1053B0002E9DC0012F9D900D11249C01265B3D4F19
:1053C0007901D6E333C080914902D8135EC00E94B0
:1053D0005F1F5BC0AC2EB12CDA9DC001DB9D900D30
:1053E0001124FC01E65BFD4F6F01C11101C0C8E251
:1053F000C15080914902C81302C00E945F1FDA9D0C
:105400008001DB9D100D1124065B1D4FF801828C7D
:10541000938CA48CB58CA501940166897789808DC5
:10542000918D0E942843811106C076018091480227
:10543000C813D0CF2AC0F801668D778D80A191A1C5
:105440009B01AC010E943342F80122A133A144A187
:1054500055A10E948A45F70126893789408D518DD3
:105460000E9433422B013C01A50194010E94284374
:10547000F80187FF05C0468A578A608E718ED5CFA6
:10548000868A978AA08EB18ED0CFD0914802F6E35B
:10549000DF9F80011124065B1D4FC1E0CD0FC83294
:1054A00009F4C0E02090BA0A86E3382EC21509F448
:1054B0005BC0CC2ED12C3C9CC0013D9C900D112496
:1054C0009C01265B3D4F7901F80146885788608C26
:1054D000718CF90186889788A08CB18CA501940104
:1054E000C301B2010E94284387FF24C0F801668DE2
:1054F000778D80A191A19B01AC010E943342F801FC
:1055000022A133A144A155A10E948A459B01AC016F
:10551000C301B2010E9433422B013C01A501940159
:105520000E94284387FF06C0F701468A578A608E8B
:10553000718EDC2F3C9CF0013D9CF00D1124E65B4C
:10554000FD4F228D338D448D558D66897789808DF1
:10555000918D0E942843811101C0DC2FCF5FC8329A
:1055600009F4C0E08701A2CFD0934802DF91CF9128
:105570001F910F91FF90EF90DF90CF90BF90AF9071
:105580009F908F907F906F905F904F903F902F9063
:1055900008954F925F926F927F92AF92BF92CF9297
:1055A000DF92EF92FF920F931F93CF93DF93EC0163
:1055B0005C0180E1A80EB11C8E01C12CD12C7601BA
:1055C000F80141905190619071908F0120E030E09E
:1055D000A901C301B2010E942843882371F0A301ED
:1055E0009201C301B2010E948A459B01AC01C7012F
:1055F000B6010E9433426B017C010A151B0501F7BD
:10560000C701B6010E9429466B017C019B01AC01D8
:1056100060E070E080E89FE30E9432432B013C0190
:10562000A3019201688179818A819B810E948A45C8
:105630006993799389939993CA15DB0589F7C70113
:10564000B601DF91CF911F910F91FF90EF90DF9006
:10565000CF90BF90AF907F906F905F904F900895E4
:105660008F929F92AF92BF92CF92DF92EF92FF9272
:105670000F931F93CF93DF93CDB7DEB72D970FB660
:10568000F894DEBF0FBECDBF6B017C01042F20E07C
:1056900030E0A9010E94284387FF07C08DE20E94E5
:1056A000A427F7FAF094F7F8F094102F123060F076
:1056B00020E030E048EC52E4C701B6010E948A4580
:1056C0006B017C011250F2CF00FF0AC020E030E0F5
:1056D00040E251E4C701B6010E948A456B017C019A
:1056E00020E030E040E05FE3C701B6010E943342B2
:1056F0000E94A44310E03AE0832E912CA12CB12CFF
:10570000611571058105910591F0EE24E394F12C6A
:10571000EC0EFD1EE10EF11CA50194010E94F0416A
:10572000605DF7016083B901CA011F5FE9CF80E3C3
:10573000101748F4E1E0F0E0EC0FFD1FE10FF11D60
:1057400080831F5FF5CF101314C011E0100F80E3AA
:10575000FE01E00FF11D81830CC0101303C08EE227
:105760000E94A427FE01E10FF11D80810E94A42761
:1057700011501111F2CF2D960FB6F894DEBF0FBE67
:10578000CDBFDF91CF911F910F91FF90EF90DF90F0
:10579000CF90BF90AF909F908F9008952091A101DE
:1057A00020FF08C02BE832E441E25DE30E948A4515
:1057B00041E001C040E00C94302B2091A10120FF7A
:1057C00008C02BE832E441E25DE30E948A4543E0F1
:1057D00001C042E00C94302BCF93DF93843630F03D
:1057E0006AE00E94D041C0E3C90F03C0C0E08A3024
:1057F00030F06AE00E94D041D0E3D90F01C0D0E080
:10580000805D0E94A427DD2319F08D2F0E94A4271C
:10581000CC2329F08C2FDF91CF910C94A427DF911A
:10582000CF910895CF93DF93FC018491EF012196EE
:10583000882321F00E94A427FE01F7CFDF91CF91AA
:1058400008950E945F1F80914902809348020C9442
:105850007E29EAEDFCE0AAE1B1E04D915D916D9108
:105860007C911397408351836283738314964D9187
:105870005D916D917C9117974483558366837783FF
:1058800018964D915D916D917C911B974087518742
:10589000628773871C968D919D910D90BC91A02D70
:1058A00084879587A687B7870895BF92CF92DF92A6
:1058B000EF92FF920F931F93CF93DF937C01FC0134
:1058C00006A517A5D0A9C1A9858980FF18C0609138
:1058D000430170E080E090E00E94DC432AE037ED75
:1058E00043E25CE30E948A459B01AC01B8018D2F25
:1058F0009C2F0E948A458B01D82FC92F2DC082FD75
:1059000017C06091420170E080E090E00E94DC43AB
:105910002AE037ED43E25CE30E948A459B01AC013B
:10592000B8018D2F9C2F0E948A458B01D82FC92F3B
:10593000F701B2A4C3A4D4A4F5A42B2D3C2D4D2D66
:105940005F2DB8018D2F9C2F0E944A45181624F414
:105950000B2D1C2DDD2DCF2D20E030E040E85FE346
:10596000B8018D2F9C2F0E944A45181624F000E0A4
:1059700010E0D0E8CFE3B8018D2F9C2FDF91CF91BD
:105980001F910F91FF90EF90DF90CF90BF900895FF
:105990002F923F924F925F926F927F928F929F923F
:1059A000AF92BF92CF92DF92EF92FF920F931F932D
:1059B000CF93DF93CDB7DEB7CA55D1090FB6F894B0
:1059C000DEBF0FBECDBF4B013091BA0A232E312C62
:1059D00026E3229DA001239D500D1124BA01665B90
:1059E0007D4F2B967FAF6EAF2B97FB0111922A95BF
:1059F000E9F7F4012085FB01258BF40144815581F1
:105A0000668177812B96EEADFFAD2B9742AB53AB02
:105A100064AB75AB21FF4FC020E1EAE1F1E0DE01AC
:105A2000919601900D922A95E1F724968FAF2497D5
:105A300025969FAF25976CE471E061967FAF6EAFBE
:105A40006197CE01C1962F969FAF8EAF2F97FE0123
:105A5000B1962996FFAFEEAF2997BE016F5E7F4FDB
:105A60002D967FAF6EAF2D97E6E33E9FC0011124C8
:105A700067969FAF8EAF679727967FAF6EAF2797DA
:105A800000E010E0B12C86E3829D9001839D300DF3
:105A90001124C901865B9D4F9C01205F3F4F639697
:105AA0003FAF2EAF6397BC016C5E7F4F65967FAFB3
:105AB0006EAF659747C020E1EAEDFCE0B0CF679696
:105AC000EEADFFAD6797E00FF11FE65BFD4FC082C3
:105AD000D182E282F3826396EEADFFAD63972081BF
