:100050001EB5A12E1FEF1093AA011091A801112324
:1000600011F40C946D001E2D183010E009F41FEFF0
:10007000112311F40C9441001A2D10930E020C94CC
:100080006C001E2D193010E009F41FEF112311F43C
:100090000C945A001A2D109310021FEF1093A9010F
:1000A00010E01093A80110E0E12E10910D021EBD8A
:1000B0000C946C00EDEAF1E0EF93FF931091AB012B
:1000C0001F931E2D0F91100F012F1127FF91EF91FC
:1000D000E00FF11F1A2D1193E3941A2D14301FEF26
:1000E00008F011271F931B2D153510E009F41FEFA1
:1000F0000F9110231F931C2D1A3A10E009F41FEFE3
:100100000F9110231F931D2D1F3F10E009F41FEFC7
:100110000F911023112311F40C949D001FEF1093E5
:10012000A80110E01093A90110E0E12E1A2D110F83
:10013000110F110F110F1093AB011C2DD12E1B2D80
:10014000C12E1A2DB12E089510E014B91FEF15B964
:1001500010E017B91FEF18B916EE1AB91FE11BB955
:1001600010EC1CBD10E01DBD5A9ACF93DF9310E038
:100170001A931FE11A931FE11A931FE11A931FE1CB
:100180001A931FE11A931FE11A931FE11A9310E0CB
:100190001A930E940210DF91CF91CF93DF9311E069
:1001A0001A931FE11A9318E11A9318E11A9318E1B0
:1001B0001A9318E11A9318E11A931FE11A9310E0A9
:1001C0001A930E940210DF91CF91CF93DF9312E038
:1001D0001A9310E11A9310E11A9310E11A9310E1A7
:1001E0001A9310E11A9310E11A9310E11A9310E098
:1001F0001A930E940210DF91CF91CF93DF9313E007
:100200001A9310E01A9314E01A9314E01A931EE064
:100210001A931EE01A931FE11A931FE11A9310E03C
:100220001A930E940210DF91CF91CF93DF9314E0D5
:100230001A931FE11A931FE11A931EE01A931EE00E
:100240001A9314E01A9314E01A9310E01A9310E032
:100250001A930E940210DF91CF91CF93DF9315E0A4
:100260001A9310E11A9318E11A931CE11A931EE1F4
:100270001A931CE11A9318E11A9310E11A9310E0F3
:100280001A930E940210DF91CF91CF93DF9316E073
:100290001A9311E01A9313E01A9317E01A931FE0D0
:1002A0001A9317E01A9313E01A9311E01A9310E0CF
:1002B0001A930E940210DF91CF91CF93DF9317E042
:1002C0001A931FE11A9310E01A9310E01A9310E0AA
:1002D0001A9310E01A9310E01A931FE11A9310E09A
:1002E0001A930E940210DF91CF9110E01F9310E04B
:1002F0001F930E94AC0F1FEF10939C02CF93DF93CC
:1003000010E01A9310E01A930E94BC0FDF91CF9176
:10031000CF93DF9318E0412A0EED1EE01A930A9363
:10032000E4E1FAE20E948110DF91CF91CF93DF9355
:1003300010E01A9311E01A930E94BC0FDF91CF9145
:10034000CF93DF9318E0412A0EED1EE01A930A9333
:10035000E1E2FAE20E948110DF91CF9110E8412A98
:10036000789413E008EE0E9462100E94D20F5A980F
:10037000089510919C02112311F40C9438031091EC
:100380009202112311F40C94E301CF93DF9310E058
:100390001A9310E01A930E94BC0FDF91CF9118E5D9
:1003A0000E94DE0ECF93DF9318E0412A0EED1EE08F
:1003B0001A930A93E2E1F2E00E948A10DF91CF9152
:1003C00010E20E94DE0E10919302112311F40C949E
:1003D0000702CF93DF9310E01A9311E01A930E9463
:1003E000BC0FDF91CF9119E50E94DE0ECF93DF9312
:1003F00018E0412A0EED1EE01A930A93E2E2F2E0C1
:100400000E948A10DF91CF9110E20E94DE0E1091BF
:100410009602112311F40C942802CF93DF9319E074
:100420001A9310E01A930E94BC0FDF91CF9113E44E
:100430000E94DE0ECF93DF9318E0412A0EED1EE0FE
:100440001A930A93E2E4F2E00E948A10DF91CF91BE
:1004500010919402112311F40C944902CF93DF936D
:1004600019E01A9310E01A930E94BC0FDF91CF910C
:100470001AE50E94DE0ECF93DF9318E0412A0EEDBD
:100480001EE01A930A93E2E3F2E00E948A10DF91E1
:10049000CF91CF93DF931FE01A9311E01A930E943C
:1004A000BC0FDF91CF9110910E02103810E008F0D0
:1004B0001FEF112311F40C9462021AE20E94DE0E67
:1004C0000C94650210E20E94DE0ECF93DF9319E0D8
:1004D0001A9311E01A930E94BC0FDF91CF911091F3
:1004E0000E021F77103011F00C948602CF93DF9329
:1004F00018E0412A0EED1EE01A930A93EEE2FAE2AA
:100500000E948110DF91CF910C943803113011F0CB
:100510000C94B00210919802112311F40C94A002D3
:10052000CF93DF9318E0412A0EED1EE01A930A9351
:10053000E5E3FAE20E948110DF91CF910C94AE02C4
:10054000CF93DF9318E0412A0EED1EE01A930A9331
:10055000ECE3FAE20E948110DF91CF910C94380312
:10056000123011F00C94C402CF93DF9318E0412AAB
:100570000EED1EE01A930A93E3E4FAE20E94811062
:10058000DF91CF910C943803143011F00C94D80201
:10059000CF93DF9318E0412A0EED1EE01A930A93E1
:1005A000EAE4FAE20E948110DF91CF910C943803C3
:1005B000183011F00C94EC02CF93DF9318E0412A2D
:1005C0000EED1EE01A930A93E1E5FAE20E94811013
:1005D000DF91CF910C943803103111F00C9400038B
:1005E000CF93DF9318E0412A0EED1EE01A930A9391
:1005F000E8E5FAE20E948110DF91CF910C94380374
:10060000103211F00C941403CF93DF9318E0412AB9
:100610000EED1EE01A930A93EFE5FAE20E948110B4
:10062000DF91CF910C94380310919802112311F4AB
:100630000C942A03CF93DF9318E0412A0EED1EE0BD
:100640001A930A93E6E6FAE20E948110DF91CF91B5
:100650000C943803CF93DF9318E0412A0EED1EE08F
:100660001A930A93EEE6FAE20E948110DF91CF918D
:10067000089518811170113010E009F41FEF112353
:1006800011F40C945303CF93DF9318E0412A0EED3D
:100690001EE01A930A93E6E7FAE20E948110DF91C6
:1006A000CF910C946103CF93DF9318E0412A0EEDB4
:1006B0001EE01A930A93EBE7FAE20E948110DF91A1
:1006C000CF91089510911002103010E011F008F051
:1006D0001FEF1F931091100214361FEF08F011271F
:1006E0000F911023112311F40C944606CF93DF933E
:1006F00010E01A9311E01A930E94BC0FDF91CF9182
:100700000E94D50F10911002113011F00C949C032F
:10071000CF93DF9318E0412A0EED1EE01A930A935F
:10072000E0E8FAE20E948110DF91CF9113E008EE39
:100730000E9462100C941B06123011F00C94B4034A
:10074000CF93DF9318E0412A0EED1EE01A930A932F
:10075000EFE8FAE20E948110DF91CF9113E008EEFA
:100760000E9462100C941B06133011F00C94C80305
:10077000CF93DF9318E0412A0EED1EE01A930A93FF
:10078000EDE9FAE20E948110DF91CF910C941B06F3
:10079000143011F00C94DC03CF93DF9318E0412A5E
:1007A0000EED1EE01A930A93E8EAFAE20E94811025
:1007B000DF91CF910C941B06153011F00C94F003CF
:1007C000CF93DF9318E0412A0EED1EE01A930A93AF
:1007D000E3EBFAE20E948110DF91CF910C941B06AB
:1007E000163011F00C940404CF93DF9318E0412AE3
:1007F0000EED1EE01A930A93EEEBFAE20E948110CE
:10080000DF91CF910C941B06173011F00C94180453
:10081000CF93DF9318E0412A0EED1EE01A930A935E
:10082000E9ECFAE20E948110DF91CF910C941B0653
:10083000183011F00C942C04CF93DF9318E0412A68
:100840000EED1EE01A930A93E6EDFAE20E94811083
:10085000DF91CF910C941B06193011F00C944004D9
:10086000CF93DF9318E0412A0EED1EE01A930A930E
:10087000E0EEFAE20E948110DF91CF910C941B060A
:100880001A3011F00C9446040C944A041B3011F0F9
:100890000C946304CF93DF9318E0412A0EED1EE021
:1008A0001A930A93EAEEFAE20E948110DF91CF9147
:1008B000CF93DF93109110021A930E943903DF91B6
:1008C000CF910C941B061C3011F00C9469040C940D
:1008D0006D041D3011F00C948604CF93DF9318E063
:1008E000412A0EED1EE01A930A93E5EFFAE20E9408
:1008F0008110DF91CF91CF93DF93109110021A9363
:100900000E943903DF91CF910C941B061E3011F029
:100910000C948C040C9490041F3011F00C94A904D6
:10092000CF93DF9318E0412A0EED1EE01A930A934D
:10093000EFEFFAE20E948110DF91CF91CF93DF9326
:10094000109110021A930E943903DF91CF910C94F9
:100950001B06103111F00C94AF040C94B304113148
:1009600011F00C94CC04CF93DF9318E0412A0EEDE4
:100970001EE01A930A93E9E0FBE20E948110DF91E6
:10098000CF91CF93DF93109110021A930E943903F5
:10099000DF91CF910C941B06123111F00C94D2040C
:1009A0000C94D604133111F00C94EF04CF93DF9321
:1009B00018E0412A0EED1EE01A930A93E4E1FBE2EF
:1009C0000E948110DF91CF91CF93DF93109110029D
:1009D0001A930E943903DF91CF910C941B061431B6
:1009E00011F00C94F5040C94F904153111F00C94E9
:1009F0001205CF93DF9318E0412A0EED1EE01A9303
:100A00000A93EFE1FBE20E948110DF91CF91CF9337
:100A1000DF93109110021A930E943903DF91CF9156
:100A20000C941B06163111F00C942605CF93DF931E
:100A300018E0412A0EED1EE01A930A93EAE2FBE267
:100A40000E948110DF91CF910C941B06173111F099
:100A50000C943A05CF93DF9318E0412A0EED1EE087
:100A60001A930A93E7E3FBE20E948110DF91CF9192
:100A70000C941B06183111F00C944E05CF93DF93A4
:100A800018E0412A0EED1EE01A930A93E4E4FBE21B
:100A90000E948110DF91CF910C941B06193111F047
:100AA0000C946205CF93DF9318E0412A0EED1EE00F
:100AB0001A930A93E0E5FBE20E948110DF91CF9147
:100AC0000C941B061A3111F00C947605CF93DF932A
:100AD00018E0412A0EED1EE01A930A93EEE5FBE2C0
:100AE0000E948110DF91CF910C941B061B3111F0F5
:100AF0000C948A05CF93DF9318E0412A0EED1EE097
:100B00001A930A93ECE6FBE20E948110DF91CF91E9
:100B10000C941B061C3111F00C949E05CF93DF93AF
:100B200018E0412A0EED1EE01A930A93EAE7FBE271
:100B30000E948110DF91CF910C941B061E3111F0A1
:100B40000C94A4050C94A8051F3111F00C94C10558
:100B5000CF93DF9318E0412A0EED1EE01A930A931B
:100B6000E8E8FBE20E948110DF91CF91CF93DF9301
:100B7000109110021A930E943903DF91CF910C94C7
:100B80001B06103211F00C94C7050C94CB051132E2
:100B900011F00C94E405CF93DF9318E0412A0EED99
:100BA0001EE01A930A93E2E9FBE20E948110DF91B2
:100BB000CF91CF93DF93109110021A930E943903C3
:100BC000DF91CF910C941B06123211F00C94F805B2
:100BD000CF93DF9318E0412A0EED1EE01A930A939B
:100BE000EBE9FBE20E948110DF91CF910C941B0690
:100BF000133210F40C940506123619F010F00C9410
:100C000005060C9446060C941B06133611F00C9442
:100C10001906CF93DF9318E0412A0EED1EE01A93D8
:100C20000A93E8EAFBE20E948110DF91CF910C94D5
:100C30001B060C94460612E00EEE0E9462100FE0B6
:100C400017E220E030E00093F1011093F2012093CD
:100C5000F3013093F4010FE017E220E030E000935D
:100C6000F9011093FA012093FB013093FC010FE08E
:100C700017E220E030E0009301021093020220937B
:100C80000302309304021FE710930F0208951FEF31
:100C900000919F02002309F01095112311F40C9488
:100CA00061061091980210951093980212E3109328
:100CB0009F021FEF109395021FEF0C9464060C9493
:100CC000640610E00C94640608951FE710930F0269
:100CD0000E94A40019E110939E020FE017E220E0A9
:100CE00030E00093F1011093F2012093F30130936F
:100CF000F4010FE017E220E030E00093F9011093D7
:100D0000FA012093FB013093FC010FE017E220E091
:100D100030E000930102109302022093030230930B
:100D200004021FE710930F020E943910112311F4DF
:100D30000C949E060E941C101093AC011FEF0091B2
:100D40009D02002309F01095112311F40C94A906BB
:100D50005A980E944706112311F40C94B1060E9480
:100D6000B9011091AA011F931091A9010F911023AD
:100D70001F931FEF00919E02002309F010950F9121
:100D8000102B112311F40C9494061FEF00919E0276
:100D9000002309F01095112311F40C94E9061FEFBC
:100DA000109392021FEF10939302109197021093E9
:100DB00096021091970210951093940210E01093F0
:100DC00099021FEF109395021FE710930E020C94E7
:100DD000D2070091B1011091B2012091B30130917D
:100DE000B4010F931F932F933F930091F101109142
:100DF000F2012091F3013091F401D801F9013F9102
:100E00002F911F910F9140E8F42734273F1729F4C1
:100E10002E1719F41B1709F40A1710E009F01FEF39
:100E2000109392020091C1011091C2012091C3015F
:100E30003091C4010F931F932F933F930091F901B9
:100E40001091FA012091FB013091FC01D801F901C8
:100E50003F912F911F910F9140E8F42734273F17BE
:100E600029F42E1719F41B1709F40A1710E009F0DA
:100E70001FEF109393020091D1011091D2012091A4
:100E8000D3013091D4010F931F932F933F9300917F
:100E90000102109102022091030230910402D80154
:100EA000F9013F912F911F910F9140E8F4273427CA
:100EB0003F1729F42E1719F41B1709F40A1710E02D
:100EC00009F01FEF109394021091940210951123D2
:100ED00011F40C94A0070091E1011091E20120911E
:100EE000E3013091E4010F931F932F933F930091FF
:100EF000090210910A0220910B0230910C02D801D4
:100F0000F9013F912F911F910F9140E8F427342769
:100F10003F1729F42E1719F41B1709F40A1710E0CC
:100F200009F01FEF1093960210919602112311F40D
:100F30000C94A0071FEF1093970214E61093A002E1
:100F40000E9447061F9310910E021F9310910F02EB
:100F50000F91011710E009F01FEF0F91102B1123D3
:100F600011F40C94BF071FEF109395021FEF10931D
:100F700092021FEF109393021FEF109394021091AF
:100F800092021F93109193020F91102B1F931091B7
:100F900094020F91102B1F93109196020F91102B1A
:100FA0001093990214E610939E021FEF0091A00285
:100FB000002309F01095112311F40C94EB07109104
:100FC0009702112311F40C94E8071FEF1093940279
:100FD00010E01093970215E010939D0211275A9983
:100FE0001FEF1095E894112309F068941BB112F9D2
:100FF0001BB910E01093A90110919202112311F472
:101000000C943A090091B1011091B2012091B30101
:101010003091B401E89441F83F770F931F932F93D9
:101020003F930AE017ED23E23CE3FF91EF91BF917C
:10103000AF91689442F855270E94FE11552339F06C
:101040000AF41AF09894889402C0989408941FEFB8
:1010500008F01127112311F40C943C0800E010E073
:1010600020E030E00093B1011093B2012093B3016E
:101070003093B4010C94A9080091B1011091B20110
:101080002091B3013091B4010F931F932F933F939D
:101090000AE919EF29E734E4FF91EF91BF91AF918D
:1010A000689442F855270E94FE11552339F00AF43E
:1010B0001AF09894889402C09894089410E011F063
:1010C00008F01FEF112311F40C9474080AE919EFCA
:1010D00029E734E40093B1011093B2012093B301E6
:1010E0003093B4010C94A9080091B1011091B201A0
:1010F0002091B3013091B4010F931F932F933F932D
:101100000AE919EF29E734ECFF91EF91BF91AF9114
:10111000689442F855270E94FE11552339F00AF4CD
:101120001AF09894889402C0989408941FEF08F0DD
:101130001127112311F40C94A9080AE919EF29E7E2
:1011400034EC0093B1011093B2012093B3013093BA
:10115000B401E2E1F2E0EF93FF933196FA93EA9360
:101160001FE01A9317EF41221FEB41220091B101BA
:101170001091B2012091B3013091B4013A932A93B6
:101180001A930A9317E01A9312E01A9310E21A9333
:101190000E9491131FE01F9318810F91011B102FC4
:1011A000FF91EF9110832396E2E1F2E017E01193B3
:1011B000CF93DF9318E0412A00E410E11A930A93D9
:1011C000E6EBFBE20E948110DF91CF91CF93DF939A
:1011D00018E0412A00E410E11A930A930091AD014E
:1011E0001091AE012091AF013091B0013A932A9352
:1011F0001A930A9313E01A9312E01A9310E21A93C7
:10120000689443F80E949113DF91CF91CF93DF93BD
:1012100018E0412A00E410E11A930A93EAEBFBE29A
:101220000E948110DF91CF91CF93DF9318E0412A84
:1012300000E410E11A930A93E2E1F2E00E948A10BE
:10124000DF91CF911DE00E9440100E94B9010091F2
:10125000B1011091B2012091B3013091B40100931A
:10126000F1011093F2012093F3013093F40110E0A7
:101270001093920210919302112311F40C94780AA6
:101280000091C1011091C2012091C3013091C401AC
:10129000E89441F83F770F931F932F933F930AE011
:1012A00017ED23E23CE3FF91EF91BF91AF9168947A
:1012B00042F855270E94FE11552339F00AF41AF01E
:1012C0009894889402C0989408941FEF08F011270E
:1012D000112311F40C947A0900E010E020E030E0D2
:1012E0000093C1011093C2012093C3013093C40144
:1012F0000C94E7090091C1011091C2012091C30132
:101300003091C4010F931F932F933F930AE919EF74
:1013100029E734E4FF91EF91BF91AF91689442F8CF
:1013200055270E94FE11552339F00AF41AF09894BB
:10133000889402C09894089410E011F008F01FEF10
:10134000112311F40C94B2090AE919EF29E734E4E6
:101350000093C1011093C2012093C3013093C401D3
:101360000C94E7090091C1011091C2012091C301C1
:101370003091C4010F931F932F933F930AE919EF04
:1013800029E734ECFF91EF91BF91AF91689442F857
:1013900055270E94FE11552339F00AF41AF098944B
:1013A000889402C0989408941FEF08F01127112325
:1013B00011F40C94E7090AE919EF29E734EC0093DA
:1013C000C1011093C2012093C3013093C401E2E232
:1013D000F2E0EF93FF933196FA93EA931FE01A93AA
:1013E00017EF41221FEB41220091C1011091C20170
:1013F0002091C3013091C4013A932A931A930A931E
:1014000017E01A9312E01A9310E21A930E949113B4
:101410001FE01F9318810F91011B102FFF91EF9177
:1014200010832396E2E2F2E017E01193CF93DF936B
:1014300018E0412A00E410E11A930A93EFEBFBE273
:101440000E948110DF91CF91CF93DF9318E0412A62
:1014500000E410E11A930A930091BD011091BE01BE
:101460002091BF013091C0013A932A931A930A93B5
:1014700013E01A9312E01A9310E21A93689443F857
:101480000E949113DF91CF91CF93DF9318E0412A0F
:1014900000E410E11A930A93E3ECFBE20E9481104E
:1014A000DF91CF91CF93DF9318E0412A00E410E160
:1014B0001A930A93E2E2F2E00E948A10DF91CF9140
:1014C0001DE00E9440100E94B9010091C1011091DD
:1014D000C2012091C3013091C4010093F90110931E
:1014E000FA012093FB013093FC0110E0109393026A
:1014F00010919402112311F40C94B60B0091D101B8
:101500001091D2012091D3013091D401E89441F897
:101510003F770F931F932F933F930AE017ED23E23A
:101520003CE3FF91EF91BF91AF91689442F855274A
:101530000E94FE11552339F00AF41AF09894889409
:1015400002C0989408941FEF08F01127112311F49A
:101550000C94B80A00E010E020E030E00093D101E4
:101560001093D2012093D3013093D4010C94250B16
:101570000091D1011091D2012091D3013091D40179
:101580000F931F932F933F930DEC1CEC27EC32E449
:10159000FF91EF91BF91AF91689442F855270E9457
:1015A000FE11552339F00AF41AF09894889402C079
:1015B0009894089410E011F008F01FEF112311F433
:1015C0000C94F00A0DEC1CEC27EC32E40093D101F2
:1015D0001093D2012093D3013093D4010C94250BA6
:1015E0000091D1011091D2012091D3013091D40109
:1015F0000F931F932F933F930DEC1CEC27EC32ECD1
:10160000FF91EF91BF91AF91689442F855270E94E6
:10161000FE11552339F00AF41AF09894889402C008
:10162000989408941FEF08F01127112311F40C94DB
:10163000250B0DEC1CEC27EC32EC0093D101109340
:10164000D2012093D3013093D401E2E3F2E0EF938F
:10165000FF933196FA93EA931FE01A9317EF412212
:101660001FEB41220091D1011091D2012091D301B1
:101670003091D4013A932A931A930A9316E01A935D
:1016800012E01A9310E21A930E9491131FE01F9325
:1016900018810F91011B102FFF91EF91108323965A
:1016A000E2E3F2E016E01193CF93DF9318E0412AD2
:1016B00000E410E11A930A93E8ECFBE20E94811027
:1016C000DF91CF91CF93DF9318E0412A00E410E13E
:1016D0001A930A930091CD011091CE012091CF0170
:1016E0003091D0013A932A931A930A9313E01A93F4
:1016F00012E01A9310E21A93689443F80E9491132F
:10170000DF91CF91CF93DF9318E0412A00E410E1FD
:101710001A930A93ECECFBE20E948110DF91CF91C7
:10172000CF93DF9318E0412A00E410E11A930A9363
:10173000E2E3F2E00E948A10DF91CF911DE00E9467
:1017400040100E94B9010091D1011091D201209165
:10175000D3013091D401009301021093020220932F
:1017600003023093040210E0109394021091960249
:10177000112311F40C94F40C0091E1011091E20199
:101780002091E3013091E401E89441F83F770F9311
:101790001F932F933F930AE017ED23E23CE3FF9161
:1017A000EF91BF91AF91689442F855270E94FE11C6
:1017B000552339F00AF41AF09894889402C098944A
:1017C00008941FEF08F01127112311F40C94F60B65
:1017D00000E010E020E030E00093E1011093E2012E
:1017E0002093E3013093E4010C94630C0091E10138
:1017F0001091E2012091E3013091E4010F931F93D6
:101800002F933F930AE919EF29E734E4FF91EF9111
:10181000BF91AF91689442F855270E94FE1155235D
:1018200039F00AF41AF09894889402C098940894B5
:1018300010E011F008F01FEF112311F40C942E0C9E
:101840000AE919EF29E734E40093E1011093E2017A
:101850002093E3013093E4010C94630C0091E101C7
:101860001091E2012091E3013091E4010F931F9365
:101870002F933F930AE919EF29E734ECFF91EF9199
:10188000BF91AF91689442F855270E94FE115523ED
:1018900039F00AF41AF09894889402C09894089445
:1018A0001FEF08F01127112311F40C94630C0AE9BF
:1018B00019EF29E734EC0093E1011093E201209342
:1018C000E3013093E401E2E4F2E0EF93FF93319619
:1018D000FA93EA931FE01A9317EF41221FEB41227C
:1018E0000091E1011091E2012091E3013091E401C6
:1018F0003A932A931A930A9316E01A9311E01A93D3
:1019000010E21A930E9491131FE01F9318810F9108
:10191000011B102FFF91EF9110832396E2E4F2E078
:1019200016E01193CF93DF9318E0412A00E410E111
:101930001A930A93E8ECFBE20E948110DF91CF91A9
:10194000CF93DF9318E0412A00E410E11A930A9341
:101950000091DD011091DE012091DF013091E00165
:101960003A932A931A930A9313E01A9312E01A9364
:1019700010E21A93689443F80E949113DF91CF917B
:10198000CF93DF9318E0412A00E410E11A930A9301
:10199000ECECFBE20E948110DF91CF91CF93DF93BB
:1019A00018E0412A00E410E11A930A93E2E4F2E01D
:1019B0000E948A10DF91CF911DE00E9440100E948A
:1019C000B9010091E1011091E2012091E301309110
:1019D000E4010093090210930A0220930B02309352
:1019E0000C0210E01093960210919502112311F44D
:1019F0000C94550DCF93DF9318E0412A00E410E1D9
:101A00001A930A93E1EDFBE20E948110DF91CF91DE
:101A1000CF93DF9318E0412A00E410E11A930A9370
:101A200010910E02CF93DF931A9310E01A9310E0F7
:101A30001A9310E21A93689443F80E949410DF916D
:101A4000CF91DF91CF91CF93DF9318E0412A00E44B
:101A500010E11A930A93E4EDFBE20E948110DF91FA
:101A6000CF91CF93DF9318E0412A00E410E11A935D
:101A70000A9310911002CF93DF931A9310E01A93F8
:101A800010E01A9310E21A93689443F80E9494109D
:101A9000DF91CF91DF91CF911DE00E9440100E9415
:101AA000B90110910E0210930F0210911002103024
:101AB00010E009F01FEF112311F40C94610D0E9446
:101AC00062030C9494060000FECFF89413E004E047
:101AD0001EBF0DBF1127E0E1F0E0A0E0B0E03196BD
:101AE0000000319711F01D93FCCFA0E0B1E0E0E0E1
:101AF000F4E031960000319711F01D93FCCFC8E659
:101B0000D3E0F8941FE7412214E61093000116BDBC
:101B100015E015BD11E010936E0010912800107FA4
:101B200010932800109127001F6010932700209128
:101B30002B002F7120932B0010912A00106E109310
:101B40002A0010912800107F13601093280000E1F4
:101B500011270E9462102F7B206820932B001F9377
:101B600010E31A95F1F71F912F7720932B0005E0D2
:101B700011270E946210206820932B001F9310E30E
:101B80001A95F1F71F912F7720932B0001E0112771
:101B90000E946210206820932B001F9310E31A9577
:101BA000F1F71F912F7720932B0010912800107FC1
:101BB00012601093280001E011270E946210206833
:101BC00020932B001F9310E31A95F1F71F912F77A5
:101BD00020932B0001E011270E94621020682093BF
:101BE0002B001F9310E31A95F1F71F912F77209385
:101BF0002B0010912800107F18601093280001E03E
:101C000011270E946210206820932B001F9310E37D
:101C10001A95F1F71F912F7720932B001CE00E945B
:101C2000EC0E11E00E94EC0E16E00E94EC0E18E1A2
:101C30001093C10013E31093C40010E01093C5008B
:101C400010E0109301011093020110930301109111
:101C5000C10010681093C10010E01093240110938C
:101C600025011093260116E01093C2001091C600C2
:101C7000442455240C946506EF93FF930F931F9310
:101C80001FB71F931091000106B5100F16BD1FE777
:101C9000412210919D02112319F0115010939D02C1
:101CA00010919E02112319F0115010939E02109171
:101CB0009F02112319F0115010939F021091A0025E
:101CC000112319F011501093A00210E8412A1F911E
:101CD0001FBF1F910F91FF91EF911895EF93FF9305
:101CE0000F931F931FB71F9310912601112331F4F7
:101CF0001091C1001F7D1093C1001BC000912501F0
:101D00001127E7E2F1E0E00FF11F10811093C60008
:101D1000109126011A951093260129F41091C10003
:101D20001F7D1093C1000395003809F4002700932C
:101D300025011F911FBF1F910F91FF91EF911895E2
:101D4000EF93FF930F931F931FB71F9310910301FE
:101D5000103219F40091C6001BC01091C6001F93E9
:101D6000112700910101E4E0F1E0E00FF11F1F9164
:101D70001083109103011395109303010395003212
:101D800009F40027009301010091C00007FDDECF98
:101D90001F911FBF1F910F91FF91EF911895EF9326
:101DA000FF930F931F931FB71F930E9428001F914B
:101DB0001FBF1F910F91FF91EF9118951F9375D041
:101DC000109127001F601093270010912B001F71A6
:101DD000106210932B000CC01F9367D01091270046
:101DE0001F601093270010912B001F7110932B0080
:101DF0001F911F9312951F7030E03AD00091280078
:101E0000007F102B1093280000912B001F9310E3EC
:101E10001A95F1F71F91006800932B001F9310E3B0
:101E20001A95F1F71F910F7700932B001F9310E382
:101E30001A95F1F71F911F911F7030E019D0309162
:101E40002800307F132B109328001F9310E31A955E
:101E5000F1F71F9100912B00006800932B001F9356
:101E600010E31A95F1F71F910F7700932B00089557
:101E7000332321F08894111F3A95E9F7089515D07E
:101E800010912700107F1093270000912B000F71F5
:101E9000006600932B00E89444F820C0332321F01F
:101EA000889417953A95E9F70895E0E8F2E0689488
:101EB00044F802C0E89444F810912700107F109372
:101EC000270020912B002F7120932B001F9310E3EC
:101ED0001A95F1F71F91206420932B001F9310E3B4
:101EE0001A95F1F71F9120912B00206820932B0069
:101EF0001F9310E31A95F1F71F91109126001F70A0
:101F00001F932F7720932B001F9310E31A95F1F75F
:101F10001F91206820932B001F9310E31A95F1F76F
:101F20001F91109126001F702F7720932B0030E017
:101F3000B5DF012F1F9134E09BDF102B44FA0EF028
:101F40000895319721F0111F08F4C8CF08951FEFAD
:101F500008951FEF0FEF06C0FF91EF911F910F91B2
:101F6000EF93FF93112311F41CE001C01DE0002347
:101F700009F0126031DF089518810981103011F4E1
:101F800010E80DC0113011F410EC09C0123011F43A
:101F900010E905C0133011F410ED01C010E8100F66
:101FA0001BDF089511E018DF08957FDF83DF1068DD
:101FB0001F931F7000E1011B0F9310E2FFDE0F91D2
:101FC0000A95D1F71F9108DF0895103011F410E839
:101FD0000DC0113011F410EC09C0123011F410E9E9
:101FE00005C0133011F410ED01C008951F93F4DE05
:101FF00010E11F9310E2E2DE1F911A95D1F71F91B5
:10200000EBDE089518851F70110F110F110F10646A
:10201000E3DE1F81D3DE1E81D1DE1D81CFDE1C8178
:10202000CDDE1B81CBDE1A81C9DE1981C7DE1881A6
:10203000C5DE10E8D1DE0895109103011123E1F30C
:10204000009102011127E4E0F1E0E00FF11F10819F
:10205000F894E0910301EA95E093030147FC78943A
:10206000009102010395003209F400270093020158
:102070000895112700910301002309F01095089598
:10208000009126010038E1F3F89400912401E7E281
:10209000F1E0E00F0027F01F108300912601039567
:1020A00000932601009124010395003809F40027CC
:1020B000009324010091C10000620093C10047FC1D
:1020C00078940895A80111274117510749F00AE7AC
:1020D0001CE0015010400000E1F741505040B9F7BA
:1020E0000895112331F006E20A950000E9F71A95E8
:1020F000D1F708952150304018F011911D93FACF77
:102100000895B591BB2329F015910E947711BA95D6
:10211000D9F708951191112331F0B12F11910E9437
:102120007711BA95D9F70895CF93DF93269709854C
:10213000112798010F7022952F70B901660F771F34
:10214000660F771FA801461B570B44515040488328
:102150005983A901440F551F465250404A835B835F
:1021600044E04C831D83FE0112E080819181A281B5
:10217000B38199231AF40A961197FBCF8193919317
:10218000CD011A9519F0A281B381F3CF8193919378
:1021900028853F814E8153E080E0FE01DE011A96E2
:1021A00003D0DF91CF910895AF93BF931D910D910F
:1021B0006D91DF016A930A931A93882319F0222301
:1021C00009F02A95652F752F770F7A950027A70FAD
:1021D000B01F1E91112319F411976A95D1F7662348
:1021E00011F4119663951296332321F4222309F0FA
:1021F00045C057C0222309F02A950027DF01351773
:1022000080F4732F770FA70FB01F1EE21E933617AF
:1022100010F0632F6395762F770FDF01A70FB01FA4
:102220002DC0A70FB01F1196732F7E5F271720F0C8
:10223000022F071B039501C00027202F002329F040
:10224000142F0E9477110A95F9CF732F751B652FF4
:10225000270F882329F0182F0E94771188272395AC
:102260002E5F10E30E9477111EE20E94771110E3A7
:102270007723B9F00E9477117A95FACF621710F0A0
:1022800022270FC0261B022F55FA36F468A16017CB
:1022900008F4061B601B68A3142F0E9477110A958F
:1022A000D9F755FA1EF468A1662381F0882319F046
:1022B000182F0E9477111E91112311F00E9477119F
:1022C0001E9110630E9477116A95A9F754FA36F4AB
:1022D00018A1112319F01EE20E947711BF91AF914E
:1022E00018811D9319811D931A811D930895EF93F1
:1022F000FF9343FAAEF01F93E981FA81188111230D
:1023000031F41F91689441F8FF91EF9108951A9567
:1023100018831F911193FA83E983FF91EF91089538
:10232000E881F9811F930F932F933F93AF93BF934E
:102330006F937F934F935F938F939F9309959F9193
:102340008F915F914F917F916F91BF91AF913F912D
:102350002F910F911F91FF91EF9108956F937F93AC
:10236000732F622F661F771F7F5738F47F916F910D
:10237000112700273327222708952068632F33274A
:10238000783148F47751719571F036952795179506
:1023900007957A95F9CF775131F0000F111F221F61
:1023A000331F7A95F9CF67FF08C0015010402040D5
:1023B000304000951095309520957F916F9108954C
:1023C0003F3C28F030E8222711270027089537FDE9
:1023D00007C03F3428F03FE72FEF1FEF0FEF0895BE
:1023E00037FFBCCF3F770E94AE1101501040204014
:1023F000304020953095109500950895432F4F2338
:10240000407837FF03C03F7747FF12C0F7FF03C094
:10241000FF7747FF15C03F1758F091F42E1740F093
:1024200079F41B1728F061F40A1710F049F40BC077
:1024300047FD08C042FA16F08D019F01539503C075
:1024400047FDF8CF5A95342B0895332339F42223CE
:1024500029F4112319F4002309F40895AA2745FE4D
:102460000CC0A32FA078332342F401501040204029
:1024700030402095309510950095B6E9332331F022
:102480003695279517950795B395F8CF27FD06C084
:10249000000F111F221F331FBA95F8CF2F773B2F44
:1024A000369508F420683A2B0895D801F9011F9158
:1024B0000F917F916F915F914F910F931F93FF2326
:1024C00011F0772329F400271127222733270895B5
:1024D0003F2F37273078EE1FFF1F0894E795661FC0
:1024E000771F089467951127F70F111FFF571040AA
:1024F000112311F4FF3F40F0689441F830783E67B3
:102500002FEF0FEF1FEF0895F13038F43327222714
:1025100000271127689441F808953F93FF93FF2700
:102520007727992788271124002476956795579552
:10253000479510E220F48A0F9B1F0E1E1F1E179452
:1025400007949795879577956795579547951A9529
:1025500089F727E11694079497958795779567955E
:10256000579547952A95B1F7042F152F262F372F0A
:10257000BF910F90332329F036952795179507952E
:10258000B395302D221FB69527953B2B0895D80182
:10259000F9011F910F917F916F915F914F910F936F
:1025A0001F931F2F1F77072F0F77011790F041F40C
:1025B0006E1778F029F45B1760F011F44A1748F0B1
:1025C0008A019B015B2F4A2F7F2F6E2FD801F901C3
:1025D00002C08D019F012F7720683327F7FF08C0C5
:1025E00001501040204030402095309510950095C6
:1025F0001F939F2F8E2F881F991F872F062E001C39
:10260000881F152E042E262E10E8212A3324192F78
:10261000181B112329F02694179407941A95FACFC2
:10262000172F402D512D622D732D17FF08C04150DB
:1026300050406040704040955095709560951F9156
:10264000040F151F261F371F37FF0AC0F0680150FF
:10265000104020403040209530951095009501C0E5
:10266000FF77832F8F7779F0369527951795079504
:10267000939549F41FEF0FEF2FEF3FE7F7FD306819
:10268000689441F8089527FD08C0992331F0000FA0
:10269000111F221F331F9A95F6CF392F9927369590
:1026A000332331F097952F77292BF7FD3068089564
:1026B00022271127002708955F93B801C901AFE7CA
:1026C000B6E9E8E1FBE4689442F855270E94FE1160
:1026D0008B019C015523DAF0D1F0A0E0B4E2E4E7ED
:1026E000F9E455270E94FE115523CAF0C1F05F910D
:1026F0005A955F93A0E0B0E0E0E2F1E4462F572F57
:10270000682F792FE89441F80E945F12D6CF5F912D
:1027100053955F93ADECBCECECECFDE3EFCF5F9138
:102720000895E991A991B991099119912991399146
:10273000CF93DF9371E160E36A937A95E9F7002420
:102740000882BE87AF87E88BE89441F8732F7F77C4
:102750007723B9F41F850EE2153459F41FEF1F8754
:1027600010E328D115E426D110E324D12FEF3E85C4
:10277000B3C010E31FD11EE21DD110E31BD10BD15A
:10278000ABC0FF85F53429F0AB1718F0BA2FB3951D
:10279000BE87552733232AF43F771F931DE20AD1C2
:1027A0001F918ADF5F936F937F938F939F9300E0D6
:1027B00010E020E03FE34F85AE85585F5830FCF4D1
:1027C0005B3FECF04534D9F0AA2309F4451BA52F53
:1027D00059E0541B5A1B9AF019F450955F870FC0AB
:1027E0005A9569F05F93A801B901A0E0B0E0E0E27A
:1027F000F1E4E89441F80E945F125F91F1CFE89410
:1028000041F80E94C7125F9157DF5F93B801C90179
:10281000221F331F8068315831953B5E04C0869576
:10282000779567953A95D9F7BF91A1E04F854534E3
:1028300029F4B85F2B2F0AF4219509C027E0B85F6F
:10284000B8302CF4BB3F1CF0BA95AB2FB2E0B250BD
:10285000AA2309F05AF410E3ADD01EE2ABD0AA23AC
:1028600029F010E3A7D02A95A395D9F7E8EFF9E26C
:102870003327059114913196C8953296601B710BE0
:10288000800910F03395FACF600F711F801D3A3028
:1028900014F031E0B39510E3130F8CD0AA9511F426
:1028A0001EE288D02A950AF019F775D0BB23A1F053
:1028B0001FEF1F8715E47ED0BB231AF4B1951DE2EC
:1028C00079D00AE01B2F0E94EC14112311F0106341
:1028D00071D0102F10636ED0FF91EF91DE012F8524
:1028E0003E852397008108830181098302810A8341
:1028F0002F3F41F1332331F1222319F43FD05C9370
:1029000021C03CD04C91321B3A95351B31F028F058
:102910001B890E9477113A95E1F75C9328D01EE25B
:102920000E9477111196451B4A9531F01D910E9426
:1029300077112A9589F0F8CF10E30E9477112A9534
:10294000D9F70AC00C91301B31F028F01B890E9486
:1029500077113A95E1F70BD0088100830981018353
:102960000A810283EF93FF93DF91CF9108950D9138
:102970001D910E9477110A95D9F70895AF93BF93DF
:1029800055270D911D911E3219F053950A95D1F7D7
:10299000BF91AF910895E8811E2FE395FF27EC0FBB
:1029A000FD1F1A9502910033E1F30E3209F01395E1
:1029B00018830895EF93FF93E881E395E883FF2759
:1029C000EC0FFD1F1083FF91EF9108953F912F9120
:1029D000012F1F912F933F93332729E0111F2A9531
:1029E00011F4032F0895331F301B18F4300F88940F
:1029F000F5CF0894F3CF189540420F00A086010050
:102A000010270000E8030000640000000A00000036
:102A1000010000000C4752424C20444953504C41A5
:102A2000590C627920434D20372F32303136064918
:102A3000646C65202006416C61726D2106202020A7
:102A400020202006436865636B2006486F6D654350
:102A5000200652756E20202006486F6C64202006E8
:102A60004A6F67202020074E6F5265737021072040
:102A700020202020202004204F4E2004204F4646B6
:102A80000E486F6D65204379636C652052756E0D3D
:102A9000416C61726D20436C65617265640A5820F7
:102AA0005A65726F205365740A59205A65726F20F7
:102AB0005365740A5A205A65726F205365740A432D
:102AC000205A65726F205365740C416C6C205A65F6
:102AD000726F205365740946656564202B3130257B
:102AE0000946656564202D3130250A466C6F6F6498
:102AF00020436F6F6C094D69737420436F6F6C09CD
:102B000041544320436C616D700A41555831205245
:102B1000656C61790A415558322052656C61790AB9
:102B2000415558332052656C61790C5370696E645D
:102B30006C65202B3130250C5370696E646C6520F8
:102B40002D3130250B5859205A65726F205365740A
:102B50000D4469616C20582053656C6563740D44A5
:102B600069616C20592053656C6563740D4469611B
:102B70006C205A2053656C6563740D4469616C2048
:102B8000432053656C656374094469616C20466138
:102B90007374085370696E646C65200C582C59204E
:102BA0005A65726F205365740D46756E63204469D3
:102BB0007361626C656403584D2C042C58572C03C8
:102BC000594D2C042C59572C035A4D2C042C5A5770
:082BD0002C02532C032C422CB3
:100000000C94650D0C94FB140C94FB140C94FB14D1
:100010000C94FB140C94FB140C94FB140C94FB1424
:100020000C94FB140C94FB140C94FB140C94FB1414
:100030000C94FB140C94FB140C94FB140C94FB1404
:100040000C943C0E0C94CF0E0C94A00E0C946E0EDF
:00000001FF
