:10006800E89447F81EB5A12E1FEF1093AA0110912E
:10007800A801112311F40C947B001E2D183010E0F8
:1000880009F41FEF112311F40C944F001A2D10934B
:100098000E020C947A001E2D193010E009F41FEF9F
:1000A800112311F40C9468001A2D109310021FEFFD
:1000B8001093A90110E01093A80110E0E12E10910F
:1000C8000D021EBD0C947A00EDEAF1E0EF93FF9368
:1000D8001091AB011F931E2D0F91100F012F1127A7
:1000E800FF91EF91E00FF11F1A2D1193E3941A2D50
:1000F80014301FEF08F011271F931B2D153510E042
:1001080009F41FEF0F9110231F931C2D1A3A10E0CA
:1001180009F41FEF0F9110231F931D2D1F3F10E0AF
:1001280009F41FEF0F911023112311F40C94AB0065
:100138001FEF1093A80110E01093A90110E0E12E21
:100148001A2D110F110F110F110F1093AB011C2D48
:10015800D12E1B2DC12E1A2DB12E689447F8089563
:1001680010E014B91FEF15B910E017B91FEF18B94F
:1001780016EE1AB91FE11BB910EC1CBD10E01DBD2D
:100188005A9ACF93DF9310E01A931FE11A931FE155
:100198001A931FE11A931FE11A931FE11A931FE1A3
:1001A8001A931FE11A9310E01A930E941210DF911C
:1001B800CF91CF93DF9311E01A931FE11A9318E1BF
:1001C8001A9318E11A9318E11A9318E11A9318E18F
:1001D8001A931FE11A9310E01A930E941210DF91EC
:1001E800CF91CF93DF9312E01A9310E11A9310E1A5
:1001F8001A9310E11A9310E11A9310E11A9310E17F
:100208001A9310E11A9310E01A930E941210DF91CA
:10021800CF91CF93DF9313E01A9310E01A9314E071
:100228001A9314E01A931EE01A931EE01A931FE122
:100238001A931FE11A9310E01A930E941210DF918B
:10024800CF91CF93DF9314E01A931FE11A931FE124
:100258001A931EE01A931EE01A9314E01A9314E0FE
:100268001A9310E01A9310E01A930E941210DF916B
:10027800CF91CF93DF9315E01A9310E11A9318E109
:100288001A931CE11A931EE11A931CE11A9318E1C0
:100298001A9310E11A9310E01A930E941210DF913A
:1002A800CF91CF93DF9316E01A9311E01A9313E0DE
:1002B8001A9317E01A931FE01A9317E01A9313E0A2
:1002C8001A9311E01A9310E01A930E941210DF910A
:1002D800CF91CF93DF9317E01A931FE11A9310E0A1
:1002E8001A9310E01A9310E01A9310E01A9310E092
:1002F8001A931FE11A9310E01A930E941210DF91CB
:10030800CF9110E01F9310E01F930E94BC0F1FEFC6
:1003180010939C02CF93DF9310E01A9310E01A9386
:100328000E94CC0FDF91CF91CF93DF9318E0412A41
:100338000EEE1EE01A930A93EEE2FAE20E94911082
:10034800DF91CF91CF93DF9310E01A9311E01A93C6
:100358000E94CC0FDF91CF91CF93DF9318E0412A11
:100368000EEE1EE01A930A93EBE3FAE20E94911054
:10037800DF91CF9110E8412A789413E008EE0E94AB
:1003880072100E94E20F5A98089510919C0211234E
:1003980011F40C94480310919202112311F40C9457
:1003A800F301CF93DF9310E01A9310E01A930E94A1
:1003B800CC0FDF91CF9118E50E94EE0ECF93DF931B
:1003C80018E0412A0EEE1EE01A930A93E2E1F2E0E9
:1003D8000E949A10DF91CF9110E20E94EE0E1091C8
:1003E8009302112311F40C941702CF93DF9310E0BA
:1003F8001A9311E01A930E94CC0FDF91CF9119E55F
:100408000E94EE0ECF93DF9318E0412A0EEE1EE015
:100418001A930A93E2E2F2E00E949A10DF91CF91D8
:1004280010E20E94EE0E10919602112311F40C9422
:100438003802CF93DF9319E01A9310E01A930E94C1
:10044800CC0FDF91CF9113E40E94EE0ECF93DF9390
:1004580018E0412A0EEE1EE01A930A93E2E4F2E055
:100468000E949A10DF91CF9110919402112311F4F8
:100478000C945902CF93DF9319E01A9310E01A9362
:100488000E94CC0FDF91CF911AE50E94EE0ECF9318
:10049800DF9318E0412A0EEE1EE01A930A93E2E376
:1004A800F2E00E949A10DF91CF91CF93DF931FE083
:1004B8001A9311E01A930E94CC0FDF91CF911091FB
:1004C8000E02103810E008F01FEF112311F40C94FD
:1004D80072021AE20E94EE0E0C94750210E20E945B
:1004E800EE0ECF93DF9319E01A9311E01A930E944E
:1004F800CC0FDF91CF9110910E021F77103011F0C1
:100508000C949602CF93DF9318E0412A0EEE1EE07A
:100518001A930A93E8E4FAE20E949110DF91CF91CE
:100528000C944803113011F00C94C00210919802F9
:10053800112311F40C94B002CF93DF9318E0412AF1
:100548000EEE1EE01A930A93EFE4FAE20E9491106D
:10055800DF91CF910C94BE02CF93DF9318E0412A2C
:100568000EEE1EE01A930A93E6E5FAE20E94911055
:10057800DF91CF910C944803123011F00C94D402FF
:10058800CF93DF9318E0412A0EEE1EE01A930A93E8
:10059800EDE5FAE20E949110DF91CF910C944803A7
:1005A800143011F00C94E802CF93DF9318E0412A3D
:1005B8000EEE1EE01A930A93E4E6FAE20E94911006
:1005C800DF91CF910C944803183011F00C94FC0281
:1005D800CF93DF9318E0412A0EEE1EE01A930A9398
:1005E800EBE6FAE20E949110DF91CF910C94480358
:1005F800103111F00C941003CF93DF9318E0412AC7
:100608000EEE1EE01A930A93E2E7FAE20E949110B6
:10061800DF91CF910C944803103211F00C9424030D
:10062800CF93DF9318E0412A0EEE1EE01A930A9347
:10063800E9E7FAE20E949110DF91CF910C94480308
:1006480010919802112311F40C943A03CF93DF937D
:1006580018E0412A0EEE1EE01A930A93E0E8FAE247
:100668000E949110DF91CF910C944803CF93DF93B0
:1006780018E0412A0EEE1EE01A930A93E8E8FAE21F
:100688000E949110DF91CF91089518811170113057
:1006980010E009F41FEF112311F40C946303CF93B6
:1006A800DF9318E0412A0EEE1EE01A930A93E0E960
:1006B800FAE20E949110DF91CF910C947103CF93CD
:1006C800DF9318E0412A0EEE1EE01A930A93E5E93B
:1006D800FAE20E949110DF91CF91089510911002D3
:1006E800103010E011F008F01FEF1F931091100266
:1006F80014361FEF08F011270F911023112311F45E
:100708000C945606CF93DF9310E01A9311E01A93D6
:100718000E94CC0FDF91CF910E94E50F109110023B
:10072800113011F00C94AC03CF93DF9318E0412AF9
:100738000EEE1EE01A930A93EAE9FAE20E9491107B
:10074800DF91CF9113E008EE0E9472100C942B06F3
:10075800123011F00C94C403CF93DF9318E0412AB0
:100768000EEE1EE01A930A93E9EAFAE20E9491104B
:10077800DF91CF9113E008EE0E9472100C942B06C3
:10078800133011F00C94D803CF93DF9318E0412A6B
:100798000EEE1EE01A930A93E7EBFAE20E9491101C
:1007A800DF91CF910C942B06143011F00C94EC03CC
:1007B800CF93DF9318E0412A0EEE1EE01A930A93B6
:1007C800E2ECFAE20E949110DF91CF910C942B0693
:1007D800153011F00C940004CF93DF9318E0412AF0
:1007E8000EEE1EE01A930A93EDECFAE20E949110C5
:1007F800DF91CF910C942B06163011F00C94140451
:10080800CF93DF9318E0412A0EEE1EE01A930A9365
:10081800E8EDFAE20E949110DF91CF910C942B063B
:10082800173011F00C942804CF93DF9318E0412A75
:100838000EEE1EE01A930A93E3EEFAE20E9491107C
:10084800DF91CF910C942B06183011F00C943C04D6
:10085800CF93DF9318E0412A0EEE1EE01A930A9315
:10086800E0EFFAE20E949110DF91CF910C942B06F1
:10087800193011F00C945004CF93DF9318E0412AFB
:100888000EEE1EE01A930A93EAEFFAE20E94911024
:10089800DF91CF910C942B061A3011F00C9456046A
:1008A8000C945A041B3011F00C947304CF93DF930B
:1008B80018E0412A0EEE1EE01A930A93E4E0FBE2E8
:1008C8000E949110DF91CF91CF93DF931091100286
:1008D8001A930E944903DF91CF910C942B061C3088
:1008E80011F00C9479040C947D041D3011F00C94D3
:1008F8009604CF93DF9318E0412A0EEE1EE01A9378
:100908000A93EFE0FBE20E949110DF91CF91CF9321
:10091800DF93109110021A930E944903DF91CF913F
:100928000C942B061E3011F00C949C040C94A0041B
:100938001F3011F00C94B904CF93DF9318E0412ACB
:100948000EEE1EE01A930A93E9E1FBE20E94911071
:10095800DF91CF91CF93DF93109110021A930E94E9
:100968004903DF91CF910C942B06103111F00C94B0
:10097800BF040C94C304113111F00C94DC04CF9320
:10098800DF9318E0412A0EEE1EE01A930A93E3E281
:10099800FBE20E949110DF91CF91CF93DF931091EA
:1009A80010021A930E944903DF91CF910C942B06F1
:1009B800123111F00C94E2040C94E604133111F096
:1009C8000C94FF04CF93DF9318E0412A0EEE1EE04B
:1009D8001A930A93EEE2FBE20E949110DF91CF9105
:1009E800CF93DF93109110021A930E944903DF916D
:1009F800CF910C942B06143111F00C9405050C942E
:100A08000905153111F00C942205CF93DF9318E0F6
:100A1800412A0EEE1EE01A930A93E9E3FBE20E94D4
:100A28009110DF91CF91CF93DF93109110021A9319
:100A38000E944903DF91CF910C942B06163111F0D7
:100A48000C943605CF93DF9318E0412A0EEE1EE092
:100A58001A930A93E4E4FBE20E949110DF91CF918C
:100A68000C942B06173111F00C944A05CF93DF93A1
:100A780018E0412A0EEE1EE01A930A93E1E5FBE224
:100A88000E949110DF91CF910C942B06183111F030
:100A98000C945E05CF93DF9318E0412A0EEE1EE01A
:100AA8001A930A93EEE5FBE20E949110DF91CF9131
:100AB8000C942B06193111F00C947205CF93DF9327
:100AC80018E0412A0EEE1EE01A930A93EAE6FBE2CA
:100AD8000E949110DF91CF910C942B061A3111F0DE
:100AE8000C948605CF93DF9318E0412A0EEE1EE0A2
:100AF8001A930A93E8E7FBE20E949110DF91CF91E5
:100B08000C942B061B3111F00C949A05CF93DF93AC
:100B180018E0412A0EEE1EE01A930A93E6E8FBE27B
:100B28000E949110DF91CF910C942B061C3111F08B
:100B38000C94AE05CF93DF9318E0412A0EEE1EE029
:100B48001A930A93E4E9FBE20E949110DF91CF9196
:100B58000C942B061E3111F00C94B4050C94B805B6
:100B68001F3111F00C94D105CF93DF9318E0412A7F
:100B78000EEE1EE01A930A93E2EAFBE20E9491103D
:100B8800DF91CF91CF93DF93109110021A930E94B7
:100B98004903DF91CF910C942B06103211F00C947D
:100BA800D7050C94DB05113211F00C94F405CF93A2
:100BB800DF9318E0412A0EEE1EE01A930A93ECEA3E
:100BC800FBE20E949110DF91CF91CF93DF931091B8
:100BD80010021A930E944903DF91CF910C942B06BF
:100BE800123211F00C940806CF93DF9318E0412AD3
:100BF8000EEE1EE01A930A93E5EBFBE20E949110B9
:100C0800DF91CF910C942B06133210F40C94150637
:100C1800123619F010F00C9415060C9456060C9424
:100C28002B06133611F00C942906CF93DF9318E0A6
:100C3800412A0EEE1EE01A930A93E2ECFBE20E94B0
:100C48009110DF91CF910C942B060C94560612E06C
:100C58000EEE0E9472100FE017E220E030E00093E1
:100C6800F1011093F2012093F3013093F4010FE0A6
:100C780017E220E030E00093F9011093FA01209385
:100C8800FB013093FC010FE017E220E030E0009315
:100C980001021093020220930302309304021FE71B
:100CA80010930F0208951FEF00919F02002309F08F
:100CB8001095112311F40C94710610919802109557
:100CC8001093980212E310939F021FEF109395025E
:100CD8001FEF0C9474060C94740610E00C947406C0
:100CE80008951FE710930F020E94B40019E11093B2
:100CF8009E020FE017E220E030E00093F10110932C
:100D0800F2012093F3013093F4010FE017E220E0A1
:100D180030E00093F9011093FA012093FB0130931E
:100D2800FC010FE017E220E030E00093010210938D
:100D3800020220930302309304021FE710930F026C
:100D48000E944910112311F40C94AE060E942C1035
:100D58001093AC011FEF00919D02002309F010953C
:100D6800112311F40C94B9065A980E9457061123BE
:100D780011F40C94C1060E94C9011091AA011F9395
:100D88001091A9010F9110231F931FEF00919E024C
:100D9800002309F010950F91102B112311F40C94D6
:100DA800A4061FEF00919E02002309F0109511235D
:100DB80011F40C94F9061FEF109392021FEF109391
:100DC8009302109197021093960210919702109532
:100DD8001093940210E0109399021FEF109395025C
:100DE8001FE710930E020C94E2070091B1011091D5
:100DF800B2012091B3013091B4010F931F932F9347
:100E08003F930091F1011091F2012091F30130918B
:100E1800F401D801F9013F912F911F910F9140E8FA
:100E2800F42734273F1729F42E1719F41B1709F450
:100E38000A1710E009F01FEF109392020091C10108
:100E48001091C2012091C3013091C4010F931F93E7
:100E58002F933F930091F9011091FA012091FB0122
:100E68003091FC01D801F9013F912F911F910F9109
:100E780040E8F42734273F1729F42E1719F41B17D5
:100E880009F40A1710E009F01FEF1093930200917C
:100E9800D1011091D2012091D3013091D4010F9347
:100EA8001F932F933F93009101021091020220910A
:100EB800030230910402D801F9013F912F911F914B
:100EC8000F9140E8F42734273F1729F42E1719F417
:100ED8001B1709F40A1710E009F01FEF109394028A
:100EE800109194021095112311F40C94B0070091FD
:100EF800E1011091E2012091E3013091E4010F93A7
:100F08001F932F933F930091090210910A02209199
:100F18000B0230910C02D801F9013F912F911F91DA
:100F28000F9140E8F42734273F1729F42E1719F4B6
:100F38001B1709F40A1710E009F01FEF1093960227
:100F480010919602112311F40C94B0071FEF10931F
:100F5800970214E61093A0020E9457061F9310915F
:100F68000E021F9310910F020F91011710E009F064
:100F78001FEF0F91102B112311F40C94CF071FEFC3
:100F8800109395021FEF109392021FEF1093930294
:100F98001FEF10939402109192021F9310919302E5
:100FA8000F91102B1F93109194020F91102B1F93E8
:100FB800109196020F91102B1093990214E610933A
:100FC8009E021FEF0091A002002309F01095112343
:100FD80011F40C94FB0710919702112311F40C944F
:100FE800F8071FEF1093940210E01093970215E092
:100FF80010939D0211275A991FEF1095E894112319
:1010080009F068941BB112F91BB910E01093A901FB
:1010180010919202112311F40C944A090091B10124
:101028001091B2012091B3013091B401E89441F8D4
:101038003F770F931F932F933F930AE017ED23E217
:101048003CE3FF91EF91BF91AF91689442F8552727
:101058000E940E12552339F00AF41AF098948894D5
:1010680002C0989408941FEF08F01127112311F477
:101078000C944C0800E010E020E030E00093B1014F
:101088001093B2012093B3013093B4010C94B908C2
:101098000091B1011091B2012091B3013091B401D6
:1010A8000F931F932F933F930AE919EF29E734E42D
:1010B800FF91EF91BF91AF91689442F855270E9434
:1010C8000E12552339F00AF41AF09894889402C045
:1010D8009894089410E011F008F01FEF112311F410
:1010E8000C9484080AE919EF29E734E40093B10164
:1010F8001093B2012093B3013093B4010C94B90852
:101108000091B1011091B2012091B3013091B40165
:101118000F931F932F933F930AE919EF29E734ECB4
:10112800FF91EF91BF91AF91689442F855270E94C3
:101138000E12552339F00AF41AF09894889402C0D4
:10114800989408941FEF08F01127112311F40C94B8
:10115800B9080AE919EF29E734EC0093B1011093B3
:10116800B2012093B3013093B401E2E1F2E0EF93CE
:10117800FF933196FA93EA931FE01A9317EF4122EF
:101188001FEB41220091B1011091B2012091B301EE
:101198003091B4013A932A931A930A9317E01A9359
:1011A80012E01A9310E21A930E94A1131FE01F93F2
:1011B80018810F91011B102FFF91EF911083239637
:1011C800E2E1F2E017E01193CF93DF9318E0412AB0
:1011D80000E510E11A930A93E0EDFBE20E949110FA
:1011E800DF91CF91CF93DF9318E0412A00E510E11A
:1011F8001A930A930091AD011091AE012091AF01AD
:101208003091B0013A932A931A930A9313E01A93F0
:1012180012E01A9310E21A93689443F80E94A113FB
:10122800DF91CF91CF93DF9318E0412A00E510E1D9
:101238001A930A93E4EDFBE20E949110DF91CF919B
:10124800CF93DF9318E0412A00E510E11A930A933F
:10125800E2E1F2E00E949A10DF91CF911DE00E9436
:1012680050100E94C9010091B1011091B201209162
:10127800B3013091B4010093F1011093F20120936E
:10128800F3013093F40110E010939202109193024D
:10129800112311F40C94880A0091C1011091C20124
:1012A8002091C3013091C401E89441F83F770F932E
:1012B8001F932F933F930AE017ED23E23CE3FF913E
:1012C800EF91BF91AF91689442F855270E940E1292
:1012D800552339F00AF41AF09894889402C0989427
:1012E80008941FEF08F01127112311F40C948A09B0
:1012F80000E010E020E030E00093C1011093C2014B
:101308002093C3013093C4010C94F7090091C101E3
:101318001091C2012091C3013091C4010F931F9312
:101328002F933F930AE919EF29E734E4FF91EF91EE
:10133800BF91AF91689442F855270E940E12552329
:1013480039F00AF41AF09894889402C09894089492
:1013580010E011F008F01FEF112311F40C94C209EA
:101368000AE919EF29E734E40093C1011093C20197
:101378002093C3013093C4010C94F7090091C10173
:101388001091C2012091C3013091C4010F931F93A2
:101398002F933F930AE919EF29E734ECFF91EF9176
:1013A800BF91AF91689442F855270E940E125523B9
:1013B80039F00AF41AF09894889402C09894089422
:1013C8001FEF08F01127112311F40C94F7090AE90B
:1013D80019EF29E734EC0093C1011093C20120935F
:1013E800C3013093C401E2E2F2E0EF93FF93319638
:1013F800FA93EA931FE01A9317EF41221FEB412259
:101408000091C1011091C2012091C3013091C40122
:101418003A932A931A930A9317E01A9312E01A93AD
:1014280010E21A930E94A1131FE01F9318810F91D5
:10143800011B102FFF91EF9110832396E2E2F2E057
:1014480017E01193CF93DF9318E0412A00E510E1EC
:101458001A930A93E9EDFBE20E949110DF91CF9174
:10146800CF93DF9318E0412A00E510E11A930A931D
:101478000091BD011091BE012091BF013091C001C2
:101488003A932A931A930A9313E01A9312E01A9341
:1014980010E21A93689443F80E94A113DF91CF9148
:1014A800CF93DF9318E0412A00E510E11A930A93DD
:1014B800EDEDFBE20E949110DF91CF91CF93DF9386
:1014C80018E0412A00E510E11A930A93E2E2F2E0FB
:1014D8000E949A10DF91CF911DE00E9450100E9447
:1014E800C9010091C1011091C2012091C30130913D
:1014F800C4010093F9011093FA012093FB01309382
:10150800FC0110E01093930210919402112311F43E
:101518000C94C60B0091D1011091D2012091D301F6
:101528003091D401E89441F83F770F931F932F939C
:101538003F930AE017ED23E23CE3FF91EF91BF915F
:10154800AF91689442F855270E940E12552339F03E
:101558000AF41AF09894889402C0989408941FEF9B
:1015680008F01127112311F40C94C80A00E010E0C8
:1015780020E030E00093D1011093D2012093D301F1
:101588003093D4010C94350B0091D1011091D20104
:101598002091D3013091D4010F931F932F933F9340
:1015A8000DEC1CEC27EC32E4FF91EF91BF91AF9169
:1015B800689442F855270E940E12552339F00AF410
:1015C8001AF09894889402C09894089410E011F046
:1015D80008F01FEF112311F40C94000B0DEC1CEC18
:1015E80027EC32E40093D1011093D2012093D30168
:1015F8003093D4010C94350B0091D1011091D20194
:101608002091D3013091D4010F931F932F933F93CF
:101618000DEC1CEC27EC32ECFF91EF91BF91AF91F0
:10162800689442F855270E940E12552339F00AF49F
:101638001AF09894889402C0989408941FEF08F0C0
:101648001127112311F40C94350B0DEC1CEC27EC2D
:1016580032EC0093D1011093D2012093D30130933F
:10166800D401E2E3F2E0EF93FF933196FA93EA9321
:101678001FE01A9317EF41221FEB41220091D1017D
:101688001091D2012091D3013091D4013A932A9339
:101698001A930A9316E01A9312E01A9310E21A9317
:1016A8000E94A1131FE01F9318810F91011B102F97
:1016B800FF91EF9110832396E2E3F2E016E0119395
:1016C800CF93DF9318E0412A00E510E11A930A93BB
:1016D800E2EEFBE20E949110DF91CF91CF93DF936E
:1016E80018E0412A00E510E11A930A930091CD0110
:1016F8001091CE012091CF013091D0013A932A93D5
:101708001A930A9313E01A9312E01A9310E21A93A9
:10171800689443F80E94A113DF91CF91CF93DF9390
:1017280018E0412A00E510E11A930A93E6EEFBE27D
:101738000E949110DF91CF91CF93DF9318E0412A57
:1017480000E510E11A930A93E2E3F2E00E949A108E
:10175800DF91CF911DE00E9450100E94C9010091B5
:10176800D1011091D2012091D3013091D40100937D
:10177800010210930202209303023093040210E046
:101788001093940210919602112311F40C94040DF5
:101798000091E1011091E2012091E3013091E4010F
:1017A800E89441F83F770F931F932F933F930AE0F4
:1017B80017ED23E23CE3FF91EF91BF91AF9168945D
:1017C80042F855270E940E12552339F00AF41AF0F0
:1017D8009894889402C0989408941FEF08F01127F1
:1017E800112311F40C94060C00E010E020E030E026
:1017F8000093E1011093E2012093E3013093E401A7
:101808000C94730C0091E1011091E2012091E30125
:101818003091E4010F931F932F933F930AE919EF37
:1018280029E734E4FF91EF91BF91AF91689442F8B2
:1018380055270E940E12552339F00AF41AF098948D
:10184800889402C09894089410E011F008F01FEFF3
:10185800112311F40C943E0C0AE919EF29E734E43A
:101868000093E1011093E2012093E3013093E40136
:101878000C94730C0091E1011091E2012091E301B5
:101888003091E4010F931F932F933F930AE919EFC7
:1018980029E734ECFF91EF91BF91AF91689442F83A
:1018A80055270E940E12552339F00AF41AF098941D
:1018B800889402C0989408941FEF08F01127112308
:1018C80011F40C94730C0AE919EF29E734EC00932E
:1018D800E1011093E2012093E3013093E401E2E493
:1018E800F2E0EF93FF933196FA93EA931FE01A938D
:1018F80017EF41221FEB41220091E1011091E20113
:101908002091E3013091E4013A932A931A930A93C0
:1019180016E01A9311E01A9310E21A930E94A11389
:101928001FE01F9318810F91011B102FFF91EF915A
:1019380010832396E2E4F2E016E01193CF93DF934D
:1019480018E0412A00E510E11A930A93E2EEFBE25F
:101958000E949110DF91CF91CF93DF9318E0412A35
:1019680000E510E11A930A930091DD011091DE0160
:101978002091DF013091E0013A932A931A930A9358
:1019880013E01A9312E01A9310E21A93689443F83A
:101998000E94A113DF91CF91CF93DF9318E0412AE2
:1019A80000E510E11A930A93E6EEFBE20E9491101B
:1019B800DF91CF91CF93DF9318E0412A00E510E142
:1019C8001A930A93E2E4F2E00E949A10DF91CF9111
:1019D8001DE00E9450100E94C9010091E101109180
:1019E800E2012091E3013091E40100930902109390
:1019F8000A0220930B0230930C0210E01093960217
:101A080010919502112311F40C94650DCF93DF9377
:101A180018E0412A00E510E11A930A93EBEEFBE285
:101A28000E949110DF91CF91CF93DF9318E0412A64
:101A380000E510E11A930A9310910E02CF93DF93F9
:101A48001A9310E01A9310E01A9310E21A9368940C
:101A580043F80E94A410DF91CF91DF91CF91CF93EB
:101A6800DF9318E0412A00E510E11A930A93EEEE9D
:101A7800FBE20E949110DF91CF91CF93DF9318E0A2
:101A8800412A00E510E11A930A9310911002CF93AE
:101A9800DF931A9310E01A9310E01A9310E21A9346
:101AA800689443F80E94A410DF91CF91DF91CF9101
:101AB8001DE00E9450100E94C90110910E0210935F
:101AC8000F0210911002103010E009F01FEF1123DF
:101AD80011F40C94710D0E9472030C94A40600007A
:101AE800FECFF89413E004E01EBF0DBF1127E0E11C
:101AF800F0E0A0E0B0E031960000319711F01D93BE
:101B0800FCCFA0E0B1E0E0E0F8E0319600003197CA
:101B180011F01D93FCCFC8E6D3E0F8941FE74122EB
:101B280014E61093000116BD15E015BD11E01093E1
:101B38006E0010912800107F109328001091270044
:101B48001F601093270020912B002F7120932B00EA
:101B580010912A00106E10932A0010912800107F0F
:101B680013601093280000E111270E9472102F7B48
:101B7800206820932B001F9310E31A95F1F71F910B
:101B88002F7720932B0005E011270E947210206800
:101B980020932B001F9310E31A95F1F71F912F77CD
:101BA80020932B0001E011270E94721020682093D7
:101BB8002B001F9310E31A95F1F71F912F772093AD
:101BC8002B0010912800107F12601093280001E06C
:101BD80011270E947210206820932B001F9310E396
:101BE8001A95F1F71F912F7720932B0001E0112709
:101BF8000E947210206820932B001F9310E31A95FF
:101C0800F1F71F912F7720932B0010912800107F58
:101C180018601093280001E011270E9472102068B4
:101C280020932B001F9310E31A95F1F71F912F773C
:101C380020932B001CE00E94FC0E11E00E94FC0E79
:101C480016E00E94FC0E18E11093C10013E31093F4
:101C5800C40010E01093C50010E010930101109328
:101C68000201109303011091C10010681093C10084
:101C780010E010932401109325011093260116E01B
:101C88001093C2001091C600442455240C94750684
:101C9800EF93FF930F931F931FB71F9310910001AA
:101CA80006B5100F16BD1FE7412210919D021123A2
:101CB80019F0115010939D0210919E02112319F0F2
:101CC800115010939E0210919F02112319F0115088
:101CD80010939F021091A002112319F01150109334
:101CE800A00210E8412A1F911FBF1F910F91FF9179
:101CF800EF911895EF93FF930F931F931FB71F93BF
:101D080010912601112331F41091C1001F7D109309
:101D1800C1001BC0009125011127E7E2F1E0E00FA7
:101D2800F11F10811093C600109126011A95109387
:101D3800260129F41091C1001F7D1093C10003955D
:101D4800003809F40027009325011F911FBF1F9138
:101D58000F91FF91EF911895EF93FF930F931F93B6
:101D68001FB71F9310910301103219F40091C60098
:101D78001BC01091C6001F93112700910101E4E0D8
:101D8800F1E0E00FF11F1F911083109103011395EB
:101D9800109303010395003209F400270093010111
:101DA8000091C00007FDDECF1F911FBF1F910F914B
:101DB800FF91EF911895EF93FF930F931F931FB720
:101DC8001F930E9434001F911FBF1F910F91FF9115
:101DD800EF9118951F9375D0109127001F601093ED
:101DE800270010912B001F71106210932B000CC05C
:101DF8001F9367D0109127001F6010932700109140
:101E08002B001F7110932B001F911F9312951F70A9
:101E180030E03AD000912800007F102B1093280062
:101E280000912B001F9310E31A95F1F71F9100689A
:101E380000932B001F9310E31A95F1F71F910F776A
:101E480000932B001F9310E31A95F1F71F911F9130
:101E58001F7030E019D030912800307F132B109379
:101E680028001F9310E31A95F1F71F9100912B009A
:101E7800006800932B001F9310E31A95F1F71F9148
:101E88000F7700932B000895332321F08894111FB6
:101E98003A95E9F7089515D010912700107F10930F
:101EA800270000912B000F71006600932B00E89427
:101EB80044F820C0332321F0889417953A95E9F720
:101EC8000895E0E8F2E0689444F802C0E89444F821
:101ED80010912700107F1093270020912B002F715D
:101EE80020932B001F9310E31A95F1F71F9120649C
:101EF80020932B001F9310E31A95F1F71F9120915F
:101F08002B00206820932B001F9310E31A95F1F7FC
:101F18001F91109126001F701F932F7720932B007D
:101F28001F9310E31A95F1F71F91206820932B0057
:101F38001F9310E31A95F1F71F91109126001F7057
:101F48002F7720932B0030E0B5DF012F1F9134E06D
:101F58009BDF102B44FA0EF00895319721F0111FE2
:101F680008F4C8CF08951FEF08951FEF0FEF06C0BC
:101F7800FF91EF911F910F91EF93FF93112311F4AC
:101F88001CE001C01DE0002309F0126031DF089554
:101F980018810981103011F410E80DC0113011F4C6
:101FA80010EC09C0123011F410E905C0133011F417
:101FB80010ED01C010E8100F1BDF089511E018DFC5
:101FC80008957FDF83DF10681F931F7000E1011BF6
:101FD8000F9310E2FFDE0F910A95D1F71F9108DFEA
:101FE8000895103011F410E80DC0113011F410EC00
:101FF80009C0123011F410E905C0133011F410EDC6
:1020080001C008951F93F4DE10E11F9310E2E2DE91
:102018001F911A95D1F71F91EBDE089518851F704F
:10202800110F110F110F1064E3DE1F81D3DE1E8123
:10203800D1DE1D81CFDE1C81CDDE1B81CBDE1A8176
:10204800C9DE1981C7DE1881C5DE10E8D1DE089522
:10205800109103011123E1F3009102011127E4E03B
:10206800F1E0E00FF11F1081F894E0910301EA9587
:10207800E093030147FC7894009102010395003234
:1020880009F4002700930201089511270091030124
:10209800002309F010950895009126010038E1F316
:1020A800F89400912401E7E2F1E0E00F0027F01F27
:1020B80010830091260103950093260100912401C5
:1020C8000395003809F40027009324010091C1000A
:1020D80000620093C10047FC78940895A801112775
:1020E8004117510749F00AE71CE001501040000071
:1020F800E1F741505040B9F70895112331F006E255
:102108000A950000E9F71A95D1F708952150304053
:1021180018F011911D93FACF0895B591BB2329F0BA
:1021280015910E948711BA95D9F708951191112335
:1021380031F0B12F11910E948711BA95D9F70895FE
:10214800CF93DF9326970985112798010F70229561
:102158002F70B901660F771F660F771FA801461BFE
:10216800570B4451504048835983A901440F551FC8
:10217800465250404A835B8344E04C831D83FE01F2
:1021880012E080819181A281B38199231AF40A9681
:102198001197FBCF81939193CD011A9519F0A281E4
:1021A800B381F3CF8193919328853F814E8153E08A
:1021B80080E0FE01DE011A9603D0DF91CF910895E9
:1021C800AF93BF931D910D916D91DF016A930A93AF
:1021D8001A93882319F0222309F02A95652F752F61
:1021E800770F7A950027A70FB01F1E91112319F4B6
:1021F80011976A95D1F7662311F411966395129693
:10220800332321F4222309F045C057C0222309F0C3
:102218002A950027DF01351780F4732F770FA70F52
:10222800B01F1EE21E93361710F0632F6395762FAA
:10223800770FDF01A70FB01F2DC0A70FB01F119692
:10224800732F7E5F271720F0022F071B039501C00D
:102258000027202F002329F0142F0E9487110A95A8
:10226800F9CF732F751B652F270F882329F0182F97
:102278000E948711882723952E5F10E30E948711FB
:102288001EE20E94871110E37723B9F00E9487119C
:102298007A95FACF621710F022270FC0261B022F5B
:1022A80055FA36F468A1601708F4061B601B68A38A
:1022B800142F0E9487110A95D9F755FA1EF468A1C0
:1022C800662381F0882319F0182F0E9487111E9128
:1022D800112311F00E9487111E9110630E9487112B
:1022E8006A95A9F754FA36F418A1112319F01EE2D9
:1022F8000E948711BF91AF9118811D9319811D9379
:102308001A811D930895EF93FF9343FAAEF01F933C
:10231800E981FA811881112331F41F91689441F8F9
:10232800FF91EF9108951A9518831F911193FA83DD
:10233800E983FF91EF910895E881F9811F930F9345
:102348002F933F93AF93BF936F937F934F935F9375
:102358008F939F9309959F918F915F914F917F9153
:102368006F91BF91AF913F912F910F911F91FF9165
:10237800EF9108956F937F93732F622F661F771FD6
:102388007F5738F47F916F91112700273327222731
:1023980008952068632F3327783148F47751719571
:1023A80071F036952795179507957A95F9CF775156
:1023B80031F0000F111F221F331F7A95F9CF67FFE5
:1023C80008C00150104020403040009510953095CD
:1023D80020957F916F9108953F3C28F030E822279F
:1023E80011270027089537FD07C03F3428F03FE73D
:1023F8002FEF1FEF0FEF089537FFBCCF3F770E94F5
:10240800BE11015010402040304020953095109565
:1024180000950895432F4F23407837FF03C03F7737
:1024280047FF12C0F7FF03C0FF7747FF15C03F17EC
:1024380058F091F42E1740F079F41B1728F061F446
:102448000A1710F049F40BC047FD08C042FA16F00D
:102458008D019F01539503C047FDF8CF5A95342B42
:102468000895332339F4222329F4112319F400237E
:1024780009F40895AA2745FE0CC0A32FA07833239A
:1024880042F401501040204030402095309510957E
:102498000095B6E9332331F03695279517950795BA
:1024A800B395F8CF27FD06C0000F111F221F331F59
:1024B800BA95F8CF2F773B2F369508F420683A2B3A
:1024C8000895D801F9011F910F917F916F915F9144
:1024D8004F910F931F93FF2311F0772329F40027BF
:1024E80011272227332708953F2F37273078EE1FEB
:1024F800FF1F0894E795661F771F089467951127B3
:10250800F70F111FFF571040112311F4FF3F40F040
:10251800689441F830783E672FEF0FEF1FEF08956A
:10252800F13038F43327222700271127689441F81F
:1025380008953F93FF93FF2777279927882711242A
:102548000024769567955795479510E220F48A0FF1
:102558009B1F0E1E1F1E17940794979587957795B6
:102568006795579547951A9589F727E11694079423
:102578009795879577956795579547952A95B1F7D4
:10258800042F152F262F372FBF910F90332329F0B3
:102598003695279517950795B395302D221FB69533
:1025A80027953B2B0895D801F9011F910F917F9131
:1025B8006F915F914F910F931F931F2F1F77072FD5
:1025C8000F77011790F041F46E1778F029F45B1734
:1025D80060F011F44A1748F08A019B015B2F4A2FDB
:1025E8007F2F6E2FD801F90102C08D019F012F772F
:1025F80020683327F7FF08C00150104020403040C2
:1026080020953095109500951F939F2F8E2F881F2A
:10261800991F872F062E001C881F152E042E262E84
:1026280010E8212A3324192F181B112329F0269486
:10263800179407941A95FACF172F402D512D622D14
:10264800732D17FF08C041505040604070404095BE
:102658005095709560951F91040F151F261F371F01
:1026680037FF0AC0F06801501040204030402095E4
:1026780030951095009501C0FF77832F8F7779F0FB
:102688003695279517950795939549F41FEF0FEF02
:102698002FEF3FE7F7FD3068689441F8089527FD6C
:1026A80008C0992331F0000F111F221F331F9A957C
:1026B800F6CF392F99273695332331F097952F7711
:1026C800292BF7FD30680895222711270027089540
:1026D8005F93B801C901AFE7B6E9E8E1FBE46894A4
:1026E80042F855270E940E128B019C015523DAF0FF
:1026F800D1F0A0E0B4E2E4E7F9E455270E940E1215
:102708005523CAF0C1F05F915A955F93A0E0B0E0FD
:10271800E0E2F1E4462F572F682F792FE89441F82B
:102728000E946F12D6CF5F9153955F93ADECBCECCE
:10273800ECECFDE3EFCF5F910895E991A991B99190
:102748000991199129913991CF93DF9371E160E350
:102758006A937A95E9F700240882BE87AF87E88BE9
:10276800E89441F8732F7F777723B9F41F850EE239
:10277800153459F41FEF1F8710E325D115E423D131
:1027880010E321D12FEF3E85B3C010E31CD11EE228
:102798001AD110E318D108D1ABC0FF85F53429F060
:1027A800AB1718F0BA2FB395BE87552733232AF4F1
:1027B8003F771F931DE207D11F918ADF5F936F93C5
:1027C8007F938F939F9300E010E020E03FE34F85D5
:1027D800AE85585F5830FCF45B3FECF04534D9F0D7
:1027E800AA2309F4451BA52F59E0541B5A1B9AF03C
:1027F80019F450955F870FC05A9569F05F93A80147
:10280800B901A0E0B0E0E0E2F1E4E89441F80E9408
:102818006F125F91F1CFE89441F80E94D7125F914F
:1028280057DF5F93B801C901221F331F80683158F1
:1028380031953B5E04C08695779567953A95D9F7AB
:10284800BF91A1E04F85453429F4B85F2B2F0AF4D6
:10285800219509C027E0B85FB8302CF4BB3F1CF0C5
:10286800BA95AB2FB2E0B250AA2309F05AF410E39C
:10287800AAD01EE2A8D0AA2329F010E3A4D02A9552
:10288800A395D9F7E2E1FAE233270591149131963D
:10289800C8953296601B710B800910F03395FACFFA
:1028A800600F711F801D3A3014F031E0B39510E3CA
:1028B800130F89D0AA9511F41EE285D02A950AF043
:1028C80019F772D0BB23A1F01FEF1F8715E47BD047
:1028D800BB231AF4B1951DE276D00AE01B2F0E94A3
:1028E800F914112311F010636ED0102F10636BD000
:1028F800FF91EF91DE012F853E85239700810883A4
:102908000181098302810A832F3F41F1332331F189
:10291800222319F43CD05C9321C039D04C91321B4E
:102928003A95351B31F028F01B890E9487113A959A
:10293800E1F75C9325D01EE20E9487111196451B92
:102948004A9531F01D910E9487112A9589F0F8CF98
:1029580010E30E9487112A95D9F70AC00C91301B01
:1029680031F028F01B890E9487113A95E1F708D0C9
:1029780008810083098101830A810283EF01089598
:102988000D911D910E9487110A95D9F70895AF936B
:10299800BF9355270D911D911E3219F053950A9535
:1029A800D1F7BF91AF910895E8811E2FE395FF27D6
:1029B800EC0FFD1F1A9502910033E1F30E3209F076
:1029C800139518830895EF93FF93E881E395E883BF
:1029D800FF27EC0FFD1F1083FF91EF9108953F91A2
:1029E8002F91012F1F912F933F93332729E0111F18
:1029F8002A9511F4032F0895331F301B18F4300F54
:102A08008894F5CF0894F3CF189540420F00A0861C
:102A1800010010270000E8030000640000000A001D
:102A28000000010000000C4752424C20444953501A
:102A38004C41590C627920434D20372F32303136C2
:102A48000649646C65202006416C61726D21062080
:102A5800202020202006436865636B2006486F6DA0
:102A68006543200652756E20202006486F6C64204E
:102A780020064A6F67202020074E6F526573702129
:102A8800072020202020202004204F4E2004204F03
:102A980046460E486F6D65204379636C6520527514
:102AA8006E0D416C61726D20436C65617265640ADC
:102AB80058205A65726F205365740A59205A6572F6
:102AC8006F205365740A5A205A65726F20536574D3
:102AD8000A43205A65726F205365740C416C6C2050
:102AE8005A65726F205365740946656564202B31F9
:102AF80030250946656564202D3130250A466C6FFE
:102B08006F6420436F6F6C094D69737420436F6F56
:102B18006C0941544320436C616D700A415558312A
:102B28002052656C61790A415558322052656C61B2
:102B3800790A415558332052656C61790C53706994
:102B48006E646C65202B3130250C5370696E646C93
:102B580065202D3130250B5859205A65726F205346
:102B680065740D4469616C20582053656C65637405
:102B78000D4469616C20592053656C6563740D447C
:102B880069616C205A2053656C6563740D446961F2
:102B98006C20432053656C656374094469616C203B
:102BA80046617374085370696E646C65200C582C08
:102BB80059205A65726F205365740D46756E6320EF
:102BC80044697361626C656403584D2C042C585732
:102BD8002C03594D2C042C59572C035A4D2C042CDA
:0A2BE8005A572C02532C032C422CE8
:100000000C94750D0C9408150C9408150C94081597
:100010000C9408150C9408150C9408150C940815EC
:100020000C9408150C9408150C9408150C940815DC
:100030000C9408150C9408150C9408150C940815CC
:100040000C944C0E0C94DF0E0C94B00E0C947E0E9F
:100050000C9408150C9408150C9408150C940815AC
:080060000C9408150C9408151E
:00000001FF
